:100000000C948B060C94AE1A0C94D2060C94D20667
:100010000C94D2060C94D2060C94D2060C94D20600
:100020000C94D2060C94D2060C947D2C0C94512D79
:100030000C94C0270C94D2060C94D2060C94D206D1
:100040000C94D2060C94D2060C94D2060C94D206D0
:100050000C94D2060C940B280C94D2060C94D20665
:100060000C94D2060C94D2060C94D2060C94D206B0
:100070000C94D2060C94D2060C94D2060C94D206A0
:100080000C94D2060C94D2060C94D2060C94D20690
:100090000C94D2060C94D2060C94D2060C94D20680
:1000A0000C94D2060C94D2060C94D20629001E00A1
:1000B000085D200021002200105D2B0014001A00B2
:1000C0000800150017000E5D155D040016000700FE
:1000D00009000A004C00E1001D001B000600190089
:1000E0000500E000E000E300E200E000185D2C0005
:1000F0002C00165D0D5D0C5D0B5D0A5D095D115DEB
:10010000125D130012000C0018001C000F5D145D3E
:10011000135D0F000E000D000B002A00E5003800F3
:1001200037003600100011004C004F005200510003
:10013000E300195D2A00280044003A003B003C001F
:100140003D003E002F0235021E0252002002210215
:1001500022022D022B00500051004F0021002200EE
:100160004C00E100230024002500260027002C007D
:10017000E000E300E200E000185D2C004C004500C8
:1001800043004200410040003F003002310227029C
:1001900026002500240023022E023402330223000D
:1001A000220021000B002A00E500380220001F0079
:1001B0001E00270028004D004B004E004A00195D2C
:1001C00028002A0044003A003B003C003D003E006D
:1001D0002F0235021E0252002002210222022D02AD
:1001E0002B00500051004F00210022004C00E10084
:1001F000230024002500260027002C00E000E30057
:10020000E200E000185D2C004C0045004300420075
:10021000410040003F0030028900270226022502EB
:10022000240223022E02340233020F000E000D00BE
:100230000B002A00E50038023702360210001100D8
:1002400028004D004B004E004A00195D28002A008E
:10025000000000000000000000000000000000009E
:10026000000000000000000000000000000000008E
:10027000000000000000000000000000000000007E
:10028000000000000000000000000000000000006E
:100960000000000000000000000000000100010085
:100970000100010001000100AC000100005CC25C4C
:10098000C35CC65CC55C010001000100BF5CC15CCA
:10099000BE5CBD5C0100010001000100010001001E
:1009A000010001000100010001000100010001003F
:1009B00001004600A900AA00A8000100AE00AB009B
:1009C00001000100C95CCA5CC75CC85C0100010091
:1009D000010001000100010001000100010001000F
:1009E00001000100010001000100010001000100FF
:1009F000010001000100010032190A00047F3F1FBD
:100A0000643214643214783C1E1E140A0522232515
:100A10002628292A2C2D2F3032333536383A3B3DC3
:100A20003E4042434547494A4C4E50515355575911
:100A30005A5C5E6062646668696B6D6F717375772E
:100A4000797B7D7F81838587898A8C8E909294962D
:100A5000989A9C9E9FA1A3A5A7A8AAACAEAFB1B33C
:100A6000B4B6B8B9BBBCBEBFC1C2C3C5C6C7C9CA8C
:100A7000CBCCCDCED0D1D2D2D3D4D5D6D7D7D8D94E
:100A8000D9DADADBDBDBDCDCDCDCDCDDDDDDDDDCAC
:100A9000DCDCDCDCDBDBDBDADAD9D9D8D7D7D6D5BE
:100AA000D4D3D2D2D1D0CECDCCCBCAC9C7C6C5C380
:100AB000C2C1BFBEBCBBB9B8B6B4B3B1AFAEACAACD
:100AC000A8A7A5A3A19F9E9C9A98969492908E8C7D
:100AD0008A89878583817F7D7B79777573716F6D57
:100AE0006B6968666462605E5C5A59575553515031
:100AF0004E4C4A4947454342403E3D3B3A383635E5
:100B00003332302F2D2C2A292826252322FFAA7F95
:100B10005540000102030405060708090A0B1716D1
:100B20001514131211100F0E0D0C0001010101011B
:100B30000101010102020202020202020203030396
:100B40000303030303040404040404040505050566
:100B50000506060606060707070707080808080926
:100B60000909090A0A0A0B0B0B0C0C0C0D0D0D0ED2
:100B70000E0E0F0F0F101011111112121313141467
:100B8000151516161717181819191A1A1B1B1C1DDC
:100B90001D1E1E1F20202122222324242526262735
:100BA0002829292A2B2C2D2D2E2F30313232333467
:100BB00035363738393A3B3C3D3E3F40414243446D
:100BC00045464748494A4C4D4E4F5051535455564F
:100BD00058595A5B5D5E5F616264656668696B6CFB
:100BE0006D6F7072737577787A7B7D7E8082838576
:100BF00087888A8C8E8F91939596989A9C9EA0A2B6
:100C0000A3A5A7A9ABADAFB1B3B5B7BABCBEC0C2BF
:100C1000C4C6C9CBCDCFD1D4D6D8DBDDDFE2E4E783
:100C2000E9EBEEF0F3F5F8FAFDFF04033000000005
:100C300012034500720067006F00440061007300FA
:100C4000680000000C034F006D006B006200640040
:100C500000000403090409023B00020100A0FA0994
:100C600004000001030101000921110100012240DB
:100C7000000705810308000A0904010001030000C0
:100C80000009211101000122320007058203200022
:100C90000A1201100100000008EDFE606000010171
:100CA00002030105010980A101850319012AB7008A
:100CB000150126B700950175108100C0050C0901CA
:100CC000A101850419012AA002150126A00295019F
:100CD00075108100C005010906A101050719E02969
:100CE000E7150025019508750181029501750881B8
:100CF000010507190029FF150026FF009506750854
:100D000081000508190129059505750191029501D4
:100D100075039101C00011241FBECFEFDAE0DEBFE2
:100D2000CDBF04B603FE27C080918C0390918D0344
:100D3000A0918E03B0918F038730904BA740B04BAA
:100D4000D1F410928C0310928D0310928E031092A6
:100D50008F0314BE84B7877F84BF0FB6F894A8951D
:100D600080916000886180936000109260000FBEE7
:100D7000E0E0F8E3099511E0A0E0B1E0E8E5F1E694
:100D800002C005900D92A23DB107D9F723E0A2ED74
:100D9000B1E001C01D92AC38B207E1F70E94AE2964
:100DA0000C945F300C94000088509D458F30910565
:100DB00008F0E8C2FC01EF59FF4CDB0112969C9150
:100DC0000C94452F911102C080E00895E091270115
:100DD000F09128018081382F327081FB992790F99A
:100DE0009093D301282F207285FB992790F9909337
:100DF000D20131111AC0222301F185EE0E94731D28
:100E00008FE20E94E91C8FE20E94731D8091D30142
:100E1000882319F081EE0E94E91C8091D201882379
:100E200099F285EE0E94E91CCFCF81EE0E94731DDE
:100E30008091D201882321F3E0CF8FE10E94E91C49
:100E40008FE10E94731DC0CF992309F4BDCFE091BB
:100E50002701F09128018081382F327081FB99277A
:100E600090F99093D301282F207285FB992790F950
:100E70009093D20131110AC0222381F085EE0E94A5
:100E8000731D8EE20E94E91C8EE2BECF81EE0E94AD
:100E9000731D8091D2018823A1F3F0CF83E20E94D9
:100EA000E91C83E2CECF992309F48ECFE09127018C
:100EB000F09128018081382F327081FB992790F9B9
:100EC0009093D301282F207285FB992790F9909356
:100ED000D201311110C02223B1F085EE0E94731DA2
:100EE00081EE0E94E91C83E20E94E91C83E20E94D9
:100EF000731D81EE89CF81EE0E94731D8091D20116
:100F0000882371F3EACF84E20E94E91C84E299CF3E
:100F1000992309F459CFE0912701F09128018081AC
:100F2000382F327081FB992790F99093D301282FA5
:100F3000207285FB992790F99093D20131110DC051
:100F4000222399F085EE0E94731D81EE0E94E91C18
:100F500084E30E94E91C84E3CACF81EE0E94731DE2
:100F60008091D201882389F3EDCF85E20E94E91CAC
:100F700085E267CF992309F427CFE0912701F0910B
:100F800028018081382F327081FB992790F9909346
:100F9000D301282F207285FB992790F99093D201D5
:100FA00031110DC0222399F085EE0E94731D81EE50
:100FB0000E94E91C85E20E94E91C85E298CF81EE3F
:100FC0000E94731D8091D201882389F3EDCF86E2C0
:100FD0000E94E91C86E235CF992309F4F5CEE09111
:100FE0002701F09128018081382F327081FB9927E9
:100FF00090F99093D301282F207285FB992790F9BF
:101000009093D20131110DC0222399F085EE0E94F8
:10101000731D81EE0E94E91C86E20E94E91C86E2B3
:1010200066CF81EE0E94731D8091D201882389F3DF
:10103000EDCF87E20E94E91C87E203CF992309F4F0
:10104000C3CEE0912701F09128018081382F3270C2
:1010500081FB992790F99093D301282F207285FB6B
:10106000992790F99093D20131110DC0222399F064
:1010700085EE0E94731D81EE0E94E91C87E80E94A4
:10108000E91C87E834CF81EE0E94731D8091D20164
:10109000882389F3EDCF8DE20E94E91C8DE2D1CE49
:1010A000992309F491CEE0912701F09128018081E4
:1010B000382F327081FB992790F99093D301282F14
:1010C000207285FB992790F99093D20131110DC0C0
:1010D000222399F085EE0E94731D81EE0E94E91C87
:1010E00083E30E94E91C83E302CF81EE0E94731D1B
:1010F0008091D201882389F3EDCF81EE0E94E91C13
:101100008DE20E94E91C8DE20E94731D81EE99CE52
:10111000992309F459CEE0912701F09128018081AB
:10112000382F327081FB992790F99093D301282FA3
:10113000207285FB992790F99093D20131110DC04F
:10114000222399F085EE0E94731D81EE0E94E91C16
:1011500080E30E94E91C80E3CACE81EE0E94731DE9
:101160008091D201882389F3EDCF80E30E94E91CAE
:1011700080E367CE992309F427CEE0912701F0910F
:1011800028018081382F327081FB992790F9909344
:10119000D301282F207285FB992790F99093D201D3
:1011A00031110DC0222399F085EE0E94731D81EE4E
:1011B0000E94E91C82E30E94E91C82E398CE81EE42
:1011C0000E94731D8091D201882389F3EDCF82E3C1
:1011D0000E94E91C82E335CE992309F4F5CDE09114
:1011E0002701F09128018081382F327081FB9927E7
:1011F00090F99093D301282F207285FB992790F9BD
:101200009093D20131110DC0222399F085EE0E94F6
:10121000731D81EE0E94E91C89E80E94E91C89E89F
:1012200066CE81EE0E94731D8091D201882389F3DE
:10123000EDCF87E80E94E91C87E803CE992309F4E3
:10124000C3CDE0912701F09128018081382F3270C1
:1012500081FB992790F99093D301282F207285FB69
:10126000992790F99093D20131110AC0222381F07D
:1012700085EE0E94731D84E30E94E91C84E3C4CDC3
:1012800081EE0E94731D8091D2018823A1F3F0CFDB
:1012900083E30E94E91C83E3D4CD992309F494CD20
:1012A000E0912701F09128018081382F327081FB75
:1012B000992790F99093D301282F207285FB9927C5
:1012C00090F99093D20131110DC0222399F085EE4F
:1012D0000E94731D81EE0E94E91C8FE10E94E91CAF
:1012E0008FE105CE81EE0E94731D8091D20188238B
:1012F00089F3EDCF81EE0E94E91C84E20E94E91C93
:1013000084E202CF992309F45FCDE0912701F091A7
:1013100028018081382F327081FB992790F99093B2
:10132000D301282F207285FB992790F99093D20141
:1013300031110DC0222399F085EE0E94731D81EEBC
:101340000E94E91C8FE20E94E91C8FE2D0CD81EE61
:101350000E94731D8091D201882389F3EDCF81EE25
:101360000E94E91C8EE20E94E91C8EE2CDCE9923F8
:1013700009F42ACD81EE0E94E91C89E30E94E91C50
:1013800089E3C2CE81E008950C94B00D0895EF92E8
:10139000FF920F931F93CF937C018B010E94D40681
:1013A000882351F1F801C281F8E1EF16FDE5FF064F
:1013B00059F158F4E7E1EE16EDE5FE06C1F0CC2355
:1013C00009F495C01092D9018CC0F9E1EF16FDE542
:1013D000FF0609F454C09AE1E9169DE5F90679F78C
:1013E00080E1CC2309F480C00E943C2405C0CC23BA
:1013F00021F080E00E94C70AC0E08C2FCF911F919E
:101400000F91FF90EF90089581E0CC2391F08093AD
:10141000D901F801838194819093D8018093D701F9
:1014200081E00E943C2440E162E081E00E942E0BBA
:10143000E3CF0E945D2440E162E081E00E942E0B38
:101440008091D9018823C1F0F80183819481209192
:10145000D7013091D801821B930B8837910560F436
:1014600081E90E94E91C8BE80E94E91C81E90E9445
:10147000731D8BE80E94731D1092D901BECFCC233F
:1014800061F081E08093D601F8018381948190938B
:10149000D5018093D40182E0C4CF82E00E945D2414
:1014A00040E162E081E00E942E0B8091D60188230A
:1014B000C1F0F801838194812091D4013091D5014C
:1014C000821B930B8837910560F480E90E94E91C28
:1014D0008AE80E94E91C80E90E94731D8AE80E9444
:1014E000731D1092D60189CF0E945D2486CFC82F2C
:1014F00084CF81E008950C94C70908950C947D0A67
:101500001F93CF93DF9300D000D00F92CDB7DEB7FB
:1015100049835A836B8330918E0289819A8131117C
:101520001DC06623B9F02223A9F00E942C25182F94
:10153000682F89819A810E94D82469817A81812FBC
:101540000F900F900F900F900F90DF91CF911F9100
:101550000C94AE0B0E940425182FEFCF0E942C256F
:1015600069817A81EDCFFC01262F40815181628112
:10157000738184810C94800ACF93DF93EC0160E047
:101580000E94B30ABE01DF91CF910C947E0ACF93E3
:10159000DF93C1E0D0E002C0CC0FDD1F8A95E2F7F7
:1015A0008C2F0E948326BE0190E080E0DF91CF91D6
:1015B0000C94DA238F929F92AF92BF92CF92DF92D8
:1015C000EF92FF920F931F936B017C0181E090E0FB
:1015D000A0E0B0E04C015D0104C0880C991CAA1C7D
:1015E000BB1C4A95D2F7B501A4014C015D0104C0B2
:1015F000880C991CAA1CBB1C2A95D2F7482959298A
:101600006A297B2904C0880F991FAA1FBB1F0A954E
:10161000D2F78A019B010C211D212E213F210417A5
:1016200015072607370789F48C299D29AE29BF297C
:10163000BC01CD011F910F91FF90EF90DF90CF90F3
:10164000BF90AF909F908F90089580959095A095B2
:10165000B0958C219D21AE21BF21EACF0F93382F69
:10166000262F6091F4027091F5028091F60290911C
:10167000F702042F432F0E94DA0A0F910C941624CC
:101680000E947026811102C00E9412270C94C40986
:101690000C94B20D08950C944A0B81E008950C94BB
:1016A0004D0BCF93C82F0E944B0B8C2FCF910C94D6
:1016B0004F0B0E9442200E94C6092FEF84E39CE05A
:1016C000215080409040E1F700C000000C942F288A
:1016D0000F931F93CF93DF93EC0161E00E94B30A55
:1016E0008C01BE010E947B0A882359F1BE01C8010A
:1016F0000E946C18882329F1BE01C8010E94AD1810
:101700008823F9F0BE01C8010E94D0198823C9F0CE
:10171000BE01C8010E946417882399F08A8188233A
:1017200039F001158CE5180751F00E3D1C4579F094
:10173000CE01DF91CF911F910F910C94790A0E94F5
:10174000590B80E0DF91CF911F910F9108950E9476
:101750001227F7CF90E080E008950895972F70E06A
:1017600027E0929F600D711D1124FB0196E4899F73
:10177000E00DF11D1124EE0FFF1FE455FF4F859181
:1017800094910895FC01EE0FFF1FE850F64F8591EC
:1017900094910895CF93DF930E94AE0B0E94D60CD4
:1017A000EC01811520E5920708F041C0811530E475
:1017B000930708F0B4C0803E910518F5803C910570
:1017C00008F09DC0883A910570F4853A910508F0BB
:1017D0008EC081309105F9F00097E9F00497D8F4B4
:1017E000D0E0C0E018C08F3B9105D0F7C85AD0E0D8
:1017F000CC0FDD1FCC5CDE4F0990D881C02DD464A6
:101800000AC08115904258F4C11581E0D80718F438
:10181000C83ED10528F7CE01DF91CF910895C115BB
:1018200090E3D90708F071C0CE019F706AC081159E
:1018300025E5920758F5811534E5930708F09EC019
:10184000811542E5940750F4C11581E5D80708F4E5
:1018500069C0DC2FCC27C16FD06ADDCF982F969559
:1018600096959E0123703327C115D34508F077C0A4
:10187000C1E0D0E002C0CC0FDD1F2A95E2F720E2E4
:10188000929FC0011124C82BD92B67C0C11589E5CF
:10189000D807A8F4C11598E5D90708F074C0C11598
:1018A00026E5D20708F09CCF8C2F0E946D0DC82F23
:1018B000D0E0DC2FCC27CC27DF71D062ACCFC115B4
:1018C0003AE5D30708F464C0CE01905681159042E2
:1018D00008F086CF8D2F8F710E946D0D90E0982FAC
:1018E000882788279F719C012C2BE901E6CFC55AD8
:1018F000D0E0CE59DE4FC881D0E0D0648CCF805C80
:1019000091090E94C20BEC0186CFCE019927D3FF2B
:1019100003C0EC01D86C7FCFEC01D06C7CCFDF70C2
:10192000D06A79CFCE01E4E096958795EA95E1F704
:1019300083702C2F26952695237090E2299F900185
:101940001124382B8C2F8370C1E0D0E002C0CC0F63
:10195000DD1F8A95E2F7C22BD32BDC685CCFC1E098
:10196000D0E002C0CC0FDD1F2A95E2F730E2939F52
:10197000C0011124C82BD92BDA684DCFD82FCC2722
:10198000C46FD06A48CFDC2FCC27C06FD06A43CF5A
:101990008C2F8F700E946D0D34E0D695C7953A95C7
:1019A000E1F7CF709C2FEC01D06935CF82389105DB
:1019B000B1F1B0F48133910509F475C048F489326E
:1019C000910509F469C08A32910509F473C008953C
:1019D0008533910509F459C08933910501F10895C2
:1019E000833E9105A9F138F4803E9105F9F0823EDD
:1019F000910549F10895863E9105A9F1873E91052B
:101A0000C9F1843E910519F520917E0321FF1FC085
:101A100080917D0384FD14C087EE90E008952091AD
:101A20007D032370A1F080EE90E0089520917D0366
:101A300020FD47C030917E0330FF09C024FF44C021
:101A400090E080E004C020917D0322FDF7CF08954F
:101A500020917D0322FD3BC030917E0330FDE3CF1A
:101A600024FFF5CFEDCF20917D0323FFF0CF24FDA0
:101A7000E7CFD2CF20917D0323FD2CC030917E0390
:101A800031FFEECF84EE90E0089520917D0325FF95
:101A9000DECF89E290E0089520917D0325FFD7CF26
:101AA00085E390E0089520917D0326FFD0CF8AE260
:101AB00090E0089520917D0326FFC9CF81E390E057
:101AC000089589E390E0089583EE90E0089582EE12
:101AD00090E0089586EE90E0089590917D0392FF46
:101AE00006C0282F28712830F9F4877F846093FF7F
:101AF00006C0282F28712831F1F4877E8461209157
:101B00007E0320FF06C0382F38713830D9F4877F24
:101B1000816021FF06C0282F28712831D1F4877EEB
:101B2000816194FD877E0895282F24712430F9F671
:101B30008B7F8860DCCF282F2471243101F78B7EC6
:101B40008861DDCF382F3171313019F78E7F886091
:101B5000E0CF282F2171213121F78E7E8861E1CFDE
:101B6000089508950C94B10DE82FF0E0E05EFC4F6D
:101B700080810895089580EA8A95F1F7089508957F
:101B80000E941E0F809104018091040195E0811153
:101B900090E090932B0385E0891B80932A03ACE6A9
:101BA000B1E061E070E08D91E82FE295EF70F0E038
:101BB00041A18F709B0101C0220F8A95EAF7922FF5
:101BC0009095942391A382A1822B82A381E0A137D7
:101BD000B80749F7A5E6B1E061E070E08D91E82F24
:101BE000E295EF70F0E041A18F709B0101C0220FE0
:101BF0008A95EAF7922F9095942391A382A1822B44
:101C000082A381E0AC36B80749F7E6E1F3E0A0E251
:101C1000B3E080E293E011921D928E179F07D9F7EF
:101C200085E00E94C60E0E94400B0C94330F0E9468
:101C3000FD0E8823F9F080912A0390E0805E9C4F8E
:101C40000E94630F811113C08091DA018F5F80932E
:101C5000DA01863050F0E0912A03F0E0E05EFC4FBC
:101C6000108211821282138214820C94480B1092FB
:101C7000DA01FBCF80912B0390E0805E9C4F0E94A5
:101C8000800F0C94BF0D8F929F92AF92BF92CF9214
:101C9000DF92EF92FF920F931F93CF93DF938CE627
:101CA000A82E81E0B82E06E113E0912CCC24C39439
:101CB000D12CF50181915F01C82FC295CF70D0E082
:101CC00099A18F70760101C0EE0C8A95EAF7892FF1
:101CD0008E2989A38AA18E2C809488218AA30E94B0
:101CE000BB0DE5E6F1E050E040E020E03191A32FAC
:101CF000A295AF70B0E090968C9190E03F7002C0DA
:101D0000959587953A95E2F780FD3CC08C2D042E81
:101D100001C0880F0A94EAF7282B4F5F5F4F4730C6
:101D2000510521F789A1882289A28AA1E82AEAA27D
:101D3000F8018081281741F1208381E0982A0F5F04
:101D40001F4FF1E7AF16F1E0BF0609F0B2CF609187
:101D50002B0370E0605E7C4F292D45E086E193E027
:101D60000E94C70E0E94170E892DDF91CF911F91FF
:101D70000F91FF90EF90DF90CF90BF90AF909F902A
:101D80008F90089580E0C8CF80E0D8CF0895FF926B
:101D90000F931F93CF93DF93F82E092F162FD72F72
:101DA000C42F222349F081E08093DD010E94F027B7
:101DB0009093DC018093DB018091DD018823A1F009
:101DC0008091DB019091DC010E94FC27069760F076
:101DD000EF2DF02FA12FBD2FCE0FDF2FD11DEC1730
:101DE000FD0741F41092DD01DF91CF911F910F911A
:101DF000FF90089581918D93F2CF8091DE01811142
:101E000011C08091D80080618093D8008AE18A95C2
:101E1000F1F700C09091D900892F817090FF82E086
:101E20008093DE0181E09091DE01913009F080E045
:101E300008950E94FD0E91E0892708950E94190FD0
:101E400080930401809104016CE0882349F080E0D4
:101E50000E9429100E94FD0E882321F00C943A0F55
:101E60008CE0F6CF08950E94FD0E811102C00C9403
:101E7000400F089562E070E085E091E00C945B1AF9
:101E800062E070E085E091E00C94641A0E942B15EA
:101E9000882361F086EE91E00E94311581E090E0A8
:101EA0000E943D1B892B11F40C942E1508958091EE
:101EB000E501883039F460E086EE91E00E94411639
:101EC0001092E5010895CF93DF93D82FC92F0E9478
:101ED000460F90E080E00E943D1B009779F4ED2FC3
:101EE000FC2FDC01A052BE4F2C912193019685302E
:101EF0009105B9F781E0DF91CF91089580E0FBCFA4
:101F0000CF93DF93D82FC92F0E94570FED2FFC2FAF
:101F100090E080E02191DC01A052BE4F2C9301960D
:101F200085309105B9F7DF91CF910895AF92BF92B7
:101F3000CF92DF92FF920F931F93CF93DF93362FB1
:101F4000472FE82FF0E0E65DF44F71110DC064916A
:101F5000762F862FDF91CF911F910F91FF90DF9009
:101F6000CF90BF90AF900895C72FD0E02491F22E6C
:101F7000022F10E056E0659FC0011124EFEFF0E062
:101F8000BF010E941D2F832F90E0880F991F35E518
:101F9000369FD001379FB00D11248A1B9B0B982FC1
:101FA000990F980F6F01CC1ADD0AC09ED001C19E17
:101FB000B00DD09EB00D11248B2F949FA001112441
:101FC000452F55276F01C41AD50AC09EA001C19E96
:101FD000500DD09E500D11245F01A91AB108AC9E7E
:101FE0006001AD9ED00CBC9ED00C1124CD2CDD2404
:101FF000EC19FD09E09FE001E19FD00DF09FD00DAD
:102000001124ED2F62307105A1F048F461157105BE
:1020100069F06130710589F0EB2F852F07C06430BE
:10202000710571F088F066307105B1F76E2F722F6F
:1020300091CFE22F2B2F8D2FF9CFE22F252FF6CF27
:10204000EB2F822F2D2FF2CF2B2F8F2DE52FEECFC1
:102050000895E7E1F1E0808361830895CF93DF93F2
:10206000762FE901682F842F0E94960F7983688369
:102070008A83DF91CF91089580912C03982F9E7FC2
:1020800029F48170826080932C0308958635E8F3EB
:1020900081708465F8CF88E090E00C94BC2FCF92DB
:1020A000DF92EF92FF926B017C010E943C10B7011E
:1020B000A60188E090E0FF90EF90DF90CF900C9425
:1020C000DA2FECE2F3E083E0808311828FEF8283EA
:1020D00083831482A3E7B2E012968C9112978360F7
:1020E00012968C9360817181828193810C944F1040
:1020F00080912C0380FF02C08695089580E00895AA
:1021000080913003833018F48F5F809330036091A7
:102110002C0370912D0380912E0390912F030C942A
:102120004F1080913003882319F081508093300341
:1021300060912C0370912D0380912E0390912F03B9
:102140000C944F1070E00C94D317CF92DF92EF9263
:102150000F931F93CF93DF93CDB7DEB7C854D10948
:102160000FB6F894DEBF0FBECDBF6091180180910D
:102170002C0380FF37C0E2E1FBE09E012F5F3F4F61
:102180008E01075B1F4FC901A4914A2F50E0DA016D
:10219000AA0FBB1FA40FB51FAF5CBC4FCD90DD9045
:1021A000EC90D901CD92DD92ED929D013196A01770
:1021B000B10751F720911701B3E02B9F800D911DBE
:1021C00011240E94A210C85BDF4F0FB6F894DEBF47
:1021D0000FBECDBFDF91CF911F910F91EF90DF9098
:1021E000CF9008958091190190911A0123E0829F68
:1021F000F0011124EF5CFC4F891708F0BCCF11826D
:10220000108212828F5F3396F7CF90912C0390FF4C
:1022100014C09091190120911A0133E0939FF001AD
:102220001124EF5CFC4F921710F00C94A5108183E1
:10223000608342839F5F3396F6CF0895CF93DF93F9
:1022400000D00F92CDB7DEB790912C0390FF0AC05B
:102250009E012F5F3F4F0E942E104B8169818A8122
:102260000E9405110F900F900F90DF91CF9108956C
:10227000CF93DF93EC01EC81F0E0E35FF54F449105
:10228000ECE2F3E0628181810E941E118C818F5FFC
:102290008C83DF91CF910895CF93DF93EC01ECE233
:1022A000F3E0438162818C810E941E118C818F5FDB
:1022B0008C83DF91CF9108950F931F93CF93DF937A
:1022C00000D00F92CDB7DEB78C018091EE01811165
:1022D0000AC09E012F5F3F4F4FEF6FEF0E942E10FD
:1022E0008A818093EE01F8016481613069F0809108
:1022F000EE0140E0662361F040E0623011F440916D
:10230000EE0180E060E004C06091EE0140E080E01A
:102310000E940511F801848190E0019663E070E06D
:102320000E94312F84830F900F900F90DF91CF91F7
:102330001F910F910895AF92BF92CF92DF92EF92CB
:10234000FF920F931F93CF93DF9300D00F92CDB7DF
:10235000DEB7182FF62E042FE22E90912C0390FF5B
:102360003AC0E92FE695AE2FB0E0AA58BE4F8C9147
:10237000809373029E7F9230E1F59E012F5F3F4F65
:10238000812F0E942E104B8169818A810E94051144
:1023900080912D03811308C080912E038F1104C0FA
:1023A00080912F03801729F08091750282608093BD
:1023B000750210932D03F0922E0300932F03EE204D
:1023C00051F060912C0370912D0380912E03909118
:1023D0002F030E944F100F900F900F90DF91CF911D
:1023E0001F910F91FF90EF90DF90CF90BF90AF9033
:1023F0000895823019F400912F03CACF863019F462
:1024000010912D03C5CF8930D9F3893109F6E951EF
:102410008E2F8170D82EE695F0E0E35FF44FA59003
:10242000B490C12CBB2460911B01C61618F00E9409
:10243000A510AECF2C2D30E0A29EC001A39E900D22
:10244000B29E900D112470E00E941D2F812FD1109B
:1024500013C0860F40911901420F532F511D9A014D
:10246000220F331F240F351F2F5C3C4F402F6F2D41
:102470000E942E10C394D7CF861BECCFECE2F3E082
:102480009181282F4381628188E0890F0C949B11F0
:1024900081E00C943E12ECE2F3E09181282F43811D
:1024A000628188EF890F0C949B1181E00C944B1290
:1024B000ECE2F3E0628121E1620F08F46FEF282F74
:1024C000438181810C949B1181E00C945812ECE2C1
:1024D000F3E0628121E1621B08F460E0282F438170
:1024E00081810C949B1181E00C946712ECE2F3E083
:1024F000438121E1420F08F44FEF282F628181814F
:102500000C949B1181E00C947612ECE2F3E0438191
:1025100021E1421B08F440E0282F628181810C9464
:102520009B1181E00C94851220E00C949B11EF929A
:10253000FF921F93CF93DF93EC0110E0EE24EA9417
:10254000F12C60911B01161770F00E94A5109A8162
:102550008C8190FF27C08F5F8C83DF91CF911F917B
:10256000FF90EF90089520911901422F410F5527B8
:10257000551FCA019A01220F331F280F391F2F5CE4
:102580003C4F70E0C7010E94312F962F8C81409103
:102590002F0360912E03199F800D11240E942E108D
:1025A0001F5FCFCF8150D8CF8F929F92AF92BF92B3
:1025B000CF92DF92EF92FF920F931F93CF93DF930F
:1025C000EC018A81BB24BA9480FD02C0BB24B39481
:1025D0008C8181110AC081E0B8122AC080911B0150
:1025E00081508093F00181E08C83A12C48E1942EEE
:1025F00080911B01A816F8F00E94A5108091F001AF
:1026000091E0B91261C081115AC080911B018150C3
:102610008093F0011C82DF91CF911F910F91FF9069
:10262000EF90DF90CF90BF90AF909F908F900895E4
:102630001092F001D8CF00911901CA2CD12C0C0DA9
:102640001D2D111DC801880F991F080F191F0F5C40
:102650001C4FF80111821082128234E0E32EF12C1B
:10266000812C8091F001880D89311CF1692D0E9427
:102670000F2F892F082E000C990BC816D90691F43C
:1026800080912F038E9DA0018F9D500D1124559593
:10269000479555954795980160912E0380912D039C
:1026A0000E942E108B0CF1E0EF1AF108D1F6A394E2
:1026B0009FCF87FFDFCF90911B01890FDBCF815028
:1026C0008093F001BC82A7CF90E0019660911B013E
:1026D00070E00E94312F8093F0018C839CCFEF92A9
:1026E000FF920F931F93CF93DF93EC018C818111A5
:1026F00009C081E08C831092EF0192E09093160163
:10270000809315018091190190911A0123E0829F15
:10271000F0011124EF5CFC4F891768F110E003E031
:1027200060911B01161768F10E94A5108091150198
:102730002091EF01280F2093EF0190911601980F3F
:1027400090931601191654F4022E000C330B40918D
:102750001B014150550B2417350734F081958093A8
:102760001501813009F41C82DF91CF911F910F91E7
:10277000FF90EF9008951182108212828F5F33963E
:10278000CBCFE12EF12C70E0C7010E94312F2091B8
:102790001901820F482F50E02091EF01022E000C0A
:1027A000330BE216F306BCF020911601022E000C4A
:1027B000330B2E153F057CF0809F900111242F5C78
:1027C0003C4F40912F0360912E0380912D030E9476
:1027D0002E101F5FA5CFFA01EE0FFF1FE40FF51FAC
:1027E000EF5CFC4F118210821282F3CF0F931F9384
:1027F000CF93DF938C01FC018481958101968170D8
:10280000992795838483C0E0D5E580911B01C81783
:1028100030F0DF91CF911F910F910C94A510209172
:102820001901422F4C0F5527551FCA019A01220F3B
:10283000331F280F391F2F5C3C4F8C2F8695F801D2
:1028400044815581840F952F911D817040912F03F4
:1028500060912E038D9F802D11240E942E10CF5F3A
:10286000D4CF0F931F93CF93DF93EC0110E000E0E0
:1028700090911B019017110609F06CF40E94A510AD
:102880008C8190E00196817099278C83DF91CF91A4
:102890001F910F91089520911901A801420F511D18
:1028A0009A01220F331F240F351F2F5C3C4F4C81A0
:1028B00060912E0380912D0396959017110651F08B
:1028C0004CF0442349F040912F030E942E100F5FDB
:1028D0001F4FCECF4423B9F340E0F7CF8F929F92A2
:1028E000AF92BF92CF92DF92EF92FF920F931F931E
:1028F000CF93DF93FC01B280948081E0848300E079
:1029000015E05BE4A52E88248394EE24EA94F12C50
:102910007BE4C72ED12C80911B01081770F0DF914A
:10292000CF911F910F91FF90EF90DF90CF90BF90CC
:10293000AF909F908F900C94A510C02FD0E01C9F5B
:10294000F0011D9FF00D1124EC50FE4F91101CC0A2
:102950001382128220911901CE01820F911D9C01D8
:10296000220F331F280F391F2F5C3C4F1C9FF00193
:102970001D9FF00D1124EC50FE4F4281618180813A
:102980000E942E100F5FC7CF2381222379F121509F
:10299000238334818A2D821B311101C0822F1C9F19
:1029A000F0011D9FF00D1124EC50FE4F90912F036C
:1029B000899FC0011124B6010E941D2F628321113D
:1029C00004C0332311F01482A38222E02B1510F2ED
:1029D0001C9FF0011D9FF00D1124EC50FE4F8091C3
:1029E0002D03808380912E038183B4CF0E94972F83
:1029F000823091400CF0AECF82E08B1530F50E9412
:102A0000972FB7010E94312F1C9FF0011D9FF00DE1
:102A10001124EC50FE4F808322E02B15C8F40E9455
:102A2000972F20912E032695622F70E00E94312F60
:102A3000280F1C9FF0011D9FF00D1124EC50FE4F3C
:102A400021831282A382848285CF80912D03DCCFE3
:102A500020912E03EECF8091750208951092750299
:102A6000089525E0ECE2F3E0DC0101900D922A9557
:102A7000E1F7209173023091740240917502FC01DC
:102A80002583368347830895E3E7F2E0118282814C
:102A9000846082830895ECE2F3E080818E7F8083FE
:102AA0000E944415E3E7F2E08281816082832FEF88
:102AB00080E792E0215080409040E1F700C00000A4
:102AC0000C94A510ECE2F3E080818E7F808360811E
:102AD0007181828193810E944F100E944415E3E727
:102AE000F2E08281816082832FEF80E792E02150C3
:102AF00080409040E1F700C000000C94A510609168
:102B00002C03669570E04BE050E08CE191E00E9470
:102B1000A72F892B19F481E0809374020E94F0277B
:102B200090936D0280936C02809175028460809313
:102B30007502089590912C0390FF3AC09170811115
:102B40002DC0926090932C038091750281608093D8
:102B50007502662351F060912C0370912D038091D2
:102B60002E0390912F030E944F1060912C036695C5
:102B700070E04BE050E08CE191E00E94A72F892BA0
:102B8000A1F00E94441581E080936F0240912F03D1
:102B900060912E0380912D030C9494128B3210F0CF
:102BA0009465D0CF880F982BCDCF0E947F15EBCFA7
:102BB0000895682F90912C03969581E0890F8B32B0
:102BC00008F081E00C949A1581E00C94D915682FD7
:102BD00090912C0396958FEF890F09F48AE20C945B
:102BE0009A1581E00C94E71561E00C949A15ECE2DB
:102BF000F3E080818160808386950C94F415809148
:102C00002C0380FD0C9462150C94F71560E00C9475
:102C10009A1580917202811133C00E947026811131
:102C200004C00E9412270E9461100E944B10609302
:102C30002C0370932D0380932E0390932F03809188
:102C400075028360809375026E7F61F40E9461104B
:102C50000E944B1060932C0370932D0380932E03DE
:102C600090932F030E943C100E94441580912C03E6
:102C700080FF03C086950E94061681E08093720251
:102C800008951F93CF93DF93EC01162F8F8180FF60
:102C90000CC0888180FF24C080912C0381608093C8
:102CA0002C03888186950E949A158F8181FF06C02A
:102CB000212F4B816A8189810E949B118F8182FF24
:102CC00005C08E81882379F00E947F158F8183FF54
:102CD00003C081E080936F02DF91CF911F9108952F
:102CE0000E944B15E2CF0E944415F0CFEF92FF9265
:102CF0000F931F93CF93DF9380917402882309F47D
:102D000068C080917302E0912C03E695E81BE09384
:102D10006E02823009F064C0F0E0E75FF54FE491A5
:102D2000CE2FD0E008E311E180916F02882389F073
:102D300010926F020E94F0279E0120953095820F1D
:102D4000931F90936D0280936C0210927102109207
:102D5000700280916C0290916D020E94FC278C178A
:102D60009D07B8F18091F3018823B1F01092F3012F
:102D70008091F1019091F2010E94FC2780339547E8
:102D800058F00E94F0279093F2018093F101809116
:102D90007502886080937502E0907002F090710275
:102DA000E0916C02F0916D02CE0FDF1FD0936D02A7
:102DB000C0936C028CE692E0F80109958091700254
:102DC00090917102892B29F4EF2819F081E080930A
:102DD000F301DF91CF911F910F91FF90EF90089534
:102DE000863049F4F0E0EA5FF54FE491CE2FD0E071
:102DF0000CE411E199CF893051F4E695F0E0ED5FF4
:102E0000F54FE491CE2FD0E007E912E18DCF8F305E
:102E100051F4E695F0E0E050F64FE491CE2FD0E08B
:102E200004ED12E181CF853149F4F0E0E350F64F33
:102E3000E491CE2FD0E00FE613E176CFC8EED3E0D9
:102E400006EF13E1883109F46FCF833239F4EBEFE9
:102E5000F9E0C591D4910CE511E166CFC4EFD1E062
:102E600001E314E1843209F45FCFC0EDD7E008E25A
:102E700010E1853209F058CF8E2F63E00E94032FB6
:102E8000E92FF0E0E850F64FE491CE2FD0E00EE6C7
:102E900014E14ACFFA01811101C0FB010994CF93DB
:102EA000DF93C82FD62F0E9478108C1740F00E9415
:102EB00078108D1720F4DF91CF910C94E4158C2FAE
:102EC000DF91CF910C94F4151F93CF93DF93EC0116
:102ED000FB011281111110C00E94C1258272FE01F6
:102EE000E25CFC45E431F10508F05BC0E059FF4CC1
:102EF0000C94452F0E94FF15812FDF91CF911F91D8
:102F0000089541EF55E164EE75E10E944A17F4CF50
:102F100044EE55E161EF75E1F8CF45E552E168E433
:102F200072E1F3CF48E452E165E572E1EECF43E7A9
:102F300052E164E672E1E9CF44E652E163E772E10F
:102F4000E4CF41E952E162E872E1DFCF42E852E1C9
:102F500061E972E1DACF41E950E160E870E1D5CF93
:102F600040E850E161E970E1D0CF81E00E94F415C2
:102F7000C3CF65E082E00E944F17BECF68E086E0D5
:102F8000FACF6EE089E0F7CF64E18FE0F4CF67E13C
:102F900085E1F1CF88E1EACF62E289E1ECCF83E21B
:102FA000E5CF11E0A9CF539A4BB1477F5BB1586091
:102FB000EFB7F8949B01220F331F260F371F280FFE
:102FC000391F2817390741F4EFBF8FE594E00197C7
:102FD000F1F700C000000895DC016D91CD0178E0AB
:102FE0005BB9000000C067FF4BB9660F000000C06E
:102FF00000C000C04BB900C07A9591F7E2CF0F93A3
:103000001F93CF93DF93C62FD42F022FFC01828111
:103010008823C9F0609378020E94F027909377028A
:103020008093760280E28C0F883008F050C0C77021
:1030300081E001C0880FCA95EAF7DF91CF911F9117
:103040000F910C94D51D10917802161335C0809104
:103050007602909177020E94FC278837910560F5EF
:10306000C0E2CD0F1D17B9F080E2810F883040F427
:10307000177081E001C0880F1A95EAF70E94DC1DE5
:10308000C83048F481E09D2F977001C0880F9A9551
:10309000EAF70E94D51D802F0E94C21DC830B8F4E7
:1030A000D77081E001C0880FDA95EAF7DF91CF9100
:1030B0001F910F910C94DC1D80E28C0F883038F446
:1030C000C77081E001C0880FCA95EAF7EFCFDF91A2
:1030D000CF911F910F9108959C01CB01233F4CE5A7
:1030E000340731F190F4283DFCE53F07E9F0293D34
:1030F0004CE5340769F1273D3C4579F426E241EE81
:1031000061EE0E94FF1780E00895253FFCE53F0730
:10311000B9F090F0263F3C45B9F0FC01828188234C
:10312000D1F010927802089527E245EE65EEE9CFDE
:1031300026E241EE60EEE5CF27E245EE64EEE1CF18
:1031400026E241EE62EEDDCF27E245EE66EED9CF14
:1031500028E241E0EBCF81E00895CF93DF93EC01CB
:10316000FB018281882309F419C1C230FCE5DF0725
:10317000C0F1C6319CE5D90730F09E012A5F3C457D
:103180002930310570F50E94882690937E03809344
:103190007D03C031ECE5DE0709F4CFC008F05BC069
:1031A000C8308CE5D80709F4B6C088F5C430ECE522
:1031B000DE0709F4A8C0C0F4C2308CE5D80709F4D2
:1031C0009CC080917D038260C330DC4509F498C0C7
:1031D00080917D0390917E030E9496260E9442205A
:1031E00080E0DF91CF91089580917D038061C630AA
:1031F000ECE5DE0709F484C080917D038860C73068
:10320000DC4508F47DC080917D03806279C0CC30BC
:103210008CE5D80709F489C070F480917D038C6037
:10322000CA30ECE5DE0709F46BC008F478C0809181
:103230007D038E7F65C0CE308CE5D80709F479C058
:1032400080917D038B7FCF30DC4508F459C080919D
:103250007D038F7E55C0CB3FECE5DE0709F457C0F8
:1032600030F5C3318CE5D80709F46FC078F4C1316B
:10327000ECE5DE0709F465C0C231DC4509F0A8CFF2
:103280000E94422080917D038F773AC0C5318CE542
:10329000D80709F462C008F476C080917E0381608B
:1032A000CA3FDC4509F094CF80937E0391CFCF3F96
:1032B000FCE5DF0709F44DC088F480917E038D7F23
:1032C000CD3F9CE5D90781F380917E038E7FCE3F71
:1032D000DC4550F380917E038360E6CFC130FDE58D
:1032E000DF0709F459C008F444C080E0C230DD456E
:1032F00009F06ECF0E9414276BCF80917D0381600F
:1033000080937D0365CF80917D038460F9CF8091A8
:103310007E038260C9CF80917D038064F1CF0E94DB
:10332000422080917D038068EBCF80917D038D7F6B
:10333000E7CF80917D03877FE3CF80917D038F7DF1
:10334000DFCF80917D038F7BDBCF80917D03837FF7
:10335000D7CF80917E038C7FA7CF80917D0382FBA6
:10336000992790F921E0922790FB82F990FB83F94D
:10337000C7CF80917E03982F909591708E7F892B77
:1033800090FB81F991CF0E94422090917D03892F7B
:1033900097FB87F98058B4CF81E0ACCF81E021CF93
:1033A000CF93DF93EB0186319C4511F50E94C12537
:1033B0009A81992399F08A7A91E009F490E09093A8
:1033C0007902811109C089E20E949C250E940D2684
:1033D00080E0DF91CF91089585E3F6CF8091790267
:1033E000811104C089E20E94A325F0CF85E3FBCFC1
:1033F00081E0EFCF8EE1489B02C08150E1F7489B0E
:10340000FECF0895589880E28A95F1F7589A08956A
:10341000FC013BE03A95F1F720E090E080E031E0FC
:1034200040E14A95F1F7880F489B02C0816023274D
:1034300042E04A95F1F7000040E14A95F1F79F5FBD
:103440006913EECF90E19A95F1F799B132E03A9590
:10345000F1F7000040E14A95F1F791709227208141
:10346000920F90830895EF92FF920F931F93CF9343
:10347000DF930F92CDB7DEB719828C017C01E60E87
:10348000F11C0E151F0561F481E09981911180E016
:103490000F90DF91CF911F910F91FF90EF900895C2
:1034A0000E94FA1968E0CE0101960E94081AF801FC
:1034B00081938F01E6CF90937C0280937B0260938F
:1034C0007A02509A589A089590937C0280937B02D6
:1034D00060937A025098589AE89AE9E6F0E0808181
:1034E0008C7F808308956150770B91E001C0990F24
:1034F0006A95EAF720E031E0911108C0222391F0AB
:10350000589A80E28A95F1F758980895492F4823F0
:1035100039F0589A232740E24A95F1F79695ECCF77
:103520005898F9CF5898EDCFFF920F931F93CF93F0
:10353000DF93EC018C01060F111DC017D10731F488
:10354000DF91CF911F910F91FF900895F9900E9404
:10355000021A68E08F2D0E94731AEFCF1F920F920C
:103560000FB60F9211240F931F932F933F934F93F6
:103570005F936F937F938F939F93AF93BF93EF93DB
:10358000FF93CF93DF930F92CDB7DEB719820E94DE
:10359000FA1967E0CE0101960E94081A082F0695D5
:1035A00006950695982F92959570202F2570920F6D
:1035B000292F2370969596958770920F891344C092
:1035C0008981811141C080917A028017E8F120E160
:1035D0002A95F1F7589A509A82E08A95F1F700C03F
:1035E000A8E00A9FC001112400917B0210917C0287
:1035F000080F191F5898F8016581662321F086810C
:1036000097810E94941A0E94021AF0E1FA95F1F74C
:1036100058985098589A20E12A95F1F7D8011296B7
:103620006C911297662331F113968D919C910E94B3
:10363000331AD801ED91FC91882311F088E001C084
:1036400082E080830E94FA190F90DF91CF91FF9161
:10365000EF91BF91AF919F918F917F916F915F910A
:103660004F913F912F911F910F910F900FBE0F908F
:103670001F901895ED91FC91E1CF0F931F93CF937D
:10368000DF9320917A02281719060CF471C08C017F
:1036900093E0000F111F9A95E1F7C0917B02D09142
:1036A0007C02C00FD11FF894509A589825E02A95B3
:1036B000F1F70000982F969595708570980F892FD7
:1036C000837096959695980F092B0E94021A00C058
:1036D00067E0802F0E94731A80E18A95F1F7509875
:1036E000589A489B17C087E090E0489915C06D81B3
:1036F000662321F18E819F810E94331A81111EC0A1
:10370000509A589AE881F98182E08083789482E027
:1037100090E00DC000C0E5CF019771F4509A589A1F
:10372000E881F98181E08083789481E090E0DF9105
:10373000CF911F910F91089500C0D7CF0E94FA1921
:1037400020E22A95F1F75898509A80E18A95F1F78E
:103750006A81662321F08B819C810E94941A0E94C9
:10376000021AE881F9811082789490E080E0DFCF3E
:1037700084E090E0DCCF90938202809381020895F0
:10378000E0918102F0918202309721F00190F08166
:10379000E02D099480E00895E0918102F091820289
:1037A000309721F00280F381E02D09940895209153
:1037B0007F02309180022817390771F090938002C0
:1037C00080937F02E0918102F0918202309721F094
:1037D0000680F781E02D0994089520917D023091B3
:1037E0007E022817390771F090937E0280937D0244
:1037F000E0918102F0918202309721F00084F185FE
:10380000E02D0994089585B7806885BF85B78068E5
:1038100085BF0895089508950C940A1C08950C948A
:103820000E1C0E94031C0E940B1C0C940C1C0C947C
:10383000FD0E0E94E7270E94C00D0E9440280E94B2
:1038400009160C940F1CBF92CF92DF92EF92FF9259
:103850000F931F93CF93DF93CDB7DEB72A970FB6A1
:10386000F894DEBF0FBECDBF0E94430E0E94171C0E
:10387000882309F45EC084E8C82E82E0D82E10E0C8
:1038800000E0B02E802F0E94B40DE82EF601F190DA
:103890006F01F81609F447C08091090381FD0E9469
:1038A000BA0D9F2D9E2580E0FF24F394292F2F2110
:1038B000B1F18E83BF82EF2081E009F480E0888738
:1038C0000E94F0278160782F9A8789874E815F81D7
:1038D00068858A850E94BA1CF801EC57FD4F8081EB
:1038E000F826F0820E9476160E94C01B90918302F7
:1038F000891781F10E94C01B809383022A960FB61C
:10390000F894DEBF0FBECDBFDF91CF911F910F9115
:10391000FF90EF90DF90CF90BF900C94510B8F5F92
:10392000FF0C873019F60F5F1F4F0A30110509F0A1
:10393000A8CF8FEF89838A831B820E94F027816042
:10394000782F9D838C8349815A816B818D810E9460
:10395000BA1CC8CF2A960FB6F894DEBF0FBECDBFF3
:10396000DF91CF911F910F91FF90EF90DF90CF905B
:10397000BF900895CF93DF93CDB7DEB72B970FB6E7
:10398000F894DEBF0FBECDBF4F83588769877A8713
:103990008B871E821D8285E0FE013796DE0111961F
:1039A00001900D928A95E1F749815A816B817C8162
:1039B0008D819E812B960FB6F894DEBF0FBECDBFD2
:1039C000DF91CF910C94B822FC01808191810C94FD
:1039D0006E25CF93C82F882309F483C08238C1F4A1
:1039E0000E94C01B81FD7DC089E30E949C250E942E
:1039F0000D262FEF81EE94E0215080409040E1F7BA
:103A000000C0000089E30E94A325CF910C940D26ED
:103A10008338A1F40E94C01B80FD63C083E50E942F
:103A20009C250E940D262FEF81EE94E021508040CE
:103A30009040E1F700C0000083E5E5CF8438A1F4B1
:103A40000E94C01B82FD4DC087E40E949C250E94FD
:103A50000D262FEF81EE94E0215080409040E1F759
:103A600000C0000087E4CFCF8CEF8C0F813A90F438
:103A70006C2F80912701909128010E942B27882389
:103A800029F08C2F0E94A3250E940D268C2F0E94C6
:103A90009C25BBCF80E28C0F883048F4C77081E052
:103AA00001C0880FCA95EAF70E94C425AECFEBE5A6
:103AB000EC0FE33040F4F0E0E153FE4F808190E002
:103AC000CF910C94D71BC85AC73158F4EC2FF0E0B3
:103AD000EE0FFF1FEF55FE4F80819181CF910C9427
:103AE000ED1BCF910895882309F44BC0823871F4FF
:103AF0000E94C01B81FF45C089E30E949C250E9453
:103B00000D2689E30E94A3250C940D26833859F4D1
:103B10000E94C01B80FF35C083E50E949C250E9447
:103B20000D2683E5EFCF843859F40E94C01B82FF35
:103B300028C087E40E949C250E940D2687E4E2CFDE
:103B40009CEF980F913AF0F290E2980F983050F471
:103B5000877091E001C0990F8A95EAF7892F0E943A
:103B6000CA25D2CF9BE5980F933020F490E080E0F7
:103B70000C94D71B885A873120F490E080E00C9495
:103B8000ED1B0895CF93C82F0E94E91CC93349F457
:103B90002FEF87EE93E0215080409040E1F700C086
:103BA00000008C2FCF910C94731D882321F00E946C
:103BB000C4250C940D260895882321F00E94CA255F
:103BC0000C940D260895BF92CF92DF92EF92FF9250
:103BD0000F931F93CF93DF936C01D62FC72FFC0158
:103BE000058102950F70128111110E94E1250E943A
:103BF000BA25E82E882391F01123D1F08C2F807FF5
:103C0000803421F080E28D0F883090F082E00E94B5
:103C100058260E94BA2591E0E82EE926BC2EB294DF
:103C20009FE0B922EB2DF0E0EC57FF4C0C94452FB0
:103C3000E12CF4CF0C2F0F70C07F11F00295007FA4
:103C40001123A9F0002359F080E28D0F883010F085
:103C5000D11109C0802F0E94C4250E940D268D2FEE
:103C60000E94E91C14C0802F0E94D425F6CF8D2F0E
:103C70000E94731D002359F080E28D0F883010F0F0
:103C8000D1112CC0802F0E94CA250E940D262B2DF9
:103C90002850330B2430310520F40E94C01B0E94B1
:103CA000510BEE2009F493C10E94B62580FD8FC10F
:103CB000F60112820E94B0250E943C24C6010E9497
:103CC00008200E94B025DF91CF911F910F91FF90A6
:103CD000EF90DF90CF90BF900C945D24802F0E94D6
:103CE000DA25D3CFFC2FFF70FF2EC07FC03219F032
:103CF000F29480EFF822DD2369F0D13049F11123ED
:103D000091F1002351F1F601858180FFA8CF8F70DA
:103D1000858323C0112381F0011106C00E94F42580
:103D20008F290E94D51DB3CF0130C1F70E94F42521
:103D30008F290E94FA25ABCF011106C00E940326ED
:103D40008F2D0E94DC1DA3CF013009F4A0CFF6CF48
:103D5000112329F0063008F09ACF8F2DE2CF0530DD
:103D600008F095CFEDCF002359F3D93349F4FFEF95
:103D700027EE33E0F15020403040E1F700C0000072
:103D80008D2F0E94731D83CF8C2F8695869583700F
:103D900069F0813009F07BCF8D2F9C2F937011112A
:103DA00002C090E080E00E94ED1B71CF8D2F9C2F10
:103DB0009370111102C090E080E00E94D71B67CF82
:103DC0008C2F837009F041C0111161CF4D2F4295A6
:103DD00046954770440F440F0D2F0F7010E030E0F0
:103DE00020E0042E04C0000F111F221F331F0A946D
:103DF000D2F760E070E0CB01D4FF0FC06FE070E05D
:103E000080E090E004C0660F771F881F991F4A95D5
:103E1000D2F76095709580959095C695C695C370BC
:103E2000602B712B822B932BC23049F058F4C13098
:103E300019F00E94EE232BCF0E94DC2328CF0E9492
:103E4000002425CF0E94DA2322CF8695112311F07A
:103E50008C2F8170882309F41ACF4D2F42954695F7
:103E60004770440F440F0D2F0F7010E030E020E03A
:103E7000042E04C0000F111F221F331F0A94D2F713
:103E800060E070E0CB01D4FF0FC06FE070E080E035
:103E900090E004C0660F771F881F991F4A95D2F7DC
:103EA0006095709580959095C695C695C370602B6A
:103EB000712B822B932BC23049F058F4C13019F08A
:103EC0000E94B324E4CE0E94A124E1CE0E94C52426
:103ED000DECE0E941624DBCECF70112329F08C2F6A
:103EE0000E943C248D2F1DCF8D2F0E94DC1D8C2F16
:103EF0000E945D24CCCED23F89F160F4D03FC9F05E
:103F0000D13F29F1112309F442C00111A8CE8C2F11
:103F10008F7121C0D33F39F1D43FA1F7112369F14B
:103F2000CF718C2F0E943C2463E08C2F0E9443268B
:103F3000AECE112341F0053008F0A9CE8C2F8F7141
:103F40000E948024A4CE063008F0A1CEF7CF8C2F9B
:103F50008F71112369F20E943C2499CE8C2F8F71AE
:103F60001123C9F3C5CF112329F08C2F8F710E9423
:103F700027248DCE0E9422248ACE81E00E945826DA
:103F8000023008F484CE82E00E94582680CE0023BE
:103F900059F0D93309F0F4CE8FEF97EEE3E081507A
:103FA0009040E040E1F7EACE8C2F8F71A1CF4C2FEB
:103FB0004F706D2FC6010E94AA0B0E94522367CE3C
:103FC0004C2F4F706D2FC6010E94AD0B60CEDF915C
:103FD000CF911F910F91FF90EF90DF90CF90BF9006
:103FE00008950F931F93CF93DF93EC01688179813C
:103FF0008A810E9478258C010E94D7240E94D923AF
:10400000B801CE01DF91CF911F910F910C94E31D68
:10401000CF93DF93EC018B819C81892B29F08881E0
:10402000998189238F3F59F4DF91CF910895CE0173
:104030000E94F11FCE01DF91CF910C94BC0ACE01FA
:104040000E94680B8111F3CF0E94BA25882361F387
:104050008A81882349F382E0DF91CF910C9458261E
:104060000E94E1250E94F1250E940D2690E080E04B
:104070000E94D71B90E080E00C94ED1B0E94AA25C3
:104080000C9430200E94D1250C943E20E92FE2951B
:10409000EF70E250EE3070F4F0E0EC56FF4C0C9410
:1040A000452F803F19F020F4883E20F481E00895E8
:1040B000843FE1F380E00895883EC0F3813FD1F76B
:1040C000F5CF93FB882780F908950E946E250C9404
:1040D0004620CF93DF9300D000D00F92CDB7DEB74C
:1040E0000F900F900F900F900F90DF91CF91089548
:1040F000CF93DF9300D000D000D0CDB7DEB72696A7
:104100000FB6F894DEBF0FBECDBFDF91CF910895FB
:104110001F93CF93DF93C0918F0216E0809190029E
:104120008C1304C0DF91CF911F910895D0E01C9FA4
:10413000F0011D9FF00D1124EF56FD4F408151817C
:1041400062817381848195810E9478202196C77055
:10415000E5CF4091C1025091C2026091C3027091BB
:10416000C4028091C5029091C6020C9478201F93DE
:10417000CF93DF938091C602807FA9F48091C30220
:10418000882389F080918F02C09190026091C102D2
:104190007091C202A091C402B091C502D62FD7235C
:1041A00016E0C81304C0DF91CF911F91089590E0ED
:1041B000109711F0DF3F19F401968770F2CF189F26
:1041C0009001199F300D1124F901EF56FD4F4181E7
:1041D0004713F2CF40814613EFCF42814111ECCF1C
:1041E000438154814A1B5B0B4837510528F7809166
:1041F000C6028F7080618093C602F901EA56FD4FB6
:1042000080818F708061808381EC92E00E94082021
:10421000DF91CF911F910C948820AF92BF92CF92E3
:10422000DF92EF92FF920F931F93CF93DF93CDB75F
:10423000DEB761970FB6F894DEBF0FBECDBF8C011D
:1042400085E0F801DE011D9601900D928A95E1F757
:10425000F80140815181E28081ECC82E82E0D82EA5
:104260006091C4027091C5026115710509F461C1C4
:104270009091C1022091C202892F82238F3F09F4BD
:1042800058C1A380B480F090C302F501E61BF70B80
:10429000FF2009F4FCC08091C602382F307FE83738
:1042A000F10508F0B2C0311179C0FE2C251323C0EE
:1042B000941321C0E1101FC08F7080618093C602EB
:1042C0000E94A920C6010E9408208091C602F80120
:1042D00085838F2D61960FB6F894DEBF0FBECDBFDC
:1042E000DF91CF911F910F91FF90EF90DF90CF90D2
:1042F000BF90AF900895AB2829F0842F85238F3F7E
:1043000009F033C180E0F82FF170DF2E80FF3CC050
:1043100080918F022091900236E0821315C04D8764
:104320005E878D859E850E946E25292F22952F7090
:104330002230F0F0243018F59F70F1F0F8019581EB
:10434000907FD1F4D12C1EC090E0389FF001399FAE
:10435000F00D1124EF56FD4F6181651306C0608199
:10436000641303C062816E110FC001968770D5CFB0
:104370009F7011F0882331F3805E883018F3C801F4
:104380000E940820FD2CA5CFEE2009F4A2CF809139
:10439000C60281608093C602F12C9BCF251306C014
:1043A000941304C0F801EE2009F48DC04D875E8798
:1043B0008D859E850E946520882319F1EE2009F1E4
:1043C0008091C602803270F02091C1023091C20209
:1043D00038872F831986BB86AA868C87CE010796DD
:1043E0000E94082086E0F801A1ECB2E001900D9255
:1043F0008A95E1F70E94B7200E94A920FF24F39438
:1044000068CFC8010E940820F9CF311113C07A2D5E
:10441000B98AA88A6E2D89890E94692081EC92E070
:104420000E94082086E0F60111928A95E9F70E9421
:10443000A920B2CF25130FC094130DC0E1100BC0FB
:10444000F8018583C8010E94082086E0F6011192D8
:104450008A95E9F73ECF4D875E878D859E850E94C0
:104460006520882371F2EE2061F28091C6028032CD
:1044700008F4B8CF2091C1023091C2023A83298357
:104480001B82BD82AC828E83CE010196A9CFE83714
:10449000F10508F041C0FE2CEE2009F4B2CF25133F
:1044A0002AC0941328C08091C60280FD1BC0982F9B
:1044B000907FC1F0F8018583903F31F0982F907F75
:1044C000905F8F70892B8583C8010E94082086E049
:1044D000F801A1ECB2E001900D928A95E1F70E94FB
:1044E000A920F7CE86E0F801A1ECB2E001900D9290
:1044F0008A95E1F7EECE4D875E878D859E850E9479
:10450000652081116FCF8091C60281608093C602C1
:10451000C8010E940820DDCE7A2DB98AA88A6E2DA6
:1045200089890E94692086E0F60111928A95E9F74F
:10453000D6CFEE2009F465CF4D875E878D859E85A9
:104540000E946520F82E882309F45BCF86E0F801ED
:10455000A1ECB2E001900D928A95E1F781EC92E036
:104560000E94E41C0E94B720BACF81E08E25CBCEFA
:104570001F93CF93DF93CDB7DEB72C970FB6F89488
:10458000DEBF0FBECDBF4F83588769877A878B8781
:104590009C87CE0107960E940D21882369F08A85A9
:1045A0009B85892B39F04F815885842F85238F3F38
:1045B00009F071C016E05FC086E0FE013796DE01AB
:1045C000119601900D928A95E1F78A859B85892B3A
:1045D00089F38F81988589238F3F61F32091900221
:1045E00030E0C90101968770992740918F024817E2
:1045F000190671F40E9442201092900210928F02CC
:1046000086E0E1ECF2E0DF011D928A95E9F7D2CF76
:1046100096E0929FD001939FB00D1124AF56BD4FED
:10462000FE01319601900D929A95E1F780939002E8
:104630000E948820BFCF819FC00111248F569D4FBB
:104640000E940D218823E9F0E0918F021E9FF00166
:104650001124EF56FD4F4081518162817381848125
:1046600095810E94782080918F0290E0019687705A
:10467000992780938F0280918F02909190028913E5
:10468000DACF2C960FB6F894DEBF0FBECDBFDF9108
:10469000CF911F91089569857A858B859C850E94AD
:1046A000782088CFEF92FF920F931F93CF93DF93E1
:1046B0008C01892B81F0F12CEE24E394E801219602
:1046C000F8018491843770F4843008F05FC0813041
:1046D000B1F08230A1F1DF91CF911F910F91FF9046
:1046E000EF900895853709F44CC008F43DC09CE76D
:1046F000980F903780F78F770E94731D49C00E5F27
:104700001F4FFE01849190E2980F983060F48770FB
:10471000FE2D01C0FF0F8A95EAF78F2F0E94E42536
:104720000E940D2602C00E94E91C8F2D815030F29C
:10473000EFE9FFE03197F1F700C00000F7CF0E5F1F
:104740001F4FFE01849190E2980F983050F48770CB
:10475000FE2D01C0FF0F8A95EAF78F2F0E94EA25F0
:10476000DFCF0E94731DE1CF0E5F1F4FFE01C4918A
:10477000C150D8F28FE99FE00197F1F700C0000027
:10478000F7CF0E5F1F4FFE01F490CFCF0E94E91CC0
:104790008E01CBCF08950C94CA230E94CB23609343
:1047A000F8027093F9028093FA029093FB020C9442
:1047B000302008950C94CD230F931F930091F8029D
:1047C0001091F9022091FA023091FB02602B712BBB
:1047D000822B932B1F910F910C94CD230F931F933A
:1047E0000091F8021091F9022091FA023091FB0237
:1047F00060237123822393231F910F910C94CD2367
:104800000F931F930091F8021091F9022091FA0280
:104810003091FB0260277127822793271F910F9108
:104820000C94CD230C94CA230C9412240E941424BB
:104830006093F4027093F5028093F6029093F7026E
:104840000C94302060E070E0CB010C9416240F93A0
:104850001F9341E050E060E070E08A019B0104C0DA
:10486000000F111F221F331F8A95D2F7C901B8010B
:104870001F910F910C9416240F931F9341E050E069
:1048800060E070E004C0440F551F661F771F8A95D3
:10489000D2F78091F4029091F502A091F602B091C6
:1048A000F7028A019B01082B192B2A2B3B2BC901EC
:1048B000B8011F910F910C9416240F931F9341E0A0
:1048C00050E060E070E004C0440F551F661F771F82
:1048D0008A95D2F7CB01BA01609570958095909535
:1048E0000091F4021091F5022091F6023091F70246
:1048F00060237123822393231F910F910C9416241C
:104900000F931F9341E050E060E070E004C0440F5B
:10491000551F661F771F8A95D2F78091F4029091F8
:10492000F502A091F602B091F7028A019B010827D7
:1049300019272A273B27C901B8011F910F910C9411
:1049400016240F931F930091F4021091F502209109
:10495000F6023091F702602B712B822B932B1F9163
:104960000F910C9416240F931F930091F402109151
:10497000F5022091F6023091F70260237123822321
:1049800093231F910F910C9416240F931F93009162
:10499000F4021091F5022091F6023091F70260279F
:1049A0007127822793271F910F910C941624089545
:1049B00027E0929F800D1124982F977041E001C04D
:1049C000440F9A95EAF786958695869595E0899F96
:1049D000F0011124E953FD4F90E080E070E0519127
:1049E000DF0111979B01082E02C0369527950A9486
:1049F000E2F7217021952527242325272C93019662
:104A00008530910561F7089527E0929F800D11246C
:104A1000982F977086958695869525E0829FF00160
:104A20001124E953FD4F50E040E080E0219130E057
:104A3000092E02C0369527950A94E2F72170332794
:104A4000042E01C0220F0A94EAF7822B4F5F5F4FBA
:104A50004530510559F70895BF92CF92DF92EF92FA
:104A6000FF920F931F93CF93DF938C01C090F402BA
:104A7000D090F502E090F602F090F7028091F802F3
:104A80009091F902A091FA02B091FB02C82AD92AAA
:104A9000EA2AFB2ACFE1D0E0BC2ED701C6010C2EBA
:104AA00004C0B695A795979587950A94D2F780FD8F
:104AB0000EC0219788F7B12C8B2DDF91CF911F91DC
:104AC0000F91FF90EF90DF90CF90BF900895B801C5
:104AD0008C2F0E94CA0B019761F3EECFCF93DF9327
:104AE000EC010E942C25BE01DF91CF910C94CA0BE2
:104AF0001F93CF93DF93EB0190918E02992331F0B6
:104B0000CB01DF91CF911F910C946E25882379F012
:104B1000CB010E942C25182F682FCE010E94D8248B
:104B2000BE01812FDF91CF911F910C94CA0BCB0155
:104B30000E940425182FF4CF682F809127019091AF
:104B400028010C946127682F8091270190912801FA
:104B50000C94632780912701909128010C9465277C
:104B60008091FC0285958595859508958091FC023C
:104B7000877008959091FC02977081E009F480E0BD
:104B8000089580910803089590910803892B8093DC
:104B90000803089580959091080398239093080343
:104BA000089510920803089590910703892B80932C
:104BB0000703089580959091070398239093070326
:104BC000089510920703089590910603892B80930E
:104BD0000603089580959091060398239093060309
:104BE00008951092060308958091FD020895089596
:104BF0000C94F7259091FD02981721F08093FD0207
:104C00000C94F82508958091FD02882329F01092D4
:104C1000FD0280E00C94F8250895E0912701F091C1
:104C20002801809108038083E0912701F0912801F9
:104C3000808190910703892B8083E0912701F09177
:104C40002801808190910603892B80839091FD0239
:104C5000992381F0E0912701F09128018081892B2F
:104C6000808380912701909128010E94192781114A
:104C70000E94032680912701909128010C94CC1B5F
:104C800008950C94402698E0899F90011124622B8E
:104C90006093FC020E943C248091FC0285958595DE
:104CA00085950C9441261092FC0280E00C944126DC
:104CB0009091FC02809589238093FC02282F277015
:104CC00071F4282F082E000C330B9217130639F0BD
:104CD0008595859585950E945D240C9453260895AD
:104CE00090E080E00E94C22F21E08C3E9E4F09F0B0
:104CF00020E0822F089582E090E00C94B42F83E0AE
:104D000090E00C94B42F682F83E090E00C94C82FAF
:104D1000CF9384E090E00E94B42FC82F81E290E00E
:104D20000E94B42F982F8C2FCF910895CF93C92F25
:104D3000682F84E090E00E94C82F6C2F81E290E001
:104D4000CF910C94C82FAB01BC018FE090E00C9484
:104D5000DA2FAB01BC0183E190E00C94DA2F60E024
:104D600070E0CB010C94A92660E070E0CB010E94BA
:104D7000A3260C94AF266CEE7EEF90E080E00E94BC
:104D8000E62F60E082E090E00E94C82F60E083E0C0
:104D900090E00E94C82F1092F8021092F90210922F
:104DA000FA021092FB0260E084E090E00E94C82FBB
:104DB00060E081E290E00E94C82F60E085E090E032
:104DC0000E94C82F60E086E090E00E94C82F6FEF3D
:104DD00087E090E00E94C82F40E050E0BA0188E0F0
:104DE00090E00E94DA2F60E08DE090E00E94C82FF2
:104DF00040E050E0BA0188E190E00E94DA2F60E0E4
:104E000087E190E00E94C82F40E050E0BA018CE1B9
:104E100090E00E94DA2F60E080E290E00E94C82FCC
:104E20000C94B4260C94BB26682F8EE090E00C9472
:104E3000C82F9C012E5F3F4FAC01485F5F4F80E061
:104E40002417350709F40895F90191919F019923D9
:104E5000B9F38F5FF5CF662349F0FC0132960896CF
:104E60002191261729F0E817F907D1F780E0089576
:104E700081E008959C01FC0132969FEF80E0419112
:104E8000461751F09F3F19F4411101C0982F8F5FD1
:104E90008630A9F79F3F09F40895290F311D97FD2A
:104EA0003A95F90162830895FC01329608962191A2
:104EB000261303C0DF0111971C92E817F907B9F711
:104EC00008950C943A270C945427029626E0FC018E
:104ED00011922A95E9F70895089508950C946D2785
:104EE0000E946E2780918303843049F110920A0357
:104EF00088E190E020E40FB6F894A89580936000D4
:104F00000FBE2093600080E00E94510B0E946E272C
:104F100083B7817F846083BF83B7816083BF7894C8
:104F2000889583B78E7F83BF0FB6F894A89580913C
:104F30006000886180936000109260000FBE089549
:104F40000895CF930E946C270E94430E0E94A027D1
:104F5000C0E08C2F0E94B40D811105C0CF5FCA3014
:104F6000C1F7CF91089581E0FCCF08950C94B52747
:104F70000E9442200E94C01B0E94510B0C94B62735
:104F80001F921FB61F9211248F939F93AF93BF93CD
:104F900080910A03811113C08091790390917A0363
:104FA000A0917B03B0917C034196A11DB11D80931C
:104FB000790390937A03A0937B03B0937C03BF9112
:104FC000AF919F918F911F901FBE1F90189582E007
:104FD00084BD93E095BD9AEF97BD80936E000895D0
:104FE0002FB7F8948091790390917A03A0917B0375
:104FF000B0917C032FBF08959C014FB7F894809126
:10500000790390917A03A0917B03B0917C034FBF09
:10501000821B930B089578941F921FB61F92112440
:105020008F939F93AF93BF938091790390917A036D
:10503000A0917B03B0917C030196A11DB11D8093CB
:10504000790390937A03A0937B03B0937C03BF9181
:10505000AF919F918F911F901FBE1F90189587E76A
:1050600097E7909301088093000888E19AE00FB6D3
:10507000F894A895809360000FBE90936000FFCFD6
:105080000E947026811102C00E9412270E947B2676
:10509000809309030E94882690937E0380937D036A
:1050A0000E947F26682F70E090E080E00C94DA2365
:1050B0008091130308950895CF93DF9300D00F924A
:1050C000CDB7DEB790918303943019F589837B8344
:1050D0006A8382E08093E9008FEF9091E80081502D
:1050E00095FD06C095ED9A95F1F700008111F5CF79
:1050F0008091E80085FF0DC050E040E063E070E083
:10510000CE0101960E94722A8091E8008E778093EA
:10511000E8000F900F900F90DF91CF910895CF93FB
:10512000DF93EC010E94552A823011F0843031F473
:10513000BE0184E0DF91CF910C945C28DF91CF9188
:105140000895BC0183E00C945C28CF93DF93EC01BD
:105150000E94552A823011F0843039F581E0809325
:10516000E9008FEF9091E800815095FD06C095ED24
:105170009A95F1F700008111F5CF8091E80085FF45
:1051800014C050E040E068E070E0CE010E94722A56
:105190008091E8008E778093E80088E0FE01ABE024
:1051A000B3E001900D928A95E1F7DF91CF910895D8
:1051B00080918203811109C00E94022C0E945F2C01
:1051C0008091E20084608093E2000895109282034F
:1051D0000895089508950C94B82742E061EC81E0A9
:1051E0000E947E2B42E261EC82E00C947E2B809147
:1051F0008503833009F45FC030F48130C1F182301F
:1052000009F49BC008958A3009F487C08B3009F4F3
:105210006DC0893009F04EC080918403813209F05D
:1052200049C08091880390918903029708F042C099
:105230008091E800877F8093E8008091E80082FFFA
:1052400035C09091F3008091F200029729F480918B
:10525000F1008B7F813021F48091F1008093130362
:105260008091E8008B778093E8000C94B22B8091BA
:105270008403813AF9F48091E800877F8093E80005
:105280008091880390918903892B61F468E08BE019
:1052900093E070E00E94C12A8091E8008B778093B0
:1052A000E800089560E090E080E0F3CF8091830310
:1052B0008111C3CF089580918403813AD9F78091F9
:1052C000880390918903892BA9F78091E800877F53
:1052D0008093E8008091E80080FFFCCF809133014B
:1052E0008093F1008091E8008E77BDCF8091840398
:1052F000813201F78091880390918903892BD1F63F
:105300008091E800877F8093E8000E94B22B809113
:105310008603809333010C94422080918403813270
:1053200049F68091E800877F8093E8000E94B22BC5
:105330008091870380931403089580918403813AB8
:1053400009F0B8CF8091E800877F8093E8008091D2
:10535000E80080FFFCCF80911403C2CF84B7877F21
:1053600084BF0FB6F894A8958091600088618093FF
:105370006000109260000FBE80E890E00FB6F894D5
:1053800080936100909361000FBE0E94111C0E94E7
:10539000022C0E945F2C8091E20084608093E200E6
:1053A00078940E94E82E0E94191C89E291E00E94E4
:1053B000BB1B80918303853019F00E94231CF9CF19
:1053C0000E94702780918103882399F30E94A1276E
:1053D000882379F30E945C2AECCF0C94EF29292FC3
:1053E00033272330310519F168F42130310509F4F0
:1053F0004AC02230310509F44BC090E080E030E033
:1054000020E028C02132310579F122323105A9F797
:1054100080E490E025ED3CE061157105D9F082E370
:1054200090E023EA3CE061307105A1F0E6CF9927D6
:105430008130910599F0009741F08230910589F013
:105440000397D9F6EAE2FCE002C0E2E5FCE08491D1
:1054500090E09F01FA01318320830895E4E4FCE0A9
:10546000F6CFE0E3FCE0F3CF89E090E028E63CE013
:105470006115710579F389E090E021E83CE0613045
:10548000710541F3BACF82E190E021E93CE0E2CF3F
:105490008BE390E026E53CE0DDCF80918303843010
:1054A00011F482E0089581E008958091150381113F
:1054B00002C00C944D2A089580E189BD82E189BD26
:1054C00009B400FEFDCF8091D8008F7D8093D80075
:1054D0008091E00082608093E0008091E00081FD97
:1054E000FCCF0895AF92BF92CF92DF92FF920F93BD
:1054F0001F93CF93DF936C01EB018A010E94D12BA4
:10550000F82E811123C00115110539F0F8018081B1
:105510009181C81BD90BC80ED91EB12CA12C209784
:10552000A9F08091E80085FD22C08091E8008E7787
:105530008093E80001151105A1F0F80180819181A7
:10554000A80EB91EB182A08285E0F82E8F2DDF91C2
:10555000CF911F910F91FF90DF90CF90BF90AF90B0
:1055600008950E94D12B8823D1F2F82EEFCFF601B7
:1055700081916F018093F1002197FFEFAF1ABF0A6D
:10558000CECFFC0180918A0390918B0386179707F9
:10559000A0F06115710529F49091E8009E77909331
:1055A000E80090E06115710551F4911108C08091F7
:1055B000E80082FF34C080E00895BC01F2CF809102
:1055C00083038823C1F18530C1F18091E80083FD18
:1055D00030C08091E80082FDEACF8091E80080FF32
:1055E000E1CF8091F3002091F200382F6115710511
:1055F00019F02830310558F091E02830310509F0D4
:1056000090E02091E8002E772093E800CBCF8191A5
:105610008093F100615071092F5F3F4FE7CF809178
:105620008303882341F0853041F08091E80083FFB7
:10563000BECF81E0089582E0089583E00895FC01E3
:1056400080918A0390918B0386179707A0F06115CC
:10565000710529F48091E8008E778093E80090E04E
:105660006115710551F4911108C08091E80082FF25
:1056700035C080E00895BC01F2CF80918303882378
:10568000C9F18530C9F18091E80083FD31C0809176
:10569000E80082FDEACF8091E80080FFE1CF8091B1
:1056A000F3002091F200382F6115710519F02830B0
:1056B000310558F091E02830310509F090E08091F3
:1056C000E8008E778093E800CBCF84918093F1003F
:1056D0003196615071092F5F3F4FE6CF8091830370
:1056E000882341F0853041F08091E80083FFBDCFF1
:1056F00081E0089582E0089583E00895982F97301F
:1057000028F08F708093E90081E008959093E9007C
:10571000242F762F50E0981731F07091EC002091F3
:10572000ED005091F00021FD02C09F5FE8CF309165
:10573000EB003E7F3093EB003091ED003D7F3093E6
:10574000ED003091EB0031603093EB007093EC0092
:105750002093ED005093F0002091EE0027FDE5CF5F
:1057600080E008958091840387FF13C08091E80052
:1057700082FF06C08091E8008B778093E80004C028
:10578000809183038111F2CF089580918303882350
:10579000D9F38091E80080FFF8CF8091E8008E7700
:1057A000ECCF2091E4003091E50095E6A90120912D
:1057B000EC00822F817020FF06C08091E80080FFFE
:1057C00006C080E008952091E80022FD1AC0809173
:1057D0008303882389F0853089F08091EB0085FD73
:1057E0000FC02091E4003091E50042175307F9F211
:1057F0009150E1F684E0089582E0089583E00895F1
:1058000081E008950E94702C0E94782CE0EEF0E078
:10581000808181608083E8EDF0E080818F778083F4
:1058200019BCA7EDB0E08C918E7F8C9380818F7E28
:1058300080831092820308950F931F93CF93DF9379
:105840000E94702C0E94782CC8EDD0E088818F7760
:10585000888388818068888388818F7D888319BC4C
:105860001092830310927F031092810310928003A1
:1058700000EE10E0F80180818B7F80838881816059
:10588000888342E060E080E00E947E2BE1EEF0E061
:1058900080818E7F8083E2EEF0E080818160808372
:1058A000808188608083F80180818E7F80838881F9
:1058B00080618883DF91CF911F910F910895E8ED6A
:1058C000F0E080818F7E8083E7EDF0E08081816071
:1058D000808384E082BF81E0809382030C941C2C3F
:1058E000E8EDF0E080818E7F80831092E2000895E1
:1058F0001092DA001092E10008951F920F920FB6F5
:105900000F9211242F933F934F935F936F937F9345
:105910008F939F93AF93BF93EF93FF938091E10099
:1059200082FF0BC08091E20082FF07C08091E100FE
:105930008B7F8093E1000E94E72E8091DA0080FF48
:1059400019C08091D80080FF15C08091DA008E7F49
:105950008093DA008091D90080FF96C080E189BDF4
:1059600082E189BD09B400FEFDCF81E0809383030D
:105970000E94D8288091E10080FF19C08091E20048
:1059800080FF15C08091E2008E7F8093E2008091BD
:10599000E20080618093E2008091D8008062809371
:1059A000D80019BC85E0809383030E94EA28809187
:1059B000E10084FF2BC08091E20084FF27C080E1DA
:1059C00089BD82E189BD89B5982F917080FFFBCF99
:1059D0008091D8008F7D8093D8008091E1008F7EE8
:1059E0008093E1008091E2008F7E8093E2008091BD
:1059F000E20081608093E20080917F03882309F4B4
:105A000049C084E0809383030E94EB288091E100E9
:105A100083FF29C08091E20083FF25C08091E100CF
:105A2000877F8093E10082E08093830310927F035D
:105A30008091E1008E7F8093E1008091E2008E7F73
:105A40008093E2008091E20080618093E20042E076
:105A500060E080E00E947E2B8091F000886080935F
:105A6000F0000E94E928FF91EF91BF91AF919F91C3
:105A70008F917F916F915F914F913F912F910F90F7
:105A80000FBE0F901F90189519BC109283030E94AF
:105A9000E62870CF8091E30087FD93E09093830325
:105AA000B3CF1F920F920FB60F9211242F933F93F3
:105AB0004F935F936F937F938F939F93AF93BF9316
:105AC000CF93DF93EF93FF93D091E900DF70809144
:105AD000EC00C82FC17080FDC0E81092E9008091F1
:105AE000F000877F8093F00078940E94952D1092AB
:105AF000E9008091F00088608093F000CD2BCF709A
:105B0000C093E900FF91EF91DF91CF91BF91AF91E9
:105B10009F918F917F916F915F914F913F912F91C5
:105B20000F900FBE0F901F9018951F93CF93DF9388
:105B3000CDB7DEB7AA970FB6F894DEBF0FBECDBFC4
:105B400084E893E02091F100FC012193CF01F3E080
:105B50008C389F07B9F70E94F7288091E80083FFEF
:105B60001EC180918403909185039A3008F017C17B
:105B7000E92FF0E0EE55FF4C0C94452F803899F05A
:105B8000823809F00CC1809188038F70873008F04B
:105B900006C18093E9008091EB0085FB882780F99E
:105BA0001092E90006C080918003909181039111C9
:105BB00082609091E800977F9093E8008093F100D5
:105BC0001092F1008091E8008E77E5C0882309F4F7
:105BD000D3C0823009F0E3C0809186038111D6C022
:105BE000809188038F702FEF280F263008F0D7C0E0
:105BF0008093E9002091EB0020FFC8C0933031F47E
:105C00008091EB0080628093EB00C0C09091EB002C
:105C100090619093EB0021E030E001C0220F8A9563
:105C2000EAF72093EA001092EA008091EB00886086
:105C3000EACF8111B4C0109186031F778091E300F1
:105C40008078812B8093E3008091E800877F8093A8
:105C5000E8000E94B22B8091E80080FFFCCF809189
:105C6000E30080688093E30082E0111183E0809379
:105C7000830395C08058823008F091C080918603DC
:105C8000909187038C3D23E09207A1F583E08A83FE
:105C90008AE289834FB7F894DE01139620E03EE054
:105CA00051E2E32FF0E050935700E49120FF03C04E
:105CB000E295EF703F5FEF708E2F90E0EA30C0F01A
:105CC000C7968D939D932F5F243159F74FBF8091D5
:105CD000E800877F8093E8006AE270E0CE010196D9
:105CE0000E94C12A8091E8008B778093E80057C01A
:105CF000C096E7CF6091880370918903AE014F5F32
:105D00005F4F0E94ED29BC01892B09F448C0909196
:105D1000E800977F9093E80089819A810E941F2B69
:105D2000E1CF8038E1F58091E800877F8093E8003B
:105D300080917F038093F10045CF811130C0909115
:105D40008603923060F58091E800877F8093E800B9
:105D500090937F030E94B22B80917F03882311F0E0
:105D600084E005C08091E30087FDFACF81E0809355
:105D700083030E94ED2813C080918603813079F45B
:105D800081E0933009F080E0809381031092E90074
:105D90008091E800877F8093E8000E94B22B809179
:105DA000E80083FF0AC08091E800877F8093E800C5
:105DB0008091EB0080628093EB00AA960FB6F89476
:105DC000DEBF0FBECDBFDF91CF911F910895089523
:105DD000CF93809183038823A1F0C091E900CF7015
:105DE0009091EC00892F817090FD80E8C82B109273
:105DF000E9008091E80083FD0E94952DCF70C0934B
:105E0000E900CF910895991B79E004C0991F961776
:105E100008F0961B881F7A95C9F78095089587FB2F
:105E2000082E062687FD819567FD61950E94032F48
:105E30000EF4919507FC81950895AA1BBB1B51E1B7
:105E400007C0AA1FBB1FA617B70710F0A61BB70BEA
:105E5000881F991F5A95A9F780959095BC01CD018F
:105E6000089597FB072E16F4009407D077FD09D00C
:105E70000E941D2F07FC05D03EF4909581959F4F01
:105E80000895709561957F4F0895EE0FFF1F05905F
:105E9000F491E02D09948F929F92AF92BF92CF928E
:105EA000DF92EF92FF92CF93DF93EC0168817981CB
:105EB0008A819B81611571058105910521F464E258
:105EC00079ED8BE597E02DE133EF41E050E00E9462
:105ED000FC2F49015A019B01AC01A7EAB1E40E94E1
:105EE0001B306B017C01ACEEB4EFA50194010E9464
:105EF0002930DC01CB018C0D9D1DAE1DBF1DB7FFF0
:105F000003C00197A109B04888839983AA83BB8302
:105F10009F77DF91CF91FF90EF90DF90CF90BF9070
:105F2000AF909F908F9008950E944B2F089580E02E
:105F300091E00E944B2F0895B0E0A0E08093000113
:105F400090930101A0930201B09303010895FC0115
:105F50004150504030F001900616D1F73197CF01F3
:105F60000895882799270895F999FECF92BD81BD9C
:105F7000F89A992780B50895A6E1B0E044E050E092
:105F80000C94EE2FA8E1B0E042E050E00C94EE2F2C
:105F9000262FF999FECF92BD81BDF89A019700B4E2
:105FA000021639F01FBA20BD0FB6F894FA9AF99A82
:105FB0000FBE08950396272F0E94C92F0E94C82F55
:105FC000252F0E94C92F242F0C94C92F0196272F0B
:105FD0000E94C92F0C94C82FDC01CB01FC01F99958
:105FE000FECF06C0F2BDE1BDF89A319600B40D9225
:105FF00041505040B8F70895052E97FB1EF40094C9
:106000000E94133057FD07D00E942E3007FC03D0AA
:106010004EF40C94133050954095309521953F4F98
:106020004F4F5F4F089590958095709561957F4F84
:106030008F4F9F4F08950E945030A59F900DB49FA1
:10604000900DA49F800D911D11240895B7FF0C940D
:106050001B300E941B30821B930B0895A1E21A2E65
:10606000AA1BBB1BFD010DC0AA1FBB1FEE1FFF1FFC
:10607000A217B307E407F50720F0A21BB30BE40B4C
:10608000F50B661F771F881F991F1A9469F7609593
:106090007095809590959B01AC01BD01CF0108954D
:1060A000A29FB001B39FC001A39F700D811D112459
:1060B000911DB29F700D811D1124911D0895F894BA
:1060C000FFCFE206240753078807BA07EC071E082C
:1060D00050088808BA08EC081E094D098209B7095A
:1060E0007A17811788178D17921797179C17A11782
:1060F000A617AB17B017B517B917BE17C117C41736
:10610000C717CA17CC17CF171A1E1A1E721E721E77
:10611000C41E471E471E471EE01E6C1F7B1F7B1FB1
:10612000D71F471E471EE01F512051205A205A20DA
:106130005C205A205A205A205120512061205A2098
:106140005A206120BE2DE62DCF2EE62DCF2E192E02
:086150003A2ECF2E912E9D2E58
:106158000100000001DF0100E00105E001E50108A0
:10616800E6010000000102001800181801191A1BA6
:106178001C1D1E1F202122FE025828A5285B28A1CD
:10618800288F2801E200E900EA00B500B600B70050
:10619800CD008301CC008A019201940121022302DF
