:100000000C948B060C949C1A0C94D2060C94D20679
:100010000C94D2060C94D2060C94D2060C94D20600
:100020000C94D2060C94D2060C94E72C0C94BB2DA5
:100030000C942A280C94D2060C94D2060C94D20666
:100040000C94D2060C94D2060C94D2060C94D206D0
:100050000C94D2060C9475280C94D2060C94D206FB
:100060000C94D2060C94D2060C94D2060C94D206B0
:100070000C94D2060C94D2060C94D2060C94D206A0
:100080000C94D2060C94D2060C94D2060C94D20690
:100090000C94D2060C94D2060C94D2060C94D20680
:1000A0000C94D2060C94D2060C94D20629001E00A1
:1000B000085D200021002200105D2B0014001A00B2
:1000C0000800150017000E5DE00004001600070090
:1000D00009000A00155DE1001D001B000600190063
:1000E0000500E000E000E300E200E000185D2C62A3
:1000F0002C62165D0D5D0C5D0B5D0A5D095D115D89
:10010000125D130012000C0018001C000F5D145D3E
:10011000135D0F000E000D000B002A00E5003800F3
:1001200037003600100011004C004F005200500004
:10013000E300195D2A001B5D44003A003B003C00CF
:100140003D003E00105D35021E02520020022102D9
:1001500022022D022B00500051004F0021002200EE
:100160004C00E100230024002500260027002C007D
:10017000E000E300E200E000185D2C004C004500C8
:1001800043004200410040003F00115D3102270260
:1001900026002500240023022E023402330223000D
:1001A000220021000B004C00E500380220001F0057
:1001B0001E00270028004F00510050004A00195D22
:1001C00028004C0044003A003B003C003D003E004B
:1001D0002F0235021E0252002002210222022D02AD
:1001E0002B00500051004F00210022004C00E10084
:1001F000230024002500260027002C00E000E30057
:10020000E200E000185D2C004C0045004300420075
:10021000410040003F0030028900270226022502EB
:10022000240223022E02340233020F000E000D00BE
:100230000B002A00E50038023702360210001100D8
:1002400028004D004B004E004A00195D28002A008E
:1002500029001E00085D200021002200105D2B00F7
:1002600014001A000800150017000E5DE0000400DD
:100270001600070009000A00155DE1001D001B00C3
:10028000060019000500E000E000E300E200E000E5
:10029000185D2B042B04165D0D5D0C5D0B5D0A5D76
:1002A000095D115D125D130012000C0018001C00A6
:1002B0000F5D145D135D4F040E000D0050042A0005
:1002C000E500380037003600100011004C004F00E8
:1002D00052005000E300195D2A001B5D0000000081
:1002E000000000000000000000000000000000000E
:1002F00000000000000000000000000000000000FE
:1003000000000000000000000000000000000000ED
:1003100000000000000000000000000000000000DD
:100960000000000000000000000000000100010085
:100970000100010001000100AC000100005CC25C4C
:10098000C35CC65CC55C010001000100BF5CC15CCA
:10099000BE5CBD5C0100010001000100010001001E
:1009A000010001000100010001000100010001003F
:1009B00001004600A900AA00A8000100AE00AB009B
:1009C00001000100C95CCA5CC75CC85C0100010091
:1009D00001004F0901000100500901000100010060
:1009E00001000100010001000100010001000100FF
:1009F000010001000100010032190A00047F3F1FBD
:100A0000643214643214783C1E1E140A0522232515
:100A10002628292A2C2D2F3032333536383A3B3DC3
:100A20003E4042434547494A4C4E50515355575911
:100A30005A5C5E6062646668696B6D6F717375772E
:100A4000797B7D7F81838587898A8C8E909294962D
:100A5000989A9C9E9FA1A3A5A7A8AAACAEAFB1B33C
:100A6000B4B6B8B9BBBCBEBFC1C2C3C5C6C7C9CA8C
:100A7000CBCCCDCED0D1D2D2D3D4D5D6D7D7D8D94E
:100A8000D9DADADBDBDBDCDCDCDCDCDDDDDDDDDCAC
:100A9000DCDCDCDCDBDBDBDADAD9D9D8D7D7D6D5BE
:100AA000D4D3D2D2D1D0CECDCCCBCAC9C7C6C5C380
:100AB000C2C1BFBEBCBBB9B8B6B4B3B1AFAEACAACD
:100AC000A8A7A5A3A19F9E9C9A98969492908E8C7D
:100AD0008A89878583817F7D7B79777573716F6D57
:100AE0006B6968666462605E5C5A59575553515031
:100AF0004E4C4A4947454342403E3D3B3A383635E5
:100B00003332302F2D2C2A292826252322FFAA7F95
:100B10005540000102030405060708090A0B1716D1
:100B20001514131211100F0E0D0C0001010101011B
:100B30000101010102020202020202020203030396
:100B40000303030303040404040404040505050566
:100B50000506060606060707070707080808080926
:100B60000909090A0A0A0B0B0B0C0C0C0D0D0D0ED2
:100B70000E0E0F0F0F101011111112121313141467
:100B8000151516161717181819191A1A1B1B1C1DDC
:100B90001D1E1E1F20202122222324242526262735
:100BA0002829292A2B2C2D2D2E2F30313232333467
:100BB00035363738393A3B3C3D3E3F40414243446D
:100BC00045464748494A4C4D4E4F5051535455564F
:100BD00058595A5B5D5E5F616264656668696B6CFB
:100BE0006D6F7072737577787A7B7D7E8082838576
:100BF00087888A8C8E8F91939596989A9C9EA0A2B6
:100C0000A3A5A7A9ABADAFB1B3B5B7BABCBEC0C2BF
:100C1000C4C6C9CBCDCFD1D4D6D8DBDDDFE2E4E783
:100C2000E9EBEEF0F3F5F8FAFDFF04033000000005
:100C300012034500720067006F00440061007300FA
:100C4000680000000C034F006D006B006200640040
:100C500000000403090409023B00020100A0FA0994
:100C600004000001030101000921110100012240DB
:100C7000000705810308000A0904010001030000C0
:100C80000009211101000122320007058203200022
:100C90000A1201100100000008EDFE606000010171
:100CA00002030105010980A101850319012AB7008A
:100CB000150126B700950175108100C0050C0901CA
:100CC000A101850419012AA002150126A00295019F
:100CD00075108100C005010906A101050719E02969
:100CE000E7150025019508750181029501750881B8
:100CF000010507190029FF150026FF009506750854
:100D000081000508190129059505750191029501D4
:100D100075039101C00011241FBECFEFDAE0DEBFE2
:100D2000CDBF04B603FE27C080918B0390918C0346
:100D3000A0918D03B0918E038730904BA740B04BAC
:100D4000D1F410928B0310928C0310928D031092A9
:100D50008E0314BE84B7877F84BF0FB6F894A8951E
:100D600080916000886180936000109260000FBEE7
:100D7000E0E0F8E3099511E0A0E0B1E0ECE2F2E692
:100D800002C005900D92A23DB107D9F723E0A2ED74
:100D9000B1E001C01D92AB38B207E1F70E94182AFA
:100DA0000C94C9300C94000088509D458F309105FB
:100DB00008F0E8C2FC01E553FF4CDB0112969C9160
:100DC0000C94AF2F911102C080E00895E0912701AB
:100DD000F09128018081382F327081FB992790F99A
:100DE0009093D301282F207285FB992790F9909337
:100DF000D20131111AC0222301F185EE0E94731D28
:100E00008FE20E94E91C8FE20E94731D8091D30142
:100E1000882319F081EE0E94E91C8091D201882379
:100E200099F285EE0E94E91CCFCF81EE0E94731DDE
:100E30008091D201882321F3E0CF8FE10E94E91C49
:100E40008FE10E94731DC0CF992309F4BDCFE091BB
:100E50002701F09128018081382F327081FB99277A
:100E600090F99093D301282F207285FB992790F950
:100E70009093D20131110AC0222381F085EE0E94A5
:100E8000731D8EE20E94E91C8EE2BECF81EE0E94AD
:100E9000731D8091D2018823A1F3F0CF83E20E94D9
:100EA000E91C83E2CECF992309F48ECFE09127018C
:100EB000F09128018081382F327081FB992790F9B9
:100EC0009093D301282F207285FB992790F9909356
:100ED000D201311110C02223B1F085EE0E94731DA2
:100EE00081EE0E94E91C83E20E94E91C83E20E94D9
:100EF000731D81EE89CF81EE0E94731D8091D20116
:100F0000882371F3EACF84E20E94E91C84E299CF3E
:100F1000992309F459CFE0912701F09128018081AC
:100F2000382F327081FB992790F99093D301282FA5
:100F3000207285FB992790F99093D20131110DC051
:100F4000222399F085EE0E94731D81EE0E94E91C18
:100F500084E30E94E91C84E3CACF81EE0E94731DE2
:100F60008091D201882389F3EDCF85E20E94E91CAC
:100F700085E267CF992309F427CFE0912701F0910B
:100F800028018081382F327081FB992790F9909346
:100F9000D301282F207285FB992790F99093D201D5
:100FA00031110DC0222399F085EE0E94731D81EE50
:100FB0000E94E91C85E20E94E91C85E298CF81EE3F
:100FC0000E94731D8091D201882389F3EDCF86E2C0
:100FD0000E94E91C86E235CF992309F4F5CEE09111
:100FE0002701F09128018081382F327081FB9927E9
:100FF00090F99093D301282F207285FB992790F9BF
:101000009093D20131110DC0222399F085EE0E94F8
:10101000731D81EE0E94E91C86E20E94E91C86E2B3
:1010200066CF81EE0E94731D8091D201882389F3DF
:10103000EDCF87E20E94E91C87E203CF992309F4F0
:10104000C3CEE0912701F09128018081382F3270C2
:1010500081FB992790F99093D301282F207285FB6B
:10106000992790F99093D20131110DC0222399F064
:1010700085EE0E94731D81EE0E94E91C87E80E94A4
:10108000E91C87E834CF81EE0E94731D8091D20164
:10109000882389F3EDCF8DE20E94E91C8DE2D1CE49
:1010A000992309F491CEE0912701F09128018081E4
:1010B000382F327081FB992790F99093D301282F14
:1010C000207285FB992790F99093D20131110DC0C0
:1010D000222399F085EE0E94731D81EE0E94E91C87
:1010E00083E30E94E91C83E302CF81EE0E94731D1B
:1010F0008091D201882389F3EDCF81EE0E94E91C13
:101100008DE20E94E91C8DE20E94731D81EE99CE52
:10111000992309F459CEE0912701F09128018081AB
:10112000382F327081FB992790F99093D301282FA3
:10113000207285FB992790F99093D20131110DC04F
:10114000222399F085EE0E94731D81EE0E94E91C16
:1011500080E30E94E91C80E3CACE81EE0E94731DE9
:101160008091D201882389F3EDCF80E30E94E91CAE
:1011700080E367CE992309F427CEE0912701F0910F
:1011800028018081382F327081FB992790F9909344
:10119000D301282F207285FB992790F99093D201D3
:1011A00031110DC0222399F085EE0E94731D81EE4E
:1011B0000E94E91C82E30E94E91C82E398CE81EE42
:1011C0000E94731D8091D201882389F3EDCF82E3C1
:1011D0000E94E91C82E335CE992309F4F5CDE09114
:1011E0002701F09128018081382F327081FB9927E7
:1011F00090F99093D301282F207285FB992790F9BD
:101200009093D20131110DC0222399F085EE0E94F6
:10121000731D81EE0E94E91C89E80E94E91C89E89F
:1012200066CE81EE0E94731D8091D201882389F3DE
:10123000EDCF87E80E94E91C87E803CE992309F4E3
:10124000C3CDE0912701F09128018081382F3270C1
:1012500081FB992790F99093D301282F207285FB69
:10126000992790F99093D20131110AC0222381F07D
:1012700085EE0E94731D84E30E94E91C84E3C4CDC3
:1012800081EE0E94731D8091D2018823A1F3F0CFDB
:1012900083E30E94E91C83E3D4CD992309F494CD20
:1012A000E0912701F09128018081382F327081FB75
:1012B000992790F99093D301282F207285FB9927C5
:1012C00090F99093D20131110DC0222399F085EE4F
:1012D0000E94731D81EE0E94E91C8FE10E94E91CAF
:1012E0008FE105CE81EE0E94731D8091D20188238B
:1012F00089F3EDCF81EE0E94E91C84E20E94E91C93
:1013000084E202CF992309F45FCDE0912701F091A7
:1013100028018081382F327081FB992790F99093B2
:10132000D301282F207285FB992790F99093D20141
:1013300031110DC0222399F085EE0E94731D81EEBC
:101340000E94E91C8FE20E94E91C8FE2D0CD81EE61
:101350000E94731D8091D201882389F3EDCF81EE25
:101360000E94E91C8EE20E94E91C8EE2CDCE9923F8
:1013700009F42ACD81EE0E94E91C89E30E94E91C50
:1013800089E3C2CE81E008950C949E0D08950F93D9
:101390001F93CF93DF938C01EB010E94D406882327
:1013A00059F1CA8109319DE5190709F453C078F450
:1013B00007319DE51907D9F008311D4521F1CC23EE
:1013C00009F483C01092D6011092D5017BC00A3176
:1013D0009DE5190709F460C00B311D4581F7CC2349
:1013E00009F463C081E08093D40183E058C0CC232A
:1013F00021F080E00E94B50AC0E08C2FDF91CF91F0
:101400001F910F91089581E0CC2351F08093D60174
:101410000E94A62440E162E081E00E941C0BECCF18
:101420000E94C72440E162E081E00E941C0B809191
:10143000D601882361F081E90E94E91C8BE80E94B3
:10144000E91C81E90E94731D8BE80E94731D1092B4
:10145000D601D3CFCC2329F081E08093D50182E05F
:10146000D7CF82E00E94C72440E162E081E00E9481
:101470001C0B8091D501882361F080E90E94E91C52
:101480008AE80E94E91C80E90E94731D8AE80E9494
:10149000731D1092D501B1CF80E1CC2319F00E94C9
:1014A000A624AACF0E94C724A8CF83E00E94C72405
:1014B0008091D401882331F088E20E94E91C88E2FF
:1014C0000E94731D1092D40198CFC82F96CF81E04F
:1014D00008950C94C70908950C946B0A1F93CF9339
:1014E000DF9300D000D00F92CDB7DEB749835A8387
:1014F0006B8330918B0289819A8131111DC06623E3
:10150000B9F02223A9F00E949625182F682F89810F
:101510009A810E94422569817A81812F0F900F90D4
:101520000F900F900F90DF91CF911F910C949C0B17
:101530000E946E25182FEFCF0E94962569817A812F
:10154000EDCFFC01262F408151816281738184811E
:101550000C946E0ACF93DF93EC0160E00E94A10A25
:10156000BE01DF91CF910C946C0ACF93DF93C1E061
:10157000D0E002C0CC0FDD1F8A95E2F78C2F0E94CD
:10158000ED26BE0190E080E0DF91CF910C944424E1
:101590008F929F92AF92BF92CF92DF92EF92FF9283
:1015A0000F931F936B017C0181E090E0A0E0B0E01D
:1015B0004C015D0104C0880C991CAA1CBB1C4A95F7
:1015C000D2F7B501A4014C015D0104C0880C991C3F
:1015D000AA1CBB1C2A95D2F7482959296A297B29BC
:1015E00004C0880F991FAA1FBB1F0A95D2F78A0152
:1015F0009B010C211D212E213F21041715072607D1
:10160000370789F48C299D29AE29BF29BC01CD015A
:101610001F910F91FF90EF90DF90CF90BF90AF9010
:101620009F908F90089580959095A095B0958C216E
:101630009D21AE21BF21EACF0F93382F262F609135
:10164000F3027091F4028091F5029091F602042F5A
:10165000432F0E94C80A0F910C9480240E94DA261E
:10166000811102C00E947C270C94C4090C94A00D27
:1016700008950C94380B81E008950C943B0BCF93A4
:10168000C82F0E94390B8C2FCF910C943D0B0E94D8
:10169000F51D0E94C6092FEF84E39CE02150804095
:1016A0009040E1F700C000000C9499280F931F931D
:1016B000CF93DF93EC0161E00E94A10A8C01BE018F
:1016C0000E94690A882359F1BE01C8010E945A1874
:1016D000882329F1BE01C8010E949B188823F9F0D4
:1016E000BE01C8010E94BE198823C9F0BE01C8010D
:1016F0000E945217882399F08A81882339F00115B6
:101700008CE5180751F00E3D1C4579F0CE01DF91B4
:10171000CF911F910F910C94670A0E94470B80E0B4
:10172000DF91CF911F910F9108950E947C27F7CFF1
:1017300090E080E008950895972F70E027E0929F51
:10174000600D711D1124FB0196E4899FE00DF11DD0
:101750001124EE0FFF1FE455FF4F859194910895DA
:10176000FC01EE0FFF1FE850F64F8591949108950C
:10177000CF93DF930E949C0B0E94C40CEC01811557
:1017800020E5920708F041C0811530E4930708F086
:10179000B4C0803E910518F5803C910508F09DC0CD
:1017A000883A910570F4853A910508F08EC0813031
:1017B0009105F9F00097E9F00497D8F4D0E0C0E083
:1017C00018C08F3B9105D0F7C85AD0E0CC0FDD1F71
:1017D000CC5CDE4F0990D881C02DD4640AC081153D
:1017E000904258F4C11581E0D80718F4C83ED105DD
:1017F00028F7CE01DF91CF910895C11590E3D90765
:1018000008F071C0CE019F706AC0811525E592076E
:1018100058F5811534E5930708F09EC0811542E51F
:10182000940750F4C11581E5D80708F469C0DC2F8E
:10183000CC27C16FD06ADDCF982F969596959E01E3
:1018400023703327C115D34508F077C0C1E0D0E03D
:1018500002C0CC0FDD1F2A95E2F720E2929FC00163
:101860001124C82BD92B67C0C11589E5D807A8F466
:10187000C11598E5D90708F074C0C11526E5D2074F
:1018800008F09CCF8C2F0E945B0DC82FD0E0DC2F7E
:10189000CC27CC27DF71D062ACCFC1153AE5D30796
:1018A00008F464C0CE0190568115904208F086CFAE
:1018B0008D2F8F710E945B0D90E0982F88278827CD
:1018C0009F719C012C2BE901E6CFC55AD0E0CE597F
:1018D000DE4FC881D0E0D0648CCF805C91090E943B
:1018E000B00BEC0186CFCE019927D3FF03C0EC01EA
:1018F000D86C7FCFEC01D06C7CCFDF70D06A79CF11
:10190000CE01E4E096958795EA95E1F783702C2F58
:1019100026952695237090E2299F90011124382B5B
:101920008C2F8370C1E0D0E002C0CC0FDD1F8A9500
:10193000E2F7C22BD32BDC685CCFC1E0D0E002C061
:10194000CC0FDD1F2A95E2F730E2939FC0011124EE
:10195000C82BD92BDA684DCFD82FCC27C46FD06ACB
:1019600048CFDC2FCC27C06FD06A43CF8C2F8F702D
:101970000E945B0D34E0D695C7953A95E1F7CF709C
:101980009C2FEC01D06935CF82389105B1F1B0F4CC
:101990008133910509F475C048F48932910509F441
:1019A00069C08A32910509F473C0089585339105A1
:1019B00009F459C08933910501F10895833E9105D9
:1019C000A9F138F4803E9105F9F0823E910549F184
:1019D0000895863E9105A9F1873E9105C9F1843E9F
:1019E000910519F520917D0321FF1FC080917C0393
:1019F00084FD14C087EE90E0089520917C0323704D
:101A0000A1F080EE90E0089520917C0320FD47C076
:101A100030917D0330FF09C024FF44C090E080E096
:101A200004C020917C0322FDF7CF089520917C0310
:101A300022FD3BC030917D0330FDE3CF24FFF5CF85
:101A4000EDCF20917C0323FFF0CF24FDE7CFD2CF51
:101A500020917C0323FD2CC030917D0331FFEECF1C
:101A600084EE90E0089520917C0325FFDECF89E28B
:101A700090E0089520917C0325FFD7CF85E390E087
:101A8000089520917C0326FFD0CF8AE290E008954C
:101A900020917C0326FFC9CF81E390E0089589E37C
:101AA00090E0089583EE90E0089582EE90E008952E
:101AB00086EE90E0089590917C0392FF06C0282F57
:101AC00028712830F9F4877F846093FF06C0282F9F
:101AD00028712831F1F4877E846120917D0320FFF5
:101AE00006C0382F38713830D9F4877F816021FFE4
:101AF00006C0282F28712831D1F4877E816194FD9A
:101B0000877E0895282F24712430F9F68B7F886012
:101B1000DCCF282F2471243101F78B7E8861DDCF43
:101B2000382F3171313019F78E7F8860E0CF282F40
:101B30002171213121F78E7E8861E1CF08950895CA
:101B40000C949F0DE82FF0E0E15EFC4F808108953A
:101B5000089580EA8A95F1F7089508950E940C0F80
:101B6000809104018091040195E0811190E09093AF
:101B70002A0385E0891B80932903ACE6B1E061E08C
:101B800070E08D91E82FE295EF70F0E041A18F7049
:101B90009B0101C0220F8A95EAF7922F909594231A
:101BA00091A382A1822B82A381E0A137B80749F7D4
:101BB000A5E6B1E061E070E08D91E82FE295EF706D
:101BC000F0E041A18F709B0101C0220F8A95EAF7D6
:101BD000922F9095942391A382A1822B82A381E0DE
:101BE000AC36B80749F7E5E1F3E0AFE1B3E08FE1E8
:101BF00093E011921D928E179F07D9F785E00E94FE
:101C0000B40E0E942E0B0C94210F0E94EB0E882321
:101C1000F9F08091290390E0815E9C4F0E94510F62
:101C2000811113C08091D7018F5F8093D7018630D7
:101C300050F0E0912903F0E0E15EFC4F1082118248
:101C40001282138214820C94360B1092D701FBCFB0
:101C500080912A0390E0815E9C4F0E946E0F0C944D
:101C6000AD0D8F929F92AF92BF92CF92DF92EF9283
:101C7000FF920F931F93CF93DF938CE6A82E81E002
:101C8000B82E05E113E0912CCC24C394D12CF5019E
:101C900081915F01C82FC295CF70D0E099A18F705C
:101CA000760101C0EE0C8A95EAF7892F8E2989A367
:101CB0008AA18E2C809488218AA30E94A90DE5E632
:101CC000F1E050E040E020E03191A32FA295AF7009
:101CD000B0E090968C9190E03F7002C0959587950A
:101CE0003A95E2F780FD3CC08C2D042E01C0880F90
:101CF0000A94EAF7282B4F5F5F4F4730510521F7D1
:101D000089A1882289A28AA1E82AEAA2F801808111
:101D1000281741F1208381E0982A0F5F1F4FF1E7D8
:101D2000AF16F1E0BF0609F0B2CF60912A0370E070
:101D3000615E7C4F292D45E085E193E00E94B50E60
:101D40000E94050E892DDF91CF911F910F91FF9079
:101D5000EF90DF90CF90BF90AF909F908F900895BD
:101D600080E0C8CF80E0D8CF0895FF920F931F93F3
:101D7000CF93DF93F82E092F162FD72FC42F2223AE
:101D800049F081E08093DA010E945A289093D901AA
:101D90008093D8018091DA018823A1F08091D80145
:101DA0009091D9010E946628069760F0EF2DF02FE0
:101DB000A12FBD2FCE0FDF2FD11DEC17FD0741F452
:101DC0001092DA01DF91CF911F910F91FF9008954A
:101DD00081918D93F2CF8091DB01811111C08091AF
:101DE000D80080618093D8008AE18A95F1F700C01D
:101DF0009091D900892F817090FF82E08093DB0160
:101E000081E09091DB01913009F080E008950E941B
:101E1000EB0E91E0892708950E94070F809304013B
:101E2000809104016CE0882349F080E00E94171043
:101E30000E94EB0E882321F00C94280F8CE0F6CF43
:101E400008950E94EB0E811102C00C942E0F08958C
:101E500062E070E085E091E00C94491A62E070E085
:101E600085E091E00C94521A0E941915882361F0C4
:101E700083EE91E00E941F1581E090E00E942B1BF1
:101E8000892B11F40C941C1508958091E20188307F
:101E900039F460E083EE91E00E942F161092E20187
:101EA0000895CF93DF93D82FC92F0E94340F90E06D
:101EB00080E00E942B1B009779F4ED2FFC2FDC01B2
:101EC000A352BE4F2C912193019685309105B9F70D
:101ED00081E0DF91CF91089580E0FBCFCF93DF9336
:101EE000D82FC92F0E94450FED2FFC2F90E080E0E6
:101EF0002191DC01A352BE4F2C93019685309105B0
:101F0000B9F7DF91CF910895AF92BF92CF92DF9250
:101F1000FF920F931F93CF93DF93362F472FE82F16
:101F2000F0E0E65DF44F71110DC06491762F862FBD
:101F3000DF91CF911F910F91FF90DF90CF90BF90D5
:101F4000AF900895C72FD0E02491F22E022F10E019
:101F500056E0659FC0011124EFEFF0E0BF010E9441
:101F6000872F832F90E0880F991F35E5369FD0018A
:101F7000379FB00D11248A1B9B0B982F990F980F38
:101F80006F01CC1ADD0AC09ED001C19EB00DD09E5B
:101F9000B00D11248B2F949FA0011124452F55279C
:101FA0006F01C41AD50AC09EA001C19E500DD09EDB
:101FB000500D11245F01A91AB108AC9E6001AD9EBD
:101FC000D00CBC9ED00C1124CD2CDD24EC19FD09C5
:101FD000E09FE001E19FD00DF09FD00D1124ED2F87
:101FE00062307105A1F048F46115710569F0613046
:101FF000710589F0EB2F852F07C06430710571F0F2
:1020000088F066307105B1F76E2F722F91CFE22FF5
:102010002B2F8D2FF9CFE22F252FF6CFEB2F822FED
:102020002D2FF2CF2B2F8F2DE52FEECF0895E7E147
:10203000F1E0808361830895CF93DF93762FE901E8
:10204000682F842F0E94840F798368838A83DF91AD
:10205000CF91089580912B03982F9E7F29F4817052
:10206000826080932B0308958635E8F38170846540
:10207000F8CF88E090E00C942630CF92DF92EF9278
:10208000FF926B017C010E942A10B701A60188E033
:1020900090E0FF90EF90DF90CF900C944430EBE213
:1020A000F3E083E0808311828FEF82838383148245
:1020B000A0E7B2E012968C911297836012968C93EF
:1020C00060817181828193810C943D1080912B03FA
:1020D00080FF02C08695089580E0089580912F03C7
:1020E000833018F48F5F80932F0360912B037091DE
:1020F0002C0380912D0390912E030C943D10809120
:102100002F03882319F0815080932F0360912B03B4
:1021100070912C0380912D0390912E030C943D100F
:1021200070E00C94C117CF92DF92EF920F931F9340
:10213000CF93DF93CDB7DEB7C854D1090FB6F8946B
:10214000DEBF0FBECDBF6091180180912B0380FFD1
:1021500037C0E2E1FBE09E012F5F3F4F8E01075B3E
:102160001F4FC901A4914A2F50E0DA01AA0FBB1FEB
:10217000A40FB51FA05DBC4FCD90DD90EC90D901B0
:10218000CD92DD92ED929D013196A017B10751F7E6
:1021900020911701B3E02B9F800D911D11240E9407
:1021A0009010C85BDF4F0FB6F894DEBF0FBECDBFF7
:1021B000DF91CF911F910F91EF90DF90CF90089515
:1021C0008091190190911A0123E0829FF00111245E
:1021D000E05DFC4F891708F0BCCF1182108212829B
:1021E0008F5F3396F7CF90912B0390FF14C090919F
:1021F000190120911A0133E0939FF0011124E05D51
:10220000FC4F921710F00C949310818360834283EB
:102210009F5F3396F6CF0895CF93DF9300D00F9250
:10222000CDB7DEB790912B0390FF0AC09E012F5FC0
:102230003F4F0E941C104B8169818A810E94F310DC
:102240000F900F900F90DF91CF910895CF93DF9370
:10225000EC01EC81F0E0E35FF54F4491EBE2F3E059
:10226000628181810E940C118C818F5F8C83DF9150
:10227000CF910895CF93DF93EC01EBE2F3E043813C
:1022800062818C810E940C118C818F5F8C83DF9125
:10229000CF9108950F931F93CF93DF9300D00F92A8
:1022A000CDB7DEB78C018091EB0181110AC09E0190
:1022B0002F5F3F4F4FEF6FEF0E941C108A8180937A
:1022C000EB01F8016481613069F08091EB0140E03D
:1022D000662361F040E0623011F44091EB0180E050
:1022E00060E004C06091EB0140E080E00E94F310E8
:1022F000F801848190E0019663E070E00E949B2FDA
:1023000084830F900F900F90DF91CF911F910F91C9
:102310000895AF92BF92CF92DF92EF92FF920F9308
:102320001F93CF93DF9300D00F92CDB7DEB7182F56
:10233000F62E042FE22E90912B0390FF3AC0E92F46
:10234000E695AE2FB0E0AA58BE4F8C9180937002F4
:102350009E7F9230E1F59E012F5F3F4F812F0E94BB
:102360001C104B8169818A810E94F31080912C039B
:10237000811308C080912D038F1104C080912E031A
:10238000801729F08091720282608093720210930C
:102390002C03F0922D0300932E03EE2051F0609158
:1023A0002B0370912C0380912D0390912E030E949A
:1023B0003D100F900F900F90DF91CF911F910F91D3
:1023C000FF90EF90DF90CF90BF90AF900895823054
:1023D00019F400912E03CACF863019F410912C0302
:1023E000C5CF8930D9F3893109F6E9518E2F817033
:1023F000D82EE695F0E0E35FF44FA590B490C12CA1
:10240000BB2460911B01C61618F00E949310AECF3A
:102410002C2D30E0A29EC001A39E900DB29E900D87
:10242000112470E00E94872F812FD11013C0860FD6
:1024300040911901420F532F511D9A01220F331F52
:10244000240F351F205D3C4F402F6F2D0E941C1024
:10245000C394D7CF861BECCFEBE2F3E09181282F1A
:102460004381628188E0890F0C94891181E00C948A
:102470002C12EBE2F3E09181282F4381628188EFF7
:10248000890F0C94891181E00C943912EBE2F3E08E
:10249000628121E1620F08F46FEF282F438181816F
:1024A0000C94891181E00C944612EBE2F3E0628116
:1024B00021E1621B08F460E0282F438181810C94A4
:1024C000891181E00C945512EBE2F3E0438121E1A4
:1024D000420F08F44FEF282F628181810C948911FB
:1024E00081E00C946412EBE2F3E0438121E1421BB2
:1024F00008F440E0282F628181810C94891181E0E9
:102500000C94731220E00C948911EF92FF921F93A8
:10251000CF93DF93EC0110E0EE24EA94F12C60916C
:102520001B01161770F00E9493109A818C8190FF06
:1025300027C08F5F8C83DF91CF911F91FF90EF9029
:10254000089520911901422F410F5527551FCA01A7
:102550009A01220F331F280F391F205D3C4F70E076
:10256000C7010E949B2F962F8C8140912E03609172
:102570002D03199F800D11240E941C101F5FCFCFC7
:102580008150D8CF8F929F92AF92BF92CF92DF921D
:10259000EF92FF920F931F93CF93DF93EC018A8109
:1025A000BB24BA9480FD02C0BB24B3948C818111FA
:1025B0000AC081E0B8122AC080911B01815080932B
:1025C000ED0181E08C83A12C48E1942E80911B01C8
:1025D000A816F8F00E9493108091ED0191E0B912D5
:1025E00061C081115AC080911B0181508093ED011F
:1025F0001C82DF91CF911F910F91FF90EF90DF90A0
:10260000CF90BF90AF909F908F9008951092ED0162
:10261000D8CF00911901CA2CD12C0C0D1D2D111DE4
:10262000C801880F991F080F191F005D1C4FF80182
:1026300011821082128234E0E32EF12C812C8091E1
:10264000ED01880D89311CF1692D0E94792F892FA8
:10265000082E000C990BC816D90691F480912E0310
:102660008E9DA0018F9D500D112455954795559530
:102670004795980160912D0380912C030E941C10B6
:102680008B0CF1E0EF1AF108D1F6A3949FCF87FFEE
:10269000DFCF90911B01890FDBCF81508093ED013B
:1026A000BC82A7CF90E0019660911B0170E00E9470
:1026B0009B2F8093ED018C839CCFEF92FF920F9321
:1026C0001F93CF93DF93EC018C81811109C081E0CE
:1026D0008C831092EC0192E0909316018093150187
:1026E0008091190190911A0123E0829FF001112439
:1026F000E05DFC4F891768F110E003E060911B0179
:10270000161768F10E949310809115012091EC0139
:10271000280F2093EC0190911601980F90931601C9
:10272000191654F4022E000C330B40911B0141503A
:10273000550B2417350734F08195809315018130AE
:1027400009F41C82DF91CF911F910F91FF90EF90C0
:1027500008951182108212828F5F3396CBCFE12EC3
:10276000F12C70E0C7010E949B2F20911901820F6C
:10277000482F50E02091EC01022E000C330BE216A2
:10278000F306BCF020911601022E000C330B2E151F
:102790003F057CF0809F90011124205D3C4F4091CB
:1027A0002E0360912D0380912C030E941C101F5F4B
:1027B000A5CFFA01EE0FFF1FE40FF51FE05DFC4F00
:1027C000118210821282F3CF0F931F93CF93DF9366
:1027D0008C01FC01848195810196817099279583F4
:1027E0008483C0E0D5E580911B01C81730F0DF91EC
:1027F000CF911F910F910C94931020911901422FAA
:102800004C0F5527551FCA019A01220F331F280F5D
:10281000391F205D3C4F8C2F8695F80144815581EE
:10282000840F952F911D817040912E0360912D038F
:102830008D9F802D11240E941C10CF5FD4CF0F9349
:102840001F93CF93DF93EC0110E000E090911B0108
:102850009017110609F06CF40E9493108C8190E09F
:102860000196817099278C83DF91CF911F910F91F1
:10287000089520911901A801420F511D9A01220FBC
:10288000331F240F351F205D3C4F4C8160912D0379
:1028900080912C0396959017110651F04CF044232B
:1028A00049F040912E030E941C100F5F1F4FCECFA6
:1028B0004423B9F340E0F7CF8F929F92AF92BF923B
:1028C000CF92DF92EF92FF920F931F93CF93DF93FC
:1028D000FC01B280948081E0848300E015E05BE439
:1028E000A52E88248394EE24EA94F12C7BE4C72E51
:1028F000D12C80911B01081770F0DF91CF911F91AF
:102900000F91FF90EF90DF90CF90BF90AF909F908E
:102910008F900C949310C02FD0E01C9FF0011D9F4E
:10292000F00D1124EF50FE4F91101CC01382128243
:1029300020911901CE01820F911D9C01220F331F9E
:10294000280F391F205D3C4F1C9FF0011D9FF00D8B
:102950001124EF50FE4F4281618180810E941C1042
:102960000F5FC7CF2381222379F121502383348144
:102970008A2D821B311101C0822F1C9FF0011D9FE7
:10298000F00D1124EF50FE4F90912E03899FC0014E
:102990001124B6010E94872F6283211104C03323C2
:1029A00011F01482A38222E02B1510F21C9FF0017B
:1029B0001D9FF00D1124EF50FE4F80912C0380835A
:1029C00080912D038183B4CF0E94013082309140E9
:1029D0000CF0AECF82E08B1530F50E940130B701CC
:1029E0000E949B2F1C9FF0011D9FF00D1124EF50A2
:1029F000FE4F808322E02B15C8F40E940130209105
:102A00002D032695622F70E00E949B2F280F1C9F9C
:102A1000F0011D9FF00D1124EF50FE4F2183128213
:102A2000A382848285CF80912C03DCCF20912D035B
:102A3000EECF80917202089510927202089525E0FF
:102A4000EBE2F3E0DC0101900D922A95E1F7209191
:102A500070023091710240917202FC01258336832D
:102A600047830895E0E7F2E01182828184608283E7
:102A70000895EBE2F3E080818E7F80830E9432151F
:102A8000E0E7F2E08281816082832FEF80E792E0CD
:102A9000215080409040E1F700C000000C9493105A
:102AA000EBE2F3E080818E7F80836081718182819F
:102AB00093810E943D100E943215E0E7F2E082818E
:102AC000816082832FEF80E792E021508040904028
:102AD000E1F700C000000C94931060912B03669501
:102AE00070E04BE050E08CE191E00E941130892BC6
:102AF00019F481E0809371020E945A2890936A022F
:102B000080936902809172028460809372020895BA
:102B100090912B0390FF3AC0917081112DC092606B
:102B200090932B03809172028160809372026623DE
:102B300051F060912B0370912C0380912D039091A3
:102B40002E030E943D1060912B03669570E04BE0D0
:102B500050E08CE191E00E941130892BA1F00E949D
:102B6000321581E080936C0240912E0360912D0319
:102B700080912C030C9482128B3210F09465D0CF8C
:102B8000880F982BCDCF0E946D15EBCF0895682F3D
:102B900090912B03969581E0890F8B3208F081E0AC
:102BA0000C94881581E00C94C715682F90912B0325
:102BB00096958FEF890F09F48AE20C94881581E0CD
:102BC0000C94D51561E00C948815EBE2F3E080815C
:102BD0008160808386950C94E21580912B0380FDA3
:102BE0000C9450150C94E51560E00C9488158091B8
:102BF0006F02811133C00E94DA26811104C00E9445
:102C00007C270E944F100E94391060932B03709311
:102C10002C0380932D0390932E0380917202836086
:102C2000809372026E7F61F40E944F100E943910EF
:102C300060932B0370932C0380932D0390932E03AA
:102C40000E942A100E94321580912B0380FF03C03E
:102C500086950E94F41581E080936F0208951F937A
:102C6000CF93DF93EC01162F8F8180FF0CC08881FA
:102C700080FF24C080912B03816080932B03888187
:102C800086950E9488158F8181FF06C0212F4B8178
:102C90006A8189810E9489118F8182FF05C08E819E
:102CA000882379F00E946D158F8183FF03C081E036
:102CB00080936C02DF91CF911F9108950E94391586
:102CC000E2CF0E943215F0CFEF92FF920F931F9345
:102CD000CF93DF9380917102882309F468C08091BB
:102CE0007002E0912B03E695E81BE0936B028230C3
:102CF00009F064C0F0E0E75FF54FE491CE2FD0E03B
:102D000006E211E180916C02882389F010926C0236
:102D10000E945A289E0120953095820F931F909310
:102D20006A028093690210926E0210926D02809185
:102D3000690290916A020E9466288C179D07B8F17B
:102D40008091F0018823B1F01092F0018091EE01A2
:102D50009091EF010E9466288033954758F00E94B9
:102D60005A289093EF018093EE018091720288605F
:102D700080937202E0906D02F0906E02E091690221
:102D8000F0916A02CE0FDF1FD0936A02C0936902EE
:102D900089E692E0F801099580916D0290916E02AA
:102DA000892B29F4EF2819F081E08093F001DF915D
:102DB000CF911F910F91FF90EF900895863049F4C5
:102DC000F0E0EA5FF54FE491CE2FD0E00AE311E1A5
:102DD00099CF893051F4E695F0E0ED5FF54FE4913D
:102DE000CE2FD0E005E812E18DCF8F3051F4E6957B
:102DF000F0E0E050F64FE491CE2FD0E002EC12E18B
:102E000081CF853149F4F0E0E350F64FE491CE2FC5
:102E1000D0E00DE513E176CFC8EED3E004EE13E188
:102E2000883109F46FCF833239F4EBEFF9E0C591C3
:102E3000D4910AE411E166CFC4EFD1E00FE114E1CF
:102E4000843209F45FCFC0EDD7E006E110E18532AE
:102E500009F058CF8E2F63E00E946D2FE92FF0E02C
:102E6000E850F64FE491CE2FD0E00CE514E14ACFC4
:102E7000FA01811101C0FB010994CF93DF93C82FA0
:102E8000D62F0E9466108C1740F00E9466108D1796
:102E900020F4DF91CF910C94D2158C2FDF91CF913C
:102EA0000C94E2151F93CF93DF93EC01FB01128189
:102EB000111110C00E942B268272FE01E25CFC45BB
:102EC000E431F10508F05BC0E652FF4C0C94AF2FE3
:102ED0000E94ED15812FDF91CF911F9108954FED45
:102EE00055E162ED75E10E943817F4CF42ED55E1EE
:102EF0006FED75E1F8CF43E452E166E372E1F3CFA1
:102F000046E352E163E472E1EECF41E652E162E56D
:102F100072E1E9CF42E552E161E672E1E4CF4FE7C9
:102F200052E160E772E1DFCF40E752E16FE772E123
:102F3000DACF4FE750E16EE670E1D5CF4EE650E1D3
:102F40006FE770E1D0CF81E00E94E215C3CF65E06A
:102F500082E00E943D17BECF68E086E0FACF6EE0C7
:102F600089E0F7CF64E18FE0F4CF67E185E1F1CF4D
:102F700088E1EACF62E289E1ECCF83E2E5CF11E0BC
:102F8000A9CF539A4BB1477F5BB15860EFB7F89424
:102F90009B01220F331F260F371F280F391F2817B9
:102FA000390741F4EFBF8FE594E00197F1F700C0D6
:102FB00000000895DC016D91CD0178E05BB900005F
:102FC00000C067FF4BB9660F000000C000C000C022
:102FD0004BB900C07A9591F7E2CF0F931F93CF932F
:102FE000DF93C62FD42F022FFC0182818823C9F0E2
:102FF000609375020E945A28909374028093730222
:1030000080E28C0F883008F050C0C77081E001C0AA
:10301000880FCA95EAF7DF91CF911F910F910C9419
:10302000D51D10917502161335C0809173029091D1
:1030300074020E9466288837910560F5C0E2CD0FC2
:103040001D17B9F080E2810F883040F4177081E0DD
:1030500001C0880F1A95EAF70E94DC1DC83048F4B9
:1030600081E09D2F977001C0880F9A95EAF70E9422
:10307000D51D802F0E94C21DC830B8F4D77081E0E2
:1030800001C0880FDA95EAF7DF91CF911F910F9178
:103090000C94DC1D80E28C0F883038F4C77081E01E
:1030A00001C0880FCA95EAF7EFCFDF91CF911F914A
:1030B0000F9108959C01CB01233F4CE5340731F17A
:1030C00090F4283DFCE53F07E9F0293D4CE5340745
:1030D00069F1273D3C4579F426E241EE61EE0E941C
:1030E000ED1780E00895253FFCE53F07B9F090F02B
:1030F000263F3C45B9F0FC0182818823D1F0109233
:103100007502089527E245EE65EEE9CF26E241EE2D
:1031100060EEE5CF27E245EE64EEE1CF26E241EE38
:1031200062EEDDCF27E245EE66EED9CF28E241E040
:10313000EBCF81E00895CF93DF93EC01FB01828117
:10314000882309F419C1C230FCE5DF07C0F1C6319C
:103150009CE5D90730F09E012A5F3C4529303105B6
:1031600070F50E94F22690937D0380937C03C0311A
:10317000ECE5DE0709F4CFC008F05BC0C8308CE591
:10318000D80709F4B6C088F5C430ECE5DE0709F4C9
:10319000A8C0C0F4C2308CE5D80709F49CC0809167
:1031A0007C038260C330DC4509F498C080917C03C5
:1031B00090917D030E9400270E94F51D80E0DF9121
:1031C000CF91089580917C038061C630ECE5DE07E5
:1031D00009F484C080917C038860C730DC4508F422
:1031E0007DC080917C03806279C0CC308CE5D807AB
:1031F00009F489C070F480917C038C60CA30ECE5DE
:10320000DE0709F46BC008F478C080917C038E7FE0
:1032100065C0CE308CE5D80709F479C080917C0375
:103220008B7FCF30DC4508F459C080917C038F7EC2
:1032300055C0CB3FECE5DE0709F457C030F5C3318C
:103240008CE5D80709F46FC078F4C131ECE5DE07EE
:1032500009F465C0C231DC4509F0A8CF0E94F51D14
:1032600080917C038F773AC0C5318CE5D80709F48B
:1032700062C008F476C080917D038160CA3FDC455E
:1032800009F094CF80937D0391CFCF3FFCE5DF071A
:1032900009F44DC088F480917D038D7FCD3F9CE57E
:1032A000D90781F380917D038E7FCE3FDC4550F3BB
:1032B00080917D038360E6CFC130FDE5DF0709F42F
:1032C00059C008F444C080E0C230DD4509F06ECF3B
:1032D0000E947E276BCF80917C03816080937C036A
:1032E00065CF80917C038460F9CF80917D038260FB
:1032F000C9CF80917C038064F1CF0E94F51D80913D
:103300007C038068EBCF80917C038D7FE7CF809139
:103310007C03877FE3CF80917C038F7DDFCF80911B
:103320007C038F7BDBCF80917C03837FD7CF809121
:103330007D038C7FA7CF80917C0382FB992790F936
:1033400021E0922790FB82F990FB83F9C7CF80910F
:103350007D03982F909591708E7F892B90FB81F93A
:1033600091CF0E94F51D90917C03892F97FB87F9DF
:103370008058B4CF81E0ACCF81E021CFCF93DF93F1
:10338000EB0186319C4511F50E942B269A819923E9
:1033900099F08A7A91E009F490E090937602811195
:1033A00009C089E20E9406260E94772680E0DF910C
:1033B000CF91089585E3F6CF80917602811104C004
:1033C00089E20E940D26F0CF85E3FBCF81E0EFCFAD
:1033D0008EE1489B02C08150E1F7489BFECF0895E3
:1033E000589880E28A95F1F7589A0895FC013BE0DD
:1033F0003A95F1F720E090E080E031E040E14A9535
:10340000F1F7880F489B02C08160232742E04A956C
:10341000F1F7000040E14A95F1F79F5F6913EECFA5
:1034200090E19A95F1F799B132E03A95F1F7000001
:1034300040E14A95F1F7917092272081920F908395
:103440000895EF92FF920F931F93CF93DF930F9204
:10345000CDB7DEB719828C017C01E60EF11C0E158A
:103460001F0561F481E09981911180E00F90DF9157
:10347000CF911F910F91FF90EF9008950E94E8194E
:1034800068E0CE0101960E94F619F80181938F0140
:10349000E6CF909379028093780260937702509AF6
:1034A000589A0895909379028093780260937702F6
:1034B0005098589AE89AE9E6F0E080818C7F808302
:1034C00008956150770B91E001C0990F6A95EAF772
:1034D00020E031E0911108C0222391F0589A80E257
:1034E0008A95F1F758980895492F482339F0589A4A
:1034F000232740E24A95F1F79695ECCF5898F9CFFB
:103500005898EDCFFF920F931F93CF93DF93EC0169
:103510008C01060F111DC017D10731F4DF91CF9137
:103520001F910F91FF900895F9900E94F01968E0A3
:103530008F2D0E94611AEFCF1F920F920FB60F923C
:1035400011240F931F932F933F934F935F936F9388
:103550007F938F939F93AF93BF93EF93FF93CF93FB
:10356000DF930F92CDB7DEB719820E94E81967E0AA
:10357000CE0101960E94F619082F0695069506952C
:10358000982F92959570202F2570920F292F2370D8
:10359000969596958770920F891344C08981811101
:1035A00041C0809177028017E8F120E12A95F1F778
:1035B000589A509A82E08A95F1F700C0A8E00A9FD5
:1035C000C00111240091780210917902080F191F8F
:1035D0005898F8016581662321F0868197810E94C1
:1035E000821A0E94F019F0E1FA95F1F75898509874
:1035F000589A20E12A95F1F7D80112966C9112970A
:10360000662331F113968D919C910E94211AD80165
:10361000ED91FC91882311F088E001C082E0808365
:103620000E94E8190F90DF91CF91FF91EF91BF9128
:10363000AF919F918F917F916F915F914F913F914A
:103640002F911F910F910F900FBE0F901F90189503
:10365000ED91FC91E1CF0F931F93CF93DF932091D6
:103660007702281719060CF471C08C0193E0000F43
:10367000111F9A95E1F7C0917802D0917902C00F9D
:10368000D11FF894509A589825E02A95F1F7000038
:10369000982F969595708570980F892F83709695C1
:1036A0009695980F092B0E94F01900C067E0802FB3
:1036B0000E94611A80E18A95F1F75098589A489BC8
:1036C00017C087E090E0489915C06D81662321F10D
:1036D0008E819F810E94211A81111EC0509A589A92
:1036E000E881F98182E08083789482E090E00DC0E7
:1036F00000C0E5CF019771F4509A589AE881F9819A
:1037000081E08083789481E090E0DF91CF911F91F8
:103710000F91089500C0D7CF0E94E81920E22A95A2
:10372000F1F75898509A80E18A95F1F76A816623FB
:1037300021F08B819C810E94821A0E94F019E881FD
:10374000F9811082789490E080E0DFCF84E090E00F
:10375000DCCF90937F0280937E020895E0917E02F9
:10376000F0917F02309721F00190F081E02D0994D3
:1037700080E00895E0917E02F0917F02309721F081
:103780000280F381E02D0994089520917C0230910C
:103790007D022817390771F090937D0280937C0297
:1037A000E0917E02F0917F02309721F00680F78150
:1037B000E02D0994089520917A0230917B02281718
:1037C000390771F090937B0280937A02E0917E0238
:1037D000F0917F02309721F00084F185E02D09946B
:1037E000089585B7806885BF85B7806885BF0895CF
:1037F000089508950C94F81B08950C94FC1B0E94E6
:10380000F11B0E94F91B0C94FA1B0C94EB0E0E9406
:1038100051280E94AE0D0E94AA280E94F7150C9410
:10382000FD1BBF92CF92DF92EF92FF920F931F93F7
:10383000CF93DF93CDB7DEB72A970FB6F894DEBFEC
:103840000FBECDBF0E94310E0E94051C882309F4D3
:103850005EC081E8C82E82E0D82E10E000E0B02ED5
:10386000802F0E94A20DE82EF601F1906F01F8164C
:1038700009F447C08091080381FD0E94A80D9F2D87
:103880009E2580E0FF24F394292F2F21B1F18E8310
:10389000BF82EF2081E009F480E088870E945A28E7
:1038A0008160782F9A8789874E815F8168858A85B4
:1038B0000E94A81CF801EF57FD4F8081F826F08286
:1038C0000E9464160E94AE1B90918002891781F1BC
:1038D0000E94AE1B809380022A960FB6F894DEBF3A
:1038E0000FBECDBFDF91CF911F910F91FF90EF9051
:1038F000DF90CF90BF900C943F0B8F5FFF0C873011
:1039000019F60F5F1F4F0A30110509F0A8CF8FEF8E
:1039100089838A831B820E945A288160782F9D8325
:103920008C8349815A816B818D810E94A81CC8CFEC
:103930002A960FB6F894DEBF0FBECDBFDF91CF91B0
:103940001F910F91FF90EF90DF90CF90BF9008955F
:10395000CF93DF93CDB7DEB72B970FB6F894DEBFCA
:103960000FBECDBF4F83588769877A878B878A853B
:103970009B85892B21F0852F84238F3FD9F41E82CC
:103980001D8285E0FE013796DE01119601900D92B1
:103990008A95E1F749815A816B817C818D819E8175
:1039A0002B960FB6F894DEBF0FBECDBFDF91CF913F
:1039B0000C94222380918C0290918D020196909319
:1039C0008D0280938C02DBCFFC01808191810C946D
:1039D000D825CF93C82F882309F483C08238C1F437
:1039E0000E94AE1B81FD7DC089E30E9406260E94D5
:1039F00077262FEF81EE94E0215080409040E1F750
:103A000000C0000089E30E940D26CF910C94772618
:103A10008338A1F40E94AE1B80FD63C083E50E9441
:103A200006260E9477262FEF81EE94E021508040F9
:103A30009040E1F700C0000083E5E5CF8438A1F4B1
:103A40000E94AE1B82FD4DC087E40E9406260E94A4
:103A500077262FEF81EE94E0215080409040E1F7EF
:103A600000C0000087E4CFCF8CEF8C0F813A90F438
:103A70006C2F80912701909128010E94952788231F
:103A800029F08C2F0E940D260E9477268C2F0E94F1
:103A90000626BBCF80E28C0F883048F4C77081E0E7
:103AA00001C0880FCA95EAF70E942E26AECFEBE53B
:103AB000EC0FE33040F4F0E0E153FE4F808190E002
:103AC000CF910C94C51BC85AC73158F4EC2FF0E0C5
:103AD000EE0FFF1FEF55FE4F80819181CF910C9427
:103AE000DB1BCF910895882309F44BC0823871F411
:103AF0000E94AE1B81FF45C089E30E9406260E94FA
:103B0000772689E30E940D260C947726833859F492
:103B10000E94AE1B80FF35C083E50E9406260E94EE
:103B2000772683E5EFCF843859F40E94AE1B82FFDD
:103B300028C087E40E9406260E94772687E4E2CF09
:103B40009CEF980F913AF0F290E2980F983050F471
:103B5000877091E001C0990F8A95EAF7892F0E943A
:103B60003426D2CF9BE5980F933020F490E080E08C
:103B70000C94C51B885A873120F490E080E00C94A7
:103B8000DB1B0895CF93C82F0E94E91CC93349F469
:103B90002FEF87EE93E0215080409040E1F700C086
:103BA00000008C2FCF910C94731D882321F00E946C
:103BB0002E260C9477260895882321F00E9434261F
:103BC0000C94772608950E944B260E945B260E9443
:103BD000772690E080E00E94C51B90E080E00C9486
:103BE000DB1B0E9414260C94E31D0E943B260C94C0
:103BF000F11DE92FE295EF70E250EE3070F4F0E045
:103C0000E251FF4C0C94AF2F803F19F020F4883E16
:103C100020F481E00895843FE1F380E00895883E38
:103C2000C0F3813FD1F7F5CF93FB882780F9089542
:103C30000E94D8250C94F91D4F925F926F927F924B
:103C4000BF92CF92DF92EF92FF920F931F93CF9389
:103C5000DF936C01EB01FC01058102950F7012816D
:103C600011110E944B260E942426E82E882391F0F1
:103C70001123D1F08D2F807F803421F080E28C0FD2
:103C8000883090F082E00E94C2260E94242691E0B3
:103C9000E82EE926BD2EB2942FE0B222EB2DF0E003
:103CA000E450FF4C0C94AF2FE12CF4CFFD2FFF70AC
:103CB000FF2E8D2F807F19F0F29490EFF9221123BF
:103CC000A9F0FF2059F080E28C0F883010F0C1116C
:103CD00009C08F2D0E942E260E9477268C2F0E94CD
:103CE000E91C14C08F2D0E943E26F6CF8C2F0E9417
:103CF000731DFF2059F080E28C0F883010F0C11145
:103D000038C08F2D0E9434260E947726EB2DE85074
:103D1000FF0B349720F40E94AE1B0E943F0BCE0194
:103D20000E94F91D8111A4C110928D0210928C0283
:103D3000EE2009F4AFC10E94202680FDABC1F60140
:103D400012820E941A260E94A624C6010E946F2099
:103D50000E941A26DF91CF911F910F91FF90EF9053
:103D6000DF90CF90BF907F906F905F904F900C94BA
:103D7000C7248F2D0E944426C7CF2D2F2F70F22EDF
:103D80008D2F807F803219F0F29480EFF822CC23BF
:103D900069F0C13049F1112391F1002351F1F6018D
:103DA000858180FF9BCF8F70858323C0112381F095
:103DB000011106C00E945E268F290E94D51DA6CF44
:103DC0000130C1F70E945E268F290E9464269ECF93
:103DD000011106C00E946D268F2D0E94DC1D96CF1A
:103DE000013009F493CFF6CF112329F0063008F003
:103DF0008DCF8F2DE2CF053008F088CFEDCF002397
:103E000059F3C93349F4FFEF27EE33E0F150204076
:103E10003040E1F700C000008C2F0E94731D76CF68
:103E20008D2F86958695837061F0813009F06ECF75
:103E3000CE019370111102C090E080E00E94DB1B64
:103E400065CFCE019370111102C090E080E00E9416
:103E5000C51B5CCF8D2F837009F043C0111156CF65
:103E60002C2F229526952770220F220F6C2F6F7012
:103E7000462E512C712C612C022E04C0440C551C72
:103E8000661C771C0A94D2F760E070E0CB01C4FF97
:103E90000FC06FE070E080E090E004C0660F771F15
:103EA000881F991F2A95D2F76095709580959095F7
:103EB0002D2F269526952370642975298629972903
:103EC000223049F058F4213019F00E9458241ECFB6
:103ED0000E9446241BCF0E946A2418CF0E944424CB
:103EE00015CF8695112311F08D2F8170882309F449
:103EF0000DCF2C2F229526952770220F220F6C2F85
:103F00006F70462E512C712C612C022E04C0440C73
:103F1000551C661C771C0A94D2F760E070E0CB0158
:103F2000C4FF0FC06FE070E080E090E004C0660F57
:103F3000771F881F991F2A95D2F7609570958095F5
:103F400090952D2F2695269523706429752986290D
:103F50009729223049F058F4213019F00E941D258C
:103F6000D5CE0E940B25D2CE0E942F25CFCE0E9407
:103F70008024CCCE8D2F8F70F82E112321F00E943B
:103F8000A6248C2F1ACF8C2F0E94DC1D8F2D0E940F
:103F9000C724BCCEC23F99F160F4C03FD9F0C13F05
:103FA00039F1112309F444C0011198CE8D2F8F717E
:103FB00023C0C33F49F1C43FA1F7112379F19D2FDD
:103FC0009F71F92E892F0E94A62463E08F2D0E94F5
:103FD000AD269CCE112341F0053008F097CE8D2FF1
:103FE0008F710E94EA2492CE063008F08FCEF7CF70
:103FF0008D2F8F71112359F20E94A62487CE8D2F09
:104000008F711123C9F3C3CF112329F08D2F8F7125
:104010000E9491247BCE0E948C2478CE81E00E9465
:10402000C226023008F472CE82E00E94C2266ECE12
:10403000002359F0C93309F0EFCEEFEFF7EE23E09C
:10404000E150F0402040E1F7E5CE8D2F8F719FCFFA
:104050004D2F4F706C2FC6010E94980B0E94BC23FD
:1040600055CE4D2F4F706C2FC6010E949B0B4ECE2C
:10407000112319F0011158CE5BCE011155CE80915C
:104080008C0290918D02029709F04ECE8C2F0E94E7
:10409000C21D4ACEDF91CF911F910F91FF90EF90FB
:1040A000DF90CF90BF907F906F905F904F9008957A
:1040B0000F931F93CF93DF93EC01688179818A81FD
:1040C0000E94E2258C010E9441250E944324B801F0
:1040D000CE01DF91CF911F910F910C941C1ECF93B5
:1040E000DF93EC018B819C81892B29F08881998158
:1040F00089238F3F59F4DF91CF910895CE010E941B
:104100005820CE01DF91CF910C94AA0ACE010E94D3
:10411000560B8111F3CF0E942426882361F38A81F4
:10412000882349F382E0DF91CF910C94C226CF938C
:10413000DF9300D000D00F92CDB7DEB70F900F9075
:104140000F900F900F90DF91CF910895CF93DF9351
:1041500000D000D000D0CDB7DEB726960FB6F894C9
:10416000DEBF0FBECDBFDF91CF9108951F93CF93D8
:10417000DF93C0918E0216E080918F028C1304C0F1
:10418000DF91CF911F910895D0E01C9FF0011D9FFA
:10419000F00D1124E057FD4F408151816281738100
:1041A000848195810E94A6202196C770E5CF409119
:1041B000C0025091C1026091C2027091C30280910D
:1041C000C4029091C5020C94A62020918E02909179
:1041D0008F0256E0291302C080E0089530E0529F1C
:1041E000F001539FF00D1124E057FD4F71817613BC
:1041F00006C07081781303C07281741304C02F5FEE
:104200003F4F2770E7CF81E008951F93CF93DF934F
:104210008091C502807FA9F48091C202882389F031
:1042200080918E02C0918F026091C0027091C10294
:10423000A091C302B091C402D62FD72316E0C813B1
:1042400004C0DF91CF911F91089590E0109711F075
:10425000DF3F19F401968770F2CF189F9001199FE4
:10426000300D1124F901E057FD4F41814713F2CF82
:1042700040814613EFCF42814111ECCF43815481FD
:104280004A1B5B0B4837510528F78091C5028F7098
:1042900080618093C502F901EB56FD4F80818F70DC
:1042A0008061808380EC92E00E946F20DF91CF914B
:1042B0001F910C94B6208F929F92AF92BF92CF9293
:1042C000DF92EF92FF920F931F93CF93DF93CDB7BF
:1042D000DEB761970FB6F894DEBF0FBECDBF8C017D
:1042E00085E0F801DE011D9601900D928A95E1F7B7
:1042F000D801EC901196FC9011971296CC901297E1
:1043000080ECA82E82E0B82E4091C3025091C402E6
:104310004115510509F474C19091C0022091C10268
:10432000892F82238F3F09F46BC113968D909C9047
:104330001497D090C202F401E41BF50BDD2009F4C0
:104340000AC18091C502382F307FE837F10508F0A7
:10435000C1C0311189C0DC2C2F1126C09E1124C090
:10436000C11022C08F7080618093C5020E94D72047
:10437000C5010E946F208091C502D80115968C93CB
:104380008D2D61960FB6F894DEBF0FBECDBFDF91C5
:10439000CF911F910F91FF90EF90DF90CF90BF9042
:1043A000AF909F908F9008958114910429F08F2DE4
:1043B0008E218F3F09F043C180E080FF15C04C2D56
:1043C0006F2D8E2D0E94E520882371F080EC92E005
:1043D0000E946F2086E0E0ECF2E0DF011D928A95FA
:1043E000E9F70E94D7203EC0892829F08F2D8E2121
:1043F0008F3F09F021C180E0B82FB170AB2E80FF54
:1044000029C04C2D6F2D8E2D0E94E520B82E8111D4
:1044100021C0ED86FE868D859E850E94D825292F98
:1044200022952F70223050F0243078F49F7051F094
:10443000F8019581907F31F4DB2CA2CF9F7011F0B1
:104440008823D1F3805E8830B8F3C8010E946F20C2
:10445000BA2CF2CFCC2009F493CF8091C5028160B1
:104460008093C502D12C8CCF2F1105C09E1103C0A3
:10447000CC2009F48DC0ED86FE868D859E850E9438
:10448000181E882319F1CC2009F18091C5028032D1
:1044900070F02091C0023091C10238872F831986B5
:1044A0009B868A868C87CE0107960E946F2086E0C5
:1044B000F801A0ECB2E001900D928A95E1F70E941C
:1044C00005210E94D720DD24D3945ACFC8010E9431
:1044D0006F20F9CF311112C0782D998A888AA701EF
:1044E0006C2D89890E94972080EC92E00E946F20B9
:1044F00086E0F50111928A95E9F773CF2F110FC06D
:104500009E110DC0C1100BC015968C93C8010E945E
:104510006F2086E0F50111928A95E9F731CFED869B
:10452000FE868D859E850E94181E882379F2CC20F8
:1045300069F28091C502803208F4B9CF2091C0029F
:104540003091C1023A8329831B829D828C828E83A3
:10455000CE010196AACFE837F10508F043C0DC2C64
:10456000CC2009F4B3CF2F112CC09E112AC080910A
:10457000C50280FD1DC0982F907FD1F015968C93B9
:104580001597903F39F0982F907F905F8F70892B0F
:1045900015968C93C8010E946F2086E0F801A0EC6C
:1045A000B2E001900D928A95E1F70E94D720E8CE03
:1045B00086E0F801A0ECB2E001900D928A95E1F757
:1045C000DFCEED86FE868D859E850E94181E8111A8
:1045D0006ECF8091C50281608093C502C8010E94A0
:1045E0006F20CECE782D998A888AA7016C2D898973
:1045F0000E94972086E0F50111928A95E9F7D5CFC0
:10460000CC2009F463CFED86FE868D859E850E94C1
:10461000181ED82E882309F459CF86E0F801A0ECA3
:10462000B2E001900D928A95E1F780EC92E00E9451
:10463000E41C0E940521B9CF81E08C25DDCE81E00C
:104640008C25BBCE1F93CF93DF93CDB7DEB72C97CE
:104650000FB6F894DEBF0FBECDBF4F835887698772
:104660007A878B879C87CE0107960E945B218823DF
:1046700069F08A859B85892B39F04F815885842F75
:1046800085238F3F09F071C016E05FC086E0FE0110
:104690003796DE01119601900D928A95E1F78A8591
:1046A0009B85892B89F38F81988589238F3F61F3BF
:1046B00020918F0230E0C9010196877099274091BF
:1046C0008E024817190671F40E94F51D10928F0290
:1046D00010928E0286E0E0ECF2E0DF011D928A95F6
:1046E000E9F7D2CF96E0929FD001939FB00D1124AD
:1046F000A057BD4FFE01319601900D929A95E1F7BA
:1047000080938F020E94B620BFCF819FC0011124E9
:1047100080579D4F0E945B218823E9F0E0918E0233
:104720001E9FF0011124E057FD4F408151816281AD
:104730007381848195810E94A62080918E0290E0F1
:1047400001968770992780938E0280918E029091B6
:104750008F028913DACF2C960FB6F894DEBF0FBE06
:10476000CDBFDF91CF911F91089569857A858B85A3
:104770009C850E94A62088CFEF92FF920F931F93F3
:10478000CF93DF938C01892B81F0F12CEE24E394FD
:10479000E8012196F8018491843770F4843008F0A0
:1047A0005FC08130B1F08230A1F1DF91CF911F91D4
:1047B0000F91FF90EF900895853709F44CC008F4ED
:1047C0003DC09CE7980F903780F78F770E94731D4C
:1047D00049C00E5F1F4FFE01849190E2980F983000
:1047E00060F48770FE2D01C0FF0F8A95EAF78F2FC6
:1047F0000E944E260E94772602C00E94E91C8F2D3F
:10480000815030F2EFE9FFE03197F1F700C000008E
:10481000F7CF0E5F1F4FFE01849190E2980F983002
:1048200050F48770FE2D01C0FF0F8A95EAF78F2F95
:104830000E945426DFCF0E94731DE1CF0E5F1F4FF1
:10484000FE01C491C150D8F28FE99FE00197F1F7C2
:1048500000C00000F7CF0E5F1F4FFE01F490CFCFD6
:104860000E94E91C8E01CBCF08950C9434240E9441
:1048700035246093F7027093F8028093F9029093C5
:10488000FA020C94E31D08950C9437240F931F93A0
:104890000091F7021091F8022091F9023091FA028A
:1048A000602B712B822B932B1F910F910C9437242B
:1048B0000F931F930091F7021091F8022091F902D3
:1048C0003091FA0260237123822393231F910F9169
:1048D0000C9437240F931F930091F7021091F80264
:1048E0002091F9023091FA026027712782279327DD
:1048F0001F910F910C9437240C9434240C947C2435
:104900000E947E246093F3027093F4028093F50278
:104910009093F6020C94E31D60E070E0CB010C94E0
:1049200080240F931F9341E050E060E070E08A0123
:104930009B0104C0000F111F221F331F8A95D2F75D
:10494000C901B8011F910F910C9480240F931F93FC
:1049500041E050E060E070E004C0440F551F661F66
:10496000771F8A95D2F78091F3029091F402A0917B
:10497000F502B091F6028A019B01082B192B2A2B14
:104980003B2BC901B8011F910F910C9480240F9308
:104990001F9341E050E060E070E004C0440F551FF9
:1049A000661F771F8A95D2F7CB01BA016095709583
:1049B000809590950091F3021091F4022091F502F8
:1049C0003091F60260237123822393231F910F916C
:1049D0000C9480240F931F9341E050E060E070E05E
:1049E00004C0440F551F661F771F8A95D2F7809128
:1049F000F3029091F402A091F502B091F6028A01BF
:104A00009B01082719272A273B27C901B8011F91B5
:104A10000F910C9480240F931F930091F302109137
:104A2000F4022091F5023091F602602B712B822B5B
:104A3000932B1F910F910C9480240F931F9300913F
:104A4000F3021091F4022091F5023091F6026023F6
:104A50007123822393231F910F910C9480240F9331
:104A60001F930091F3021091F4022091F50230910E
:104A7000F60260277127822793271F910F910C94CC
:104A80008024089527E0929F800D1124982F97701D
:104A900041E001C0440F9A95EAF786958695869580
:104AA00095E0899FF0011124EA53FD4F90E080E0EA
:104AB00070E05191DF0111979B01082E02C03695DD
:104AC00027950A94E2F7217021952527242325278D
:104AD0002C9301968530910561F7089527E0929F08
:104AE000800D1124982F977086958695869525E0E0
:104AF000829FF0011124EA53FD4F50E040E080E036
:104B0000219130E0092E02C0369527950A94E2F7EC
:104B100021703327042E01C0220F0A94EAF7822B5A
:104B20004F5F5F4F4530510559F70895BF92CF92BF
:104B3000DF92EF92FF920F931F93CF93DF938C013D
:104B4000C090F302D090F402E090F502F090F602EB
:104B50008091F7029091F802A091F902B091FA02C7
:104B6000C82AD92AEA2AFB2ACFE1D0E0BC2ED701F5
:104B7000C6010C2E04C0B695A795979587950A9403
:104B8000D2F780FD0EC0219788F7B12C8B2DDF91D5
:104B9000CF911F910F91FF90EF90DF90CF90BF903A
:104BA0000895B8018C2F0E94B80B019761F3EECFE6
:104BB000CF93DF93EC010E949625BE01DF91CF9148
:104BC0000C94B80B1F93CF93DF93EB0190918B0262
:104BD000992331F0CB01DF91CF911F910C94D8250F
:104BE000882379F0CB010E949625182F682FCE01DB
:104BF0000E944225BE01812FDF91CF911F910C941D
:104C0000B80BCB010E946E25182FF4CF682F80912E
:104C10002701909128010C94CB27682F80912701C0
:104C2000909128010C94CD27809127019091280123
:104C30000C94CF278091FB028595859585950895E5
:104C40008091FB02877008959091FB02977081E03C
:104C500009F480E008958091070308959091070377
:104C6000892B8093070308958095909107039823DB
:104C700090930703089510920703089590910603F7
:104C8000892B8093060308958095909106039823BD
:104C900090930603089510920603089590910503DA
:104CA000892B80930503089580959091050398239F
:104CB0009093050308951092050308958091FC02D6
:104CC000089508950C9461269091FC02981721F0A4
:104CD0008093FC020C94622608958091FC02882344
:104CE00029F01092FC0280E00C9462260895E09175
:104CF0002701F0912801809107038083E09127012B
:104D0000F0912801808190910603892B8083E091A6
:104D10002701F0912801808190910503892B8083E0
:104D20009091FC02992381F0E0912701F0912801F4
:104D30008081892B808380912701909128010E9496
:104D4000832781110E946D2680912701909128016F
:104D50000C94BA1B08950C94AA2698E0899F9001A0
:104D60001124622B6093FB020E94A6248091FB0217
:104D70008595859585950C94AB261092FB0280E075
:104D80000C94AB269091FB02809589238093FB02C3
:104D9000282F277071F4282F082E000C330B921740
:104DA000130639F08595859585950E94C7240C9446
:104DB000BD26089590E080E00E942C3021E08C3EDA
:104DC0009E4F09F020E0822F089582E090E00C943D
:104DD0001E3083E090E00C941E30682F83E090E05A
:104DE0000C943230CF9384E090E00E941E30C82FA4
:104DF00081E290E00E941E30982F8C2FCF91089571
:104E0000CF93C92F682F84E090E00E9432306C2F3E
:104E100081E290E0CF910C943230AB01BC018FE085
:104E200090E00C944430AB01BC0183E190E00C9421
:104E3000443060E070E0CB010C94132760E070E038
:104E4000CB010E940D270C9419276CEE7EEF90E0A9
:104E500080E00E94503060E082E090E00E943230BA
:104E600060E083E090E00E9432301092F7021092EE
:104E7000F8021092F9021092FA0260E084E090E0E9
:104E80000E94323060E081E290E00E94323060E0C7
:104E900085E090E00E94323060E086E090E00E9481
:104EA00032306FEF87E090E00E94323040E050E017
:104EB000BA0188E090E00E94443060E08DE090E02C
:104EC0000E94323040E050E0BA0188E190E00E9458
:104ED000443060E087E190E00E94323040E050E0F2
:104EE000BA018CE190E00E94443060E080E290E002
:104EF0000E9432300C941E270C942527682F8EE0D8
:104F000090E00C9432309C012E5F3F4FAC01485F23
:104F10005F4F80E02417350709F40895F901919156
:104F20009F019923B9F38F5FF5CF662349F0FC0108
:104F3000329608962191261729F0E817F907D1F73C
:104F400080E0089581E008959C01FC0132969FEF76
:104F500080E04191461751F09F3F19F4411101C083
:104F6000982F8F5F8630A9F79F3F09F40895290F86
:104F7000311D97FD3A95F90162830895FC0132963F
:104F800008962191261303C0DF0111971C92E817A0
:104F9000F907B9F708950C94A4270C94BE2702963C
:104FA00026E0FC0111922A95E9F7089508950895E5
:104FB0000C94D7270E94D82780918203843049F12E
:104FC0001092090388E190E020E40FB6F894A895C8
:104FD000809360000FBE2093600080E00E943F0B32
:104FE0000E94D82783B7817F846083BF83B78160A5
:104FF00083BF7894889583B78E7F83BF0FB6F8946C
:10500000A895809160008861809360001092600094
:105010000FBE08950895CF930E94D6270E94310EA7
:105020000E940A28C0E08C2F0E94A20D811105C0A9
:10503000CF5FCA30C1F7CF91089581E0FCCF0895CA
:105040000C941F280E94F51D0E94AE1B0E943F0B6E
:105050000C9420281F921FB61F9211248F939F93A8
:10506000AF93BF9380910903811113C0809178039E
:1050700090917903A0917A03B0917B034196A11D91
:10508000B11D8093780390937903A0937A03B09332
:105090007B03BF91AF919F918F911F901FBE1F9077
:1050A000189582E084BD93E095BD9AEF97BD8093FB
:1050B0006E0008952FB7F89480917803909179034A
:1050C000A0917A03B0917B032FBF08959C014FB745
:1050D000F8948091780390917903A0917A03B0912C
:1050E0007B034FBF821B930B089578941F921FB6CA
:1050F0001F9211248F939F93AF93BF938091780356
:1051000090917903A0917A03B0917B030196A11D40
:10511000B11D8093780390937903A0937A03B093A1
:105120007B03BF91AF919F918F911F901FBE1F90E6
:10513000189587E797E7909301088093000888E126
:105140009AE00FB6F894A895809360000FBE9093F4
:105150006000FFCF0E94DA26811102C00E947C27E6
:105160000E94E526809308030E94F22690937D0317
:1051700080937C030E94E926682F70E090E080E035
:105180000C9444248091120308950895CF93DF93E3
:1051900000D00F92CDB7DEB790918203943019F50D
:1051A00089837B836A8382E08093E9008FEF90910B
:1051B000E800815095FD06C095ED9A95F1F7000045
:1051C0008111F5CF8091E80085FF0DC050E040E0EF
:1051D00063E070E0CE0101960E94DC2A8091E80035
:1051E0008E778093E8000F900F900F90DF91CF9112
:1051F0000895CF93DF93EC010E94BF2A823011F013
:10520000843031F4BE0184E0DF91CF910C94C62844
:10521000DF91CF910895BC0183E00C94C628CF9311
:10522000DF93EC010E94BF2A823011F0843039F5FF
:1052300081E08093E9008FEF9091E800815095FD27
:1052400006C095ED9A95F1F700008111F5CF809198
:10525000E80085FF14C050E040E068E070E0CE0157
:105260000E94DC2A8091E8008E778093E80088E035
:10527000FE01AAE0B3E001900D928A95E1F7DF917B
:10528000CF91089580918103811109C00E946C2CF7
:105290000E94C92C8091E20084608093E20008950E
:1052A000109281030895089508950C94222842E0F5
:1052B00061EC81E00E94E82B42E261EC82E00C9418
:1052C000E82B80918403833009F45FC030F481308F
:1052D000C1F1823009F49BC008958A3009F487C077
:1052E0008B3009F46DC0893009F04EC08091830382
:1052F000813209F049C08091870390918803029719
:1053000008F042C08091E800877F8093E800809198
:10531000E80082FF35C09091F3008091F20002977F
:1053200029F48091F1008B7F813021F48091F1008C
:10533000809312038091E8008B778093E8000C94AF
:105340001C2C80918303813AF9F48091E800877FD7
:105350008093E8008091870390918803892B61F402
:1053600068E08AE093E070E00E942B2B8091E800D7
:105370008B778093E800089560E090E080E0F3CFC1
:10538000809182038111C3CF089580918303813A74
:10539000D9F78091870390918803892BA9F7809191
:1053A000E800877F8093E8008091E80080FFFCCFD1
:1053B000809133018093F1008091E8008E77BDCF1A
:1053C00080918303813201F7809187039091880354
:1053D000892BD1F68091E800877F8093E8000E94B6
:1053E0001C2C80918503809333010C94F51D8091D2
:1053F0008303813249F68091E800877F8093E8003B
:105400000E941C2C80918603809313030895809141
:105410008303813A09F0B8CF8091E800877F8093B9
:10542000E8008091E80080FFFCCF80911303C2CF99
:1054300084B7877F84BF0FB6F894A89580916000E9
:10544000886180936000109260000FBE80E890E059
:105450000FB6F89480936100909361000FBE0E9494
:10546000FF1B0E946C2C0E94C92C8091E20084607A
:105470008093E20078940E94522F0E94071C89E2D8
:1054800091E00E94A91B80918203853019F00E944F
:10549000111CF9CF0E94DA2780918003882399F3A9
:1054A0000E940B28882379F30E94C62AECCF0C9423
:1054B000592A292F33272330310519F168F4213077
:1054C000310509F44AC02230310509F44BC090E09F
:1054D00080E030E020E028C02132310579F122322D
:1054E0003105A9F780E490E025ED3CE061157105F8
:1054F000D9F082E390E023EA3CE061307105A1F04D
:10550000E6CF99278130910599F0009741F08230DC
:10551000910589F00397D9F6EAE2FCE002C0E2E5E2
:10552000FCE0849190E09F01FA013183208308958B
:10553000E4E4FCE0F6CFE0E3FCE0F3CF89E090E0C8
:1055400028E63CE06115710579F389E090E021E8F7
:105550003CE06130710541F3BACF82E190E021E98E
:105560003CE0E2CF8BE390E026E53CE0DDCF8091AC
:105570008203843011F482E0089581E008958091DF
:105580001403811102C00C94B72A089580E189BDEB
:1055900082E189BD09B400FEFDCF8091D8008F7DE6
:1055A0008093D8008091E00082608093E000809139
:1055B000E00081FDFCCF0895AF92BF92CF92DF92C1
:1055C000FF920F931F93CF93DF936C01EB018A013E
:1055D0000E943B2CF82E811123C00115110539F0D2
:1055E000F80180819181C81BD90BC80ED91EB12C3E
:1055F000A12C2097A9F08091E80085FD22C0809120
:10560000E8008E778093E80001151105A1F0F801FC
:1056100080819181A80EB91EB182A08285E0F82E0A
:105620008F2DDF91CF911F910F91FF90DF90CF9041
:10563000BF90AF9008950E943B2C8823D1F2F82EA2
:10564000EFCFF60181916F018093F1002197FFEF79
:10565000AF1ABF0ACECFFC018091890390918A03D3
:1056600086179707A0F06115710529F49091E8005D
:105670009E779093E80090E06115710551F49111C7
:1056800008C08091E80082FF34C080E00895BC012A
:10569000F2CF809182038823C1F18530C1F18091DE
:1056A000E80083FD30C08091E80082FDEACF809160
:1056B000E80080FFE1CF8091F3002091F200382FC5
:1056C0006115710519F02830310558F091E0283046
:1056D000310509F090E02091E8002E772093E80052
:1056E000CBCF81918093F100615071092F5F3F4FC3
:1056F000E7CF80918203882341F0853041F080918B
:10570000E80083FFBECF81E0089582E0089583E042
:105710000895FC018091890390918A038617970769
:10572000A0F06115710529F48091E8008E778093CF
:10573000E80090E06115710551F4911108C0809165
:10574000E80082FF35C080E00895BC01F2CF80916F
:1057500082038823C9F18530C9F18091E80083FD77
:1057600031C08091E80082FDEACF8091E80080FF9F
:10577000E1CF8091F3002091F200382F611571057F
:1057800019F02830310558F091E02830310509F042
:1057900090E08091E8008E778093E800CBCF8491F1
:1057A0008093F1003196615071092F5F3F4FE6CF32
:1057B00080918203882341F0853041F08091E80098
:1057C00083FFBDCF81E0089582E0089583E00895CE
:1057D000982F973028F08F708093E90081E008952A
:1057E0009093E900242F762F50E0981731F07091B4
:1057F000EC002091ED005091F00021FD02C09F5F70
:10580000E8CF3091EB003E7F3093EB003091ED001C
:105810003D7F3093ED003091EB0031603093EB0031
:105820007093EC002093ED005093F0002091EE0077
:1058300027FDE5CF80E008958091830387FF13C0A3
:105840008091E80082FF06C08091E8008B7780930A
:10585000E80004C0809182038111F2CF0895809105
:1058600082038823D9F38091E80080FFF8CF8091EC
:10587000E8008E77ECCF2091E4003091E50095E6CA
:10588000A9012091EC00822F817020FF06C0809139
:10589000E80080FF06C080E008952091E80022FD26
:1058A0001AC080918203882389F0853089F0809125
:1058B000EB0085FD0FC02091E4003091E500421718
:1058C0005307F9F29150E1F684E0089582E00895DB
:1058D00083E0089581E008950E94DA2C0E94E22C72
:1058E000E0EEF0E0808181608083E8EDF0E080818F
:1058F0008F77808319BCA7EDB0E08C918E7F8C935D
:1059000080818F7E80831092810308950F931F936F
:10591000CF93DF930E94DA2C0E94E22CC8EDD0E0F6
:1059200088818F77888388818068888388818F7D4C
:10593000888319BC1092820310927E031092800318
:1059400010927F0300EE10E0F80180818B7F80834E
:1059500088818160888342E060E080E00E94E82BDB
:10596000E1EEF0E080818E7F8083E2EEF0E08081E6
:1059700081608083808188608083F80180818E7F50
:105980008083888180618883DF91CF911F910F91FF
:105990000895E8EDF0E080818F7E8083E7EDF0E010
:1059A00080818160808384E082BF81E08093810375
:1059B0000C94862CE8EDF0E080818E7F808310923D
:1059C000E20008951092DA001092E10008951F920B
:1059D0000F920FB60F9211242F933F934F935F9323
:1059E0006F937F938F939F93AF93BF93EF93FF93A7
:1059F0008091E10082FF0BC08091E20082FF07C02E
:105A00008091E1008B7F8093E1000E94512F809173
:105A1000DA0080FF19C08091D80080FF15C0809106
:105A2000DA008E7F8093DA008091D90080FF96C0E3
:105A300080E189BD82E189BD09B400FEFDCF81E02E
:105A4000809382030E9442298091E10080FF19C067
:105A50008091E20080FF15C08091E2008E7F8093EC
:105A6000E2008091E20080618093E2008091D800A2
:105A700080628093D80019BC85E0809382030E94E5
:105A800054298091E10084FF2BC08091E20084FFC3
:105A900027C080E189BD82E189BD89B5982F9170C9
:105AA00080FFFBCF8091D8008F7D8093D8008091BC
:105AB000E1008F7E8093E1008091E2008F7E8093F1
:105AC000E2008091E20081608093E20080917E0399
:105AD000882309F449C084E0809382030E945529F9
:105AE0008091E10083FF29C08091E20083FF25C0FF
:105AF0008091E100877F8093E10082E080938203C0
:105B000010927E038091E1008E7F8093E10080916E
:105B1000E2008E7F8093E2008091E20080618093BA
:105B2000E20042E060E080E00E94E82B8091F0001B
:105B300088608093F0000E945329FF91EF91BF91FC
:105B4000AF919F918F917F916F915F914F913F9115
:105B50002F910F900FBE0F901F90189519BC1092A7
:105B600082030E94502970CF8091E30087FD93E06B
:105B700090938203B3CF1F920F920FB60F9211240E
:105B80002F933F934F935F936F937F938F939F9345
:105B9000AF93BF93CF93DF93EF93FF93D091E9003F
:105BA000DF708091EC00C82FC17080FDC0E81092BA
:105BB000E9008091F000877F8093F00078940E9444
:105BC000FF2D1092E9008091F00088608093F00032
:105BD000CD2BCF70C093E900FF91EF91DF91CF9172
:105BE000BF91AF919F918F917F916F915F914F91F5
:105BF0003F912F910F900FBE0F901F9018951F93FC
:105C0000CF93DF93CDB7DEB7AA970FB6F894DEBF78
:105C10000FBECDBF83E893E02091F100FC012193FA
:105C2000CF01F3E08B389F07B9F70E94612980917B
:105C3000E80083FF1EC180918303909184039A3012
:105C400008F017C1E92FF0E0E45FFE4C0C94AF2F91
:105C5000803899F0823809F00CC1809187038F70E9
:105C6000873008F006C18093E9008091EB0085FB46
:105C7000882780F91092E90006C080917F039091F7
:105C80008003911182609091E800977F9093E800E3
:105C90008093F1001092F1008091E8008E77E5C0CA
:105CA000882309F4D3C0823009F0E3C080918503D2
:105CB0008111D6C0809187038F702FEF280F263077
:105CC00008F0D7C08093E9002091EB0020FFC8C006
:105CD000933031F48091EB0080628093EB00C0C080
:105CE0009091EB0090619093EB0021E030E001C0D7
:105CF000220F8A95EAF72093EA001092EA00809139
:105D0000EB008860EACF8111B4C0109185031F7742
:105D10008091E3008078812B8093E3008091E800FC
:105D2000877F8093E8000E941C2C8091E80080FF10
:105D3000FCCF8091E30080688093E30082E0111142
:105D400083E08093820395C08058823008F091C030
:105D500080918503909186038C3D23E09207A1F505
:105D600083E08A838AE289834FB7F894DE01139631
:105D700020E03EE051E2E32FF0E050935700E49141
:105D800020FF03C0E295EF703F5FEF708E2F90E031
:105D9000EA30C0F0C7968D939D932F5F243159F759
:105DA0004FBF8091E800877F8093E8006AE270E04F
:105DB000CE0101960E942B2B8091E8008B77809377
:105DC000E80057C0C096E7CF6091870370918803C1
:105DD000AE014F5F5F4F0E94572ABC01892B09F427
:105DE00048C09091E800977F9093E80089819A815C
:105DF0000E94892BE1CF8038E1F58091E800877F10
:105E00008093E80080917E038093F10045CF81115B
:105E100030C090918503923060F58091E800877FD3
:105E20008093E80090937E030E941C2C80917E0357
:105E3000882311F084E005C08091E30087FDFACF4C
:105E400081E0809382030E94572913C080918503CB
:105E5000813079F481E0933009F080E08093800311
:105E60001092E9008091E800877F8093E8000E940B
:105E70001C2C8091E80083FF0AC08091E800877F96
:105E80008093E8008091EB0080628093EB00AA96FB
:105E90000FB6F894DEBF0FBECDBFDF91CF911F913B
:105EA00008950895CF93809182038823A1F0C09133
:105EB000E900CF709091EC00892F817090FD80E80F
:105EC000C82B1092E9008091E80083FD0E94FF2D0D
:105ED000CF70C093E900CF910895991B79E004C079
:105EE000991F961708F0961B881F7A95C9F7809519
:105EF000089587FB082E062687FD819567FD61952D
:105F00000E946D2F0EF4919507FC81950895AA1BB0
:105F1000BB1B51E107C0AA1FBB1FA617B70710F094
:105F2000A61BB70B881F991F5A95A9F780959095C6
:105F3000BC01CD01089597FB072E16F4009407D0FD
:105F400077FD09D00E94872F07FC05D03EF490957D
:105F500081959F4F0895709561957F4F0895EE0F3D
:105F6000FF1F0590F491E02D09948F929F92AF92BC
:105F7000BF92CF92DF92EF92FF92CF93DF93EC012B
:105F8000688179818A819B816115710581059105FF
:105F900021F464E279ED8BE597E02DE133EF41E008
:105FA00050E00E94663049015A019B01AC01A7EA0A
:105FB000B1E40E9485306B017C01ACEEB4EFA50129
:105FC00094010E949330DC01CB018C0D9D1DAE1D10
:105FD000BF1DB7FF03C00197A109B048888399830B
:105FE000AA83BB839F77DF91CF91FF90EF90DF90E3
:105FF000CF90BF90AF909F908F9008950E94B52F43
:10600000089580E091E00E94B52F0895B0E0A0E0EF
:106010008093000190930101A0930201B0930301CA
:106020000895FC014150504030F001900616D1F720
:106030003197CF010895882799270895F999FECFC0
:1060400092BD81BDF89A992780B50895A6E1B0E088
:1060500044E050E00C945830A8E1B0E042E050E059
:106060000C945830262FF999FECF92BD81BDF89A35
:10607000019700B4021639F01FBA20BD0FB6F8948C
:10608000FA9AF99A0FBE08950396272F0E9433308B
:106090000E943230252F0E943330242F0C9433304D
:1060A0000196272F0E9433300C943230DC01CB0153
:1060B000FC01F999FECF06C0F2BDE1BDF89A319618
:1060C00000B40D9241505040B8F70895052E97FB4B
:1060D0001EF400940E947D3057FD07D00E94983036
:1060E00007FC03D04EF40C947D30509540953095CC
:1060F00021953F4F4F4F5F4F089590958095709534
:1061000061957F4F8F4F9F4F08950E94BA30A59F92
:10611000900DB49F900DA49F800D911D11240895A2
