:100000000C948B060C947D1A0C94D2060C94D20698
:100010000C94D2060C94D2060C94D2060C94D20600
:100020000C94D2060C94D2060C94C82C0C949C2DE3
:100030000C940B280C94D2060C94D2060C94D20685
:100040000C94D2060C94D2060C94D2060C94D206D0
:100050000C94D2060C9456280C94D2060C94D2061A
:100060000C94D2060C94D2060C94D2060C94D206B0
:100070000C94D2060C94D2060C94D2060C94D206A0
:100080000C94D2060C94D2060C94D2060C94D20690
:100090000C94D2060C94D2060C94D2060C94D20680
:1000A0000C94D2060C94D2060C94D20629001E00A1
:1000B000085D200021002200105D2B0014001A00B2
:1000C0000800150017000E5D155D040016000700FE
:1000D00009000A004C00E1001D001B000600190089
:1000E0000500E000E000E300E200E000185D2C0005
:1000F0002C00165D0D5D0C5D0B5D0A5D095D115DEB
:10010000125D130012000C0018001C000F5D145D3E
:10011000135D0F000E000D000B002A00E5003800F3
:1001200037003600100011004C004F005200510003
:10013000E300195D2A00280044003A003B003C001F
:100140003D003E002F0235021E0252002002210215
:1001500022022D022B00500051004F0021002200EE
:100160004C00E100230024002500260027002C007D
:10017000E000E300E200E000185D2C004C004500C8
:1001800043004200410040003F003002310227029C
:1001900026002500240023022E023402330223000D
:1001A000220021000B002A00E500380220001F0079
:1001B0001E00270028004D004B004E004A00195D2C
:1001C00028002A0044003A003B003C003D003E006D
:1001D0002F0235021E0252002002210222022D02AD
:1001E0002B00500051004F00210022004C00E10084
:1001F000230024002500260027002C00E000E30057
:10020000E200E000185D2C004C0045004300420075
:10021000410040003F0030028900270226022502EB
:10022000240223022E02340233020F000E000D00BE
:100230000B002A00E50038023702360210001100D8
:1002400028004D004B004E004A00195D28002A008E
:10025000000000000000000000000000000000009E
:10026000000000000000000000000000000000008E
:10027000000000000000000000000000000000007E
:10028000000000000000000000000000000000006E
:100960000000000000000000000000000100010085
:100970000100010001000100AC000100005CC25C4C
:10098000C35CC65CC55C010001000100BF5CC15CCA
:10099000BE5CBD5C0100010001000100010001001E
:1009A000010001000100010001000100010001003F
:1009B00001004600A900AA00A8000100AE00AB009B
:1009C00001000100C95CCA5CC75CC85C0100010091
:1009D000010001000100010001000100010001000F
:1009E00001000100010001000100010001000100FF
:1009F000010001000100010032190A00047F3F1FBD
:100A0000643214643214783C1E1E140A0522232515
:100A10002628292A2C2D2F3032333536383A3B3DC3
:100A20003E4042434547494A4C4E50515355575911
:100A30005A5C5E6062646668696B6D6F717375772E
:100A4000797B7D7F81838587898A8C8E909294962D
:100A5000989A9C9E9FA1A3A5A7A8AAACAEAFB1B33C
:100A6000B4B6B8B9BBBCBEBFC1C2C3C5C6C7C9CA8C
:100A7000CBCCCDCED0D1D2D2D3D4D5D6D7D7D8D94E
:100A8000D9DADADBDBDBDCDCDCDCDCDDDDDDDDDCAC
:100A9000DCDCDCDCDBDBDBDADAD9D9D8D7D7D6D5BE
:100AA000D4D3D2D2D1D0CECDCCCBCAC9C7C6C5C380
:100AB000C2C1BFBEBCBBB9B8B6B4B3B1AFAEACAACD
:100AC000A8A7A5A3A19F9E9C9A98969492908E8C7D
:100AD0008A89878583817F7D7B79777573716F6D57
:100AE0006B6968666462605E5C5A59575553515031
:100AF0004E4C4A4947454342403E3D3B3A383635E5
:100B00003332302F2D2C2A292826252322FFAA7F95
:100B10005540000102030405060708090A0B1716D1
:100B20001514131211100F0E0D0C0001010101011B
:100B30000101010102020202020202020203030396
:100B40000303030303040404040404040505050566
:100B50000506060606060707070707080808080926
:100B60000909090A0A0A0B0B0B0C0C0C0D0D0D0ED2
:100B70000E0E0F0F0F101011111112121313141467
:100B8000151516161717181819191A1A1B1B1C1DDC
:100B90001D1E1E1F20202122222324242526262735
:100BA0002829292A2B2C2D2D2E2F30313232333467
:100BB00035363738393A3B3C3D3E3F40414243446D
:100BC00045464748494A4C4D4E4F5051535455564F
:100BD00058595A5B5D5E5F616264656668696B6CFB
:100BE0006D6F7072737577787A7B7D7E8082838576
:100BF00087888A8C8E8F91939596989A9C9EA0A2B6
:100C0000A3A5A7A9ABADAFB1B3B5B7BABCBEC0C2BF
:100C1000C4C6C9CBCDCFD1D4D6D8DBDDDFE2E4E783
:100C2000E9EBEEF0F3F5F8FAFDFF04033000000005
:100C300012034500720067006F00440061007300FA
:100C4000680000000C034F006D006B006200640040
:100C500000000403090409023B00020100A0FA0994
:100C600004000001030101000921110100012240DB
:100C7000000705810308000A0904010001030000C0
:100C80000009211101000122320007058203200022
:100C90000A1201100100000008EDFE606000010171
:100CA00002030105010980A101850319012AB7008A
:100CB000150126B700950175108100C0050C0901CA
:100CC000A101850419012AA002150126A00295019F
:100CD00075108100C005010906A101050719E02969
:100CE000E7150025019508750181029501750881B8
:100CF000010507190029FF150026FF009506750854
:100D000081000508190129059505750191029501D4
:100D100075039101C00011241FBECFEFDAE0DEBFE2
:100D2000CDBF04B603FE27C080918A0390918B0348
:100D3000A0918C03B0918D038730904BA740B04BAE
:100D4000D1F410928A0310928B0310928C031092AC
:100D50008D0314BE84B7877F84BF0FB6F894A8951F
:100D600080916000886180936000109260000FBEE7
:100D7000E0E0F8E3099511E0A0E0B1E0EEEEF1E685
:100D800002C005900D92A23DB107D9F723E0A2ED74
:100D9000B1E001C01D92AA38B207E1F70E94F9291B
:100DA0000C94AA300C94000088509D458F3091051A
:100DB00008F0E8C2FC01E455FF4CDB0112969C915F
:100DC0000C94902F911102C080E00895E0912701CA
:100DD000F09128018081382F327081FB992790F99A
:100DE0009093D301282F207285FB992790F9909337
:100DF000D20131111AC0222301F185EE0E94541D47
:100E00008FE20E94CA1C8FE20E94541D8091D30180
:100E1000882319F081EE0E94CA1C8091D201882398
:100E200099F285EE0E94CA1CCFCF81EE0E94541D1C
:100E30008091D201882321F3E0CF8FE10E94CA1C68
:100E40008FE10E94541DC0CF992309F4BDCFE091DA
:100E50002701F09128018081382F327081FB99277A
:100E600090F99093D301282F207285FB992790F950
:100E70009093D20131110AC0222381F085EE0E94A5
:100E8000541D8EE20E94CA1C8EE2BECF81EE0E94EB
:100E9000541D8091D2018823A1F3F0CF83E20E94F8
:100EA000CA1C83E2CECF992309F48ECFE0912701AB
:100EB000F09128018081382F327081FB992790F9B9
:100EC0009093D301282F207285FB992790F9909356
:100ED000D201311110C02223B1F085EE0E94541DC1
:100EE00081EE0E94CA1C83E20E94CA1C83E20E9417
:100EF000541D81EE89CF81EE0E94541D8091D20154
:100F0000882371F3EACF84E20E94CA1C84E299CF5D
:100F1000992309F459CFE0912701F09128018081AC
:100F2000382F327081FB992790F99093D301282FA5
:100F3000207285FB992790F99093D20131110DC051
:100F4000222399F085EE0E94541D81EE0E94CA1C56
:100F500084E30E94CA1C84E3CACF81EE0E94541D20
:100F60008091D201882389F3EDCF85E20E94CA1CCB
:100F700085E267CF992309F427CFE0912701F0910B
:100F800028018081382F327081FB992790F9909346
:100F9000D301282F207285FB992790F99093D201D5
:100FA00031110DC0222399F085EE0E94541D81EE6F
:100FB0000E94CA1C85E20E94CA1C85E298CF81EE7D
:100FC0000E94541D8091D201882389F3EDCF86E2DF
:100FD0000E94CA1C86E235CF992309F4F5CEE09130
:100FE0002701F09128018081382F327081FB9927E9
:100FF00090F99093D301282F207285FB992790F9BF
:101000009093D20131110DC0222399F085EE0E94F8
:10101000541D81EE0E94CA1C86E20E94CA1C86E210
:1010200066CF81EE0E94541D8091D201882389F3FE
:10103000EDCF87E20E94CA1C87E203CF992309F40F
:10104000C3CEE0912701F09128018081382F3270C2
:1010500081FB992790F99093D301282F207285FB6B
:10106000992790F99093D20131110DC0222399F064
:1010700085EE0E94541D81EE0E94CA1C87E80E94E2
:10108000CA1C87E834CF81EE0E94541D8091D201A2
:10109000882389F3EDCF8DE20E94CA1C8DE2D1CE68
:1010A000992309F491CEE0912701F09128018081E4
:1010B000382F327081FB992790F99093D301282F14
:1010C000207285FB992790F99093D20131110DC0C0
:1010D000222399F085EE0E94541D81EE0E94CA1CC5
:1010E00083E30E94CA1C83E302CF81EE0E94541D59
:1010F0008091D201882389F3EDCF81EE0E94CA1C32
:101100008DE20E94CA1C8DE20E94541D81EE99CE90
:10111000992309F459CEE0912701F09128018081AB
:10112000382F327081FB992790F99093D301282FA3
:10113000207285FB992790F99093D20131110DC04F
:10114000222399F085EE0E94541D81EE0E94CA1C54
:1011500080E30E94CA1C80E3CACE81EE0E94541D27
:101160008091D201882389F3EDCF80E30E94CA1CCD
:1011700080E367CE992309F427CEE0912701F0910F
:1011800028018081382F327081FB992790F9909344
:10119000D301282F207285FB992790F99093D201D3
:1011A00031110DC0222399F085EE0E94541D81EE6D
:1011B0000E94CA1C82E30E94CA1C82E398CE81EE80
:1011C0000E94541D8091D201882389F3EDCF82E3E0
:1011D0000E94CA1C82E335CE992309F4F5CDE09133
:1011E0002701F09128018081382F327081FB9927E7
:1011F00090F99093D301282F207285FB992790F9BD
:101200009093D20131110DC0222399F085EE0E94F6
:10121000541D81EE0E94CA1C89E80E94CA1C89E8FC
:1012200066CE81EE0E94541D8091D201882389F3FD
:10123000EDCF87E80E94CA1C87E803CE992309F402
:10124000C3CDE0912701F09128018081382F3270C1
:1012500081FB992790F99093D301282F207285FB69
:10126000992790F99093D20131110AC0222381F07D
:1012700085EE0E94541D84E30E94CA1C84E3C4CD01
:1012800081EE0E94541D8091D2018823A1F3F0CFFA
:1012900083E30E94CA1C83E3D4CD992309F494CD3F
:1012A000E0912701F09128018081382F327081FB75
:1012B000992790F99093D301282F207285FB9927C5
:1012C00090F99093D20131110DC0222399F085EE4F
:1012D0000E94541D81EE0E94CA1C8FE10E94CA1C0C
:1012E0008FE105CE81EE0E94541D8091D2018823AA
:1012F00089F3EDCF81EE0E94CA1C84E20E94CA1CD1
:1013000084E202CF992309F45FCDE0912701F091A7
:1013100028018081382F327081FB992790F99093B2
:10132000D301282F207285FB992790F99093D20141
:1013300031110DC0222399F085EE0E94541D81EEDB
:101340000E94CA1C8FE20E94CA1C8FE2D0CD81EE9F
:101350000E94541D8091D201882389F3EDCF81EE44
:101360000E94CA1C8EE20E94CA1C8EE2CDCE992336
:1013700009F42ACD81EE0E94CA1C89E30E94CA1C8E
:1013800089E3C2CE81E008950C947F0D08950F93F8
:101390001F93CF93DF938C01EB010E94D406882327
:1013A00011F1CA8108319DE5190721F148F407318F
:1013B0001D45A1F0CC2309F469C01092D50160C08D
:1013C00009319DE51907E9F10A311D4599F780E1D9
:1013D000CC2309F458C00E94872405C0CC2321F0F7
:1013E00080E00E94960AC0E08C2FDF91CF911F9180
:1013F0000F91089581E0CC2351F08093D5010E9494
:10140000872440E162E081E00E94FD0AECCF0E9467
:10141000A82440E162E081E00E94FD0A8091D501AC
:10142000882361F081E90E94CA1C8BE80E94CA1CD3
:1014300081E90E94541D8BE80E94541D1092D50131
:10144000D3CFCC2329F081E08093D40182E0D7CFA1
:1014500082E00E94A82440E162E081E00E94FD0A4F
:101460008091D401882361F080E90E94CA1C8AE837
:101470000E94CA1C80E90E94541D8AE80E94541DE3
:101480001092D401B1CF0E94A824AECFC82FACCF08
:1014900081E008950C94C70908950C944C0A1F9399
:1014A000CF93DF9300D000D00F92CDB7DEB7498342
:1014B0005A836B8330918A0289819A8131111DC0D0
:1014C0006623B9F02223A9F00E947725182F682FF0
:1014D00089819A810E94232569817A81812F0F90C9
:1014E0000F900F900F900F90DF91CF911F910C9460
:1014F0007D0B0E944F25182FEFCF0E947725698121
:101500007A81EDCFFC01262F408151816281738168
:1015100084810C944F0ACF93DF93EC0160E00E942A
:10152000820ABE01DF91CF910C944D0ACF93DF93D5
:10153000C1E0D0E002C0CC0FDD1F8A95E2F78C2F0E
:101540000E94CE26BE0190E080E0DF91CF910C9406
:1015500025248F929F92AF92BF92CF92DF92EF920B
:10156000FF920F931F936B017C0181E090E0A0E05C
:10157000B0E04C015D0104C0880C991CAA1CBB1C86
:101580004A95D2F7B501A4014C015D0104C0880C55
:10159000991CAA1CBB1C2A95D2F7482959296A29EB
:1015A0007B2904C0880F991FAA1FBB1F0A95D2F779
:1015B0008A019B010C211D212E213F2104171507B3
:1015C0002607370789F48C299D29AE29BF29BC013C
:1015D000CD011F910F91FF90EF90DF90CF90BF90C2
:1015E000AF909F908F90089580959095A095B0951D
:1015F0008C219D21AE21BF21EACF0F93382F262FBA
:101600006091F2027091F3028091F4029091F502E0
:10161000042F432F0E94A90A0F910C9461240E9469
:10162000BB26811102C00E945D270C94C4090C9452
:10163000810D08950C94190B81E008950C941C0BF6
:10164000CF93C82F0E941A0B8C2FCF910C941E0B96
:101650000E94D61D0E94C6092FEF84E39CE0215012
:1016600080409040E1F700C000000C947A280F936E
:101670001F93CF93DF93EC0161E00E94820A8C01FB
:10168000BE010E944A0A882359F1BE01C8010E9486
:101690003B18882329F1BE01C8010E947C188823C9
:1016A000F9F0BE01C8010E949F198823C9F0BE014C
:1016B000C8010E943317882399F08A81882339F062
:1016C00001158CE5180751F00E3D1C4579F0CE014F
:1016D000DF91CF911F910F910C94480A0E94280B23
:1016E00080E0DF91CF911F910F9108950E945D27B7
:1016F000F7CF90E080E008950895972F70E027E0FD
:10170000929F600D711D1124FB0196E4899FE00DED
:10171000F11D1124EE0FFF1FE455FF4F85919491A9
:101720000895FC01EE0FFF1FE850F64F859194914C
:101730000895CF93DF930E947D0B0E94A50CEC01CE
:10174000811520E5920708F041C0811530E4930728
:1017500008F0B4C0803E910518F5803C910508F072
:101760009DC0883A910570F4853A910508F08EC0C5
:1017700081309105F9F00097E9F00497D8F4D0E0B2
:10178000C0E018C08F3B9105D0F7C85AD0E0CC0F0D
:10179000DD1FCC5CDE4F0990D881C02DD4640AC017
:1017A0008115904258F4C11581E0D80718F4C83E5D
:1017B000D10528F7CE01DF91CF910895C11590E3AF
:1017C000D90708F071C0CE019F706AC0811525E568
:1017D000920758F5811534E5930708F09EC08115EE
:1017E00042E5940750F4C11581E5D80708F469C0B3
:1017F000DC2FCC27C16FD06ADDCF982F96959695B8
:101800009E0123703327C115D34508F077C0C1E08E
:10181000D0E002C0CC0FDD1F2A95E2F720E2929FB4
:10182000C0011124C82BD92B67C0C11589E5D80781
:10183000A8F4C11598E5D90708F074C0C11526E5CC
:10184000D20708F09CCF8C2F0E943C0DC82FD0E00F
:10185000DC2FCC27CC27DF71D062ACCFC1153AE5A5
:10186000D30708F464C0CE0190568115904208F069
:1018700086CF8D2F8F710E943C0D90E0982F882786
:1018800088279F719C012C2BE901E6CFC55AD0E037
:10189000CE59DE4FC881D0E0D0648CCF805C9109F6
:1018A0000E94910BEC0186CFCE019927D3FF03C094
:1018B000EC01D86C7FCFEC01D06C7CCFDF70D06AAC
:1018C00079CFCE01E4E096958795EA95E1F78370AC
:1018D0002C2F26952695237090E2299F90011124A4
:1018E000382B8C2F8370C1E0D0E002C0CC0FDD1FFD
:1018F0008A95E2F7C22BD32BDC685CCFC1E0D0E045
:1019000002C0CC0FDD1F2A95E2F730E2939FC001A1
:101910001124C82BD92BDA684DCFD82FCC27C46F10
:10192000D06A48CFDC2FCC27C06FD06A43CF8C2F32
:101930008F700E943C0D34E0D695C7953A95E1F73B
:10194000CF709C2FEC01D06935CF82389105B1F171
:10195000B0F48133910509F475C048F489329105DA
:1019600009F469C08A32910509F473C0089585337A
:10197000910509F459C08933910501F10895833E19
:101980009105A9F138F4803E9105F9F0823E910568
:1019900049F10895863E9105A9F1873E9105C9F167
:1019A000843E910519F520917C0321FF1FC0809191
:1019B0007B0384FD14C087EE90E0089520917B03A3
:1019C0002370A1F080EE90E0089520917B0320FD2C
:1019D00047C030917C0330FF09C024FF44C090E031
:1019E00080E004C020917B0322FDF7CF0895209171
:1019F0007B0322FD3BC030917C0330FDE3CF24FF0D
:101A0000F5CFEDCF20917B0323FFF0CF24FDE7CF6F
:101A1000D2CF20917B0323FD2CC030917C0331FF7A
:101A2000EECF84EE90E0089520917B0325FFDECF7A
:101A300089E290E0089520917B0325FFD7CF85E3CD
:101A400090E0089520917B0326FFD0CF8AE290E0BA
:101A5000089520917B0326FFC9CF81E390E008958C
:101A600089E390E0089583EE90E0089582EE90E09F
:101A7000089586EE90E0089590917B0392FF06C052
:101A8000282F28712830F9F4877F846093FF06C0DF
:101A9000282F28712831F1F4877E846120917C03FE
:101AA00020FF06C0382F38713830D9F4877F816025
:101AB00021FF06C0282F28712831D1F4877E81614B
:101AC00094FD877E0895282F24712430F9F68B7FAA
:101AD0008860DCCF282F2471243101F78B7E886148
:101AE000DDCF382F3171313019F78E7F8860E0CF2C
:101AF000282F2171213121F78E7E8861E1CF089551
:101B000008950C94800DE82FF0E0E25EFC4F808198
:101B10000895089580EA8A95F1F7089508950E943E
:101B2000ED0E809104018091040195E0811190E017
:101B30009093290385E0891B80932803ACE6B1E0EC
:101B400061E070E08D91E82FE295EF70F0E041A147
:101B50008F709B0101C0220F8A95EAF7922F909512
:101B6000942391A382A1822B82A381E0A137B8079D
:101B700049F7A5E6B1E061E070E08D91E82FE295CC
:101B8000EF70F0E041A18F709B0101C0220F8A9598
:101B9000EAF7922F9095942391A382A1822B82A39E
:101BA00081E0AC36B80749F7E4E1F3E0AEE1B3E039
:101BB0008EE193E011921D928E179F07D9F785E071
:101BC0000E94950E0E940F0B0C94020F0E94CC0EE7
:101BD0008823F9F08091280390E0825E9C4F0E9458
:101BE000320F811113C08091D6018F5F8093D6018F
:101BF000863050F0E0912803F0E0E25EFC4F108266
:101C000011821282138214820C94170B1092D60147
:101C1000FBCF8091290390E0825E9C4F0E944F0F82
:101C20000C948E0D8F929F92AF92BF92CF92DF92C3
:101C3000EF92FF920F931F93CF93DF938CE6A82E22
:101C400081E0B82E04E113E0912CCC24C394D12C74
:101C5000F50181915F01C82FC295CF70D0E099A1A5
:101C60008F70760101C0EE0C8A95EAF7892F8E29D4
:101C700089A38AA18E2C809488218AA30E948A0D30
:101C8000E5E6F1E050E040E020E03191A32FA2959D
:101C9000AF70B0E090968C9190E03F7002C0959547
:101CA00087953A95E2F780FD3CC08C2D042E01C04B
:101CB000880F0A94EAF7282B4F5F5F4F4730510592
:101CC00021F789A1882289A28AA1E82AEAA2F8013B
:101CD0008081281741F1208381E0982A0F5F1F4FF0
:101CE000F1E7AF16F1E0BF0609F0B2CF609129032A
:101CF00070E0625E7C4F292D45E084E193E00E9414
:101D0000960E0E94E60D892DDF91CF911F910F91C4
:101D1000FF90EF90DF90CF90BF90AF909F908F900B
:101D2000089580E0C8CF80E0D8CF0895FF920F9348
:101D30001F93CF93DF93F82E092F162FD72FC42F81
:101D4000222349F081E08093D9010E943B2890939F
:101D5000D8018093D7018091D9018823A1F0809187
:101D6000D7019091D8010E944728069760F0EF2D87
:101D7000F02FA12FBD2FCE0FDF2FD11DEC17FD07A8
:101D800041F41092D901DF91CF911F910F91FF90F3
:101D9000089581918D93F2CF8091DA01811111C064
:101DA0008091D80080618093D8008AE18A95F1F70C
:101DB00000C09091D900892F817090FF82E08093BC
:101DC000DA0181E09091DA01913009F080E0089524
:101DD0000E94CC0E91E0892708950E94E80E80931E
:101DE0000401809104016CE0882349F080E00E94A6
:101DF000F80F0E94CC0E882321F00C94090F8CE080
:101E0000F6CF08950E94CC0E811102C00C940F0FE2
:101E1000089562E070E085E091E00C942A1A62E097
:101E200070E085E091E00C94331A0E94FA14882344
:101E300061F082EE91E00E94001581E090E00E9446
:101E40000C1B892B11F40C94FD1408958091E10171
:101E5000883039F460E082EE91E00E941016109212
:101E6000E1010895CF93DF93D82FC92F0E94150F5A
:101E700090E080E00E940C1B009779F4ED2FFC2F7E
:101E8000DC01A452BE4F2C9121930196853091051F
:101E9000B9F781E0DF91CF91089580E0FBCFCF9338
:101EA000DF93D82FC92F0E94260FED2FFC2F90E033
:101EB00080E02191DC01A452BE4F2C930196853025
:101EC0009105B9F7DF91CF910895AF92BF92CF926C
:101ED000DF92FF920F931F93CF93DF93362F472FFD
:101EE000E82FF0E0E65DF44F71110DC06491762F9C
:101EF000862FDF91CF911F910F91FF90DF90CF90B0
:101F0000BF90AF900895C72FD0E02491F22E022FFA
:101F100010E056E0659FC0011124EFEFF0E0BF0133
:101F20000E94682F832F90E0880F991F35E5369F18
:101F3000D001379FB00D11248A1B9B0B982F990F4E
:101F4000980F6F01CC1ADD0AC09ED001C19EB00D62
:101F5000D09EB00D11248B2F949FA0011124452FEA
:101F600055276F01C41AD50AC09EA001C19E500D0D
:101F7000D09E500D11245F01A91AB108AC9E6001DA
:101F8000AD9ED00CBC9ED00C1124CD2CDD24EC19C0
:101F9000FD09E09FE001E19FD00DF09FD00D1124DD
:101FA000ED2F62307105A1F048F46115710569F0FB
:101FB0006130710589F0EB2F852F07C06430710502
:101FC00071F088F066307105B1F76E2F722F91CFE6
:101FD000E22F2B2F8D2FF9CFE22F252FF6CFEB2FCE
:101FE000822F2D2FF2CF2B2F8F2DE52FEECF08959F
:101FF000E7E1F1E0808361830895CF93DF93762F4B
:10200000E901682F842F0E94650F798368838A8392
:10201000DF91CF91089580912A03982F9E7F29F414
:102020008170826080932A0308958635E8F3817079
:102030008465F8CF88E090E00C940730CF92DF926F
:10204000EF92FF926B017C010E940B10B701A60179
:1020500088E090E0FF90EF90DF90CF900C942530D7
:10206000EAE2F3E083E0808311828FEF828383834F
:102070001482AFE6B2E012968C91129783601296AA
:102080008C9360817181828193810C941E10809168
:102090002A0380FF02C08695089580E0089580910C
:1020A0002E03833018F48F5F80932E0360912A03F0
:1020B00070912B0380912C0390912D030C941E1092
:1020C00080912E03882319F0815080932E03609114
:1020D0002A0370912B0380912C0390912D030C9473
:1020E0001E1070E00C94A217CF92DF92EF920F9324
:1020F0001F93CF93DF93CDB7DEB7C854D1090FB686
:10210000F894DEBF0FBECDBF6091180180912A0305
:1021100080FF37C0E2E1FBE09E012F5F3F4F8E0161
:10212000075B1F4FC901A4914A2F50E0DA01AA0FA3
:10213000BB1FA40FB51FA15DBC4FCD90DD90EC90EF
:10214000D901CD92DD92ED929D013196A017B10794
:1021500051F720911701B3E02B9F800D911D1124A1
:102160000E947110C85BDF4F0FB6F894DEBF0FBE40
:10217000CDBFDF91CF911F910F91EF90DF90CF9066
:1021800008958091190190911A0123E0829FF00136
:102190001124E15DFC4F891708F0BCCF1182108239
:1021A00012828F5F3396F7CF90912A0390FF14C06D
:1021B0009091190120911A0133E0939FF0011124AD
:1021C000E15DFC4F921710F00C94741081836083D2
:1021D00042839F5F3396F6CF0895CF93DF9300D06D
:1021E0000F92CDB7DEB790912A0390FF0AC09E01EF
:1021F0002F5F3F4F0E94FD0F4B8169818A810E94B2
:10220000D4100F900F900F90DF91CF910895CF933E
:10221000DF93EC01EC81F0E0E35FF54F4491EAE2FB
:10222000F3E0628181810E94ED108C818F5F8C834D
:10223000DF91CF910895CF93DF93EC01EAE2F3E0D1
:10224000438162818C810E94ED108C818F5F8C8331
:10225000DF91CF9108950F931F93CF93DF9300D019
:102260000F92CDB7DEB78C018091EA0181110AC0CF
:102270009E012F5F3F4F4FEF6FEF0E94FD0F8A814E
:102280008093EA01F8016481613069F08091EA018C
:1022900040E0662361F040E0623011F44091EA01D1
:1022A00080E060E004C06091EA0140E080E00E94CC
:1022B000D410F801848190E0019663E070E00E9400
:1022C0007C2F84830F900F900F90DF91CF911F91FF
:1022D0000F910895AF92BF92CF92DF92EF92FF924B
:1022E0000F931F93CF93DF9300D00F92CDB7DEB73C
:1022F000182FF62E042FE22E90912A0390FF3AC059
:10230000E92FE695AE2FB0E0AA58BE4F8C9180938E
:102310006F029E7F9230E1F59E012F5F3F4F812F2C
:102320000E94FD0F4B8169818A810E94D4108091A7
:102330002B03811308C080912C038F1104C080915E
:102340002D03801729F080917102826080937102C1
:1023500010932B03F0922C0300932D03EE2051F0E9
:1023600060912A0370912B0380912C0390912D038F
:102370000E941E100F900F900F90DF91CF911F9130
:102380000F91FF90EF90DF90CF90BF90AF900895A6
:10239000823019F400912D03CACF863019F41091C0
:1023A0002B03C5CF8930D9F3893109F6E9518E2F36
:1023B0008170D82EE695F0E0E35FF44FA590B490DD
:1023C000C12CBB2460911B01C61618F00E9474102A
:1023D000AECF2C2D30E0A29EC001A39E900DB29EE8
:1023E000900D112470E00E94682F812FD11013C02E
:1023F000860F40911901420F532F511D9A01220F50
:10240000331F240F351F215D3C4F402F6F2D0E943D
:10241000FD0FC394D7CF861BECCFEAE2F3E09181A6
:10242000282F4381628188E0890F0C946A1181E032
:102430000C940D12EAE2F3E09181282F438162812E
:1024400088EF890F0C946A1181E00C941A12EAE269
:10245000F3E0628121E1620F08F46FEF282F4381DE
:1024600081810C946A1181E00C942712EAE2F3E076
:10247000628121E1621B08F460E0282F43818181A1
:102480000C946A1181E00C943612EAE2F3E0438185
:1024900021E1420F08F44FEF282F628181810C94D3
:1024A0006A1181E00C944512EAE2F3E0438121E1F4
:1024B000421B08F440E0282F628181810C946A114C
:1024C00081E00C94541220E00C946A11EF92FF9278
:1024D0001F93CF93DF93EC0110E0EE24EA94F12CEC
:1024E00060911B01161770F00E9474109A818C8104
:1024F00090FF27C08F5F8C83DF91CF911F91FF905A
:10250000EF90089520911901422F410F5527551F33
:10251000CA019A01220F331F280F391F215D3C4F3A
:1025200070E0C7010E947C2F962F8C8140912D0373
:1025300060912C03199F800D11240E94FD0F1F5FD5
:10254000CFCF8150D8CF8F929F92AF92BF92CF9230
:10255000DF92EF92FF920F931F93CF93DF93EC01E3
:102560008A81BB24BA9480FD02C0BB24B3948C81C1
:1025700081110AC081E0B8122AC080911B018150EC
:102580008093EC0181E08C83A12C48E1942E809112
:102590001B01A816F8F00E9474108091EC0191E0E4
:1025A000B91261C081115AC080911B018150809382
:1025B000EC011C82DF91CF911F910F91FF90EF9062
:1025C000DF90CF90BF90AF909F908F900895109222
:1025D000EC01D8CF00911901CA2CD12C0C0D1D2D66
:1025E000111DC801880F991F080F191F015D1C4F8D
:1025F000F80111821082128234E0E32EF12C812C3A
:102600008091EC01880D89311CF1692D0E945A2FAF
:10261000892F082E000C990BC816D90691F48091C9
:102620002D038E9DA0018F9D500D1124559547952A
:1026300055954795980160912C0380912B030E943A
:10264000FD0F8B0CF1E0EF1AF108D1F6A3949FCFA8
:1026500087FFDFCF90911B01890FDBCF81508093E3
:10266000EC01BC82A7CF90E0019660911B0170E065
:102670000E947C2F8093EC018C839CCFEF92FF9281
:102680000F931F93CF93DF93EC018C81811109C0CD
:1026900081E08C831092EB0192E09093160180937D
:1026A00015018091190190911A0123E0829FF00198
:1026B0001124E15DFC4F891768F110E003E060919F
:1026C0001B01161768F10E9474108091150120916A
:1026D000EB01280F2093EB0190911601980F909336
:1026E0001601191654F4022E000C330B40911B01F5
:1026F0004150550B2417350734F08195809315010F
:10270000813009F41C82DF91CF911F910F91FF90CE
:10271000EF9008951182108212828F5F3396CBCF93
:10272000E12EF12C70E0C7010E947C2F209119014D
:10273000820F482F50E02091EB01022E000C330B4A
:10274000E216F306BCF020911601022E000C330BAA
:102750002E153F057CF0809F90011124215D3C4F98
:1027600040912D0360912C0380912B030E94FD0F5B
:102770001F5FA5CFFA01EE0FFF1FE40FF51FE15D0C
:10278000FC4F118210821282F3CF0F931F93CF93CD
:10279000DF938C01FC0184819581019681709927DA
:1027A00095838483C0E0D5E580911B01C81730F084
:1027B000DF91CF911F910F910C947410209119010A
:1027C000422F4C0F5527551FCA019A01220F331F64
:1027D000280F391F215D3C4F8C2F8695F8014481CD
:1027E0005581840F952F911D817040912D0360912B
:1027F0002C038D9F802D11240E94FD0FCF5FD4CF1D
:102800000F931F93CF93DF93EC0110E000E09091C2
:102810001B019017110609F06CF40E9474108C8152
:1028200090E00196817099278C83DF91CF911F9161
:102830000F91089520911901A801420F511D9A018D
:10284000220F331F240F351F215D3C4F4C816091B7
:102850002C0380912B0396959017110651F04CF0A4
:10286000442349F040912D030E94FD0F0F5F1F4F3D
:10287000CECF4423B9F340E0F7CF8F929F92AF922F
:10288000BF92CF92DF92EF92FF920F931F93CF935D
:10289000DF93FC01B280948081E0848300E015E046
:1028A0005BE4A52E88248394EE24EA94F12C7BE447
:1028B000C72ED12C80911B01081770F0DF91CF91AA
:1028C0001F910F91FF90EF90DF90CF90BF90AF904E
:1028D0009F908F900C947410C02FD0E01C9FF0013B
:1028E0001D9FF00D1124E051FE4F91101CC013826A
:1028F000128220911901CE01820F911D9C01220F9D
:10290000331F280F391F215D3C4F1C9FF0011D9F75
:10291000F00D1124E051FE4F4281618180810E94BF
:10292000FD0F0F5FC7CF2381222379F1215023832D
:1029300034818A2D821B311101C0822F1C9FF0012E
:102940001D9FF00D1124E051FE4F90912D03899FA2
:10295000C0011124B6010E94682F6283211104C0B6
:10296000332311F01482A38222E02B1510F21C9F56
:10297000F0011D9FF00D1124E051FE4F80912B03BB
:10298000808380912C038183B4CF0E94E22F823018
:1029900091400CF0AECF82E08B1530F50E94E22F13
:1029A000B7010E947C2F1C9FF0011D9FF00D112488
:1029B000E051FE4F808322E02B15C8F40E94E22FE5
:1029C00020912C032695622F70E00E947C2F280F07
:1029D0001C9FF0011D9FF00D1124E051FE4F21833B
:1029E0001282A382848285CF80912B03DCCF209139
:1029F0002C03EECF80917102089510927102089518
:102A000025E0EAE2F3E0DC0101900D922A95E1F77E
:102A100020916F023091700240917102FC01258378
:102A2000368347830895EFE6F2E011828281846065
:102A300082830895EAE2F3E080818E7F80830E94A2
:102A40001315EFE6F2E08281816082832FEF80E749
:102A500092E0215080409040E1F700C000000C94CB
:102A60007410EAE2F3E080818E7F8083608171815F
:102A7000828193810E941E100E941315EFE6F2E0FE
:102A80008281816082832FEF80E792E02150804035
:102A90009040E1F700C000000C94741060912A038C
:102AA000669570E04BE050E08CE191E00E94F22FDF
:102AB000892B19F481E0809370020E943B28909347
:102AC0006902809368028091710284608093710230
:102AD000089590912A0390FF3AC0917081112DC002
:102AE000926090932A0380917102816080937102B9
:102AF000662351F060912A0370912B0380912C037F
:102B000090912D030E941E1060912A03669570E03B
:102B10004BE050E08CE191E00E94F22F892BA1F074
:102B20000E94131581E080936B0240912D03609108
:102B30002C0380912B030C9463128B3210F094655C
:102B4000D0CF880F982BCDCF0E944E15EBCF089594
:102B5000682F90912A03969581E0890F8B3208F0B7
:102B600081E00C94691581E00C94A815682F909170
:102B70002A0396958FEF890F09F48AE20C94691560
:102B800081E00C94B61561E00C946915EAE2F3E07B
:102B900080818160808386950C94C31580912A037F
:102BA00080FD0C9431150C94C61560E00C946915E9
:102BB00080916E02811133C00E94BB26811104C036
:102BC0000E945D270E9430100E941A1060932A0311
:102BD00070932B0380932C0390932D0380917102AB
:102BE0008360809371026E7F61F40E9430100E94B6
:102BF0001A1060932A0370932B0380932C039093F5
:102C00002D030E940B100E94131580912A0380FF50
:102C100003C086950E94D51581E080936E020895C9
:102C20001F93CF93DF93EC01162F8F8180FF0CC091
:102C3000888180FF24C080912A03816080932A03C9
:102C4000888186950E9469158F8181FF06C0212F9A
:102C50004B816A8189810E946A118F8182FF05C040
:102C60008E81882379F00E944E158F8183FF03C0E7
:102C700081E080936B02DF91CF911F9108950E94B4
:102C80001A15E2CF0E941315F0CFEF92FF920F9327
:102C90001F93CF93DF9380917002882309F468C05B
:102CA00080916F02E0912A03E695E81BE0936A02A7
:102CB000823009F064C0F0E0E75FF54FE491CE2F79
:102CC000D0E007E011E180916B02882389F0109237
:102CD0006B020E943B289E0120953095820F931F26
:102CE000909369028093680210926D0210926C02B8
:102CF00080916802909169020E9447288C179D0775
:102D0000B8F18091EF018823B1F01092EF0180912A
:102D1000ED019091EE010E9447288033954758F0CD
:102D20000E943B289093EE018093ED018091710207
:102D3000886080937102E0906C02F0906D02E091E7
:102D40006802F0916902CE0FDF1FD0936902C09331
:102D5000680288E692E0F801099580916C029091F2
:102D60006D02892B29F4EF2819F081E08093EF019F
:102D7000DF91CF911F910F91FF90EF9008958630D2
:102D800049F4F0E0EA5FF54FE491CE2FD0E00BE19B
:102D900011E199CF893051F4E695F0E0ED5FF54F00
:102DA000E491CE2FD0E006E612E18DCF8F3051F4C2
:102DB000E695F0E0E050F64FE491CE2FD0E003EA44
:102DC00012E181CF853149F4F0E0E350F64FE49110
:102DD000CE2FD0E00EE313E176CFC8EED3E005ECC2
:102DE00013E1883109F46FCF833239F4EBEFF9E066
:102DF000C591D4910BE211E166CFC4EFD1E000E0C0
:102E000014E1843209F45FCFC0EDD7E007EF1FE093
:102E1000853209F058CF8E2F63E00E944E2FE92FA4
:102E2000F0E0E850F64FE491CE2FD0E00DE314E14E
:102E30004ACFFA01811101C0FB010994CF93DF93BE
:102E4000C82FD62F0E9447108C1740F00E944710C1
:102E50008D1720F4DF91CF910C94B3158C2FDF9157
:102E6000CF910C94C3151F93CF93DF93EC01FB011B
:102E70001281111110C00E940C268272FE01E25CC8
:102E8000FC45E431F10508F05BC0E554FF4C0C94BF
:102E9000902F0E94CE15812FDF91CF911F91089521
:102EA00040EC55E163EB75E10E941917F4CF43EB59
:102EB00055E160EC75E1F8CF44E252E167E172E17F
:102EC000F3CF47E152E164E272E1EECF42E452E136
:102ED00063E372E1E9CF43E352E162E472E1E4CFFC
:102EE00040E652E161E572E1DFCF41E552E160E6A3
:102EF00072E1DACF40E650E16FE470E1D5CF4FE404
:102F000050E160E670E1D0CF81E00E94C315C3CFED
:102F100065E082E00E941E17BECF68E086E0FACF2F
:102F20006EE089E0F7CF64E18FE0F4CF67E185E1FF
:102F3000F1CF88E1EACF62E289E1ECCF83E2E5CF2D
:102F400011E0A9CF539A4BB1477F5BB15860EFB7FF
:102F5000F8949B01220F331F260F371F280F391FAC
:102F60002817390741F4EFBF8FE594E00197F1F797
:102F700000C000000895DC016D91CD0178E05BB9DF
:102F8000000000C067FF4BB9660F000000C000C022
:102F900000C04BB900C07A9591F7E2CF0F931F9311
:102FA000CF93DF93C62FD42F022FFC018281882379
:102FB000C9F0609374020E943B289093730280933F
:102FC000720280E28C0F883008F050C0C77081E038
:102FD00001C0880FCA95EAF7DF91CF911F910F9139
:102FE0000C94B61D10917402161335C080917202B4
:102FF000909173020E9447288837910560F5C0E2DE
:10300000CD0F1D17B9F080E2810F883040F41770A2
:1030100081E001C0880F1A95EAF70E94BD1DC830F3
:1030200048F481E09D2F977001C0880F9A95EAF7C8
:103030000E94B61D802F0E94A31DC830B8F4D7701F
:1030400081E001C0880FDA95EAF7DF91CF911F91F7
:103050000F910C94BD1D80E28C0F883038F4C7703E
:1030600081E001C0880FCA95EAF7EFCFDF91CF91D9
:103070001F910F9108959C01CB01233F4CE534072C
:1030800031F190F4283DFCE53F07E9F0293D4CE59E
:10309000340769F1273D3C4579F426E241EE61EEC3
:1030A0000E94CE1780E00895253FFCE53F07B9F068
:1030B00090F0263F3C45B9F0FC0182818823D1F095
:1030C00010927402089527E245EE65EEE9CF26E2FC
:1030D00041EE60EEE5CF27E245EE64EEE1CF26E279
:1030E00041EE62EEDDCF27E245EE66EED9CF28E273
:1030F00041E0EBCF81E00895CF93DF93EC01FB013A
:103100008281882309F419C1C230FCE5DF07C0F1D0
:10311000C6319CE5D90730F09E012A5F3C45293035
:10312000310570F50E94D32690937C0380937B0336
:10313000C031ECE5DE0709F4CFC008F05BC0C83051
:103140008CE5D80709F4B6C088F5C430ECE5DE0795
:1031500009F4A8C0C0F4C2308CE5D80709F49CC0BB
:1031600080917B038260C330DC4509F498C0809174
:103170007B0390917C030E94E1260E94D61D80E093
:10318000DF91CF91089580917B038061C630ECE59B
:10319000DE0709F484C080917B038860C730DC457A
:1031A00008F47DC080917B03806279C0CC308CE5CF
:1031B000D80709F489C070F480917B038C60CA3011
:1031C000ECE5DE0709F46BC008F478C080917B035E
:1031D0008E7F65C0CE308CE5D80709F479C0809128
:1031E0007B038B7FCF30DC4508F459C080917B0393
:1031F0008F7E55C0CB3FECE5DE0709F457C030F5B4
:10320000C3318CE5D80709F46FC078F4C131ECE51F
:10321000DE0709F465C0C231DC4509F0A8CF0E9481
:10322000D61D80917B038F773AC0C5318CE5D807D6
:1032300009F462C008F476C080917C038160CA3FC3
:10324000DC4509F094CF80937C0391CFCF3FFCE520
:10325000DF0709F44DC088F480917C038D7FCD3F5A
:103260009CE5D90781F380917C038E7FCE3FDC45BE
:1032700050F380917C038360E6CFC130FDE5DF072A
:1032800009F459C008F444C080E0C230DD4509F0BB
:103290006ECF0E945F276BCF80917B03816080930C
:1032A0007B0365CF80917B038460F9CF80917C03A1
:1032B0008260C9CF80917B038064F1CF0E94D61DCC
:1032C00080917B038068EBCF80917B038D7FE7CF7C
:1032D00080917B03877FE3CF80917B038F7DDFCF5E
:1032E00080917B038F7BDBCF80917B03837FD7CF64
:1032F00080917C038C7FA7CF80917B0382FB9927F1
:1033000090F921E0922790FB82F990FB83F9C7CFD7
:1033100080917C03982F909591708E7F892B90FBE4
:1033200081F991CF0E94D61D90917B03892F97FB45
:1033300087F98058B4CF81E0ACCF81E021CFCF9323
:10334000DF93EB0186319C4511F50E940C269A8192
:10335000992399F08A7A91E009F490E090937502AC
:10336000811109C089E20E94E7250E94582680E069
:10337000DF91CF91089585E3F6CF80917502811199
:1033800004C089E20E94EE25F0CF85E3FBCF81E007
:10339000EFCF8EE1489B02C08150E1F7489BFECF02
:1033A0000895589880E28A95F1F7589A0895FC019B
:1033B0003BE03A95F1F720E090E080E031E040E139
:1033C0004A95F1F7880F489B02C08160232742E0AD
:1033D0004A95F1F7000040E14A95F1F79F5F6913C4
:1033E000EECF90E19A95F1F799B132E03A95F1F785
:1033F000000040E14A95F1F7917092272081920FE9
:1034000090830895EF92FF920F931F93CF93DF93D2
:103410000F92CDB7DEB719828C017C01E60EF11C4C
:103420000E151F0561F481E09981911180E00F90E4
:10343000DF91CF911F910F91FF90EF9008950E941F
:10344000C91968E0CE0101960E94D719F80181934D
:103450008F01E6CF90937802809377026093760293
:10346000509A589A089590937802809377026093C7
:1034700076025098589AE89AE9E6F0E080818C7FCD
:10348000808308956150770B91E001C0990F6A9590
:10349000EAF720E031E0911108C0222391F0589A18
:1034A00080E28A95F1F758980895492F482339F01A
:1034B000589A232740E24A95F1F79695ECCF589811
:1034C000F9CF5898EDCFFF920F931F93CF93DF93CF
:1034D000EC018C01060F111DC017D10731F4DF91EB
:1034E000CF911F910F91FF900895F9900E94D119EB
:1034F00068E08F2D0E94421AEFCF1F920F920FB6F5
:103500000F9211240F931F932F933F934F935F9329
:103510006F937F938F939F93AF93BF93EF93FF939B
:10352000CF93DF930F92CDB7DEB719820E94C919EE
:1035300067E0CE0101960E94D719082F06950695DF
:103540000695982F92959570202F2570920F292F10
:103550002370969596958770920F891344C0898140
:10356000811141C0809176028017E8F120E12A950F
:10357000F1F7589A509A82E08A95F1F700C0A8E0D6
:103580000A9FC00111240091770210917802080F60
:10359000191F5898F8016581662321F0868197816B
:1035A0000E94631A0E94D119F0E1FA95F1F7589838
:1035B0005098589A20E12A95F1F7D80112966C910B
:1035C0001297662331F113968D919C910E94021AF5
:1035D000D801ED91FC91882311F088E001C082E0D0
:1035E00080830E94C9190F90DF91CF91FF91EF91D5
:1035F000BF91AF919F918F917F916F915F914F910B
:103600003F912F911F910F910F900FBE0F901F9020
:103610001895ED91FC91E1CF0F931F93CF93DF931A
:1036200020917602281719060CF471C08C0193E0E2
:10363000000F111F9A95E1F7C0917702D09178029F
:10364000C00FD11FF894509A589825E02A95F1F7A9
:103650000000982F969595708570980F892F83702C
:1036600096959695980F092B0E94D11900C067E096
:10367000802F0E94421A80E18A95F1F75098589A5B
:10368000489B17C087E090E0489915C06D8166237C
:1036900021F18E819F810E94021A81111EC0509AD1
:1036A000589AE881F98182E08083789482E090E002
:1036B0000DC000C0E5CF019771F4509A589AE88187
:1036C000F98181E08083789481E090E0DF91CF916F
:1036D0001F910F91089500C0D7CF0E94C91920E211
:1036E0002A95F1F75898509A80E18A95F1F76A8106
:1036F000662321F08B819C810E94631A0E94D1195C
:10370000E881F9811082789490E080E0DFCF84E056
:1037100090E0DCCF90937E0280937D020895E0914B
:103720007D02F0917E02309721F00190F081E02D32
:10373000099480E00895E0917D02F0917E02309737
:1037400021F00280F381E02D0994089520917B02FD
:1037500030917C022817390771F090937C02809396
:103760007B02E0917D02F0917E02309721F006808D
:10377000F781E02D099408952091790230917A0221
:103780002817390771F090937A0280937902E091BB
:103790007D02F0917E02309721F00084F185E02DCA
:1037A0000994089585B7806885BF85B7806885BF0F
:1037B0000895089508950C94D91B08950C94DD1B69
:1037C0000E94D21B0E94DA1B0C94DB1B0C94CC0EC3
:1037D0000E9432280E948F0D0E948B280E94D815CB
:1037E0000C94DE1BBF92CF92DF92EF92FF920F9369
:1037F0001F93CF93DF93CDB7DEB72A970FB6F89418
:10380000DEBF0FBECDBF0E94120E0E94E61B8823B2
:1038100009F45EC080E8C82E82E0D82E10E000E0F7
:10382000B02E802F0E94830DE82EF601F1906F01DB
:10383000F81609F447C08091070381FD0E94890DA5
:103840009F2D9E2580E0FF24F394292F2F21B1F195
:103850008E83BF82EF2081E009F480E088870E9498
:103860003B288160782F9A8789874E815F816885A0
:103870008A850E94891CF801E058FD4F8081F82656
:10388000F0820E9445160E948F1B90917F0289173B
:1038900081F10E948F1B80937F022A960FB6F894C5
:1038A000DEBF0FBECDBFDF91CF911F910F91FF9073
:1038B000EF90DF90CF90BF900C94200B8F5FFF0CA8
:1038C000873019F60F5F1F4F0A30110509F0A8CF96
:1038D0008FEF89838A831B820E943B288160782F27
:1038E0009D838C8349815A816B818D810E94891CC3
:1038F000C8CF2A960FB6F894DEBF0FBECDBFDF91BA
:10390000CF911F910F91FF90EF90DF90CF90BF90DC
:103910000895CF93DF93CDB7DEB72B970FB6F8940A
:10392000DEBF0FBECDBF4F83588769877A878B87ED
:103930008A859B85892B21F0852F84238F3FD9F49D
:103940001E821D8285E0FE013796DE0111960190F0
:103950000D928A95E1F749815A816B817C818D8135
:103960009E812B960FB6F894DEBF0FBECDBFDF91C0
:10397000CF910C94032380918B0290918C0201963D
:1039800090938C0280938B02DBCFFC01808191812C
:103990000C94B925CF93C82F882309F483C08238AB
:1039A000C1F40E948F1B81FD7DC089E30E94E72541
:1039B0000E9458262FEF81EE94E0215080409040E5
:1039C000E1F700C0000089E30E94EE25CF910C943E
:1039D00058268338A1F40E948F1B80FD63C083E5C5
:1039E0000E94E7250E9458262FEF81EE94E0215097
:1039F00080409040E1F700C0000083E5E5CF8438C7
:103A0000A1F40E948F1B82FD4DC087E40E94E72530
:103A10000E9458262FEF81EE94E021508040904084
:103A2000E1F700C0000087E4CFCF8CEF8C0F813A24
:103A300090F46C2F80912701909128010E947627A5
:103A4000882329F08C2F0E94EE250E9458268C2F67
:103A50000E94E725BBCF80E28C0F883048F4C77006
:103A600081E001C0880FCA95EAF70E940F26AECF09
:103A7000EBE5EC0FE33040F4F0E0E153FE4F8081E2
:103A800090E0CF910C94A61BC85AC73158F4EC2F84
:103A9000F0E0EE0FFF1FEF55FE4F80819181CF9137
:103AA0000C94BC1BCF910895882309F44BC0823835
:103AB00071F40E948F1B81FF45C089E30E94E725B6
:103AC0000E94582689E30E94EE250C9458268338DC
:103AD00059F40E948F1B80FF35C083E50E94E725C3
:103AE0000E94582683E5EFCF843859F40E948F1B3B
:103AF00082FF28C087E40E94E7250E94582687E4B9
:103B0000E2CF9CEF980F913AF0F290E2980F983044
:103B100050F4877091E001C0990F8A95EAF7892FD8
:103B20000E941526D2CF9BE5980F933020F490E0A9
:103B300080E00C94A61B885A873120F490E080E046
:103B40000C94BC1B0895CF93C82F0E94CA1CC93384
:103B500049F42FEF87EE93E0215080409040E1F749
:103B600000C000008C2FCF910C94541D882321F0AD
:103B70000E940F260C9458260895882321F00E9455
:103B800015260C94582608950E942C260E943C2647
:103B90000E94582690E080E00E94A61B90E080E002
:103BA0000C94BC1B0E94F5250C94C41D0E941C267D
:103BB0000C94D21DE92FE295EF70E250EE3070F4D4
:103BC000F0E0E153FF4C0C94902F803F19F020F46B
:103BD000883E20F481E00895843FE1F380E0089579
:103BE000883EC0F3813FD1F7F5CF93FB882780F95A
:103BF00008950E94B9250C94DA1D4F925F926F923E
:103C00007F92BF92CF92DF92EF92FF920F931F931A
:103C1000CF93DF936C01EB01FC01058102950F70DE
:103C2000128111110E942C260E940526E82E88235D
:103C300091F01123D1F08D2F807F803421F080E22C
:103C40008C0F883090F082E00E94A3260E94052607
:103C500091E0E82EE926BD2EB2942FE0B222EB2DA2
:103C6000F0E0E352FF4C0C94902FE12CF4CFFD2FA9
:103C7000FF70FF2E8D2F807F19F0F29490EFF922C4
:103C80001123A9F0FF2059F080E28C0F883010F04A
:103C9000C11109C08F2D0E940F260E9458268C2F1B
:103CA0000E94CA1C14C08F2D0E941F26F6CF8C2F95
:103CB0000E94541DFF2059F080E28C0F883010F0D4
:103CC000C11138C08F2D0E9415260E945826EB2D59
:103CD000E850FF0B349720F40E948F1B0E94200BAA
:103CE000CE010E94DA1D8111A4C110928C021092A3
:103CF0008B02EE2009F4AFC10E94012680FDABC10A
:103D0000F60112820E94FB250E948724C6010E94B0
:103D100050200E94FB25DF91CF911F910F91FF90C2
:103D2000EF90DF90CF90BF907F906F905F904F901B
:103D30000C94A8248F2D0E942526C7CF2D2F2F70DD
:103D4000F22E8D2F807F803219F0F29480EFF822CE
:103D5000CC2369F0C13049F1112391F1002351F1D5
:103D6000F601858180FF9BCF8F70858323C011234F
:103D700081F0011106C00E943F268F290E94B61DC6
:103D8000A6CF0130C1F70E943F268F290E94452609
:103D90009ECF011106C00E944E268F2D0E94BD1D90
:103DA00096CF013009F493CFF6CF112329F00630D6
:103DB00008F08DCF8F2DE2CF053008F088CFEDCF02
:103DC000002359F3C93349F4FFEF27EE33E0F150F4
:103DD00020403040E1F700C000008C2F0E94541DAD
:103DE00076CF8D2F86958695837061F0813009F0AE
:103DF0006ECFCE019370111102C090E080E00E945E
:103E0000BC1B65CFCE019370111102C090E080E021
:103E10000E94A61B5CCF8D2F837009F043C0111147
:103E200056CF2C2F229526952770220F220F6C2F0C
:103E30006F70462E512C712C612C022E04C0440C44
:103E4000551C661C771C0A94D2F760E070E0CB0129
:103E5000C4FF0FC06FE070E080E090E004C0660F28
:103E6000771F881F991F2A95D2F7609570958095C6
:103E700090952D2F269526952370642975298629DE
:103E80009729223049F058F4213019F00E94392442
:103E90001ECF0E9427241BCF0E944B2418CF0E94C4
:103EA000252415CF8695112311F08D2F817088233D
:103EB00009F40DCF2C2F229526952770220F220F63
:103EC0006C2F6F70462E512C712C612C022E04C069
:103ED000440C551C661C771C0A94D2F760E070E015
:103EE000CB01C4FF0FC06FE070E080E090E004C041
:103EF000660F771F881F991F2A95D2F760957095D6
:103F0000809590952D2F26952695237064297529E7
:103F100086299729223049F058F4213019F00E945F
:103F2000FE24D5CE0E94EC24D2CE0E941025CFCE06
:103F30000E946124CCCE8D2F8F70F82E112321F09A
:103F40000E9487248C2F1ACF8C2F0E94BD1D8F2D8D
:103F50000E94A824BCCEC23F99F160F4C03FD9F0C2
:103F6000C13F39F1112309F444C0011198CE8D2FBE
:103F70008F7123C0C33F49F1C43FA1F7112379F1E9
:103F80009D2F9F71F92E892F0E94872463E08F2D2A
:103F90000E948E269CCE112341F0053008F097CE6A
:103FA0008D2F8F710E94CB2492CE063008F08FCED9
:103FB000F7CF8D2F8F71112359F20E94872487CE5E
:103FC0008D2F8F711123C9F3C3CF112329F08D2FAA
:103FD0008F710E9472247BCE0E946D2478CE81E086
:103FE0000E94A326023008F472CE82E00E94A3262B
:103FF0006ECE002359F0C93309F0EFCEEFEFF7EEA4
:1040000023E0E150F0402040E1F7E5CE8D2F8F71A5
:104010009FCF4D2F4F706C2FC6010E94790B0E94CD
:104020009D2355CE4D2F4F706C2FC6010E947C0BE7
:104030004ECE112319F0011158CE5BCE011155CE91
:1040400080918B0290918C02029709F04ECE8C2FBA
:104050000E94A31D4ACEDF91CF911F910F91FF9037
:10406000EF90DF90CF90BF907F906F905F904F90D8
:1040700008950F931F93CF93DF93EC0168817981AB
:104080008A810E94C3258C010E9422250E9424243B
:10409000B801CE01DF91CF911F910F910C94FD1DBE
:1040A000CF93DF93EC018B819C81892B29F0888150
:1040B000998189238F3F59F4DF91CF910895CE01E3
:1040C0000E943920CE01DF91CF910C948B0ACE0152
:1040D0000E94370B8111F3CF0E940526882361F3DC
:1040E0008A81882349F382E0DF91CF910C94A32643
:1040F000CF93DF9300D000D00F92CDB7DEB70F90F3
:104100000F900F900F900F90DF91CF910895CF9364
:10411000DF9300D000D000D0CDB7DEB726960FB623
:10412000F894DEBF0FBECDBFDF91CF9108951F93EE
:10413000CF93DF93C0918D0216E080918E028C1395
:1041400004C0DF91CF911F910895D0E01C9FF00132
:104150001D9FF00D1124E157FD4F40815181628177
:104160007381848195810E9487202196C770E5CF55
:104170004091BF025091C0026091C1027091C20291
:104180008091C3029091C4020C94872020918D02EB
:1041900090918E0256E0291302C080E0089530E02D
:1041A000529FF001539FF00D1124E157FD4F718193
:1041B000761306C07081781303C07281741304C033
:1041C0002F5F3F4F2770E7CF81E008951F93CF9374
:1041D000DF938091C402807FA9F48091C10288237B
:1041E00089F080918D02C0918E026091BF02709122
:1041F000C002A091C202B091C302D62FD72316E00D
:10420000C81304C0DF91CF911F91089590E01097DB
:1042100011F0DF3F19F401968770F2CF189F9001DB
:10422000199F300D1124F901E157FD4F41814713CA
:10423000F2CF40814613EFCF42814111ECCF438151
:1042400054814A1B5B0B4837510528F78091C40203
:104250008F7080618093C402F901EC56FD4F80811C
:104260008F70806180838FEB92E00E945020DF91FD
:10427000CF911F910C9497208F929F92AF92BF92F3
:10428000CF92DF92EF92FF920F931F93CF93DF9322
:10429000CDB7DEB761970FB6F894DEBF0FBECDBFC6
:1042A0008C0185E0F801DE011D9601900D928A9542
:1042B000E1F7D801EC901196FC9011971296CC90F2
:1042C00012978FEBA82E82E0B82E4091C202509137
:1042D000C3024115510509F474C19091BF022091A8
:1042E000C002892F82238F3F09F46BC113968D90F2
:1042F0009C901497D090C102F401E41BF50BDD20D3
:1043000009F40AC18091C402382F307FE837F105E3
:1043100008F0C1C0311189C0DC2C2F1126C09E11BC
:1043200024C0C11022C08F7080618093C4020E949B
:10433000B820C5010E9450208091C402D801159672
:104340008C938D2D61960FB6F894DEBF0FBECDBF56
:10435000DF91CF911F910F91FF90EF90DF90CF9061
:10436000BF90AF909F908F9008958114910429F091
:104370008F2D8E218F3F09F043C180E080FF15C053
:104380004C2D6F2D8E2D0E94C620882371F08FEB4F
:1043900092E00E94502086E0EFEBF2E0DF011D92F8
:1043A0008A95E9F70E94B8203EC0892829F08F2D10
:1043B0008E218F3F09F021C180E0B82FB170AB2E64
:1043C00080FF29C04C2D6F2D8E2D0E94C620B82E47
:1043D000811121C0ED86FE868D859E850E94B925BE
:1043E000292F22952F70223050F0243078F49F70BE
:1043F00051F0F8019581907F31F4DB2CA2CF9F70B2
:1044000011F08823D1F3805E8830B8F3C8010E9490
:104410005020BA2CF2CFCC2009F493CF8091C40263
:1044200081608093C402D12C8CCF2F1105C09E11C6
:1044300003C0CC2009F48DC0ED86FE868D859E8557
:104440000E94F91D882319F1CC2009F18091C40242
:10445000803270F02091BF023091C00238872F83E4
:1044600019869B868A868C87CE0107960E945020EB
:1044700086E0F801AFEBB2E001900D928A95E1F78A
:104480000E94E6200E94B820DD24D3945ACFC801B0
:104490000E945020F9CF311112C0782D998A888A54
:1044A000A7016C2D89890E9478208FEB92E00E94F1
:1044B000502086E0F50111928A95E9F773CF2F110C
:1044C0000FC09E110DC0C1100BC015968C93C80172
:1044D0000E94502086E0F50111928A95E9F731CFCC
:1044E000ED86FE868D859E850E94F91D882379F2D2
:1044F000CC2069F28091C402803208F4B9CF2091B7
:10450000BF023091C0023A8329831B829D828C8234
:104510008E83CE010196AACFE837F10508F043C09B
:10452000DC2CCC2009F4B3CF2F112CC09E112AC053
:104530008091C40280FD1DC0982F907FD1F0159608
:104540008C931597903F39F0982F907F905F8F70E4
:10455000892B15968C93C8010E94502086E0F801A3
:10456000AFEBB2E001900D928A95E1F70E94B8207E
:10457000E8CE86E0F801AFEBB2E001900D928A95AB
:10458000E1F7DFCEED86FE868D859E850E94F91DC2
:1045900081116ECF8091C40281608093C402C801F2
:1045A0000E945020CECE782D998A888AA7016C2D42
:1045B00089890E94782086E0F50111928A95E9F7B1
:1045C000D5CFCC2009F463CFED86FE868D859E8500
:1045D0000E94F91DD82E882309F459CF86E0F801EE
:1045E000AFEBB2E001900D928A95E1F78FEB92E08C
:1045F0000E94C51C0E94E620B9CF81E08C25DDCE4B
:1046000081E08C25BBCE1F93CF93DF93CDB7DEB770
:104610002C970FB6F894DEBF0FBECDBF4F835887DF
:1046200069877A878B879C87CE0107960E943C21F9
:10463000882369F08A859B85892B39F04F815885BD
:10464000842F85238F3F09F071C016E05FC086E09C
:10465000FE013796DE01119601900D928A95E1F7E1
:104660008A859B85892B89F38F81988589238F3F44
:1046700061F320918E0230E0C9010196877099277D
:1046800040918D024817190671F40E94D61D1092B0
:104690008E0210928D0286E0EFEBF2E0DF011D92B8
:1046A0008A95E9F7D2CF96E0929FD001939FB00D03
:1046B0001124A157BD4FFE01319601900D929A959C
:1046C000E1F780938E020E949720BFCF819FC001A7
:1046D000112481579D4F0E943C218823E9F0E091ED
:1046E0008D021E9FF0011124E157FD4F4081518141
:1046F00062817381848195810E94872080918D02DF
:1047000090E001968770992780938D0280918D02A9
:1047100090918E028913DACF2C960FB6F894DEBFF3
:104720000FBECDBFDF91CF911F91089569857A8526
:104730008B859C850E94872088CFEF92FF920F93F4
:104740001F93CF93DF938C01892B81F0F12CEE2402
:10475000E394E8012196F8018491843770F4843061
:1047600008F05FC08130B1F08230A1F1DF91CF91CC
:104770001F910F91FF90EF900895853709F44CC079
:1047800008F43DC09CE7980F903780F78F770E9420
:10479000541D49C00E5F1F4FFE01849190E2980F97
:1047A000983060F48770FE2D01C0FF0F8A95EAF7FC
:1047B0008F2F0E942F260E94582602C00E94CA1CDA
:1047C0008F2D815030F2EFE9FFE03197F1F700C013
:1047D0000000F7CF0E5F1F4FFE01849190E2980F0B
:1047E000983050F48770FE2D01C0FF0F8A95EAF7CC
:1047F0008F2F0E943526DFCF0E94541DE1CF0E5F20
:104800001F4FFE01C491C150D8F28FE99FE001977C
:10481000F1F700C00000F7CF0E5F1F4FFE01F490CC
:10482000CFCF0E94CA1C8E01CBCF08950C941524C3
:104830000E9416246093F6027093F7028093F802A8
:104840009093F9020C94C41D08950C9418240F93AE
:104850001F930091F6021091F7022091F802309117
:10486000F902602B712B822B932B1F910F910C94CB
:1048700018240F931F930091F6021091F7022091D4
:10488000F8023091F90260237123822393231F9150
:104890000F910C9418240F931F930091F60210911E
:1048A000F7022091F8023091F902602771278227E0
:1048B00093271F910F910C9418240C9415240C9499
:1048C0005D240E945F246093F2027093F302809350
:1048D000F4029093F5020C94C41D60E070E0CB01EB
:1048E0000C9461240F931F9341E050E060E070E06E
:1048F0008A019B0104C0000F111F221F331F8A95DC
:10490000D2F7C901B8011F910F910C9461240F9344
:104910001F9341E050E060E070E004C0440F551F79
:10492000661F771F8A95D2F78091F2029091F30269
:10493000A091F402B091F5028A019B01082B192B7A
:104940002A2B3B2BC901B8011F910F910C946124B4
:104950000F931F9341E050E060E070E004C0440F0B
:10496000551F661F771F8A95D2F7CB01BA01609554
:104970007095809590950091F2021091F30220912C
:10498000F4023091F50260237123822393231F9157
:104990000F910C9461240F931F9341E050E060E06D
:1049A00070E004C0440F551F661F771F8A95D2F729
:1049B0008091F2029091F302A091F402B091F5027D
:1049C0008A019B01082719272A273B27C901B8011B
:1049D0001F910F910C9461240F931F930091F20289
:1049E0001091F3022091F4023091F502602B712BAB
:1049F000822B932B1F910F910C9461240F931F9383
:104A00000091F2021091F3022091F4023091F5022C
:104A100060237123822393231F910F910C946124AF
:104A20000F931F930091F2021091F3022091F40270
:104A30003091F50260277127822793271F910F91EC
:104A40000C946124089527E0929F800D1124982FE3
:104A5000977041E001C0440F9A95EAF786958695D4
:104A6000869595E0899FF0011124EB53FD4F90E06E
:104A700080E070E05191DF0111979B01082E02C088
:104A8000369527950A94E2F721702195252724234E
:104A900025272C9301968530910561F7089527E02D
:104AA000929F800D1124982F9770869586958695F4
:104AB00025E0829FF0011124EB53FD4F50E040E0D0
:104AC00080E0219130E0092E02C0369527950A94A6
:104AD000E2F721703327042E01C0220F0A94EAF76F
:104AE000822B4F5F5F4F4530510559F70895BF92B4
:104AF000CF92DF92EF92FF920F931F93CF93DF93AA
:104B00008C01C090F202D090F302E090F402F09099
:104B1000F5028091F6029091F702A091F802B0910F
:104B2000F902C82AD92AEA2AFB2ACFE1D0E0BC2E12
:104B3000D701C6010C2E04C0B695A7959795879509
:104B40000A94D2F780FD0EC0219788F7B12C8B2DE7
:104B5000DF91CF911F910F91FF90EF90DF90CF9059
:104B6000BF900895B8018C2F0E94990B019761F3B3
:104B7000EECFCF93DF93EC010E947725BE01DF914A
:104B8000CF910C94990B1F93CF93DF93EB019091EE
:104B90008A02992331F0CB01DF91CF911F910C94C0
:104BA000B925882379F0CB010E947725182F682F2B
:104BB000CE010E942325BE01812FDF91CF911F914D
:104BC0000C94990BCB010E944F25182FF4CF682F1E
:104BD00080912701909128010C94AC27682F809137
:104BE0002701909128010C94AE2780912701909184
:104BF00028010C94B0278091FA02859585958595BA
:104C000008958091FA02877008959091FA02977042
:104C100081E009F480E00895809106030895909161
:104C20000603892B809306030895809590910603CF
:104C30009823909306030895109206030895909187
:104C40000503892B809305030895809590910503B2
:104C50009823909305030895109205030895909169
:104C60000403892B80930403089580959091040395
:104C7000982390930403089510920403089580915B
:104C8000FB02089508950C9442269091FB02981718
:104C900021F08093FB020C94432608958091FB023F
:104CA000882329F01092FB0280E00C94432608959B
:104CB000E0912701F0912801809106038083E09123
:104CC0002701F0912801808190910503892B808331
:104CD000E0912701F0912801808190910403892BB4
:104CE00080839091FB02992381F0E0912701F0915C
:104CF00028018081892B8083809127019091280150
:104D00000E94642781110E944E2680912701909174
:104D100028010C949B1B08950C948B2698E0899F86
:104D200090011124622B6093FA020E9487248091E3
:104D3000FA028595859585950C948C261092FA0239
:104D400080E00C948C269091FA02809589238093C0
:104D5000FA02282F277071F4282F082E000C330B2D
:104D60009217130639F08595859585950E94A8249C
:104D70000C949E26089590E080E00E940D3021E082
:104D80008C3E9E4F09F020E0822F089582E090E053
:104D90000C94FF2F83E090E00C94FF2F682F83E0AA
:104DA00090E00C941330CF9384E090E00E94FF2FAA
:104DB000C82F81E290E00E94FF2F982F8C2FCF9177
:104DC0000895CF93C92F682F84E090E00E9413309C
:104DD0006C2F81E290E0CF910C941330AB01BC01B9
:104DE0008FE090E00C942530AB01BC0183E190E0B2
:104DF0000C94253060E070E0CB010C94F42660E068
:104E000070E0CB010E94EE260C94FA266CEE7EEF49
:104E100090E080E00E94313060E082E090E00E940B
:104E2000133060E083E090E00E9413301092F602AD
:104E30001092F7021092F8021092F90260E084E0FA
:104E400090E00E94133060E081E290E00E94133015
:104E500060E085E090E00E94133060E086E090E042
:104E60000E9413306FEF87E090E00E94133040E023
:104E700050E0BA0188E090E00E94253060E08DE0CB
:104E800090E00E94133040E050E0BA0188E190E0E9
:104E90000E94253060E087E190E00E94133040E0FE
:104EA00050E0BA018CE190E00E94253060E080E2A1
:104EB00090E00E9413300C94FF260C940627682F74
:104EC0008EE090E00C9413309C012E5F3F4FAC01BC
:104ED000485F5F4F80E02417350709F40895F90112
:104EE00091919F019923B9F38F5FF5CF662349F024
:104EF000FC01329608962191261729F0E817F90748
:104F0000D1F780E0089581E008959C01FC0132967C
:104F10009FEF80E04191461751F09F3F19F44111F6
:104F200001C0982F8F5F8630A9F79F3F09F408953D
:104F3000290F311D97FD3A95F90162830895FC010F
:104F4000329608962191261303C0DF0111971C9217
:104F5000E817F907B9F708950C9485270C949F2753
:104F6000029626E0FC0111922A95E9F7089508952A
:104F700008950C94B8270E94B9278091810384304A
:104F800049F11092080388E190E020E40FB6F8940C
:104F9000A895809360000FBE2093600080E00E947F
:104FA000200B0E94B92783B7817F846083BF83B7BA
:104FB000816083BF7894889583B78E7F83BF0FB657
:104FC000F894A895809160008861809360001092A9
:104FD00060000FBE08950895CF930E94B7270E94E6
:104FE000120E0E94EB27C0E08C2F0E94830D8111CE
:104FF00005C0CF5FCA30C1F7CF91089581E0FCCFE3
:1050000008950C9400280E94D61D0E948F1B0E94B8
:10501000200B0C9401281F921FB61F9211248F930E
:105020009F93AF93BF9380910803811113C0809128
:10503000770390917803A0917903B0917A03419618
:10504000A11DB11D8093770390937803A0937903FA
:10505000B0937A03BF91AF919F918F911F901FBE24
:105060001F90189582E084BD93E095BD9AEF97BD9F
:1050700080936E0008952FB7F894809177039091F4
:105080007803A0917903B0917A032FBF08959C0112
:105090004FB7F8948091770390917803A0917903AA
:1050A000B0917A034FBF821B930B089578941F929F
:1050B0001FB61F9211248F939F93AF93BF9380913C
:1050C000770390917803A0917903B0917A030196C8
:1050D000A11DB11D8093770390937803A09379036A
:1050E000B0937A03BF91AF919F918F911F901FBE94
:1050F0001F90189587E797E7909301088093000821
:1051000088E19AE00FB6F894A895809360000FBEEE
:1051100090936000FFCF0E94BB26811102C00E94C5
:105120005D270E94C626809307030E94D326909392
:105130007C0380937B030E94CA26682F70E090E076
:1051400080E00C9425248091110308950895CF9355
:10515000DF9300D00F92CDB7DEB7909181039430EA
:1051600019F589837B836A8382E08093E9008FEF5E
:105170009091E800815095FD06C095ED9A95F1F764
:1051800000008111F5CF8091E80085FF0DC050E04F
:1051900040E063E070E0CE0101960E94BD2A80915C
:1051A000E8008E778093E8000F900F900F90DF91CA
:1051B000CF910895CF93DF93EC010E94A02A823013
:1051C00011F0843031F4BE0184E0DF91CF910C9472
:1051D000A728DF91CF910895BC0183E00C94A72804
:1051E000CF93DF93EC010E94A02A823011F084302B
:1051F00039F581E08093E9008FEF9091E8008150CC
:1052000095FD06C095ED9A95F1F700008111F5CF57
:105210008091E80085FF14C050E040E068E070E055
:10522000CE010E94BD2A8091E8008E778093E8002D
:1052300088E0FE01A9E0B3E001900D928A95E1F7C4
:10524000DF91CF91089580918003811109C00E9460
:105250004D2C0E94AA2C8091E20084608093E20091
:105260000895109280030895089508950C940328DA
:1052700042E061EC81E00E94C92B42E261EC82E0F5
:105280000C94C92B80918303833009F45FC030F400
:105290008130C1F1823009F49BC008958A3009F44D
:1052A00087C08B3009F46DC0893009F04EC0809101
:1052B0008203813209F049C080918603909187036F
:1052C000029708F042C08091E800877F8093E80051
:1052D0008091E80082FF35C09091F3008091F20048
:1052E000029729F48091F1008B7F813021F4809125
:1052F000F100809311038091E8008B778093E800A0
:105300000C94FD2B80918203813AF9F48091E8009E
:10531000877F8093E8008091860390918703892B93
:1053200061F468E089E093E070E00E940C2B8091CA
:10533000E8008B778093E800089560E090E080E0DB
:10534000F3CF809181038111C3CF089580918203AF
:10535000813AD9F78091860390918703892BA9F729
:105360008091E800877F8093E8008091E80080FFCB
:10537000FCCF809133018093F1008091E8008E771B
:10538000BDCF80918203813201F780918603909195
:105390008703892BD1F68091E800877F8093E8000E
:1053A0000E94FD2B80918403809333010C94D61DC1
:1053B00080918203813249F68091E800877F809353
:1053C000E8000E94FD2B80918503809312030895CD
:1053D00080918203813A09F0B8CF8091E800877FFD
:1053E0008093E8008091E80080FFFCCF8091120359
:1053F000C2CF84B7877F84BF0FB6F894A8958091F9
:105400006000886180936000109260000FBE80E8A9
:1054100090E00FB6F89480936100909361000FBE06
:105420000E94E01B0E944D2C0E94AA2C8091E20059
:1054300084608093E20078940E94332F0E94E81BDE
:1054400089E291E00E948A1B80918103853019F0E6
:105450000E94F21BF9CF0E94BB2780917F03882313
:1054600099F30E94EC27882379F30E94A72AECCFB6
:105470000C943A2A292F33272330310519F168F487
:105480002130310509F44AC02230310509F44BC0FE
:1054900090E080E030E020E028C02132310579F151
:1054A00022323105A9F780E490E025ED3CE061155A
:1054B0007105D9F082E390E023EA3CE061307105A8
:1054C000A1F0E6CF99278130910599F0009741F03E
:1054D0008230910589F00397D9F6EAE2FCE002C038
:1054E000E2E5FCE0849190E09F01FA0131832083A2
:1054F0000895E4E4FCE0F6CFE0E3FCE0F3CF89E0DC
:1055000090E028E63CE06115710579F389E090E0D0
:1055100021E83CE06130710541F3BACF82E190E0CF
:1055200021E93CE0E2CF8BE390E026E53CE0DDCFF3
:1055300080918103843011F482E0089581E0089520
:1055400080911303811102C00C94982A089580E180
:1055500089BD82E189BD09B400FEFDCF8091D800EC
:105560008F7D8093D8008091E00082608093E0007E
:105570008091E00081FDFCCF0895AF92BF92CF9261
:10558000DF92FF920F931F93CF93DF936C01EB0198
:105590008A010E941C2CF82E811123C001151105CF
:1055A00039F0F80180819181C81BD90BC80ED91E32
:1055B000B12CA12C2097A9F08091E80085FD22C094
:1055C0008091E8008E778093E80001151105A1F025
:1055D000F80180819181A80EB91EB182A08285E078
:1055E000F82E8F2DDF91CF911F910F91FF90DF90BB
:1055F000CF90BF90AF9008950E941C2C8823D1F2C9
:10560000F82EEFCFF60181916F018093F100219781
:10561000FFEFAF1ABF0ACECFFC01809188039091B3
:10562000890386179707A0F06115710529F49091F9
:10563000E8009E779093E80090E06115710551F4C1
:10564000911108C08091E80082FF34C080E0089585
:10565000BC01F2CF809181038823C1F18530C1F173
:105660008091E80083FD30C08091E80082FDEACFA0
:105670008091E80080FFE1CF8091F3002091F2005B
:10568000382F6115710519F02830310558F091E077
:105690002830310509F090E02091E8002E77209322
:1056A000E800CBCF81918093F100615071092F5FA9
:1056B0003F4FE7CF80918103882341F0853041F04F
:1056C0008091E80083FFBECF81E0089582E00895D5
:1056D00083E00895FC0180918803909189038617E7
:1056E0009707A0F06115710529F48091E8008E7785
:1056F0008093E80090E06115710551F4911108C0A4
:105700008091E80082FF35C080E00895BC01F2CFAF
:10571000809181038823C9F18530C9F18091E80027
:1057200083FD31C08091E80082FDEACF8091E800DE
:1057300080FFE1CF8091F3002091F200382F6115B6
:10574000710519F02830310558F091E02830310505
:1057500009F090E08091E8008E778093E800CBCF4D
:1057600084918093F1003196615071092F5F3F4F12
:10577000E6CF80918103882341F0853041F080910C
:10578000E80083FFBDCF81E0089582E0089583E0C3
:105790000895982F973028F08F708093E90081E06A
:1057A00008959093E900242F762F50E0981731F058
:1057B0007091EC002091ED005091F00021FD02C0AD
:1057C0009F5FE8CF3091EB003E7F3093EB0030914C
:1057D000ED003D7F3093ED003091EB003160309370
:1057E000EB007093EC002093ED005093F0002091BB
:1057F000EE0027FDE5CF80E008958091820387FFCA
:1058000013C08091E80082FF06C08091E8008B778A
:105810008093E80004C0809181038111F2CF089544
:10582000809181038823D9F38091E80080FFF8CF2D
:105830008091E8008E77ECCF2091E4003091E50074
:1058400095E6A9012091EC00822F817020FF06C00F
:105850008091E80080FF06C080E008952091E80074
:1058600022FD1AC080918103882389F0853089F058
:105870008091EB0085FD0FC02091E4003091E500A0
:1058800042175307F9F29150E1F684E0089582E05F
:10589000089583E0089581E008950E94BB2C0E9442
:1058A000C32CE0EEF0E0808181608083E8EDF0E0E1
:1058B00080818F77808319BCA7EDB0E08C918E7FBB
:1058C0008C9380818F7E80831092800308950F9344
:1058D0001F93CF93DF930E94BB2C0E94C32CC8ED73
:1058E000D0E088818F7788838881806888838881E9
:1058F0008F7D888319BC1092810310927D031092D2
:105900007F0310927E0300EE10E0F80180818B7F10
:10591000808388818160888342E060E080E00E942B
:10592000C92BE1EEF0E080818E7F8083E2EEF0E033
:10593000808181608083808188608083F80180819C
:105940008E7F8083888180618883DF91CF911F91D2
:105950000F910895E8EDF0E080818F7E8083E7ED80
:10596000F0E080818160808384E082BF81E0809369
:1059700080030C94672CE8EDF0E080818E7F8083BB
:105980001092E20008951092DA001092E10008955A
:105990001F920F920FB60F9211242F933F934F93A4
:1059A0005F936F937F938F939F93AF93BF93EF9387
:1059B000FF938091E10082FF0BC08091E20082FFA3
:1059C00007C08091E1008B7F8093E1000E94322F1D
:1059D0008091DA0080FF19C08091D80080FF15C047
:1059E0008091DA008E7F8093DA008091D90080FF69
:1059F00096C080E189BD82E189BD09B400FEFDCF7A
:105A000081E0809381030E9423298091E10080FF3F
:105A100019C08091E20080FF15C08091E2008E7F66
:105A20008093E2008091E20080618093E2008091A7
:105A3000D80080628093D80019BC85E080938103F0
:105A40000E9435298091E10084FF2BC08091E20003
:105A500084FF27C080E189BD82E189BD89B5982F87
:105A6000917080FFFBCF8091D8008F7D8093D8000C
:105A70008091E1008F7E8093E1008091E2008F7E33
:105A80008093E2008091E20081608093E200809147
:105A90007D03882309F449C084E0809381030E9438
:105AA00036298091E10083FF29C08091E20083FFC5
:105AB00025C08091E100877F8093E10082E08093A0
:105AC000810310927D038091E1008E7F8093E1003D
:105AD0008091E2008E7F8093E2008091E2008061FD
:105AE0008093E20042E060E080E00E94C92B809158
:105AF000F00088608093F0000E943429FF91EF91BC
:105B0000BF91AF919F918F917F916F915F914F91D5
:105B10003F912F910F900FBE0F901F90189519BCB9
:105B2000109281030E94312970CF8091E30087FD9C
:105B300093E090938103B3CF1F920F920FB60F9211
:105B400011242F933F934F935F936F937F938F9382
:105B50009F93AF93BF93CF93DF93EF93FF93D09136
:105B6000E900DF708091EC00C82FC17080FDC0E8B3
:105B70001092E9008091F000877F8093F000789484
:105B80000E94E02D1092E9008091F00088608093DF
:105B9000F000CD2BCF70C093E900FF91EF91DF9122
:105BA000CF91BF91AF919F918F917F916F915F91B5
:105BB0004F913F912F910F900FBE0F901F9018950E
:105BC0001F93CF93DF93CDB7DEB7AA970FB6F894A4
:105BD000DEBF0FBECDBF82E893E02091F100FC0153
:105BE0002193CF01F3E08A389F07B9F70E94422939
:105BF0008091E80083FF1EC180918203909183030E
:105C00009A3008F017C1E92FF0E0E351FF4C0C94F3
:105C1000902F803899F0823809F00CC1809186036A
:105C20008F70873008F006C18093E9008091EB0007
:105C300085FB882780F91092E90006C080917E03D9
:105C400090917F03911182609091E800977F9093EB
:105C5000E8008093F1001092F1008091E8008E77C7
:105C6000E5C0882309F4D3C0823009F0E3C08091F5
:105C700084038111D6C0809186038F702FEF280F87
:105C8000263008F0D7C08093E9002091EB0020FF78
:105C9000C8C0933031F48091EB0080628093EB00B8
:105CA000C0C09091EB0090619093EB0021E030E058
:105CB00001C0220F8A95EAF72093EA001092EA00C9
:105CC0008091EB008860EACF8111B4C01091840309
:105CD0001F778091E3008078812B8093E30080918F
:105CE000E800877F8093E8000E94FD2B8091E80008
:105CF00080FFFCCF8091E30080688093E30082E026
:105D0000111183E08093810395C08058823008F0A0
:105D100091C080918403909185038C3D23E092078C
:105D2000A1F583E08A838AE289834FB7F894DE0184
:105D3000139620E03EE051E2E32FF0E0509357004D
:105D4000E49120FF03C0E295EF703F5FEF708E2F6C
:105D500090E0EA30C0F0C7968D939D932F5F243179
:105D600059F74FBF8091E800877F8093E8006AE28F
:105D700070E0CE0101960E940C2B8091E8008B7799
:105D80008093E80057C0C096E7CF6091860370917A
:105D90008703AE014F5F5F4F0E94382ABC01892BF9
:105DA00009F448C09091E800977F9093E8008981BA
:105DB0009A810E946A2BE1CF8038E1F58091E8005A
:105DC000877F8093E80080917D038093F10045CF29
:105DD000811130C090918403923060F58091E80089
:105DE000877F8093E80090937D030E94FD2B809134
:105DF0007D03882311F084E005C08091E30087FDD6
:105E0000FACF81E0809381030E94382913C08091EA
:105E10008403813079F481E0933009F080E080934D
:105E20007F031092E9008091E800877F8093E8006B
:105E30000E94FD2B8091E80083FF0AC08091E8005A
:105E4000877F8093E8008091EB0080628093EB0075
:105E5000AA960FB6F894DEBF0FBECDBFDF91CF91EB
:105E60001F9108950895CF93809181038823A1F015
:105E7000C091E900CF709091EC00892F817090FD66
:105E800080E8C82B1092E9008091E80083FD0E9411
:105E9000E02DCF70C093E900CF910895991B79E070
:105EA00004C0991F961708F0961B881F7A95C9F7AA
:105EB0008095089587FB082E062687FD819567FD4E
:105EC00061950E944E2F0EF4919507FC81950895DF
:105ED000AA1BBB1B51E107C0AA1FBB1FA617B70710
:105EE00010F0A61BB70B881F991F5A95A9F780952C
:105EF0009095BC01CD01089597FB072E16F40094F0
:105F000007D077FD09D00E94682F07FC05D03EF42A
:105F1000909581959F4F0895709561957F4F089555
:105F2000EE0FFF1F0590F491E02D09948F929F9240
:105F3000AF92BF92CF92DF92EF92FF92CF93DF9317
:105F4000EC01688179818A819B81611571058105E8
:105F5000910521F464E279ED8BE597E02DE133EFD3
:105F600041E050E00E94473049015A019B01AC01D9
:105F7000A7EAB1E40E9466306B017C01ACEEB4EF9D
:105F8000A50194010E947430DC01CB018C0D9D1D94
:105F9000AE1DBF1DB7FF03C00197A109B04888839C
:105FA0009983AA83BB839F77DF91CF91FF90EF9076
:105FB000DF90CF90BF90AF909F908F9008950E94F8
:105FC000962F089580E091E00E94962F0895B0E00A
:105FD000A0E08093000190930101A0930201B0938F
:105FE00003010895FC014150504030F00190061625
:105FF000D1F73197CF010895882799270895F99906
:10600000FECF92BD81BDF89A992780B50895A6E18B
:10601000B0E044E050E00C943930A8E1B0E042E058
:1060200050E00C943930262FF999FECF92BD81BDF6
:10603000F89A019700B4021639F01FBA20BD0FB6C6
:10604000F894FA9AF99A0FBE08950396272F0E94A2
:1060500014300E941330252F0E941430242F0C94EA
:1060600014300196272F0E9414300C941330DC0159
:10607000CB01FC01F999FECF06C0F2BDE1BDF89A53
:10608000319600B40D9241505040B8F70895052E56
:1060900097FB1EF400940E945E3057FD07D00E94CB
:1060A000793007FC03D04EF40C945E305095409547
:1060B000309521953F4F4F4F5F4F089590958095B4
:1060C000709561957F4F8F4F9F4F08950E949B3031
:1060D000A59F900DB49F900DA49F800D911D11243C
:1060E0000895B7FF0C9466300E946630821B930BB4
:1060F0000895A1E21A2EAA1BBB1BFD010DC0AA1F09
:10610000BB1FEE1FFF1FA217B307E407F50720F020
:10611000A21BB30BE40BF50B661F771F881F991F9B
:106120001A9469F760957095809590959B01AC01E4
:10613000BD01CF010895A29FB001B39FC001A39FED
:10614000700D811D1124911DB29F700D811D1124B0
:10615000911D0895F894FFCFE2062407530788079E
:10616000BA07EC071E0850088808BA08EC081E0990
:106170004D098209B7094917501757175C1761175E
:1061800066176B17701775177A177F17841788179C
:106190008D1790179317961799179B179E17E51D44
:1061A000E51DEE1DEE1DF01DEE1DEE1DEE1DE51DA7
