:100000000C948B060C949C1A0C94D2060C94D20679
:100010000C94D2060C94D2060C94D2060C94D20600
:100020000C94D2060C94D2060C946B2C0C943F2D9D
:100030000C94AE270C94D2060C94D2060C94D206E3
:100040000C94D2060C94D2060C94D2060C94D206D0
:100050000C94D2060C94F9270C94D2060C94D20678
:100060000C94D2060C94D2060C94D2060C94D206B0
:100070000C94D2060C94D2060C94D2060C94D206A0
:100080000C94D2060C94D2060C94D2060C94D20690
:100090000C94D2060C94D2060C94D2060C94D20680
:1000A0000C94D2060C94D2060C94D20629001E00A1
:1000B000085D200021002200105D2B0014001A00B2
:1000C0000800150017000E5DE00004001600070090
:1000D00009000A00155DE1001D001B000600190063
:1000E0000500E000E000E300E200E000185D2C62A3
:1000F0002C62165D0D5D0C5D0B5D0A5D095D115D89
:10010000125D130012000C0018001C000F5D145D3E
:10011000135D0F000E000D000B002A00E5003800F3
:1001200037003600100011004C004F005200500004
:10013000E300195D2A001B5D44003A003B003C00CF
:100140003D003E00105D35021E02520020022102D9
:1001500022022D022B00500051004F0021002200EE
:100160004C00E100230024002500260027002C007D
:10017000E000E300E200E000185D2C004C004500C8
:1001800043004200410040003F00115D3102270260
:1001900026002500240023022E023402330223000D
:1001A000220021000B004C00E500380220001F0057
:1001B0001E00270028004F00510050004A00195D22
:1001C00028004C0044003A003B003C003D003E004B
:1001D0002F0235021E0252002002210222022D02AD
:1001E0002B00500051004F00210022004C00E10084
:1001F000230024002500260027002C00E000E30057
:10020000E200E000185D2C004C0045004300420075
:10021000410040003F0030028900270226022502EB
:10022000240223022E02340233020F000E000D00BE
:100230000B002A00E50038023702360210001100D8
:1002400028004D004B004E004A00195D28002A008E
:100250000100010001000100010001000100010096
:10026000005CC25CC35CC65CC55C010001000100AF
:10027000BF5CC15CBE5CBD5C01000100010001000F
:100280000100010001000100010001000100010066
:10029000010001004F040100010001000100010004
:1002A0000100010001000100C95CCA5CC75CC85CB8
:1002B0000100010001004F04010001005004010091
:1002C0000100010001000100010001000100010026
:1002D0000100010001000100010001000000000018
:1002E000000000000000000000000000000000000E
:1002F00000000000000000000000000000000000FE
:1003000000000000000000000000000000000000ED
:1003100000000000000000000000000000000000DD
:100960000000000000000000000000000100010085
:100970000100010001000100AC000100005CC25C4C
:10098000C35CC65CC55C010001000100BF5CC15CCA
:10099000BE5CBD5C0100010001000100010001001E
:1009A000010001000100010001000100010001003F
:1009B00001004600A900AA00A8000100AE00AB009B
:1009C00001000100C95CCA5CC75CC85C0100010091
:1009D00001000100010050094F0901000100010060
:1009E00001000100010001000100010001000100FF
:1009F000010001000100010032190A00047F3F1FBD
:100A0000643214643214783C1E1E140A0522232515
:100A10002628292A2C2D2F3032333536383A3B3DC3
:100A20003E4042434547494A4C4E50515355575911
:100A30005A5C5E6062646668696B6D6F717375772E
:100A4000797B7D7F81838587898A8C8E909294962D
:100A5000989A9C9E9FA1A3A5A7A8AAACAEAFB1B33C
:100A6000B4B6B8B9BBBCBEBFC1C2C3C5C6C7C9CA8C
:100A7000CBCCCDCED0D1D2D2D3D4D5D6D7D7D8D94E
:100A8000D9DADADBDBDBDCDCDCDCDCDDDDDDDDDCAC
:100A9000DCDCDCDCDBDBDBDADAD9D9D8D7D7D6D5BE
:100AA000D4D3D2D2D1D0CECDCCCBCAC9C7C6C5C380
:100AB000C2C1BFBEBCBBB9B8B6B4B3B1AFAEACAACD
:100AC000A8A7A5A3A19F9E9C9A98969492908E8C7D
:100AD0008A89878583817F7D7B79777573716F6D57
:100AE0006B6968666462605E5C5A59575553515031
:100AF0004E4C4A4947454342403E3D3B3A383635E5
:100B00003332302F2D2C2A292826252322FFAA7F95
:100B10005540000102030405060708090A0B1716D1
:100B20001514131211100F0E0D0C0001010101011B
:100B30000101010102020202020202020203030396
:100B40000303030303040404040404040505050566
:100B50000506060606060707070707080808080926
:100B60000909090A0A0A0B0B0B0C0C0C0D0D0D0ED2
:100B70000E0E0F0F0F101011111112121313141467
:100B8000151516161717181819191A1A1B1B1C1DDC
:100B90001D1E1E1F20202122222324242526262735
:100BA0002829292A2B2C2D2D2E2F30313232333467
:100BB00035363738393A3B3C3D3E3F40414243446D
:100BC00045464748494A4C4D4E4F5051535455564F
:100BD00058595A5B5D5E5F616264656668696B6CFB
:100BE0006D6F7072737577787A7B7D7E8082838576
:100BF00087888A8C8E8F91939596989A9C9EA0A2B6
:100C0000A3A5A7A9ABADAFB1B3B5B7BABCBEC0C2BF
:100C1000C4C6C9CBCDCFD1D4D6D8DBDDDFE2E4E783
:100C2000E9EBEEF0F3F5F8FAFDFF04033000000005
:100C300012034500720067006F00440061007300FA
:100C4000680000000C034F006D006B006200640040
:100C500000000403090409023B00020100A0FA0994
:100C600004000001030101000921110100012240DB
:100C7000000705810308000A0904010001030000C0
:100C80000009211101000122320007058203200022
:100C90000A1201100100000008EDFE606000010171
:100CA00002030105010980A101850319012AB7008A
:100CB000150126B700950175108100C0050C0901CA
:100CC000A101850419012AA002150126A00295019F
:100CD00075108100C005010906A101050719E02969
:100CE000E7150025019508750181029501750881B8
:100CF000010507190029FF150026FF009506750854
:100D000081000508190129059505750191029501D4
:100D100075039101C00011241FBECFEFDAE0DEBFE2
:100D2000CDBF04B603FE27C08091890390918A034A
:100D3000A0918B03B0918C038730904BA740B04BB0
:100D4000D1F41092890310928A0310928B031092AF
:100D50008C0314BE84B7877F84BF0FB6F894A89520
:100D600080916000886180936000109260000FBEE7
:100D7000E0E0F8E3099511E0A0E0B1E0E4E3F1E69A
:100D800002C005900D92A23DB107D9F723E0A2ED74
:100D9000B1E001C01D92A938B207E1F70E949C2979
:100DA0000C944D300C94000088509D458F30910577
:100DB00008F0E8C2FC01E15BFF4CDB0112969C915C
:100DC0000C94332F911102C080E00895E091270127
:100DD000F09128018081382F327081FB992790F99A
:100DE0009093D301282F207285FB992790F9909337
:100DF000D20131111AC0222301F185EE0E94611D3A
:100E00008FE20E94D71C8FE20E94611D8091D30166
:100E1000882319F081EE0E94D71C8091D20188238B
:100E200099F285EE0E94D71CCFCF81EE0E94611D02
:100E30008091D201882321F3E0CF8FE10E94D71C5B
:100E40008FE10E94611DC0CF992309F4BDCFE091CD
:100E50002701F09128018081382F327081FB99277A
:100E600090F99093D301282F207285FB992790F950
:100E70009093D20131110AC0222381F085EE0E94A5
:100E8000611D8EE20E94D71C8EE2BECF81EE0E94D1
:100E9000611D8091D2018823A1F3F0CF83E20E94EB
:100EA000D71C83E2CECF992309F48ECFE09127019E
:100EB000F09128018081382F327081FB992790F9B9
:100EC0009093D301282F207285FB992790F9909356
:100ED000D201311110C02223B1F085EE0E94611DB4
:100EE00081EE0E94D71C83E20E94D71C83E20E94FD
:100EF000611D81EE89CF81EE0E94611D8091D2013A
:100F0000882371F3EACF84E20E94D71C84E299CF50
:100F1000992309F459CFE0912701F09128018081AC
:100F2000382F327081FB992790F99093D301282FA5
:100F3000207285FB992790F99093D20131110DC051
:100F4000222399F085EE0E94611D81EE0E94D71C3C
:100F500084E30E94D71C84E3CACF81EE0E94611D06
:100F60008091D201882389F3EDCF85E20E94D71CBE
:100F700085E267CF992309F427CFE0912701F0910B
:100F800028018081382F327081FB992790F9909346
:100F9000D301282F207285FB992790F99093D201D5
:100FA00031110DC0222399F085EE0E94611D81EE62
:100FB0000E94D71C85E20E94D71C85E298CF81EE63
:100FC0000E94611D8091D201882389F3EDCF86E2D2
:100FD0000E94D71C86E235CF992309F4F5CEE09123
:100FE0002701F09128018081382F327081FB9927E9
:100FF00090F99093D301282F207285FB992790F9BF
:101000009093D20131110DC0222399F085EE0E94F8
:10101000611D81EE0E94D71C86E20E94D71C86E2E9
:1010200066CF81EE0E94611D8091D201882389F3F1
:10103000EDCF87E20E94D71C87E203CF992309F402
:10104000C3CEE0912701F09128018081382F3270C2
:1010500081FB992790F99093D301282F207285FB6B
:10106000992790F99093D20131110DC0222399F064
:1010700085EE0E94611D81EE0E94D71C87E80E94C8
:10108000D71C87E834CF81EE0E94611D8091D20188
:10109000882389F3EDCF8DE20E94D71C8DE2D1CE5B
:1010A000992309F491CEE0912701F09128018081E4
:1010B000382F327081FB992790F99093D301282F14
:1010C000207285FB992790F99093D20131110DC0C0
:1010D000222399F085EE0E94611D81EE0E94D71CAB
:1010E00083E30E94D71C83E302CF81EE0E94611D3F
:1010F0008091D201882389F3EDCF81EE0E94D71C25
:101100008DE20E94D71C8DE20E94611D81EE99CE76
:10111000992309F459CEE0912701F09128018081AB
:10112000382F327081FB992790F99093D301282FA3
:10113000207285FB992790F99093D20131110DC04F
:10114000222399F085EE0E94611D81EE0E94D71C3A
:1011500080E30E94D71C80E3CACE81EE0E94611D0D
:101160008091D201882389F3EDCF80E30E94D71CC0
:1011700080E367CE992309F427CEE0912701F0910F
:1011800028018081382F327081FB992790F9909344
:10119000D301282F207285FB992790F99093D201D3
:1011A00031110DC0222399F085EE0E94611D81EE60
:1011B0000E94D71C82E30E94D71C82E398CE81EE66
:1011C0000E94611D8091D201882389F3EDCF82E3D3
:1011D0000E94D71C82E335CE992309F4F5CDE09126
:1011E0002701F09128018081382F327081FB9927E7
:1011F00090F99093D301282F207285FB992790F9BD
:101200009093D20131110DC0222399F085EE0E94F6
:10121000611D81EE0E94D71C89E80E94D71C89E8D5
:1012200066CE81EE0E94611D8091D201882389F3F0
:10123000EDCF87E80E94D71C87E803CE992309F4F5
:10124000C3CDE0912701F09128018081382F3270C1
:1012500081FB992790F99093D301282F207285FB69
:10126000992790F99093D20131110AC0222381F07D
:1012700085EE0E94611D84E30E94D71C84E3C4CDE7
:1012800081EE0E94611D8091D2018823A1F3F0CFED
:1012900083E30E94D71C83E3D4CD992309F494CD32
:1012A000E0912701F09128018081382F327081FB75
:1012B000992790F99093D301282F207285FB9927C5
:1012C00090F99093D20131110DC0222399F085EE4F
:1012D0000E94611D81EE0E94D71C8FE10E94D71CE5
:1012E0008FE105CE81EE0E94611D8091D20188239D
:1012F00089F3EDCF81EE0E94D71C84E20E94D71CB7
:1013000084E202CF992309F45FCDE0912701F091A7
:1013100028018081382F327081FB992790F99093B2
:10132000D301282F207285FB992790F99093D20141
:1013300031110DC0222399F085EE0E94611D81EECE
:101340000E94D71C8FE20E94D71C8FE2D0CD81EE85
:101350000E94611D8091D201882389F3EDCF81EE37
:101360000E94D71C8EE20E94D71C8EE2CDCE99231C
:1013700009F42ACD81EE0E94D71C89E30E94D71C74
:1013800089E3C2CE81E008950C949E0D08950F93D9
:101390001F93CF93DF938C01EB010E94D406882327
:1013A00059F1CA8109319DE5190709F453C078F450
:1013B00007319DE51907D9F008311D4521F1CC23EE
:1013C00009F483C01092D6011092D5017BC00A3176
:1013D0009DE5190709F460C00B311D4581F7CC2349
:1013E00009F463C081E08093D40183E058C0CC232A
:1013F00021F080E00E94B50AC0E08C2FDF91CF91F0
:101400001F910F91089581E0CC2351F08093D60174
:101410000E942A2440E162E081E00E941C0BECCF94
:101420000E944B2440E162E081E00E941C0B80910D
:10143000D601882361F081E90E94D71C8BE80E94C5
:10144000D71C81E90E94611D8BE80E94611D1092EA
:10145000D601D3CFCC2329F081E08093D50182E05F
:10146000D7CF82E00E944B2440E162E081E00E94FD
:101470001C0B8091D501882361F080E90E94D71C64
:101480008AE80E94D71C80E90E94611D8AE80E94B8
:10149000611D1092D501B1CF80E1CC2319F00E94DB
:1014A0002A24AACF0E944B24A8CF83E00E944B2479
:1014B0008091D401882331F088E20E94D71C88E211
:1014C0000E94611D1092D40198CFC82F96CF81E061
:1014D00008950C94C70908950C946B0A1F93CF9339
:1014E000DF9300D000D00F92CDB7DEB749835A8387
:1014F0006B8330918B0289819A8131111DC06623E3
:10150000B9F02223A9F00E941A25182F682F89818B
:101510009A810E94C62469817A81812F0F900F9051
:101520000F900F900F90DF91CF911F910C949C0B17
:101530000E94F224182FEFCF0E941A2569817A8128
:10154000EDCFFC01262F408151816281738184811E
:101550000C946E0ACF93DF93EC0160E00E94A10A25
:10156000BE01DF91CF910C946C0ACF93DF93C1E061
:10157000D0E002C0CC0FDD1F8A95E2F78C2F0E94CD
:101580007126BE0190E080E0DF91CF910C94C823DA
:101590008F929F92AF92BF92CF92DF92EF92FF9283
:1015A0000F931F936B017C0181E090E0A0E0B0E01D
:1015B0004C015D0104C0880C991CAA1CBB1C4A95F7
:1015C000D2F7B501A4014C015D0104C0880C991C3F
:1015D000AA1CBB1C2A95D2F7482959296A297B29BC
:1015E00004C0880F991FAA1FBB1F0A95D2F78A0152
:1015F0009B010C211D212E213F21041715072607D1
:10160000370789F48C299D29AE29BF29BC01CD015A
:101610001F910F91FF90EF90DF90CF90BF90AF9010
:101620009F908F90089580959095A095B0958C216E
:101630009D21AE21BF21EACF0F93382F262F609135
:10164000F1027091F2028091F3029091F402042F62
:10165000432F0E94C80A0F910C9404240E945E2616
:10166000811102C00E9400270C94C4090C94A00DA3
:1016700008950C94380B81E008950C943B0BCF93A4
:10168000C82F0E94390B8C2FCF910C943D0B0E94D8
:1016900030200E94C6092FEF84E39CE02150804057
:1016A0009040E1F700C000000C941D280F931F9399
:1016B000CF93DF93EC0161E00E94A10A8C01BE018F
:1016C0000E94690A882359F1BE01C8010E945A1874
:1016D000882329F1BE01C8010E949B188823F9F0D4
:1016E000BE01C8010E94BE198823C9F0BE01C8010D
:1016F0000E945217882399F08A81882339F00115B6
:101700008CE5180751F00E3D1C4579F0CE01DF91B4
:10171000CF911F910F910C94670A0E94470B80E0B4
:10172000DF91CF911F910F9108950E940027F7CF6D
:1017300090E080E008950895972F70E027E0929F51
:10174000600D711D1124FB0196E4899FE00DF11DD0
:101750001124EE0FFF1FE455FF4F859194910895DA
:10176000FC01EE0FFF1FE850F64F8591949108950C
:10177000CF93DF930E949C0B0E94C40CEC01811557
:1017800020E5920708F041C0811530E4930708F086
:10179000B4C0803E910518F5803C910508F09DC0CD
:1017A000883A910570F4853A910508F08EC0813031
:1017B0009105F9F00097E9F00497D8F4D0E0C0E083
:1017C00018C08F3B9105D0F7C85AD0E0CC0FDD1F71
:1017D000CC5CDE4F0990D881C02DD4640AC081153D
:1017E000904258F4C11581E0D80718F4C83ED105DD
:1017F00028F7CE01DF91CF910895C11590E3D90765
:1018000008F071C0CE019F706AC0811525E592076E
:1018100058F5811534E5930708F09EC0811542E51F
:10182000940750F4C11581E5D80708F469C0DC2F8E
:10183000CC27C16FD06ADDCF982F969596959E01E3
:1018400023703327C115D34508F077C0C1E0D0E03D
:1018500002C0CC0FDD1F2A95E2F720E2929FC00163
:101860001124C82BD92B67C0C11589E5D807A8F466
:10187000C11598E5D90708F074C0C11526E5D2074F
:1018800008F09CCF8C2F0E945B0DC82FD0E0DC2F7E
:10189000CC27CC27DF71D062ACCFC1153AE5D30796
:1018A00008F464C0CE0190568115904208F086CFAE
:1018B0008D2F8F710E945B0D90E0982F88278827CD
:1018C0009F719C012C2BE901E6CFC55AD0E0CE597F
:1018D000DE4FC881D0E0D0648CCF805C91090E943B
:1018E000B00BEC0186CFCE019927D3FF03C0EC01EA
:1018F000D86C7FCFEC01D06C7CCFDF70D06A79CF11
:10190000CE01E4E096958795EA95E1F783702C2F58
:1019100026952695237090E2299F90011124382B5B
:101920008C2F8370C1E0D0E002C0CC0FDD1F8A9500
:10193000E2F7C22BD32BDC685CCFC1E0D0E002C061
:10194000CC0FDD1F2A95E2F730E2939FC0011124EE
:10195000C82BD92BDA684DCFD82FCC27C46FD06ACB
:1019600048CFDC2FCC27C06FD06A43CF8C2F8F702D
:101970000E945B0D34E0D695C7953A95E1F7CF709C
:101980009C2FEC01D06935CF82389105B1F1B0F4CC
:101990008133910509F475C048F48932910509F441
:1019A00069C08A32910509F473C0089585339105A1
:1019B00009F459C08933910501F10895833E9105D9
:1019C000A9F138F4803E9105F9F0823E910549F184
:1019D0000895863E9105A9F1873E9105C9F1843E9F
:1019E000910519F520917B0321FF1FC080917A0397
:1019F00084FD14C087EE90E0089520917A0323704F
:101A0000A1F080EE90E0089520917A0320FD47C078
:101A100030917B0330FF09C024FF44C090E080E098
:101A200004C020917A0322FDF7CF089520917A0314
:101A300022FD3BC030917B0330FDE3CF24FFF5CF87
:101A4000EDCF20917A0323FFF0CF24FDE7CFD2CF53
:101A500020917A0323FD2CC030917B0331FFEECF20
:101A600084EE90E0089520917A0325FFDECF89E28D
:101A700090E0089520917A0325FFD7CF85E390E089
:101A8000089520917A0326FFD0CF8AE290E008954E
:101A900020917A0326FFC9CF81E390E0089589E37E
:101AA00090E0089583EE90E0089582EE90E008952E
:101AB00086EE90E0089590917A0392FF06C0282F59
:101AC00028712830F9F4877F846093FF06C0282F9F
:101AD00028712831F1F4877E846120917B0320FFF7
:101AE00006C0382F38713830D9F4877F816021FFE4
:101AF00006C0282F28712831D1F4877E816194FD9A
:101B0000877E0895282F24712430F9F68B7F886012
:101B1000DCCF282F2471243101F78B7E8861DDCF43
:101B2000382F3171313019F78E7F8860E0CF282F40
:101B30002171213121F78E7E8861E1CF08950895CA
:101B40000C949F0DE82FF0E0E35EFC4F8081089538
:101B5000089580EA8A95F1F7089508950E940C0F80
:101B6000809104018091040195E0811190E09093AF
:101B7000280385E0891B80932703ACE6B1E061E090
:101B800070E08D91E82FE295EF70F0E041A18F7049
:101B90009B0101C0220F8A95EAF7922F909594231A
:101BA00091A382A1822B82A381E0A137B80749F7D4
:101BB000A5E6B1E061E070E08D91E82FE295EF706D
:101BC000F0E041A18F709B0101C0220F8A95EAF7D6
:101BD000922F9095942391A382A1822B82A381E0DE
:101BE000AC36B80749F7E3E1F3E0ADE1B3E08DE1EE
:101BF00093E011921D928E179F07D9F785E00E94FE
:101C0000B40E0E942E0B0C94210F0E94EB0E882321
:101C1000F9F08091270390E0835E9C4F0E94510F62
:101C2000811113C08091D7018F5F8093D7018630D7
:101C300050F0E0912703F0E0E35EFC4F1082118248
:101C40001282138214820C94360B1092D701FBCFB0
:101C50008091280390E0835E9C4F0E946E0F0C944D
:101C6000AD0D8F929F92AF92BF92CF92DF92EF9283
:101C7000FF920F931F93CF93DF938CE6A82E81E002
:101C8000B82E03E113E0912CCC24C394D12CF501A0
:101C900081915F01C82FC295CF70D0E099A18F705C
:101CA000760101C0EE0C8A95EAF7892F8E2989A367
:101CB0008AA18E2C809488218AA30E94A90DE5E632
:101CC000F1E050E040E020E03191A32FA295AF7009
:101CD000B0E090968C9190E03F7002C0959587950A
:101CE0003A95E2F780FD3CC08C2D042E01C0880F90
:101CF0000A94EAF7282B4F5F5F4F4730510521F7D1
:101D000089A1882289A28AA1E82AEAA2F801808111
:101D1000281741F1208381E0982A0F5F1F4FF1E7D8
:101D2000AF16F1E0BF0609F0B2CF6091280370E072
:101D3000635E7C4F292D45E083E193E00E94B50E60
:101D40000E94050E892DDF91CF911F910F91FF9079
:101D5000EF90DF90CF90BF90AF909F908F900895BD
:101D600080E0C8CF80E0D8CF0895FF920F931F93F3
:101D7000CF93DF93F82E092F162FD72FC42F2223AE
:101D800049F081E08093DA010E94DE279093D90127
:101D90008093D8018091DA018823A1F08091D80145
:101DA0009091D9010E94EA27069760F0EF2DF02F5D
:101DB000A12FBD2FCE0FDF2FD11DEC17FD0741F452
:101DC0001092DA01DF91CF911F910F91FF9008954A
:101DD00081918D93F2CF8091DB01811111C08091AF
:101DE000D80080618093D8008AE18A95F1F700C01D
:101DF0009091D900892F817090FF82E08093DB0160
:101E000081E09091DB01913009F080E008950E941B
:101E1000EB0E91E0892708950E94070F809304013B
:101E2000809104016CE0882349F080E00E94171043
:101E30000E94EB0E882321F00C94280F8CE0F6CF43
:101E400008950E94EB0E811102C00C942E0F08958C
:101E500062E070E085E091E00C94491A62E070E085
:101E600085E091E00C94521A0E941915882361F0C4
:101E700083EE91E00E941F1581E090E00E942B1BF1
:101E8000892B11F40C941C1508958091E20188307F
:101E900039F460E083EE91E00E942F161092E20187
:101EA0000895CF93DF93D82FC92F0E94340F90E06D
:101EB00080E00E942B1B009779F4ED2FFC2FDC01B2
:101EC000A352BE4F2C912193019685309105B9F70D
:101ED00081E0DF91CF91089580E0FBCFCF93DF9336
:101EE000D82FC92F0E94450FED2FFC2F90E080E0E6
:101EF0002191DC01A352BE4F2C93019685309105B0
:101F0000B9F7DF91CF910895AF92BF92CF92DF9250
:101F1000FF920F931F93CF93DF93362F472FE82F16
:101F2000F0E0E65DF44F71110DC06491762F862FBD
:101F3000DF91CF911F910F91FF90DF90CF90BF90D5
:101F4000AF900895C72FD0E02491F22E022F10E019
:101F500056E0659FC0011124EFEFF0E0BF010E9441
:101F60000B2F832F90E0880F991F35E5369FD00106
:101F7000379FB00D11248A1B9B0B982F990F980F38
:101F80006F01CC1ADD0AC09ED001C19EB00DD09E5B
:101F9000B00D11248B2F949FA0011124452F55279C
:101FA0006F01C41AD50AC09EA001C19E500DD09EDB
:101FB000500D11245F01A91AB108AC9E6001AD9EBD
:101FC000D00CBC9ED00C1124CD2CDD24EC19FD09C5
:101FD000E09FE001E19FD00DF09FD00D1124ED2F87
:101FE00062307105A1F048F46115710569F0613046
:101FF000710589F0EB2F852F07C06430710571F0F2
:1020000088F066307105B1F76E2F722F91CFE22FF5
:102010002B2F8D2FF9CFE22F252FF6CFEB2F822FED
:102020002D2FF2CF2B2F8F2DE52FEECF0895E7E147
:10203000F1E0808361830895CF93DF93762FE901E8
:10204000682F842F0E94840F798368838A83DF91AD
:10205000CF91089580912903982F9E7F29F4817054
:1020600082608093290308958635E8F38170846542
:10207000F8CF88E090E00C94AA2FCF92DF92EF92F5
:10208000FF926B017C010E942A10B701A60188E033
:1020900090E0FF90EF90DF90CF900C94C82FE9E292
:1020A000F3E083E0808311828FEF82838383148245
:1020B000A0E7B2E012968C911297836012968C93EF
:1020C00060817181828193810C943D1080912903FC
:1020D00080FF02C08695089580E0089580912D03C9
:1020E000833018F48F5F80932D03609129037091E2
:1020F0002A0380912B0390912C030C943D10809126
:102100002D03882319F0815080932D0360912903BA
:1021100070912A0380912B0390912C030C943D1015
:1021200070E00C94C117CF92DF92EF920F931F9340
:10213000CF93DF93CDB7DEB7C854D1090FB6F8946B
:10214000DEBF0FBECDBF609118018091290380FFD3
:1021500037C0E2E1FBE09E012F5F3F4F8E01075B3E
:102160001F4FC901A4914A2F50E0DA01AA0FBB1FEB
:10217000A40FB51FA25DBC4FCD90DD90EC90D901AE
:10218000CD92DD92ED929D013196A017B10751F7E6
:1021900020911701B3E02B9F800D911D11240E9407
:1021A0009010C85BDF4F0FB6F894DEBF0FBECDBFF7
:1021B000DF91CF911F910F91EF90DF90CF90089515
:1021C0008091190190911A0123E0829FF00111245E
:1021D000E25DFC4F891708F0BCCF11821082128299
:1021E0008F5F3396F7CF9091290390FF14C09091A1
:1021F000190120911A0133E0939FF0011124E25D4F
:10220000FC4F921710F00C949310818360834283EB
:102210009F5F3396F6CF0895CF93DF9300D00F9250
:10222000CDB7DEB79091290390FF0AC09E012F5FC2
:102230003F4F0E941C104B8169818A810E94F310DC
:102240000F900F900F90DF91CF910895CF93DF9370
:10225000EC01EC81F0E0E35FF54F4491E9E2F3E05B
:10226000628181810E940C118C818F5F8C83DF9150
:10227000CF910895CF93DF93EC01E9E2F3E043813E
:1022800062818C810E940C118C818F5F8C83DF9125
:10229000CF9108950F931F93CF93DF9300D00F92A8
:1022A000CDB7DEB78C018091EB0181110AC09E0190
:1022B0002F5F3F4F4FEF6FEF0E941C108A8180937A
:1022C000EB01F8016481613069F08091EB0140E03D
:1022D000662361F040E0623011F44091EB0180E050
:1022E00060E004C06091EB0140E080E00E94F310E8
:1022F000F801848190E0019663E070E00E941F2F56
:1023000084830F900F900F90DF91CF911F910F91C9
:102310000895AF92BF92CF92DF92EF92FF920F9308
:102320001F93CF93DF9300D00F92CDB7DEB7182F56
:10233000F62E042FE22E9091290390FF3AC0E92F48
:10234000E695AE2FB0E0AA58BE4F8C9180937002F4
:102350009E7F9230E1F59E012F5F3F4F812F0E94BB
:102360001C104B8169818A810E94F31080912A039D
:10237000811308C080912B038F1104C080912C031E
:10238000801729F08091720282608093720210930C
:102390002A03F0922B0300932C03EE2051F060915E
:1023A000290370912A0380912B0390912C030E94A2
:1023B0003D100F900F900F90DF91CF911F910F91D3
:1023C000FF90EF90DF90CF90BF90AF900895823054
:1023D00019F400912C03CACF863019F410912A0306
:1023E000C5CF8930D9F3893109F6E9518E2F817033
:1023F000D82EE695F0E0E35FF44FA590B490C12CA1
:10240000BB2460911B01C61618F00E949310AECF3A
:102410002C2D30E0A29EC001A39E900DB29E900D87
:10242000112470E00E940B2F812FD11013C0860F52
:1024300040911901420F532F511D9A01220F331F52
:10244000240F351F225D3C4F402F6F2D0E941C1022
:10245000C394D7CF861BECCFE9E2F3E09181282F1C
:102460004381628188E0890F0C94891181E00C948A
:102470002C12E9E2F3E09181282F4381628188EFF9
:10248000890F0C94891181E00C943912E9E2F3E090
:10249000628121E1620F08F46FEF282F438181816F
:1024A0000C94891181E00C944612E9E2F3E0628118
:1024B00021E1621B08F460E0282F438181810C94A4
:1024C000891181E00C945512E9E2F3E0438121E1A6
:1024D000420F08F44FEF282F628181810C948911FB
:1024E00081E00C946412E9E2F3E0438121E1421BB4
:1024F00008F440E0282F628181810C94891181E0E9
:102500000C94731220E00C948911EF92FF921F93A8
:10251000CF93DF93EC0110E0EE24EA94F12C60916C
:102520001B01161770F00E9493109A818C8190FF06
:1025300027C08F5F8C83DF91CF911F91FF90EF9029
:10254000089520911901422F410F5527551FCA01A7
:102550009A01220F331F280F391F225D3C4F70E074
:10256000C7010E941F2F962F8C8140912C036091F0
:102570002B03199F800D11240E941C101F5FCFCFC9
:102580008150D8CF8F929F92AF92BF92CF92DF921D
:10259000EF92FF920F931F93CF93DF93EC018A8109
:1025A000BB24BA9480FD02C0BB24B3948C818111FA
:1025B0000AC081E0B8122AC080911B01815080932B
:1025C000ED0181E08C83A12C48E1942E80911B01C8
:1025D000A816F8F00E9493108091ED0191E0B912D5
:1025E00061C081115AC080911B0181508093ED011F
:1025F0001C82DF91CF911F910F91FF90EF90DF90A0
:10260000CF90BF90AF909F908F9008951092ED0162
:10261000D8CF00911901CA2CD12C0C0D1D2D111DE4
:10262000C801880F991F080F191F025D1C4FF80180
:1026300011821082128234E0E32EF12C812C8091E1
:10264000ED01880D89311CF1692D0E94FD2E892F25
:10265000082E000C990BC816D90691F480912C0312
:102660008E9DA0018F9D500D112455954795559530
:102670004795980160912B0380912A030E941C10BA
:102680008B0CF1E0EF1AF108D1F6A3949FCF87FFEE
:10269000DFCF90911B01890FDBCF81508093ED013B
:1026A000BC82A7CF90E0019660911B0170E00E9470
:1026B0001F2F8093ED018C839CCFEF92FF920F939D
:1026C0001F93CF93DF93EC018C81811109C081E0CE
:1026D0008C831092EC0192E0909316018093150187
:1026E0008091190190911A0123E0829FF001112439
:1026F000E25DFC4F891768F110E003E060911B0177
:10270000161768F10E949310809115012091EC0139
:10271000280F2093EC0190911601980F90931601C9
:10272000191654F4022E000C330B40911B0141503A
:10273000550B2417350734F08195809315018130AE
:1027400009F41C82DF91CF911F910F91FF90EF90C0
:1027500008951182108212828F5F3396CBCFE12EC3
:10276000F12C70E0C7010E941F2F20911901820FE8
:10277000482F50E02091EC01022E000C330BE216A2
:10278000F306BCF020911601022E000C330B2E151F
:102790003F057CF0809F90011124225D3C4F4091C9
:1027A0002C0360912B0380912A030E941C101F5F51
:1027B000A5CFFA01EE0FFF1FE40FF51FE25DFC4FFE
:1027C000118210821282F3CF0F931F93CF93DF9366
:1027D0008C01FC01848195810196817099279583F4
:1027E0008483C0E0D5E580911B01C81730F0DF91EC
:1027F000CF911F910F910C94931020911901422FAA
:102800004C0F5527551FCA019A01220F331F280F5D
:10281000391F225D3C4F8C2F8695F80144815581EC
:10282000840F952F911D817040912C0360912B0393
:102830008D9F802D11240E941C10CF5FD4CF0F9349
:102840001F93CF93DF93EC0110E000E090911B0108
:102850009017110609F06CF40E9493108C8190E09F
:102860000196817099278C83DF91CF911F910F91F1
:10287000089520911901A801420F511D9A01220FBC
:10288000331F240F351F225D3C4F4C8160912B0379
:1028900080912A0396959017110651F04CF044232D
:1028A00049F040912C030E941C100F5F1F4FCECFA8
:1028B0004423B9F340E0F7CF8F929F92AF92BF923B
:1028C000CF92DF92EF92FF920F931F93CF93DF93FC
:1028D000FC01B280948081E0848300E015E05BE439
:1028E000A52E88248394EE24EA94F12C7BE4C72E51
:1028F000D12C80911B01081770F0DF91CF911F91AF
:102900000F91FF90EF90DF90CF90BF90AF909F908E
:102910008F900C949310C02FD0E01C9FF0011D9F4E
:10292000F00D1124EF50FE4F91101CC01382128243
:1029300020911901CE01820F911D9C01220F331F9E
:10294000280F391F225D3C4F1C9FF0011D9FF00D89
:102950001124EF50FE4F4281618180810E941C1042
:102960000F5FC7CF2381222379F121502383348144
:102970008A2D821B311101C0822F1C9FF0011D9FE7
:10298000F00D1124EF50FE4F90912C03899FC00150
:102990001124B6010E940B2F6283211104C033233E
:1029A00011F01482A38222E02B1510F21C9FF0017B
:1029B0001D9FF00D1124EF50FE4F80912A0380835C
:1029C00080912B038183B4CF0E94852F8230914068
:1029D0000CF0AECF82E08B1530F50E94852FB70149
:1029E0000E941F2F1C9FF0011D9FF00D1124EF501E
:1029F000FE4F808322E02B15C8F40E94852F209182
:102A00002B032695622F70E00E941F2F280F1C9F1A
:102A1000F0011D9FF00D1124EF50FE4F2183128213
:102A2000A382848285CF80912A03DCCF20912B035F
:102A3000EECF80917202089510927202089525E0FF
:102A4000E9E2F3E0DC0101900D922A95E1F7209193
:102A500070023091710240917202FC01258336832D
:102A600047830895E0E7F2E01182828184608283E7
:102A70000895E9E2F3E080818E7F80830E94321521
:102A8000E0E7F2E08281816082832FEF80E792E0CD
:102A9000215080409040E1F700C000000C9493105A
:102AA000E9E2F3E080818E7F8083608171818281A1
:102AB00093810E943D100E943215E0E7F2E082818E
:102AC000816082832FEF80E792E021508040904028
:102AD000E1F700C000000C94931060912903669503
:102AE00070E04BE050E08CE191E00E94952F892B43
:102AF00019F481E0809371020E94DE2790936A02AC
:102B000080936902809172028460809372020895BA
:102B10009091290390FF3AC0917081112DC092606D
:102B200090932903809172028160809372026623E0
:102B300051F06091290370912A0380912B039091A9
:102B40002C030E943D1060912903669570E04BE0D4
:102B500050E08CE191E00E94952F892BA1F00E941A
:102B6000321581E080936C0240912C0360912B031D
:102B700080912A030C9482128B3210F09465D0CF8E
:102B8000880F982BCDCF0E946D15EBCF0895682F3D
:102B900090912903969581E0890F8B3208F081E0AE
:102BA0000C94881581E00C94C715682F9091290327
:102BB00096958FEF890F09F48AE20C94881581E0CD
:102BC0000C94D51561E00C948815E9E2F3E080815E
:102BD0008160808386950C94E2158091290380FDA5
:102BE0000C9450150C94E51560E00C9488158091B8
:102BF0006F02811133C00E945E26811104C00E94C1
:102C000000270E944F100E9439106093290370938F
:102C10002A0380932B0390932C038091720283608C
:102C2000809372026E7F61F40E944F100E943910EF
:102C30006093290370932A0380932B0390932C03B2
:102C40000E942A100E9432158091290380FF03C040
:102C500086950E94F41581E080936F0208951F937A
:102C6000CF93DF93EC01162F8F8180FF0CC08881FA
:102C700080FF24C08091290381608093290388818B
:102C800086950E9488158F8181FF06C0212F4B8178
:102C90006A8189810E9489118F8182FF05C08E819E
:102CA000882379F00E946D158F8183FF03C081E036
:102CB00080936C02DF91CF911F9108950E94391586
:102CC000E2CF0E943215F0CFEF92FF920F931F9345
:102CD000CF93DF9380917102882309F468C08091BB
:102CE0007002E0912903E695E81BE0936B028230C5
:102CF00009F064C0F0E0E75FF54FE491CE2FD0E03B
:102D000006E211E180916C02882389F010926C0236
:102D10000E94DE279E0120953095820F931F90938D
:102D20006A028093690210926E0210926D02809185
:102D3000690290916A020E94EA278C179D07B8F1F8
:102D40008091F0018823B1F01092F0018091EE01A2
:102D50009091EF010E94EA278033954758F00E9436
:102D6000DE279093EF018093EE01809172028860DC
:102D700080937202E0906D02F0906E02E091690221
:102D8000F0916A02CE0FDF1FD0936A02C0936902EE
:102D900089E692E0F801099580916D0290916E02AA
:102DA000892B29F4EF2819F081E08093F001DF915D
:102DB000CF911F910F91FF90EF900895863049F4C5
:102DC000F0E0EA5FF54FE491CE2FD0E00AE311E1A5
:102DD00099CF893051F4E695F0E0ED5FF54FE4913D
:102DE000CE2FD0E005E812E18DCF8F3051F4E6957B
:102DF000F0E0E050F64FE491CE2FD0E002EC12E18B
:102E000081CF853149F4F0E0E350F64FE491CE2FC5
:102E1000D0E00DE513E176CFC8EED3E004EE13E188
:102E2000883109F46FCF833239F4EBEFF9E0C591C3
:102E3000D4910AE411E166CFC4EFD1E00FE114E1CF
:102E4000843209F45FCFC0EDD7E006E110E18532AE
:102E500009F058CF8E2F63E00E94F12EE92FF0E0A9
:102E6000E850F64FE491CE2FD0E00CE514E14ACFC4
:102E7000FA01811101C0FB010994CF93DF93C82FA0
:102E8000D62F0E9466108C1740F00E9466108D1796
:102E900020F4DF91CF910C94D2158C2FDF91CF913C
:102EA0000C94E2151F93CF93DF93EC01FB01128189
:102EB000111110C00E94AF258272FE01E25CFC4538
:102EC000E431F10508F05BC0E25AFF4C0C94332F5B
:102ED0000E94ED15812FDF91CF911F9108954FED45
:102EE00055E162ED75E10E943817F4CF42ED55E1EE
:102EF0006FED75E1F8CF43E452E166E372E1F3CFA1
:102F000046E352E163E472E1EECF41E652E162E56D
:102F100072E1E9CF42E552E161E672E1E4CF4FE7C9
:102F200052E160E772E1DFCF40E752E16FE772E123
:102F3000DACF4FE750E16EE670E1D5CF4EE650E1D3
:102F40006FE770E1D0CF81E00E94E215C3CF65E06A
:102F500082E00E943D17BECF68E086E0FACF6EE0C7
:102F600089E0F7CF64E18FE0F4CF67E185E1F1CF4D
:102F700088E1EACF62E289E1ECCF83E2E5CF11E0BC
:102F8000A9CF539A4BB1477F5BB15860EFB7F89424
:102F90009B01220F331F260F371F280F391F2817B9
:102FA000390741F4EFBF8FE594E00197F1F700C0D6
:102FB00000000895DC016D91CD0178E05BB900005F
:102FC00000C067FF4BB9660F000000C000C000C022
:102FD0004BB900C07A9591F7E2CF0F931F93CF932F
:102FE000DF93C62FD42F022FFC0182818823C9F0E2
:102FF000609375020E94DE2790937402809373029F
:1030000080E28C0F883008F050C0C77081E001C0AA
:10301000880FCA95EAF7DF91CF911F910F910C9419
:10302000C31D10917502161335C0809173029091E3
:1030300074020E94EA278837910560F5C0E2CD0F3F
:103040001D17B9F080E2810F883040F4177081E0DD
:1030500001C0880F1A95EAF70E94CA1DC83048F4CB
:1030600081E09D2F977001C0880F9A95EAF70E9422
:10307000C31D802F0E94B01DC830B8F4D77081E006
:1030800001C0880FDA95EAF7DF91CF911F910F9178
:103090000C94CA1D80E28C0F883038F4C77081E030
:1030A00001C0880FCA95EAF7EFCFDF91CF911F914A
:1030B0000F9108959C01CB01233F4CE5340731F17A
:1030C00090F4283DFCE53F07E9F0293D4CE5340745
:1030D00069F1273D3C4579F426E241EE61EE0E941C
:1030E000ED1780E00895253FFCE53F07B9F090F02B
:1030F000263F3C45B9F0FC0182818823D1F0109233
:103100007502089527E245EE65EEE9CF26E241EE2D
:1031100060EEE5CF27E245EE64EEE1CF26E241EE38
:1031200062EEDDCF27E245EE66EED9CF28E241E040
:10313000EBCF81E00895CF93DF93EC01FB01828117
:10314000882309F419C1C230FCE5DF07C0F1C6319C
:103150009CE5D90730F09E012A5F3C4529303105B6
:1031600070F50E94762690937B0380937A03C0319A
:10317000ECE5DE0709F4CFC008F05BC0C8308CE591
:10318000D80709F4B6C088F5C430ECE5DE0709F4C9
:10319000A8C0C0F4C2308CE5D80709F49CC0809167
:1031A0007A038260C330DC4509F498C080917A03C9
:1031B00090917B030E9484260E94302080E0DF9162
:1031C000CF91089580917A038061C630ECE5DE07E7
:1031D00009F484C080917A038860C730DC4508F424
:1031E0007DC080917A03806279C0CC308CE5D807AD
:1031F00009F489C070F480917A038C60CA30ECE5E0
:10320000DE0709F46BC008F478C080917A038E7FE2
:1032100065C0CE308CE5D80709F479C080917A0377
:103220008B7FCF30DC4508F459C080917A038F7EC4
:1032300055C0CB3FECE5DE0709F457C030F5C3318C
:103240008CE5D80709F46FC078F4C131ECE5DE07EE
:1032500009F465C0C231DC4509F0A8CF0E943020D6
:1032600080917A038F773AC0C5318CE5D80709F48D
:1032700062C008F476C080917B038160CA3FDC4560
:1032800009F094CF80937B0391CFCF3FFCE5DF071C
:1032900009F44DC088F480917B038D7FCD3F9CE580
:1032A000D90781F380917B038E7FCE3FDC4550F3BD
:1032B00080917B038360E6CFC130FDE5DF0709F431
:1032C00059C008F444C080E0C230DD4509F06ECF3B
:1032D0000E9402276BCF80917A03816080937A03EA
:1032E00065CF80917A038460F9CF80917B038260FF
:1032F000C9CF80917A038064F1CF0E943020809101
:103300007A038068EBCF80917A038D7FE7CF80913D
:103310007A03877FE3CF80917A038F7DDFCF80911F
:103320007A038F7BDBCF80917A03837FD7CF809125
:103330007B038C7FA7CF80917A0382FB992790F93A
:1033400021E0922790FB82F990FB83F9C7CF80910F
:103350007B03982F909591708E7F892B90FB81F93C
:1033600091CF0E94302090917A03892F97FB87F9A3
:103370008058B4CF81E0ACCF81E021CFCF93DF93F1
:10338000EB0186319C4511F50E94AF259A81992366
:1033900099F08A7A91E009F490E090937602811195
:1033A00009C089E20E948A250E94FB2580E0DF9106
:1033B000CF91089585E3F6CF80917602811104C004
:1033C00089E20E949125F0CF85E3FBCF81E0EFCF2A
:1033D0008EE1489B02C08150E1F7489BFECF0895E3
:1033E000589880E28A95F1F7589A0895FC013BE0DD
:1033F0003A95F1F720E090E080E031E040E14A9535
:10340000F1F7880F489B02C08160232742E04A956C
:10341000F1F7000040E14A95F1F79F5F6913EECFA5
:1034200090E19A95F1F799B132E03A95F1F7000001
:1034300040E14A95F1F7917092272081920F908395
:103440000895EF92FF920F931F93CF93DF930F9204
:10345000CDB7DEB719828C017C01E60EF11C0E158A
:103460001F0561F481E09981911180E00F90DF9157
:10347000CF911F910F91FF90EF9008950E94E8194E
:1034800068E0CE0101960E94F619F80181938F0140
:10349000E6CF909379028093780260937702509AF6
:1034A000589A0895909379028093780260937702F6
:1034B0005098589AE89AE9E6F0E080818C7F808302
:1034C00008956150770B91E001C0990F6A95EAF772
:1034D00020E031E0911108C0222391F0589A80E257
:1034E0008A95F1F758980895492F482339F0589A4A
:1034F000232740E24A95F1F79695ECCF5898F9CFFB
:103500005898EDCFFF920F931F93CF93DF93EC0169
:103510008C01060F111DC017D10731F4DF91CF9137
:103520001F910F91FF900895F9900E94F01968E0A3
:103530008F2D0E94611AEFCF1F920F920FB60F923C
:1035400011240F931F932F933F934F935F936F9388
:103550007F938F939F93AF93BF93EF93FF93CF93FB
:10356000DF930F92CDB7DEB719820E94E81967E0AA
:10357000CE0101960E94F619082F0695069506952C
:10358000982F92959570202F2570920F292F2370D8
:10359000969596958770920F891344C08981811101
:1035A00041C0809177028017E8F120E12A95F1F778
:1035B000589A509A82E08A95F1F700C0A8E00A9FD5
:1035C000C00111240091780210917902080F191F8F
:1035D0005898F8016581662321F0868197810E94C1
:1035E000821A0E94F019F0E1FA95F1F75898509874
:1035F000589A20E12A95F1F7D80112966C9112970A
:10360000662331F113968D919C910E94211AD80165
:10361000ED91FC91882311F088E001C082E0808365
:103620000E94E8190F90DF91CF91FF91EF91BF9128
:10363000AF919F918F917F916F915F914F913F914A
:103640002F911F910F910F900FBE0F901F90189503
:10365000ED91FC91E1CF0F931F93CF93DF932091D6
:103660007702281719060CF471C08C0193E0000F43
:10367000111F9A95E1F7C0917802D0917902C00F9D
:10368000D11FF894509A589825E02A95F1F7000038
:10369000982F969595708570980F892F83709695C1
:1036A0009695980F092B0E94F01900C067E0802FB3
:1036B0000E94611A80E18A95F1F75098589A489BC8
:1036C00017C087E090E0489915C06D81662321F10D
:1036D0008E819F810E94211A81111EC0509A589A92
:1036E000E881F98182E08083789482E090E00DC0E7
:1036F00000C0E5CF019771F4509A589AE881F9819A
:1037000081E08083789481E090E0DF91CF911F91F8
:103710000F91089500C0D7CF0E94E81920E22A95A2
:10372000F1F75898509A80E18A95F1F76A816623FB
:1037300021F08B819C810E94821A0E94F019E881FD
:10374000F9811082789490E080E0DFCF84E090E00F
:10375000DCCF90937F0280937E020895E0917E02F9
:10376000F0917F02309721F00190F081E02D0994D3
:1037700080E00895E0917E02F0917F02309721F081
:103780000280F381E02D0994089520917C0230910C
:103790007D022817390771F090937D0280937C0297
:1037A000E0917E02F0917F02309721F00680F78150
:1037B000E02D0994089520917A0230917B02281718
:1037C000390771F090937B0280937A02E0917E0238
:1037D000F0917F02309721F00084F185E02D09946B
:1037E000089585B7806885BF85B7806885BF0895CF
:1037F000089508950C94F81B08950C94FC1B0E94E6
:10380000F11B0E94F91B0C94FA1B0C94EB0E0E9406
:10381000D5270E94AE0D0E942E280E94F7150C9409
:10382000FD1BBF92CF92DF92EF92FF920F931F93F7
:10383000CF93DF93CDB7DEB72A970FB6F894DEBFEC
:103840000FBECDBF0E94310E0E94051C882309F4D3
:103850005EC081E8C82E82E0D82E10E000E0B02ED5
:10386000802F0E94A20DE82EF601F1906F01F8164C
:1038700009F447C08091060381FD0E94A80D9F2D89
:103880009E2580E0FF24F394292F2F21B1F18E8310
:10389000BF82EF2081E009F480E088870E94DE2764
:1038A0008160782F9A8789874E815F8168858A85B4
:1038B0000E94A81CF801EF57FD4F8081F826F08286
:1038C0000E9464160E94AE1B90918002891781F1BC
:1038D0000E94AE1B809380022A960FB6F894DEBF3A
:1038E0000FBECDBFDF91CF911F910F91FF90EF9051
:1038F000DF90CF90BF900C943F0B8F5FFF0C873011
:1039000019F60F5F1F4F0A30110509F0A8CF8FEF8E
:1039100089838A831B820E94DE278160782F9D83A2
:103920008C8349815A816B818D810E94A81CC8CFEC
:103930002A960FB6F894DEBF0FBECDBFDF91CF91B0
:103940001F910F91FF90EF90DF90CF90BF9008955F
:10395000CF93DF93CDB7DEB72B970FB6F894DEBFCA
:103960000FBECDBF4F83588769877A878B871E82AA
:103970001D8285E0FE013796DE01119601900D92C1
:103980008A95E1F749815A816B817C818D819E8185
:103990002B960FB6F894DEBF0FBECDBFDF91CF914F
:1039A0000C94A622FC01808191810C945C25CF931C
:1039B000C82F882309F483C08238C1F40E94AE1B4B
:1039C00081FD7DC089E30E948A250E94FB252FEF9F
:1039D00081EE94E0215080409040E1F700C000006B
:1039E00089E30E949125CF910C94FB258338A1F4A3
:1039F0000E94AE1B80FD63C083E50E948A250E9461
:103A0000FB252FEF81EE94E0215080409040E1F7BC
:103A100000C0000083E5E5CF8438A1F40E94AE1B0E
:103A200082FD4DC087E40E948A250E94FB252FEF6E
:103A300081EE94E0215080409040E1F700C000000A
:103A400087E4CFCF8CEF8C0F813A90F46C2F80916C
:103A50002701909128010E941927882329F08C2F93
:103A60000E9491250E94FB258C2F0E948A25BBCFA6
:103A700080E28C0F883048F4C77081E001C0880F65
:103A8000CA95EAF70E94B225AECFEBE5EC0FE33022
:103A900040F4F0E0E153FE4F808190E0CF910C9430
:103AA000C51BC85AC73158F4EC2FF0E0EE0FFF1FCA
:103AB000EF55FE4F80819181CF910C94DB1BCF910C
:103AC0000895882309F44BC0823871F40E94AE1B1C
:103AD00081FF45C089E30E948A250E94FB2589E376
:103AE0000E9491250C94FB25833859F40E94AE1B4B
:103AF00080FF35C083E50E948A250E94FB2583E56F
:103B0000EFCF843859F40E94AE1B82FF28C087E4AF
:103B10000E948A250E94FB2587E4E2CF9CEF980F44
:103B2000913AF0F290E2980F983050F4877091E05B
:103B300001C0990F8A95EAF7892F0E94B825D2CF44
:103B40009BE5980F933020F490E080E00C94C51B27
:103B5000885A873120F490E080E00C94DB1B0895B4
:103B6000CF93C82F0E94D71CC93349F42FEF87EE9B
:103B700093E0215080409040E1F700C000008C2F7E
:103B8000CF910C94611D882321F00E94B2250C94E2
:103B9000FB250895882321F00E94B8250C94FB256D
:103BA0000895BF92CF92DF92EF92FF920F931F93EF
:103BB000CF93DF936C01D62FC72FFC0105810295AF
:103BC0000F70128111110E94CF250E94A825E82EA6
:103BD000882391F01123D1F08C2F807F803421F045
:103BE00080E28D0F883090F082E00E9446260E948D
:103BF000A82591E0E82EE926BC2EB2949FE0B922D8
:103C0000EB2DF0E0EE58FF4C0C94332FE12CF4CF69
:103C10000C2F0F70C07F11F00295007F1123A9F0C7
:103C2000002359F080E28D0F883010F0D11109C0C7
:103C3000802F0E94B2250E94FB258D2F0E94D71C49
:103C400014C0802F0E94C225F6CF8D2F0E94611DC7
:103C5000002359F080E28D0F883010F0D1112CC074
:103C6000802F0E94B8250E94FB252B2D2850330B56
:103C70002430310520F40E94AE1B0E943F0BEE2041
:103C800009F493C10E94A42580FD8FC1F601128220
:103C90000E949E250E942A24C6010E94F61F0E94AF
:103CA0009E25DF91CF911F910F91FF90EF90DF90B4
:103CB000CF90BF900C944B24802F0E94C825D3CF67
:103CC000FC2FFF70FF2EC07FC03219F0F29480EFFE
:103CD000F822DD2369F0D13049F1112391F100235D
:103CE00051F1F601858180FFA8CF8F70858323C0B5
:103CF000112381F0011106C00E94E2258F290E9444
:103D0000C31DB3CF0130C1F70E94E2258F290E9465
:103D1000E825ABCF011106C00E94F1258F2D0E942E
:103D2000CA1DA3CF013009F4A0CFF6CF112329F08B
:103D3000063008F09ACF8F2DE2CF053008F095CFEE
:103D4000EDCF002359F3D93349F4FFEF27EE33E0E9
:103D5000F15020403040E1F700C000008D2F0E945C
:103D6000611D83CF8C2F86958695837069F0813095
:103D700009F07BCF8D2F9C2F9370111102C090E022
:103D800080E00E94DB1B71CF8D2F9C2F937011114F
:103D900002C090E080E00E94C51B67CF8C2F83702B
:103DA00009F041C0111161CF4D2F429546954770E2
:103DB000440F440F0D2F0F7010E030E020E0042E70
:103DC00004C0000F111F221F331F0A94D2F760E0B6
:103DD00070E0CB01D4FF0FC06FE070E080E090E0B6
:103DE00004C0660F771F881F991F4A95D2F7609508
:103DF000709580959095C695C695C370602B712B74
:103E0000822B932BC23049F058F4C13019F00E9434
:103E1000DC232BCF0E94CA2328CF0E94EE2325CF7C
:103E20000E94C82322CF8695112311F08C2F817018
:103E3000882309F41ACF4D2F429546954770440FB9
:103E4000440F0D2F0F7010E030E020E0042E04C06E
:103E5000000F111F221F331F0A94D2F760E070E099
:103E6000CB01D4FF0FC06FE070E080E090E004C0B1
:103E7000660F771F881F991F4A95D2F76095709536
:103E800080959095C695C695C370602B712B822B3B
:103E9000932BC23049F058F4C13019F00E94A1248C
:103EA000E4CE0E948F24E1CE0E94B324DECE0E9495
:103EB0000424DBCECF70112329F08C2F0E942A24FA
:103EC0008D2F1DCF8D2F0E94CA1D8C2F0E944B2439
:103ED000CCCED23F89F160F4D03FC9F0D13F29F177
:103EE000112309F442C00111A8CE8C2F8F7121C07B
:103EF000D33F39F1D43FA1F7112369F1CF718C2F52
:103F00000E942A2463E08C2F0E943126AECE11231A
:103F100041F0053008F0A9CE8C2F8F710E946E24DD
:103F2000A4CE063008F0A1CEF7CF8C2F8F711123CD
:103F300069F20E942A2499CE8C2F8F711123C9F324
:103F4000C5CF112329F08C2F8F710E9415248DCE9F
:103F50000E9410248ACE81E00E944626023008F496
:103F600084CE82E00E94462680CE002359F0D933C9
:103F700009F0F4CE8FEF97EEE3E081509040E040FF
:103F8000E1F7EACE8C2F8F71A1CF4C2F4F706D2FA0
:103F9000C6010E94980B0E94402367CE4C2F4F70A1
:103FA0006D2FC6010E949B0B60CEDF91CF911F91B8
:103FB0000F91FF90EF90DF90CF90BF9008950F93F7
:103FC0001F93CF93DF93EC01688179818A810E94EE
:103FD00066258C010E94C5240E94C723B801CE012A
:103FE000DF91CF911F910F910C94D11DCF93DF934F
:103FF000EC018B819C81892B29F08881998189230F
:104000008F3F59F4DF91CF910895CE010E94DF1FB9
:10401000CE01DF91CF910C94AA0ACE010E94560BDB
:104020008111F3CF0E94A825882361F38A81882318
:1040300049F382E0DF91CF910C9446260E94CF2570
:104040000E94DF250E94FB2590E080E00E94C51BB6
:1040500090E080E00C94DB1B0E9498250C941E20BD
:104060000E94BF250C942C20E92FE295EF70E250BE
:10407000EE3070F4F0E0EE57FF4C0C94332F803F9D
:1040800019F020F4883E20F481E00895843FE1F3A4
:1040900080E00895883EC0F3813FD1F7F5CF93FBD0
:1040A000882780F908950E945C250C943420CF93D2
:1040B000DF9300D000D00F92CDB7DEB70F900F90F6
:1040C0000F900F900F90DF91CF910895CF93DF93D2
:1040D00000D000D000D0CDB7DEB726960FB6F8944A
:1040E000DEBF0FBECDBFDF91CF9108951F93CF9359
:1040F000DF93C0918C0216E080918D028C1304C076
:10410000DF91CF911F910895D0E01C9FF0011D9F7A
:10411000F00D1124E257FD4F40815181628173817E
:10412000848195810E9466202196C770E5CF4091D9
:10413000BE025091BF026091C0027091C102809195
:10414000C2029091C3020C9466201F93CF93DF9319
:104150008091C302807FA9F48091C002882389F0F6
:1041600080918C02C0918D026091BE027091BF025D
:10417000A091C102B091C202D62FD72316E0C81376
:1041800004C0DF91CF911F91089590E0109711F036
:10419000DF3F19F401968770F2CF189F9001199FA5
:1041A000300D1124F901E257FD4F41814713F2CF41
:1041B00040814613EFCF42814111ECCF43815481BE
:1041C0004A1B5B0B4837510528F78091C3028F705B
:1041D00080618093C302F901ED56FD4F80818F709D
:1041E000806180838EEB92E00E94F61FDF91CF9179
:1041F0001F910C947620AF92BF92CF92DF92EF92F4
:10420000FF920F931F93CF93DF93CDB7DEB76197E4
:104210000FB6F894DEBF0FBECDBF8C0185E0F8016C
:10422000DE011D9601900D928A95E1F7F80140811B
:104230005181E2808EEBC82E82E0D82E6091C102BF
:104240007091C2026115710509F461C19091BE02BD
:104250002091BF02892F82238F3F09F458C1A38088
:10426000B480F090C002F501E61BF70BFF2009F4C3
:10427000FCC08091C302382F307FE837F10508F089
:10428000B2C0311179C0FE2C251323C0941321C074
:10429000E1101FC08F7080618093C3020E9497203D
:1042A000C6010E94F61F8091C302F80185838F2DFD
:1042B00061960FB6F894DEBF0FBECDBFDF91CF91F0
:1042C0001F910F91FF90EF90DF90CF90BF90AF9034
:1042D0000895AB2829F0842F85238F3F09F033C13F
:1042E00080E0F82FF170DF2E80FF3CC080918C02BF
:1042F00020918D0236E0821315C04D875E878D8533
:104300009E850E945C25292F22952F702230F0F087
:10431000243018F59F70F1F0F8019581907FD1F469
:10432000D12C1EC090E0389FF001399FF00D112470
:10433000E257FD4F6181651306C06081641303C0BD
:1043400062816E110FC001968770D5CF9F7011F0FA
:10435000882331F3805E883018F3C8010E94F61F6D
:10436000FD2CA5CFEE2009F4A2CF8091C30281607D
:104370008093C302F12C9BCF251306C0941304C075
:10438000F801EE2009F48DC04D875E878D859E85EE
:104390000E945320882319F1EE2009F18091C30275
:1043A000803270F02091BE023091BF0238872F8397
:1043B0001986BB86AA868C87CE0107960E94F61FB7
:1043C00086E0F801AEEBB2E001900D928A95E1F73C
:1043D0000E94A5200E949720FF24F39468CFC80173
:1043E0000E94F61FF9CF311113C07A2DB98AA88A1D
:1043F0006E2D89890E9457208EEB92E00E94F61F55
:1044000086E0F60111928A95E9F70E949720B2CFD3
:1044100025130FC094130DC0E1100BC0F801858364
:10442000C8010E94F61F86E0F60111928A95E9F70D
:104430003ECF4D875E878D859E850E9453208823C1
:1044400071F2EE2061F28091C302803208F4B8CF9D
:104450002091BE023091BF023A8329831B82BD8224
:10446000AC828E83CE010196A9CFE837F10508F022
:1044700041C0FE2CEE2009F4B2CF25132AC09413BC
:1044800028C08091C30280FD1BC0982F907FC1F08F
:10449000F8018583903F31F0982F907F905F8F7067
:1044A000892B8583C8010E94F61F86E0F801AEEBD8
:1044B000B2E001900D928A95E1F70E949720F7CE25
:1044C00086E0F801AEEBB2E001900D928A95E1F73B
:1044D000EECE4D875E878D859E850E94532081118B
:1044E0006FCF8091C30281608093C302C8010E9494
:1044F000F61FDDCE7A2DB98AA88A6E2D89890E9491
:10450000572086E0F60111928A95E9F7D6CFEE2082
:1045100009F465CF4D875E878D859E850E94532067
:10452000F82E882309F45BCF86E0F801AEEBB2E009
:1045300001900D928A95E1F78EEB92E00E94D21CD9
:104540000E94A520BACF81E08E25CBCE1F93CF93BA
:10455000DF93CDB7DEB72C970FB6F894DEBF0FBE52
:10456000CDBF4F83588769877A878B879C87CE0119
:1045700007960E94FB20882369F08A859B85892BFA
:1045800039F04F815885842F85238F3F09F071C002
:1045900016E05FC086E0FE013796DE0111960190BD
:1045A0000D928A95E1F78A859B85892B89F38F8106
:1045B000988589238F3F61F320918D0230E0C901F6
:1045C00001968770992740918C024817190671F45B
:1045D0000E94302010928D0210928C0286E0EEEB49
:1045E000F2E0DF011D928A95E9F7D2CF96E0929F23
:1045F000D001939FB00D1124A257BD4FFE013196FB
:1046000001900D929A95E1F780938D020E94762099
:10461000BFCF819FC001112482579D4F0E94FB2074
:104620008823E9F0E0918C021E9FF0011124E257EB
:10463000FD4F4081518162817381848195810E9407
:10464000662080918C0290E0019687709927809374
:104650008C0280918C0290918D028913DACF2C9676
:104660000FB6F894DEBF0FBECDBFDF91CF911F9183
:10467000089569857A858B859C850E94662088CF00
:10468000EF92FF920F931F93CF93DF938C01892BAF
:1046900081F0F12CEE24E394E8012196F801849155
:1046A000843770F4843008F05FC08130B1F082301C
:1046B000A1F1DF91CF911F910F91FF90EF9008959D
:1046C000853709F44CC008F43DC09CE7980F90373B
:1046D00080F78F770E94611D49C00E5F1F4FFE015A
:1046E000849190E2980F983060F48770FE2D01C09D
:1046F000FF0F8A95EAF78F2F0E94D2250E94FB2593
:1047000002C00E94D71C8F2D815030F2EFE9FFE0EC
:104710003197F1F700C00000F7CF0E5F1F4FFE0189
:10472000849190E2980F983050F48770FE2D01C06C
:10473000FF0F8A95EAF78F2F0E94D825DFCF0E94BE
:10474000611DE1CF0E5F1F4FFE01C491C150D8F231
:104750008FE99FE00197F1F700C00000F7CF0E5FEF
:104760001F4FFE01F490CFCF0E94D71C8E01CBCFFC
:1047700008950C94B8230E94B9236093F5027093B6
:10478000F6028093F7029093F8020C941E2008958D
:104790000C94BB230F931F930091F5021091F60226
:1047A0002091F7023091F802602B712B822B932B12
:1047B0001F910F910C94BB230F931F930091F5024F
:1047C0001091F6022091F7023091F80260237123D4
:1047D000822393231F910F910C94BB230F931F935C
:1047E0000091F5021091F6022091F7023091F80243
:1047F00060277127822793271F910F910C94BB2369
:104800000C94B8230C9400240E9402246093F102BB
:104810007093F2028093F3029093F4020C941E20A2
:1048200060E070E0CB010C9404240F931F9341E0EF
:1048300050E060E070E08A019B0104C0000F111F8E
:10484000221F331F8A95D2F7C901B8011F910F911A
:104850000C9404240F931F9341E050E060E070E05B
:1048600004C0440F551F661F771F8A95D2F78091A9
:10487000F1029091F202A091F302B091F4028A0148
:104880009B01082B192B2A2B3B2BC901B8011F9127
:104890000F910C9404240F931F9341E050E060E0CB
:1048A00070E004C0440F551F661F771F8A95D2F72A
:1048B000CB01BA0160957095809590950091F102B9
:1048C0001091F2022091F3023091F40260237123DF
:1048D000822393231F910F910C9404240F931F9311
:1048E00041E050E060E070E004C0440F551F661FD7
:1048F000771F8A95D2F78091F1029091F202A091F0
:10490000F302B091F4028A019B01082719272A2794
:104910003B27C901B8011F910F910C9404240F93F8
:104920001F930091F1021091F2022091F302309155
:10493000F402602B712B822B932B1F910F910C94FF
:1049400004240F931F930091F1021091F202209121
:10495000F3023091F40260237123822393231F9189
:104960000F910C9404240F931F930091F102109166
:10497000F2022091F3023091F4026027712782271E
:1049800093271F910F910C940424089527E0929F80
:10499000800D1124982F977041E001C0440F9A9523
:1049A000EAF786958695869595E0899FF001112412
:1049B000EC53FD4F90E080E070E05191DF011197E2
:1049C0009B01082E02C0369527950A94E2F72170C4
:1049D00021952527242325272C93019685309105A1
:1049E00061F7089527E0929F800D1124982F97700A
:1049F00086958695869525E0829FF0011124EC53DB
:104A0000FD4F50E040E080E0219130E0092E02C0EF
:104A1000369527950A94E2F721703327042E01C0BA
:104A2000220F0A94EAF7822B4F5F5F4F4530510502
:104A300059F70895BF92CF92DF92EF92FF920F93B2
:104A40001F93CF93DF938C01C090F102D090F202BC
:104A5000E090F302F090F4028091F5029091F6025A
:104A6000A091F702B091F802C82AD92AEA2AFB2AB3
:104A7000CFE1D0E0BC2ED701C6010C2E04C0B69504
:104A8000A795979587950A94D2F780FD0EC0219738
:104A900088F7B12C8B2DDF91CF911F910F91FF9053
:104AA000EF90DF90CF90BF900895B8018C2F0E94B7
:104AB000B80B019761F3EECFCF93DF93EC010E9427
:104AC0001A25BE01DF91CF910C94B80B1F93CF93A1
:104AD000DF93EB0190918B02992331F0CB01DF91B1
:104AE000CF911F910C945C25882379F0CB010E9413
:104AF0001A25182F682FCE010E94C624BE01812FCF
:104B0000DF91CF911F910C94B80BCB010E94F2243E
:104B1000182FF4CF682F80912701909128010C94D1
:104B20004F27682F80912701909128010C945127DD
:104B300080912701909128010C9453278091F902CC
:104B400085958595859508958091F90287700895DA
:104B50009091F902977081E009F480E008958091C6
:104B60000503089590910503892B8093050308950B
:104B700080959091050398239093050308951092D2
:104B80000503089590910403892B809304030895ED
:104B900080959091040398239093040308951092B4
:104BA0000403089590910303892B809303030895D0
:104BB0008095909103039823909303030895109296
:104BC000030308958091FA02089508950C94E52551
:104BD0009091FA02981721F08093FA020C94E6253E
:104BE00008958091FA02882329F01092FA0280E059
:104BF0000C94E6250895E0912701F0912801809119
:104C000005038083E0912701F09128018081909134
:104C10000403892B8083E0912701F0912801808192
:104C200090910303892B80839091FA02992381F05C
:104C3000E0912701F09128018081892B8083809168
:104C40002701909128010E94072781110E94F125D8
:104C500080912701909128010C94BA1B08950C941F
:104C60002E2698E0899F90011124622B6093F9020F
:104C70000E942A248091F9028595859585950C944A
:104C80002F261092F90280E00C942F269091F902C1
:104C9000809589238093F902282F277071F4282F9B
:104CA000082E000C330B9217130639F08595859565
:104CB00085950E944B240C944126089590E080E055
:104CC0000E94B02F21E08C3E9E4F09F020E0822F01
:104CD000089582E090E00C94A22F83E090E00C9481
:104CE000A22F682F83E090E00C94B62FCF9384E03E
:104CF00090E00E94A22FC82F81E290E00E94A22F94
:104D0000982F8C2FCF910895CF93C92F682F84E0CF
:104D100090E00E94B62F6C2F81E290E0CF910C942E
:104D2000B62FAB01BC018FE090E00C94C82FAB0113
:104D3000BC0183E190E00C94C82F60E070E0CB01EF
:104D40000C94972660E070E0CB010E9491260C94B1
:104D50009D266CEE7EEF90E080E00E94D42F60E014
:104D600082E090E00E94B62F60E083E090E00E9435
:104D7000B62F1092F5021092F6021092F7021092DE
:104D8000F80260E084E090E00E94B62F60E081E2EB
:104D900090E00E94B62F60E085E090E00E94B62F80
:104DA00060E086E090E00E94B62F6FEF87E090E031
:104DB0000E94B62F40E050E0BA0188E090E00E94E7
:104DC000C82F60E08DE090E00E94B62F40E050E0F8
:104DD000BA0188E190E00E94C82F60E087E190E08E
:104DE0000E94B62F40E050E0BA018CE190E00E94B2
:104DF000C82F60E080E290E00E94B62F0C94A226BB
:104E00000C94A926682F8EE090E00C94B62F9C019C
:104E10002E5F3F4FAC01485F5F4F80E0241735079E
:104E200009F40895F90191919F019923B9F38F5FD6
:104E3000F5CF662349F0FC0132960896219126179A
:104E400029F0E817F907D1F780E0089581E0089587
:104E50009C01FC0132969FEF80E04191461751F092
:104E60009F3F19F4411101C0982F8F5F8630A9F739
:104E70009F3F09F40895290F311D97FD3A95F901D7
:104E800062830895FC01329608962191261303C08F
:104E9000DF0111971C92E817F907B9F708950C94F0
:104EA00028270C944227029626E0FC0111922A95AD
:104EB000E9F70895089508950C945B270E945C27F4
:104EC00080918003843049F11092070388E190E0DB
:104ED00020E40FB6F894A895809360000FBE20934D
:104EE000600080E00E943F0B0E945C2783B7817FB7
:104EF000846083BF83B7816083BF7894889583B7CC
:104F00008E7F83BF0FB6F894A8958091600088616A
:104F100080936000109260000FBE08950895CF93B3
:104F20000E945A270E94310E0E948E27C0E08C2FCB
:104F30000E94A20D811105C0CF5FCA30C1F7CF9189
:104F4000089581E0FCCF08950C94A3270E9430209F
:104F50000E94AE1B0E943F0B0C94A4271F921FB609
:104F60001F9211248F939F93AF93BF938091070358
:104F7000811113C08091760390917703A0917803FB
:104F8000B09179034196A11DB11D80937603909352
:104F90007703A0937803B0937903BF91AF919F916A
:104FA0008F911F901FBE1F90189582E084BD93E0E3
:104FB00095BD9AEF97BD80936E0008952FB7F89432
:104FC0008091760390917703A0917803B091790353
:104FD0002FBF08959C014FB7F8948091760390916C
:104FE0007703A0917803B09179034FBF821B930B95
:104FF000089578941F921FB61F9211248F939F9348
:10500000AF93BF938091760390917703A09178033B
:10501000B09179030196A11DB11D80937603909301
:105020007703A0937803B0937903BF91AF919F91D9
:105030008F911F901FBE1F90189587E797E7909359
:1050400001088093000888E19AE00FB6F894A895CB
:10505000809360000FBE90936000FFCF0E945E2699
:10506000811102C00E9400270E94692680930603D6
:105070000E94762690937B0380937A030E946D268C
:10508000682F70E090E080E00C94C82380911003BA
:1050900008950895CF93DF9300D00F92CDB7DEB778
:1050A00090918003943019F589837B836A8382E031
:1050B0008093E9008FEF9091E800815095FD06C044
:1050C00095ED9A95F1F700008111F5CF8091E800F8
:1050D00085FF0DC050E040E063E070E0CE01019636
:1050E0000E94602A8091E8008E778093E8000F90FC
:1050F0000F900F90DF91CF910895CF93DF93EC0144
:105100000E94432A823011F0843031F4BE0184E0E1
:10511000DF91CF910C944A28DF91CF910895BC0183
:1051200083E00C944A28CF93DF93EC010E94432A3A
:10513000823011F0843039F581E08093E9008FEFFF
:105140009091E800815095FD06C095ED9A95F1F794
:1051500000008111F5CF8091E80085FF14C050E078
:1051600040E068E070E0CE010E94602A8091E80093
:105170008E778093E80088E0FE01A8E0B3E001901C
:105180000D928A95E1F7DF91CF91089580917F0389
:10519000811109C00E94F02B0E944D2C8091E200E9
:1051A00084608093E200089510927F03089508952B
:1051B00008950C94A62742E061EC81E00E946C2BDC
:1051C00042E261EC82E00C946C2B8091820383308C
:1051D00009F45FC030F48130C1F1823009F49BC022
:1051E00008958A3009F487C08B3009F46DC0893086
:1051F00009F04EC080918103813209F049C080914D
:10520000850390918603029708F042C08091E800E0
:10521000877F8093E8008091E80082FF35C09091FD
:10522000F3008091F200029729F48091F1008B7FC6
:10523000813021F48091F100809310038091E80087
:105240008B778093E8000C94A02B80918103813AA6
:10525000F9F48091E800877F8093E80080918503CE
:1052600090918603892B61F468E088E093E070E018
:105270000E94AF2A8091E8008B778093E800089520
:1052800060E090E080E0F3CF809180038111C3CF94
:10529000089580918103813AD9F780918503909197
:1052A0008603892BA9F78091E800877F8093E80027
:1052B0008091E80080FFFCCF809133018093F10062
:1052C0008091E8008E77BDCF80918103813201F714
:1052D0008091850390918603892BD1F68091E80017
:1052E000877F8093E8000E94A02B809183038093A6
:1052F00033010C94302080918103813249F68091F2
:10530000E800877F8093E8000E94A02B80918403AF
:1053100080931103089580918103813A09F0B8CFF9
:105320008091E800877F8093E8008091E80080FF0B
:10533000FCCF80911103C2CF84B7877F84BF0FB6A3
:10534000F894A89580916000886180936000109225
:1053500060000FBE80E890E00FB6F8948093610083
:10536000909361000FBE0E94FF1B0E94F02B0E94D1
:105370004D2C8091E20084608093E20078940E943A
:10538000D62E0E94071C89E291E00E94A91B809101
:105390008003853019F00E94111CF9CF0E945E270E
:1053A00080917E03882399F30E948F27882379F3C5
:1053B0000E944A2AECCF0C94DD29292F3327233071
:1053C000310519F168F42130310509F44AC0223061
:1053D000310509F44BC090E080E030E020E028C0C7
:1053E0002132310579F122323105A9F780E490E0CC
:1053F00025ED3CE061157105D9F082E390E023EAE8
:105400003CE061307105A1F0E6CF9927813091052C
:1054100099F0009741F08230910589F00397D9F611
:10542000EAE2FCE002C0E2E5FCE0849190E09F014A
:10543000FA01318320830895E4E4FCE0F6CFE0E351
:10544000FCE0F3CF89E090E028E63CE061157105CF
:1054500079F389E090E021E83CE06130710541F3A7
:10546000BACF82E190E021E93CE0E2CF8BE390E02B
:1054700026E53CE0DDCF80918003843011F482E0AA
:10548000089581E0089580911203811102C00C9467
:105490003B2A089580E189BD82E189BD09B400FEFF
:1054A000FDCF8091D8008F7D8093D8008091E0005F
:1054B00082608093E0008091E00081FDFCCF089540
:1054C000AF92BF92CF92DF92FF920F931F93CF9331
:1054D000DF936C01EB018A010E94BF2BF82E811132
:1054E00023C00115110539F0F80180819181C81B95
:1054F000D90BC80ED91EB12CA12C2097A9F08091F0
:10550000E80085FD22C08091E8008E778093E80056
:1055100001151105A1F0F80180819181A80EB91E35
:10552000B182A08285E0F82E8F2DDF91CF911F915F
:105530000F91FF90DF90CF90BF90AF9008950E94A1
:10554000BF2B8823D1F2F82EEFCFF60181916F01A6
:105550008093F1002197FFEFAF1ABF0ACECFFC0175
:10556000809187039091880386179707A0F06115B3
:10557000710529F49091E8009E779093E80090E0FF
:105580006115710551F4911108C08091E80082FF06
:1055900034C080E00895BC01F2CF8091800388235D
:1055A000C1F18530C1F18091E80083FD30C0809168
:1055B000E80082FDEACF8091E80080FFE1CF809192
:1055C000F3002091F200382F6115710519F0283091
:1055D000310558F091E02830310509F090E0209134
:1055E000E8002E772093E800CBCF81918093F100E3
:1055F000615071092F5F3F4FE7CF8091800388236F
:1056000041F0853041F08091E80083FFBECF81E01A
:10561000089582E0089583E00895FC018091870356
:105620009091880386179707A0F06115710529F4FA
:105630008091E8008E778093E80090E06115710515
:1056400051F4911108C08091E80082FF35C080E0DC
:105650000895BC01F2CF809180038823C9F1853081
:10566000C9F18091E80083FD31C08091E80082FD9E
:10567000EACF8091E80080FFE1CF8091F300209194
:10568000F200382F6115710519F02830310558F0F6
:1056900091E02830310509F090E08091E8008E77A4
:1056A0008093E800CBCF84918093F10031966150D4
:1056B00071092F5F3F4FE6CF80918003882341F02F
:1056C000853041F08091E80083FFBDCF81E00895EF
:1056D00082E0089583E00895982F973028F08F7026
:1056E0008093E90081E008959093E900242F762FBC
:1056F00050E0981731F07091EC002091ED0050913E
:10570000F00021FD02C09F5FE8CF3091EB003E7FAB
:105710003093EB003091ED003D7F3093ED00309100
:10572000EB0031603093EB007093EC002093ED00C0
:105730005093F0002091EE0027FDE5CF80E0089522
:105740008091810387FF13C08091E80082FF06C02B
:105750008091E8008B778093E80004C080918003FB
:105760008111F2CF0895809180038823D9F380912D
:10577000E80080FFF8CF8091E8008E77ECCF209191
:10578000E4003091E50095E6A9012091EC00822F1C
:10579000817020FF06C08091E80080FF06C080E095
:1057A00008952091E80022FD1AC08091800388238B
:1057B00089F0853089F08091EB0085FD0FC0209144
:1057C000E4003091E50042175307F9F29150E1F6F9
:1057D00084E0089582E0089583E0089581E00895CB
:1057E0000E945E2C0E94662CE0EEF0E080818160D9
:1057F0008083E8EDF0E080818F77808319BCA7ED8E
:10580000B0E08C918E7F8C9380818F7E808310920C
:105810007F0308950F931F93CF93DF930E945E2C15
:105820000E94662CC8EDD0E088818F7788838881BC
:105830008068888388818F7D888319BC109280035B
:1058400010927C0310927E0310927D0300EE10E014
:10585000F80180818B7F808388818160888342E02A
:1058600060E080E00E946C2BE1EEF0E080818E7FB2
:105870008083E2EEF0E080818160808380818860B7
:105880008083F80180818E7F808388818061888316
:10589000DF91CF911F910F910895E8EDF0E08081A5
:1058A0008F7E8083E7EDF0E080818160808384E0FB
:1058B00082BF81E080937F030C940A2CE8EDF0E036
:1058C00080818E7F80831092E20008951092DA002A
:1058D0001092E10008951F920F920FB60F921124BB
:1058E0002F933F934F935F936F937F938F939F93E8
:1058F000AF93BF93EF93FF938091E10082FF0BC0C2
:105900008091E20082FF07C08091E1008B7F80934D
:10591000E1000E94D52E8091DA0080FF19C08091AD
:10592000D80080FF15C08091DA008E7F8093DA0066
:105930008091D90080FF96C080E189BD82E189BD58
:1059400009B400FEFDCF81E0809380030E94C62849
:105950008091E10080FF19C08091E20080FF15C0B6
:105960008091E2008E7F8093E2008091E20080616E
:105970008093E2008091D80080628093D80019BCA7
:1059800085E0809380030E94D8288091E10084FF05
:105990002BC08091E20084FF27C080E189BD82E1B5
:1059A00089BD89B5982F917080FFFBCF8091D80079
:1059B0008F7D8093D8008091E1008F7E8093E100FD
:1059C0008091E2008F7E8093E2008091E20081600E
:1059D0008093E20080917C03882309F449C084E02D
:1059E000809380030E94D9288091E10083FF29C021
:1059F0008091E20083FF25C08091E100877F809342
:105A0000E10082E08093800310927C038091E100AA
:105A10008E7F8093E1008091E2008E7F8093E20090
:105A20008091E20080618093E20042E060E080E0EB
:105A30000E946C2B8091F00088608093F0000E949F
:105A4000D728FF91EF91BF91AF919F918F917F9157
:105A50006F915F914F913F912F910F900FBE0F90DB
:105A60001F90189519BC109280030E94D42870CF03
:105A70008091E30087FD93E090938003B3CF1F9262
:105A80000F920FB60F9211242F933F934F935F9372
:105A90006F937F938F939F93AF93BF93CF93DF9336
:105AA000EF93FF93D091E900DF708091EC00C82F55
:105AB000C17080FDC0E81092E9008091F000877FFE
:105AC0008093F00078940E94832D1092E9008091D9
:105AD000F00088608093F000CD2BCF70C093E90078
:105AE000FF91EF91DF91CF91BF91AF919F918F91F6
:105AF0007F916F915F914F913F912F910F900FBECA
:105B00000F901F9018951F93CF93DF93CDB7DEB7FB
:105B1000AA970FB6F894DEBF0FBECDBF81E893E021
:105B20002091F100FC012193CF01F3E089389F0718
:105B3000B9F70E94E5288091E80083FF1EC180919B
:105B40008103909182039A3008F017C1E92FF0E0A9
:105B5000E057FF4C0C94332F803899F0823809F0CD
:105B60000CC1809185038F70873008F006C1809347
:105B7000E9008091EB0085FB882780F91092E9000D
:105B800006C080917D0390917E0391118260909177
:105B9000E800977F9093E8008093F1001092F10065
:105BA0008091E8008E77E5C0882309F4D3C0823065
:105BB00009F0E3C0809183038111D6C080918503F1
:105BC0008F702FEF280F263008F0D7C08093E900A0
:105BD0002091EB0020FFC8C0933031F48091EB009E
:105BE00080628093EB00C0C09091EB009061909335
:105BF000EB0021E030E001C0220F8A95EAF7209304
:105C0000EA001092EA008091EB008860EACF8111EF
:105C1000B4C0109183031F778091E3008078812BBB
:105C20008093E3008091E800877F8093E8000E94E2
:105C3000A02B8091E80080FFFCCF8091E30080687A
:105C40008093E30082E0111183E08093800395C08C
:105C50008058823008F091C0809183039091840332
:105C60008C3D23E09207A1F583E08A838AE2898351
:105C70004FB7F894DE01139620E03EE051E2E32FA7
:105C8000F0E050935700E49120FF03C0E295EF70DD
:105C90003F5FEF708E2F90E0EA30C0F0C7968D9393
:105CA0009D932F5F243159F74FBF8091E800877F84
:105CB0008093E8006AE270E0CE0101960E94AF2A6C
:105CC0008091E8008B778093E80057C0C096E7CFBB
:105CD0006091850370918603AE014F5F5F4F0E9414
:105CE000DB29BC01892B09F448C09091E800977F1B
:105CF0009093E80089819A810E940D2BE1CF803832
:105D0000E1F58091E800877F8093E80080917C0333
:105D10008093F10045CF811130C090918303923080
:105D200060F58091E800877F8093E80090937C0382
:105D30000E94A02B80917C03882311F084E005C091
:105D40008091E30087FDFACF81E0809380030E9479
:105D5000DB2813C080918303813079F481E0933094
:105D600009F080E080937E031092E9008091E800C2
:105D7000877F8093E8000E94A02B8091E80083FF3A
:105D80000AC08091E800877F8093E8008091EB0053
:105D900080628093EB00AA960FB6F894DEBF0FBE28
:105DA000CDBFDF91CF911F9108950895CF9380913A
:105DB00080038823A1F0C091E900CF709091EC009E
:105DC000892F817090FD80E8C82B1092E9008091A6
:105DD000E80083FD0E94832DCF70C093E900CF912E
:105DE0000895991B79E004C0991F961708F0961B37
:105DF000881F7A95C9F78095089587FB082E062697
:105E000087FD819567FD61950E94F12E0EF49195B5
:105E100007FC81950895AA1BBB1B51E107C0AA1F6F
:105E2000BB1FA617B70710F0A61BB70B881F991F3B
:105E30005A95A9F780959095BC01CD01089597FBDF
:105E4000072E16F4009407D077FD09D00E940B2F7F
:105E500007FC05D03EF4909581959F4F089570956D
:105E600061957F4F0895EE0FFF1F0590F491E02D8F
:105E700009948F929F92AF92BF92CF92DF92EF924E
:105E8000FF92CF93DF93EC01688179818A819B81B6
:105E9000611571058105910521F464E279ED8BE5C9
:105EA00097E02DE133EF41E050E00E94EA2F4901F5
:105EB0005A019B01AC01A7EAB1E40E9409306B01D1
:105EC0007C01ACEEB4EFA50194010E941730DC0117
:105ED000CB018C0D9D1DAE1DBF1DB7FF03C00197EB
:105EE000A109B04888839983AA83BB839F77DF91F8
:105EF000CF91FF90EF90DF90CF90BF90AF909F90A9
:105F00008F9008950E94392F089580E091E00E94BB
:105F1000392F0895B0E0A0E0809300019093010133
:105F2000A0930201B09303010895FC014150504039
:105F300030F001900616D1F73197CF0108958827E8
:105F400099270895F999FECF92BD81BDF89A9927B6
:105F500080B50895A6E1B0E044E050E00C94DC2F59
:105F6000A8E1B0E042E050E00C94DC2F262FF99934
:105F7000FECF92BD81BDF89A019700B4021639F0A8
:105F80001FBA20BD0FB6F894FA9AF99A0FBE089579
:105F90000396272F0E94B72F0E94B62F252F0E940D
:105FA000B72F242F0C94B72F0196272F0E94B72FBD
:105FB0000C94B62FDC01CB01FC01F999FECF06C091
:105FC000F2BDE1BDF89A319600B40D9241505040B7
:105FD000B8F70895052E97FB1EF400940E94013037
:105FE00057FD07D00E941C3007FC03D04EF40C94E0
:105FF000013050954095309521953F4F4F4F5F4F61
:10600000089590958095709561957F4F8F4F9F4F24
:1060100008950E943E30A59F900DB49F900DA49FBF
:10602000800D911D11240895B7FF0C9409300E9432
:106030000930821B930B0895A1E21A2EAA1BBB1BE9
:10604000FD010DC0AA1FBB1FEE1FFF1FA217B30744
:10605000E407F50720F0A21BB30BE40BF50B661F5A
:10606000771F881F991F1A9469F76095709580951E
:1060700090959B01AC01BD01CF010895A29FB00195
:10608000B39FC001A39F700D811D1124911DB29F6C
:10609000700D811D1124911D0895F894FFCFE20623
:1060A000240753078807BA07EC071E08500888081A
:1060B000BA08EC081E094D098209B70968176F175D
:1060C00076177B17801785178A178F1794179917DC
:1060D0009E17A317A717AC17AF17B217B517B817A6
:1060E000BA17BD17081E081E601E601EB21E351EA0
:1060F000351E351ECE1E5A1F691F691FC51F351E4E
:10610000351ECE1F3F203F20482048204A204820EF
:10611000482048203F203F204F20482048204F2043
