:100000000C94CA040C94E91F0C9411050C9411056E
:100010000C9411050C9411050C9411050C94110508
:100020000C9411050C9411050C94F5170C943117D0
:100030000C941E1C0C9411050C9411050C941105C4
:100040000C9411050C9411050C9411050C941105D8
:100050000C9411050C94DD1B0C9411050C941105E6
:100060000C9411050C9411050C9411050C941105B8
:100070000C9411050C9411050C9411050C941105A8
:100080000C9411050C9411050C9411050C94110598
:100090000C9411050C9411050C9411050C94110588
:1000A0000C9411050C9411050C941105F9054605E5
:1000B000460546054605460561052606260626062A
:1000C00026062606030626062606260626062606F3
:1000D00072057B0583058C059405A005A805B1056F
:1000E000B905C205CC05D405260626062606DB057D
:1000F000DD05E505EC05240824085C085C08BE085D
:10010000850A850A850ADC08B809C909C909E81001
:10011000E810FB10FB10F110FB10FB10FB10E810B7
:10012000E810F610FB10FB10F610401567150917C4
:1001300067150917AF15D2150917CD16E0166572A8
:10014000676F646173682F726576312F7965742DDE
:10015000616E6F746865722D646576656C6F70652D
:1001600072204020302E392E35322D31342D673813
:100170003631333235372D64697274792C204275EB
:10018000696C74206F6E3A20323032302D31302D50
:1001900030332D31353A30393A3230003A68656CB7
:1001A00070003A7673706C697400220025003A6E14
:1001B000657777003C3E005B5D007B7D0028290071
:1001C0006027002727002222003A666C61736800CE
:1001D0006D616B65206572676F646173682F72650E
:1001E00076313A7965742D616E6F746865722D642D
:1001F0006576656C6F70657200000000000000009D
:10020000000000000000000000000000007E0F0061
:10021000D4FFFFFFC70000007800000000000000CE
:10022000002A2B2800000000000000000000000051
:100230000000000029000000002C1E342021222490
:10024000342627252E362D3738271E1F202122231E
:100250002425263333362E37381F040506070809B0
:100260000A0B0C0D0E0F1011121314151617181976
:100270001A1B1C1D2F3130232D35040506070809D4
:100280000A0B0C0D0E0F1011121314151617181956
:100290001A1B1C1D2F3130354C29001E001F002059
:1002A00000210022002F00350014001A000800155C
:1002B0000017002D002B0004001600070009000A9B
:1002C000002F0202551D001B000600190005002C1E
:1002D00048E000E300E200E20008552C484C0046EC
:1002E00000270026002500240023003000310013E1
:1002F0000012000C0018001C002E00340033000F08
:10030000000E000D000B0030021255380037003689
:10031000001000110028494F0052005100500018F1
:100320005528492A0029001E001F00200021002214
:10033000002F00350014001A00090013000A002DD8
:10034000002B00040015001600170007002F020202
:10035000551D001B000600190005002C48E000E3B5
:1003600000E200E20008552C484C00460027002619
:10037000002500240023003000310033001C001849
:10038000000F000D002E00340012000C00080011B8
:10039000000B003002125538003700360010000EF6
:1003A0000028494F00520051005000185528492A92
:1003B0000029001E001F002000210022002F003510
:1003C0000034003600370013001C002D002B000401
:1003D000001200080018000C002F02025533001410
:1003E000000D000E001B002C48E000E300E200E2DC
:1003F0000008552C484C0046002700260025002404
:10040000002300300031000F00150006000A00092B
:10041000002E0034001600110017000B00070030FA
:100420000212551D0019001A001000050028494F3E
:1004300000520051005000185528492A0029001E7A
:10044000001F002000210022002F003500140007AB
:100450000015001A0005002D002B00040016000BEB
:100460000017000A002F0202551D001B0010000695
:100470000019002C48E000E300E200E20008552CDF
:10048000484C0046002700260025002400230030A9
:1004900000310033001300180009000D002E003455
:1004A000000C001200080011001C00300212553828
:1004B00000370036000F000E0028494F005200514F
:1004C000005000185528492A0000000000000000D4
:1004D000000000000000000000000000000000001C
:1004E000000000000000000000000000000000000C
:1004F00000000000000000000000000000000000FC
:1005000000000000000000000000000000000000EB
:1006F00000000000000000000044003A003B003C05
:10070000003D003E00005C35021E021F0220022157
:10071000022202010001003A003B003C003D003E85
:1007200000010001003F0040004100420043000181
:10073000000100010001000100010001000100456D
:100740000043004200410040003F00005C310227AE
:100750000226022502240223020100340230022F65
:10076000022E022D020454010046004F0052005197
:1007700000500001000100480001000100010001DB
:10078000000100010045003A003B003C003D003EF6
:1007900000005C35001E001F002000210022000127
:1007A0000001000100010001000100010001000141
:1007B0000001000100010001000100010001000131
:1007C000000100010001000100010044004300425B
:1007D00000410040003F00005C310027002600255A
:1007E00000240023000100340030002F002E002DD3
:1007F000000100010046004D004B004E004A000180
:100800000001004D004B004E004A000100010001B4
:10081000000F5D010001000100010001000100095D
:100820005D01000100010001000100010001003A2A
:10083000003B003C003D003E000100010001000AB9
:100840005D0B5D0C5D0D5D0100010001000100010B
:1008500000010001000100005C0100010001000135
:10086000000100165DDF5C145D135D125D115D100B
:100870005D0100010043004200410040003F0001D3
:10088000000100AB00A900AA00A800A80001000117
:10089000000100010001000100010001003A257380
:1008A0002F2F2F670101500005010980A101850349
:1008B00019012AB700150126B700950175108100AE
:1008C000C0050C0901A101850419012AA002150126
:1008D00026A002950175108100C005010906A1013D
:1008E000050719E029E71500250195087501810222
:1008F0009501750881010507190029FF150026FFDC
:1009000000950675088100050819012905950575EA
:10091000019102950175039101C009023B0002019A
:1009200000A0FA09040000010301010009211101DE
:1009300000012240000705810308000109040100AD
:100940000103000000092111010001223200070506
:1009500082032000011201100100000008EDFE607A
:10096000600001010203010403300000001203458E
:1009700000720067006F00440061007300680000AF
:10098000000C034F006D006B006200640000000467
:100990000309040011241FBECFEFDAE0DEBFCDBF94
:1009A00004B603FE27C080913D0290913E02A091C3
:1009B0003F02B09140028730904BA740B04BD1F43A
:1009C00010923D0210923E0210923F02109240029D
:1009D00014BE84B7877F84BF0FB6F894A895809122
:1009E0006000886180936000109260000FBEE0E0BC
:1009F000F8E3099522E0A6E5B1E001C01D92AD3310
:100A0000B207E1F711E0A0E0B1E0EEEAF1E402C0E4
:100A100005900D92A635B107D9F70E94271A0C94BC
:100A2000D5200C9400004F925F926F927F928F922C
:100A30009F92AF92BF92CF92DF92EF92FF920F936D
:100A40001F93CF93DF938C01DC0113964D915C9142
:100A5000149711966C9111978C910E94AF1E811181
:100A6000B0C521E0F80140815181628173818481A8
:100A70000E942E0EEC01FC01E950FD45E532F10526
:100A800008F0E4C0EA5AFF4F0C94CF20D801129628
:100A90008C91882309F4DAC08C2F8A5061E070E0D1
:100AA0007B0102C0EE0CFF1C8A95E2F76E2D83E0FD
:100AB00090E00E949B20B70180E090E00E94851E9C
:100AC000C5C0F80182818111C1C0109233020E9419
:100AD000F81C65E080ED91E00E94820D65E089ECF4
:100AE00091E08EC0D80112968C91882309F4AEC093
:100AF00086EC91E021C0F8018281882309F4A6C028
:100B000083EC91E019C0D80112968C91882309F4E6
:100B10009DC080EC91E010C0F8018281882309F427
:100B200095C08DEB91E008C0D80112968C91882376
:100B300009F48CC08AEB91E00E942B0E80E556C030
:100B4000F8018281882309F481C087EB91E0F4CF1A
:100B5000D80112968C91882309F478C084EB91E037
:100B6000EBCFF8018281882309F470C08EEA91E00E
:100B70003AC0D80112968C91882309F467C08CEA98
:100B800091E007C0F8018281882309F45FC08AEAF6
:100B900091E00E942B0E5AC0D80112968C918823A6
:100BA00009F454C08DE122C0F8018281882309F440
:100BB0004DC08BE41BC08FE419C0D80112968C91F4
:100BC000882309F443C087E211C0F8018281882399
:100BD000E9F182EA91E007C0D80112968C9188234E
:100BE000A9F18CE991E00E942B0E88E20E9431125B
:100BF0002DC0F8018281882349F165E08EE391E000
:100C00000E94820D23C0D80112968C91882339F05E
:100C10000E94121C909357018093560117C0809137
:100C20005601909157010E94031C813F910528F0C5
:100C300080EE0E94951186E004C080EE0E9495111E
:100C400089E10E94311280EE0E943E11F8018281FA
:100C5000882309F489C190916501992369F18091F4
:100C60006301909164010E94031C8A3F9105D0F5B5
:100C7000CE0190568115F0E29F0720F0905E81151D
:100C8000904108F4DD2780916201853060F4E82FFF
:100C9000F0E0EE0FFF1FE85AFE4FD183C0838F5F55
:100CA0008093620102C0109265010E94121C909311
:100CB00064018093630166C4C7319CE5D907B9F428
:100CC00081E0809365010E94121C909364018093DF
:100CD0006301109262018AE0E8E5F1E0DF011D9214
:100CE0008A95E9F7F8018281882309F469C1C23045
:100CF000BCE5DB0708F422C1C631ECE5DE0738F0BD
:100D00009E012B5F3C452930310508F017C10E9438
:100D10006E1C9093A2018093A101C031FCE5DF0716
:100D200009F4C3C008F041C0C8308CE5D80709F405
:100D30009AC0F0F4C430ACE5DA0709F487C068F46F
:100D4000C230ECE5DE0709F477C0C330DC4509F0BA
:100D5000E5C08091A101826076C0C6302CE5D20743
:100D600009F46EC008F07BC08091A10188606BC05F
:100D7000CC309CE5D90709F485C068F4CA30BCE5DD
:100D8000DB0709F474C008F079C00E943311809128
:100D9000A101806858C0CE30FCE5DF0709F476C0B9
:100DA00008F07FC08091A1018BC0CC3F8CE5D807B3
:100DB00009F44FC018F5C331ACE5DA0709F47DC07A
:100DC00078F4C131ECE5DE0709F473C0C231DC45CB
:100DD00009F0A4C00E9433118091A1018F7733C024
:100DE000C5312CE5D20709F472C008F486C0CB3FA8
:100DF000DC4509F093C08091A2013EC0C115ADE56C
:100E0000DA0709F45FC058F4CE3FECE5DE0709F4D9
:100E100044C008F43FC08091A20182602DC0C2305E
:100E20002DE5D20709F475C008F45DC0C330DD4577
:100E300009F074C060E06EC08091A101816003C0C0
:100E40008091A10180618093A10168C08091A1017E
:100E500011C08091A20182608093A2015FC0809145
:100E6000A1018062F0CF8091A1018064ECCF8091DC
:100E7000A10188608460E7CF8160EECF8091A101FD
:100E80008E7FE1CF8091A1018D7FDDCF8091A10187
:100E9000877FD9CF8091A20118C08091A2018D7F58
:100EA000DBCF8091A1018F7ECECF8091A1018F7D7C
:100EB000CACF8091A1018F7BC6CF8091A101877F8E
:100EC0008B7FC1CF8091A2018D7F8E7FC5CF809116
:100ED000A10182FB222720F991E0922790FB82F961
:100EE00090FB83F9B0CF8091A201982F90959170DB
:100EF0008E7F892B90FB81F9AFCF0E9433118091B7
:100F0000A10187FB222720F991E0922790FB87F926
:100F10009ACF61E08EE090E00E949B206091A10159
:100F2000C091A20184E090E00E949B206C2F81E29E
:100F300090E00E949B200E94331124C3C631FCE53F
:100F4000DF0719F5809133028A7A91E009F490E085
:100F500090936601882311F065E301C069E28CEB90
:100F600091E00E94541C0EC080E0C631DC45D1F4F3
:100F700080916601882309F422C365E38CEB91E03C
:100F80000E94471C0E940A1DFDC2C115ACE5DA078C
:100F900031F0CF3DDC4531F40E947F1CF3C20E944A
:100FA000660EF0C2D801CD91DC91882379F0CE0194
:100FB0000E94541DF82E682FCE010E94CD1D0AC03C
:100FC000C631DC45A9F2F801C081D181CE010E9471
:100FD000A11DF82EBE018F2D0E94E90BD82FC92F1D
:100FE000C82ED8011596FC901597F2945FE0F52273
:100FF0001296EC90E11010923202809130028770CC
:1010000099F0EE2089F08C2F807F803421F080E2EF
:101010008D0F883048F082E00E943B1E80913002A4
:101020008770DD24D3948111D12CBC2EB2944FE073
:10103000B4228B2D90E08C30910508F066C2FC0143
:10104000E558FF4F0C94CF208C2F807FCF708823E2
:1010500011F0C295C07FEE20B9F0CC2309F43BC259
:1010600080E28D0F883010F0C11006C080913302ED
:10107000C82BC093330205C080913202C82BC093A5
:1010800032020E940A1D27C28D2F0E943E11CC23DE
:1010900009F43BC2D05ED83010F0C11004C08C2FD0
:1010A0000E94031D06C0C09580913202C823C093E0
:1010B00032020E940A1D29C28C2F807FCF7080329D
:1010C00011F0C295C07F8D2FCC2029F0B1E0CB1656
:1010D00009F441C04BC0EE2031F1FF2001F1E1E005
:1010E000FE120FC080913602C82BC81709F40DC23A
:1010F0000E94121C9093350280933402C0933602F2
:1011000004C2F2E0FF120BC00E94F81C80912D0275
:10111000C813C0932D028C2F0E941411F6C1809128
:1011200036028C2BF9CFFF2059F066246394F61019
:101130000DC0809133028C2309F4E7C10E944E1D3B
:101140000E94F81C8C2F0E941E11DFC132E0732E0A
:10115000F710F6CFDAC1EE2031F0882483948F1493
:1011600008F4D3C1D8CFF110D0C1ECCFEE2019F0E4
:10117000FF2089F2B0C1F110B5C1E4CF8C2F869564
:101180008695837019F0813061F0BFC1EE2021F0A7
:101190008D2F9C2F937002C080E090E00E94AA0BDC
:1011A000BAC1EE2021F08D2F9C2F937002C080E0F9
:1011B00090E00E94940BAFC18C2F837009F068C03F
:1011C000E110A7C19D2F929596959770990F990F51
:1011D0008D2F8F70882E912CA12CB12C092E04C03C
:1011E000880C991CAA1CBB1C0A94D2F7D4FF12C00D
:1011F0004FE050E060E070E004C0440F551F661FF0
:10120000771F9A95D2F7DB01CA0180959095A0953A
:10121000B09503C080E090E0DC01C695C695C37030
:10122000C23019F1C8F440903702509038026090F3
:10123000390270903A02C13059F088299929AA29B7
:10124000BB29BC01CD0164217521862197210AC0EB
:1012500084289528A628B728BC01CD0168297929BA
:101260008A299B290E94851E54C188299929AA2967
:10127000BB298090370290903802A0903902B0903C
:101280003A02BC01CD01682579258A259B25EACF44
:10129000EE2019F08C2F817001C08695882309F407
:1012A00038C19D2F929596959770990F990F8D2F14
:1012B0008F70882E912CA12CB12C092E04C0880C83
:1012C000991CAA1CBB1C0A94D2F7D4FF12C04FE091
:1012D00050E060E070E004C0440F551F661F771FA8
:1012E0009A95D2F7DB01CA0180959095A095B095AB
:1012F00003C080E090E0DC01C695C695C370C230A3
:10130000D9F068F54090290250902A0260902B0293
:1013100070902C02C13059F088299929AA29BB293B
:10132000BC01CD0164217521862197211EC084282E
:101330009528A628B72813C088299929AA29BB2946
:101340008090290290902A02A0902B02B0902C024B
:10135000BC01CD01682579258A259B2506C0BC01E5
:10136000CD01682979298A299B290E94F81DD1C0BD
:10137000CF70EE2039F08C2F0E94541E8D2F0E94CA
:101380001411C7C08D2F0E941E118C2F0E94161E93
:10139000C0C08D2FB2EFCB1609F443C0BC1538F096
:1013A000E0EFCE1671F0F1EFCF16A1F18FC023EF71
:1013B000622EC614E9F194EF792EC71409F44FC0D8
:1013C00085C0EE2009F1F110A0C0CF7181E090E05E
:1013D000A0E0B0E0AC01BD0104C0440F551F661F82
:1013E000771FCA95D2F78091290290912A02A09185
:1013F0002B02B0912C023A014B01682679268A26ED
:101400009B26C401B30128C0772473947F1408F489
:101410007CC0DBCFEE2039F08C2F8F710E94541EE0
:1014200074C0EE20C9F38C2F8F710E94161E6DC000
:10143000EE2079F0CF7181E090E0A0E0B0E0BC0157
:10144000CD0104C0660F771F881F991FCA95D2F778
:1014500003C060E070E0CB010E94F81D56C0EE2092
:10146000E1F080912D020E94031D8091300287706F
:10147000843039F40E94471D8C2F8F710E94161EF4
:101480009CC0882483948F1408F497C0CF718C2F4C
:101490000E94541E63E08C2F12C090913302809101
:1014A0002D02892B80933302992493949F1450F436
:1014B0000E94471D0E944E1D64E08C2F8F710E9478
:1014C000751E7BC081E00E943B1E77C0EE2039F084
:1014D000FF2009F4A1CF8D2F0E94951116C0FF2087
:1014E00009F4A1CF893341F42FEF87EE93E0215027
:1014F00080409040E1F704C0AFE1BEE41197F1F7FE
:1015000000C000008D2F0E943E1188EF8B0D8430AB
:1015100010F40E94C00BDD20A9F08091300280FD04
:1015200011C0F80112828595859585950E94541EFB
:10153000C8010E9413058091300285958595859597
:101540000E94161E20E0D8014C9111965C911197D3
:1015500012966C91129713967C91139714968C9116
:10156000DF91CF911F910F91FF90EF90DF90CF907F
:10157000BF90AF909F908F907F906F905F904F90B3
:101580000C942E0E809130028770D9F0F801828180
:101590008823B9F082E0DF91CF911F910F91FF90E6
:1015A000EF90DF90CF90BF90AF909F908F907F9003
:1015B0006F905F904F900C943B1ED12CAACF69E2A4
:1015C000DDCCDF91CF911F910F91FF90EF90DF90D5
:1015D000CF90BF90AF909F908F907F906F905F90D3
:1015E0004F9008959091A10192FF0DC0282F28716E
:1015F000283019F4877F846006C0282F2471243096
:1016000011F48B7F886093FF0DC0282F287128313B
:1016100019F4877E846106C0282F2471243111F4C7
:101620008B7E88612091A20120FF0DC0382F387178
:10163000383019F4877F816006C0382F317131301E
:1016400011F48E7F886021FF0DC0282F287128316A
:1016500019F4877E816106C0282F2171213111F490
:101660008E7E886194FD877E08959C013A952115B0
:101670003F4138F5DC01AA27B270AC014427547011
:101680009C012227387094FF0FC090FF02C080E1B8
:1016900001C080E0AB2B09F08062452B09F080642B
:1016A000232B69F080680BC0892F8170AB2B09F068
:1016B0008260452B09F08460232B09F08860FB01D0
:1016C000099408950F931F93CF93DF93EC018C013E
:1016D000005E11090830110510F0892B19F464E13E
:1016E00071E102C06AE071E1CE010E94350B8C2FDE
:1016F0000E9495118FE19EE40197F1F700C0000070
:101700008C2F0E943E110830110510F0209719F41B
:101710006EE171E102C06FEF70E1CE01DF91CF9118
:101720001F910F910C94350B20916E0130916F0138
:101730002817390771F090936F0180936E01E09143
:10174000A301F091A401309721F00084F185E02DF0
:101750000994089520916C0130916D012817390783
:1017600071F090936D0180936C01E091A301F09171
:10177000A401309721F00680F781E02D09940895A7
:10178000E091A301F091A401309721F00190F08144
:10179000E02D099480E0089580916B01811112C0C1
:1017A0008091D80080618093D8008AE18A95F1F712
:1017B00000C08091D90080FD02C082E001C081E0BC
:1017C00080936B0181E090916B01913009F080E092
:1017D0000895CF93DF9326E4829FC0011124FC017A
:1017E00047E0749FE00DF11D1124E60FF11DEE0F8F
:1017F000FF1FE756FD4FC591D491CE01C238D105E8
:1018000069F1B0F4C133D10509F475C048F4C932A7
:10181000D10509F469C0CA32D10509F473C085C085
:10182000C533D10509F459C0C933D105B9F07DC01C
:10183000C33ED10571F138F4C03ED105B1F0C23ECE
:10184000D10511F172C0C63ED105B9F1C73ED1052F
:10185000C9F1C43ED10509F068C024C02091A1019E
:1018600020FD5DC021FD5BC060C02091A10120FD75
:1018700050C02091A20120FF42C18091A10184FDAE
:101880003CC183EE90E03BC12091A10122FF37C112
:10189000F4CF8091A10182FD3FC08091A20180FD23
:1018A0003EC0EBCF2091A20121FF29C18091A1016F
:1018B00084FD23C187EE90E022C12091A10123FF86
:1018C0001EC1F4CF8091A10183FD2CC08091A201A3
:1018D00081FFECCF84EE90E012C12091A10125FFA1
:1018E0000EC189E290E00BC12091A10125FF07C143
:1018F00085E390E004C12091A10126FF00C18AE2A6
:1019000090E0FDC02091A10126FFF9C081E390E0A5
:10191000F6C089E390E0F3C082EE90E0F0C080EE84
:1019200090E0EDC086EE90E0EAC0C11552E5D50723
:1019300008F06BC0C11521E5D20728F09C2F88273D
:10194000816F906ADCC0C83ED10570F5C03ED105FC
:1019500008F0D5C0C83AD105B8F4C53AD10550F061
:101960008C2F855AC82FD0E0CC5EDE4F888190E066
:101970009064C5C0C130D10509F4C1C008F4BDC030
:10198000249708F4BAC0BBC0CF3BD10508F0B5C05E
:101990008C2F885AC82FD0E0CC0FDD1FC95EDE4FD8
:1019A000888199819464ABC0C11540E5D407F0F0FB
:1019B000CE01F4E096958795FA95E1F7282F2370EC
:1019C0003C2F337081E090E002C0880F991F3A9558
:1019D000E2F79C68922B2C2F2F702695269550E2CB
:1019E000259F90011124822B932B89C0C11550E4AF
:1019F000D50720F0CE019F70906A81C09E013A9574
:101A000021153F4108F47BC078C0C11556E5D507C4
:101A100008F03FC0C11585E5D80748F08C2F0E941B
:101A2000F20A8F7190E0982F8827906268C0C115E4
:101A300024E5D20728F09C2F8827846F906A5FC026
:101A40009E01237033279C2F96959695C115D345FB
:101A500080F441E050E002C0440F551F2A95E2F7A0
:101A600080E2989F90011124CA01822B932B9C68DD
:101A700046C041E050E002C0440F551F2A95E2F7EE
:101A800080E2989F90011124CA01822B932B9A68BF
:101A900036C0C1155AE5D507B0F4C11589E5D80798
:101AA00018F18C2F8F700E94F20A9E0194E03695F7
:101AB00027959A95E1F72F7030E0322F2227306971
:101AC000A901482B0FC0CE01905681159042A8F471
:101AD0008D2F8F710E94F20A9E01332730628F7121
:101AE000A901582BCA010BC0C11528E5D20728F05F
:101AF0009C2F8827806F906A02C080E090E0DF9181
:101B0000CF910895BF92CF92DF92EF92FF920F9301
:101B10001F93CF93DF93EC01C62E8AE0B82EFE010F
:101B20008491882309F48DC0813009F03DC031963D
:101B30008491813031F42296FE0184910E94311209
:101B400073C0823031F42296FE0184910E94951177
:101B50006BC0833021F42296FE01849161C08430F1
:101B600009F061C02296FE01249180E090E030E00F
:101B7000205331092A30310560F4B89EA001B99E86
:101B8000500D1124C901840F951F2196FE01249147
:101B9000EECF009709F448C0EFE9FFE03197F1F785
:101BA00000C000000197F5CFE82FF0E0E75EFD4FA1
:101BB000D490082F06950695069510E0F801E75F8A
:101BC000FD4FE4908770F12C082E02C0F594E79445
:101BD0000A94E2F7F1E0EF22FF24F801E750FE4F0C
:101BE000049110E002C0159507958A95E2F70170FF
:101BF0001127E114F10419F081EE0E9495110115ED
:101C0000110519F086EE0E9495118D2D0E9431125A
:101C1000012B19F086EE0E943E11EF2829F081EE8B
:101C20000E943E1101C0EF0121968C2D882309F4FA
:101C300076CFEFE9FFE03197F1F700C00000815067
:101C4000F5CFDF91CF911F910F91FF90EF90DF9033
:101C5000CF90BF90089560E00C94820D1F93CF93B6
:101C6000DF9300D000D01F92CDB7DEB749835A83EF
:101C700089819A81662359F0222349F00E94541DDC
:101C8000182F682F89819A810E94CD1D03C00E9460
:101C9000A11D182F8A8196E4199FF001112497E065
:101CA000899FE00DF11D11248981E80FF11DEE0FD0
:101CB000FF1FE756FD4F859194910F900F900F9065
:101CC0000F900F90DF91CF911F9108950E943311D3
:101CD0002FEF84E39CE0215080409040E1F700C06A
:101CE000000087E797E790930108809300089AE047
:101CF00088E10FB6F894A895809360000FBE90938A
:101D00006000FFCF6F927F928F929F92AF92BF92AF
:101D1000CF92DF92EF92FF920F931F93CF93DF93B7
:101D200065E471E005E911E02AE9E22E21E0F22EF6
:101D30003801C0E0AA24A394B12CDB018D91BD0130
:101D4000E82FE295EF70F0E021A18F70A50102C0AD
:101D5000440F551F8A95E2F7CA01242B21A322A123
:101D6000942E9094292122A350EA5A95F1F79FE4EA
:101D7000C92E91E0D92E20E030E0D0E0D6018D9040
:101D80006D01482D42954F7050E0DA0190964C91CC
:101D900050E0B82DBF7002C055954795BA95E2F74F
:101DA00040FD07C04A2D022E01C0440F0A94EAF7F5
:101DB00001C040E0D42B2F5F3F4F27303105F1F6B3
:101DC00091A1992291A292A1892B82A3F3018081F2
:101DD000D81719F0D08381E001C080E0C82BFFEF55
:101DE0006F1A7F0AE614F70409F0A7CFD090A0017C
:101DF000CC2349F081E0809369010E94121C9093EA
:101E0000680180936701809169018823A9F080911E
:101E10006701909168010E94031C069768F0ED2D00
:101E2000F0E0EA55FE4FD8018D918D018193EA16BD
:101E3000FB06C9F7109269010E94CC0B8823B9F008
:101E400010919F010E943A20892B09F0C8C0E12F10
:101E5000F0E0EA55FE4F80E090E0DC01A957BE4F6C
:101E60002C912193019685309105B9F711C0E0912D
:101E7000A001F0E0EA55FE4F80E090E02191DC0106
:101E8000A957BE4F2C93019685309105B9F7BCC078
:101E900010926A0180916501882309F4B5C0809190
:101EA0006301909164010E94031C8B3F910508F42B
:101EB000ABC01092650180915801909159014997EA
:101EC00001F580915A0190915B014D97D1F4809179
:101ED0005C0190915D01892BA1F480915E0190914C
:101EE0005F01892B71F48091600190916101892BD0
:101EF00041F48AE191E00E94620B81E392E00E944A
:101F0000620B8091580190915901499711F5809188
:101F10005A0190915B014597E1F480915C019091A9
:101F20005D01892BB1F480915E0190915F01892B55
:101F300081F48091600190916101892B51F48DE9C8
:101F400098E00E942B0E80E50E94311280E50E94ED
:101F500031128091580190915901499701F5809172
:101F60005A0190915B014797D1F480915C01909167
:101F70005D01892BA1F480915E0190915F01892B15
:101F800071F48091600190916101892B41F48AE1A3
:101F900091E00E94620B87E192E00E94620B8091C7
:101FA0005801909159018A9779F580915A01909141
:101FB0005B018A9749F580915C0190915D018A9758
:101FC00019F580915E0190915F01892BE9F4809170
:101FD000600190916101892BB9F40E94660E809195
:101FE0006A018F5F80936A01863008F453CFE091D5
:101FF0009F01F0E0EA55FE4F80E090E011920196DB
:1020000085309105D9F746CF8C2FDF91CF911F9165
:102010000F91FF90EF90DF90CF90BF90AF909F9087
:102020008F907F906F900895EF92FF920F931F9380
:10203000CF93DF93CDB7DEB767970FB6F894DEBFC7
:102040000FBECDBF4B8B5C8B6D8B7E8B8F8BDE0180
:102050001D9686E0FD0111928A95E9F785E0FE0163
:10206000739601900D928A95E1F70E94121C2091BF
:102070002E0230912F02821B930B803D974040F03F
:102080008091300282FB992790F981E0892701C075
:1020900080E080FF03C082E00E943B1E0E94121C71
:1020A0002091340230913502821B930B803D974082
:1020B00010F00E94F81C86E0FE013D96DE011796A6
:1020C00001900D928A95E1F7CE0107960E94491280
:1020D000811146C086E0FE013796DE01119601901F
:1020E0000D928A95E1F7EF80F8840A851B85A80197
:1020F0006F2D8E2D0E94AF1E811132C02091CA011A
:1021000030E0C9010196877099274091FB0150E0AA
:1021100084179507B9F0E982FA821D830C8396E053
:10212000929FD001939FB00D1124A553BE4FFE0185
:10213000319601900D929A95E1F78093CA010E9421
:10214000BE1E0EC00E9433111092CA011092FB01F4
:10215000E4ECF1E086E0DF011D928A95E9F719C011
:1021600016E08091FB019091CA01891791F0189FA8
:10217000C001112485539E4F0E944912882349F0C3
:102180008091FB0190E00196877099278093FB0175
:10219000E8CF67960FB6F894DEBF0FBECDBFDF91D4
:1021A000CF911F910F91FF90EF9008950E94961D7F
:1021B000292F2F70E92FE295EF704E2F50E0FA0192
:1021C0003297EE30F105B8F4E957FF4F0C94CF2069
:1021D000803F99F018F4883E70F40FC0843F59F4A2
:1021E0000CC0883E50F0813F31F407C0822F8695A5
:1021F00086958695089580E0089581E00895882366
:1022000041F08095909132028923809332020C94A0
:102210000A1D0895882339F090913202892B80930A
:1022200032020C940A1D0895882339F090913302EC
:10223000892B809333020C940A1D0895882321F082
:102240000E94031D0C940A1D0895109232021092F0
:1022500031020E940A1D80E090E00E94AA0B80E0FB
:1022600090E00C94940B1092330286E0EEEBF1E0D8
:10227000DF011D928A95E9F70C942511882309F452
:1022800053C0682F823869F40E94C00B81FF4CC094
:1022900069E38CEB91E00E94541C0E940A1D69E3E3
:1022A0000EC0833891F40E94C00B80FF3DC063E5EF
:1022B0008CEB91E00E94541C0E940A1D63E58CEB9C
:1022C00091E00E94471C0C940A1D843869F40E9416
:1022D000C00B82FF29C067E48CEB91E00E94541C84
:1022E0000E940A1D67E4EBCF8CEF860F813A38F32A
:1022F00080E2860F883048F4677081E001C0880F63
:102300006A95EAF70E94031DDECF8BE5860F8330C6
:1023100020F480E090E00C94AA0B685A673120F416
:1023200080E090E00C94940B0895CF93882309F4F7
:1023300096C0C82F8238B1F40E94C00B81FD8FC0B7
:1023400069E38CEB91E00E94541C0E940A1D2FEF60
:1023500081EE94E0215080409040E1F700C0000001
:1023600069E317C08338E1F40E94C00B80FD77C099
:1023700063E58CEB91E00E94541C0E940A1D2FEF34
:1023800081EE94E0215080409040E1F700C00000D1
:1023900063E58CEB91E00E94471CCF910C940A1DE1
:1023A0008438B1F40E94C00B82FD59C067E48CEB05
:1023B00091E00E94541C0E940A1D2FEF81EE94E0D0
:1023C000215080409040E1F700C0000067E4E1CF79
:1023D0008CEF8C0F813A80F4EEEBF1E084EC91E02D
:1023E0002191C217A1F18E179F07D1F76C2F8CEBAB
:1023F00091E00E94541CD1CF80E28C0F883068F4A9
:10240000C77081E090E001C0880FCA95EAF790910B
:102410003302892B80933302C0CFEBE5EC0FE3301E
:1024200040F4F0E0EC5EFE4F808190E0CF910C94A0
:10243000AA0BC85AC73198F4EC2FF0E0EE0FFF1F3B
:10244000E95EFE4F80819181CF910C94940B6C2FAB
:102450008CEB91E00E94471C0E940A1DC7CFCF91D0
:102460000895CF93C82F0E949511C93341F42FEFDF
:1024700087EE93E0215080409040E1F704C08FE167
:102480009EE40197F1F700C000008C2FCF910C94CF
:102490003E115F926F927F928F929F92AF92BF9206
:1024A000CF92DF92EF92FF920F931F93CF93DF9320
:1024B000CDB7DEB761970FB6F894DEBF0FBECDBFC4
:1024C0008C0185E0F801DE011D9601900D928A9540
:1024D000E1F7F8017080E180628084ECA82E81E051
:1024E000B82E8090C7019090C801A4016091C501E9
:1024F0008091C4010E94AF1E81117EC1F801C3808A
:10250000D480F090C601C601881999094C0120E0D9
:102510004091C4015091C501FF2009F40FC16F2DF6
:102520007091C7018091C8010E942E0E5090C90180
:1025300090EF8916910408F0CFC04091C7015091E7
:10254000C801B090C401A090C501852D807F6A2D7F
:1025500009F06DC08B2D0E94AF1E811115C0AE1009
:1025600013C0B71011C0F62C61100EC0852D8F70EE
:1025700080618093C90184EC91E00E9413058091F1
:10258000C901F801858355C120E04091C4015091F3
:10259000C5016091C6017091C7018091C8010E9478
:1025A0002E0EA6016E2D872D0E94AF1E811103C035
:1025B00081E0862502C080E090E0F82FF170DF2EE8
:1025C00080FF2BC0462D6E2D872D0E948F1EF82E6A
:1025D000811123C07D86EE868D859E850E94961D85
:1025E000292F22952F70223018F0243088F405C04E
:1025F0009F7051F0811108C01CC19F7029F0F80133
:102600009581907F09F415C1805E883008F411C16E
:10261000C8010E941305FD2C0CC1F62C662009F49C
:1026200008C18091C90181608093C90161C08B2D6F
:102630000E94AF1E811109C0AE1007C0B71005C0BF
:10264000611003C0F8015582B4C07D86EE868D8589
:102650009E850E94D6108823C9F16620B9F1209189
:10266000C901822F82958F7090E0029774F080915B
:10267000C4019091C50198878F831986DB86CA862D
:102680002C87CE0107960E94130586E0F801A4EC82
:10269000B1E001900D928A95E1F70E94C81E19C021
:1026A0009090C4018090C5014091C7015091C8012C
:1026B000682D892D0E94AF1E8823E1F07D86EE866D
:1026C0008D859E850E94D610811120C0C8010E9470
:1026D0001305FF24F394ADC0852D807F09F784ECAA
:1026E00091E00E94130586E0F50111928A95E9F7C1
:1026F000F12C9FC08E10E2CF9710E0CF6110DECF9B
:10270000F8015582C8010E94130570C06620F1F2DD
:102710002091C901822F82958F7090E002970CF46E
:10272000B4CF8091C4019091C5019A8389831B82A3
:10273000DD82CC822E83CE010196A5CF60E0709120
:10274000C7018091C8010E942E0EF0EF8F169104F0
:1027500008F04CC0F62C662009F4B8CFD090C40124
:10276000C090C5014091C7015091C8016C2D8D2DBD
:102770000E94AF1E811129C0CE1027C0D71025C0DE
:102780009091C90190FD18C0892F82958F70282FD4
:1027900030E02115310581F0F80195832F303105A6
:1027A00041F08F5F982F9295907F85818F70892B54
:1027B0008583C8010E94130586E0F801A4ECB1E00E
:1027C00001900D928A95E1F734C07D86EE868D8565
:1027D0009E850E94D610811158CF8091C9018160D9
:1027E0008093C901C8010E94130523C086E0F5014A
:1027F00011928A95E9F71DC0662009F467CF7D869E
:10280000EE868D859E850E94D610F82E882309F4C9
:102810005DCF86E0F801A4ECB1E001900D928A95BD
:10282000E1F78091C4019091C5010E94961D0E941C
:10283000C81E8F2D61960FB6F894DEBF0FBECDBFB8
:10284000DF91CF911F910F91FF90EF90DF90CF908C
:10285000BF90AF909F908F907F906F905F90089502
:10286000EF92FF920F931F93CF93DF937C018B0125
:102870000E944219811119C0E70101151105A1F04B
:102880008091E80085FD0AC08091E8008E778093F2
:10289000E8000E944219882381F307C08991809340
:1028A000F10001501109E9CF80E0DF91CF911F9134
:1028B0000F91FF90EF9008951F93CF93DF93CDB7C3
:1028C000DEB7AA970FB6F894DEBF0FBECDBFEFE715
:1028D000F1E08091F100819321E0E738F207C9F738
:1028E00080918001833009F460C030F4813071F050
:1028F000823009F49AC0B1C08A3009F486C08B30A6
:1029000009F46BC0893009F0A8C020C080917F0114
:10291000813A09F0A2C08091E800877F8093E800A7
:102920008091830190918401892B21F468E083E7F1
:1029300091E003C060E080E090E070E00E94C9197F
:102940008091E8008B778093E80087C080917F01B9
:10295000813209F082C080918301909184010297B5
:1029600008F07BC08091E800877F8093E800809129
:10297000E80082FD05C080917D018111F8CF6DC016
:102980002091F3008091F20090E0922B029729F4BD
:102990008091F1008B7F813021F48091F100809350
:1029A00072018091E8008B7754C080917F01813A59
:1029B00009F053C08091830190918401892B09F023
:1029C0004CC08091E800877F8093E8008091E80008
:1029D00080FFFCCF8091000137C080917F01813260
:1029E000E1F58091830190918401892BB1F580916B
:1029F000E800877F8093E8000E947519809181012B
:102A0000809300010E94331128C080917F018132A0
:102A100021F58091E800877F8093E8000E94751976
:102A2000809182018093710118C080917F01813A69
:102A3000A1F48091E800877F8093E8008091E8000E
:102A400080FFFCCF809171018093F1008091E800BC
:102A50008E778093E8000E9475198091E80083FFCB
:102A6000D8C180917F0190918001492F50E04A3078
:102A7000510508F0CEC1FA01EB56FF4F0C94CF2060
:102A8000803821F0823809F0C4C108C080917B01F0
:102A900090917C01992389F082600FC0809183011D
:102AA0008F70873008F0B5C18093E9008091EB000A
:102AB00085FB882780F91092E9009091E800977FC4
:102AC0009093E8008093F1001092F10071C1282FDB
:102AD0002D7F09F09EC1882319F0823061F099C1E1
:102AE00080918101813009F094C1933009F080E038
:102AF00080937C012EC08091810181112AC0809138
:102B000083018F702FEF280F263008F082C1809349
:102B1000E9002091EB0020FF1CC0933021F480914C
:102B2000EB00806214C09091EB0090619093EB00F9
:102B300021E030E0A90102C0440F551F8A95E2F759
:102B40004093EA001092EA008091EB008860809345
:102B5000EB001092E9008091E800877F2CC1811181
:102B600058C1109181011F778091E3008078812BFB
:102B70008093E3008091E800877F8093E8000E94C3
:102B800075198091E80080FFFCCF8091E300806898
:102B90008093E300111102C082E001C083E08093C2
:102BA0007D0137C18058823008F033C180918101A6
:102BB000909182018C3D53E0950779F583E08A83FB
:102BC0008AE289834FB7F894DE01139620E03EE055
:102BD00051E2E32FF0E050935700E49120FF03C04F
:102BE000E295EF703F5FEF708E2F90E0EA3010F0CB
:102BF000C79601C0C0968D939D932F5F243149F7EE
:102C00004FBF8091E800877F8093E8006AE270E020
:102C1000CE0101960E94C919BAC04091830150911A
:102C20008401292F332723303105B1F068F4213096
:102C3000310509F4FDC02230310509F0EAC08BE30B
:102C400090E0EAE1F9E050C02132310581F1223211
:102C5000310509F439C0DDC0992781309105B9F0FB
:102C600070F082309105D9F0039709F0D2C0E7E601
:102C7000F9E0E4918E2F90E0E7E6F9E032C0EFE86A
:102C8000F9E0E4918E2F90E0EFE8F9E02AC0E1E866
:102C9000F9E0E4918E2F90E0E1E8F9E022C0EDE662
:102CA000F9E0E4918E2F90E0EDE6F9E01AC04115CD
:102CB000510509F4C2C04130510509F0AAC089E0AC
:102CC00090E0E5E4F9E010C04115510509F4BAC0FF
:102CD0004130510509F09DC082E390E0E8EAF8E058
:102CE00003C0009709F495C02091E800277F209346
:102CF000E80020918501309186018217930708F43E
:102D00009C0140E02115310589F180917D018823E6
:102D100009F43DC08530D9F18091E80083FD37C0CA
:102D20008091E80082FD2FC08091E80080FFEACF0B
:102D30004091F3008091F20090E0942B2115310531
:102D400059F08830910540F444914093F100319658
:102D5000215031090196F2CF41E0089709F040E097
:102D60008091E8008E778093E800CCCF4111CDCFE1
:102D70000AC080917D01882351F0853041F0809117
:102D8000E80083FD04C08091E80082FFF2CF8091CB
:102D9000E8008B778093E8003CC08038D1F58091C3
:102DA000E800877F8093E80080917E018093F100A6
:102DB0008091E8008E778093E8000E94751929C001
:102DC000811127C0809181019091820199270297FA
:102DD00004F58091E800877F8093E80010918101DD
:102DE00010937E010E947519111106C08091E300B5
:102DF00087FD02C081E001C084E080937D0142E054
:102E000061EC81E00E94941942E261EC82E00E9450
:102E100094198091E80083FF1AC08091E800877FB1
:102E20008093E8008091EB0080628093EB000FC0FC
:102E300082E190E0E5E5F9E057CF89E090E0ECE24F
:102E4000F9E052CF80E490E0EAEDF8E04DCFAA96A9
:102E50000FB6F894DEBF0FBECDBFDF91CF911F91AB
:102E600008951F920F920FB60F9211242F933F9344
:102E70004F935F936F937F938F939F93AF93BF9382
:102E8000CF93DF93EF93FF93C091E900CF708091D0
:102E9000EC00D82FD17080FDD0E81092E90080912D
:102EA000F000877F8093F00078940E945C14109269
:102EB000E9008091F00088608093F000CD2BCF7006
:102EC000C093E900FF91EF91DF91CF91BF91AF9156
:102ED0009F918F917F916F915F914F913F912F9132
:102EE0000F900FBE0F901F901895E8EDF0E08081D5
:102EF0008E7F80831092E2001092DA001092E1003F
:102F0000A0EEB0E08C9181608C9380818F7780837C
:102F100019BCA7EDB0E08C918E7F8C9380818F7E61
:102F20008083109270010895CF92DF92EF92FF920A
:102F30000F931F93CF93DF93C8EDD0E088818F7EEE
:102F40008883E7EDF0E080818160808384E082BF48
:102F500081E08093700188818E7F888302EE10E08B
:102F6000F80110821092DA0081EEC82ED12CF60101
:102F7000108288818F7788838881806888838881A0
:102F80008F7D888319BC10927D0110927E01109272
:102F90007C0110927B0190EEE92EF12CF7018081EB
:102FA0008B7F808388818160888342E060E080E05D
:102FB0000E949419F60180818E7F8083F8018081C0
:102FC00081608083808188608083F70180818E7F2B
:102FD0008083888180618883DF91CF911F910F91D9
:102FE000FF90EF90DF90CF9008951F920F920FB651
:102FF0000F9211242F933F934F935F936F937F937F
:103000008F939F93AF93BF93EF93FF938091E100D2
:1030100082FF09C08091E20082FF05C08091E1003B
:103020008B7F8093E1008091DA0080FF2AC080913D
:10303000D80080FF26C08091DA008E7F8093DA006E
:103040008091D90080FF18C080E189BD82E189BDEF
:1030500009B400FEFDCF81E080937D018091700175
:1030600081110FC00E9475170E9494178091E20091
:1030700084608093E20005C019BC10927D0110921B
:1030800070018091E10080FF17C08091E20080FF15
:1030900013C08091E2008E7F8093E2008091E20075
:1030A00080618093E2008091D80080628093D80094
:1030B00019BC85E080937D018091E10084FF32C0DE
:1030C0008091E20084FF2EC080E189BD82E189BD4C
:1030D00009B400FEFDCF8091D8008F7D8093D80089
:1030E0008091E1008F7E8093E1008091E2008F7EED
:1030F0008093E2008091E20081608093E200809101
:103100007E01882311F084E007C08091E30087FDF1
:1031100002C081E001C083E080937D010E943311F1
:103120000E94C00B8091E10083FF27C08091E200E4
:1031300083FF23C08091E100877F8093E10082E0DC
:1031400080937D0110927E018091E1008E7F8093BB
:10315000E1008091E2008E7F8093E2008091E200A6
:1031600080618093E20042E060E080E00E94941978
:103170008091F00088608093F000FF91EF91BF9103
:10318000AF919F918F917F916F915F914F913F91FF
:103190002F910F900FBE0F901F901895089580915A
:1031A00072010895CF93DF9300D01F92CDB7DEB7A1
:1031B00090917D01943019F589837B836A8382E045
:1031C0008093E9008FEF9091E800815095FD06C053
:1031D00095ED9A95F1F700008111F5CF8091E80007
:1031E00085FF0DC040E050E063E070E0CE01019645
:1031F0000E9430148091E8008E778093E8000F9051
:103200000F900F90DF91CF91089520917D01243090
:1032100021F4BC0184E00C94D2180895BC0183E031
:103220000C94D218CF93DF9320917D01243039F58F
:1032300021E02093E9002FEF3091E800215035FD87
:1032400006C035ED3A95F1F700002111F5CF209138
:10325000E80025FF14C0EC0140E050E068E070E0B9
:103260000E9430148091E8008E778093E80088E017
:10327000FE01A3E7B1E001900D928A95E1F7DF919D
:10328000CF9108952091E4003091E50095E64091BA
:10329000EC00842F817040FF23C08091E80080FD06
:1032A0001DC080917D01882399F0853099F080912F
:1032B000EB0085FD11C04091E4005091E50024171A
:1032C000350729F3915011F09A01E1CF84E0089578
:1032D00082E0089583E0089581E0089580E00895F4
:1032E0004091E80042FFDDCF089580917F0187FF84
:1032F00011C08091E80082FD05C080917D0181119F
:10330000F8CF11C08091E8008B770BC080917D01D0
:10331000882349F08091E80080FFF8CF8091E80091
:103320008E778093E8000895982F973068F59093F2
:10333000E900981739F07091EC002091ED00509160
:10334000F00003C0242F762F50E021FD02C09F5FC4
:10335000ECCF3091EB003E7F3093EB003091ED00ED
:103360003D7F3093ED003091EB0031603093EB0006
:103370007093EC002093ED005093F0002091EE004C
:1033800027FDE5CF80E008958F708093E90081E00C
:10339000089520918501309186012617370748F05E
:1033A0006115710539F42091E8002E772093E8002B
:1033B00001C0B901FC0120E06115710579F180912E
:1033C0007D018823F1F18530F1F18091E80083FDE2
:1033D0003CC08091E80082FD2EC08091E80080FF13
:1033E000EBCF2091F3008091F20090E0922B6115D9
:1033F000710551F08830910538F421912093F10046
:10340000615071090196F3CF21E0089709F020E09F
:103410008091E8008E778093E800CECF2111CFCF46
:103420000AC080917D01882361F0853061F0809130
:10343000E80083FD0AC08091E80082FFF2CF80E0BF
:10344000089582E0089583E0089581E00895CF9380
:10345000DF93CDB7DEB72A970FB6F894DEBF0FBE65
:10346000CDBF84B7877F84BF0FB6F894A8958091AD
:103470006000886180936000109260000FBE90E051
:1034800080E80FB6F89480936100909361000FBEBE
:1034900085B7806885BF85B7806885BF0E9475172E
:1034A0000E9494178091E20084608093E2007894F7
:1034B00080917D018823A1F01091E9001F70909107
:1034C000EC00892F817090FD80E8182B1092E900A4
:1034D0008091E80083FD0E945C141F701093E90046
:1034E00082E084BD93E095BD9AEF97BD80936E0016
:1034F0000E94CC0B91E08927809309010E94CC0B9C
:10350000882331F061E070E081E091E00E949B1F30
:103510008091090180910901811102C095E001C0EB
:1035200090E09093A00185E0891B80939F01A5E422
:10353000B1E04AE451E061E070E08D91E82FE2955E
:10354000EF70F0E021A18F708B0102C0000F111FFE
:103550008A95E2F7C801902F9095922391A392A1AA
:10356000892B82A34A175B0741F7AFE4B1E046E538
:1035700051E061E070E08D91E82FE295EF70F0E0AE
:1035800021A18F708B0102C0000F111F8A95E2F7F5
:10359000C801902F9095922391A392A1892B82A389
:1035A0004A175B0741F7E5E9F1E08FE991E0A6EA08
:1035B000B1E011921D928E179F07D9F780E090E03D
:1035C0000E9495208C3E9E4F11F00E947F1C83E14B
:1035D00090E00E948F2060939101709392018093FC
:1035E0009301909394010E94CC0B811106C061E07D
:1035F00070E081E091E00E94A21F80E090E00E94D4
:1036000095208C3E9E4F11F00E947F1C82E090E03E
:103610000E9487208093B1010E946E1C9093A201AA
:103620008093A10183E090E00E948720682F70E0E2
:1036300080E090E00E94851E8AE091E09093A401D2
:103640008093A30144244A9490EBA92E91E0B92ED3
:1036500028E1822E912C30E4232E80917D0185304B
:1036600009F034C080917D01843009F11092A501E8
:103670000FB6F894A895809260000FBE209260006B
:1036800083B7817F846083BF83B7816083BF789471
:10369000889583B78E7F83BF0FB6F894A8958091E5
:1036A0006000886180936000109260000FBE80917E
:1036B0007C01882391F20E94820EE6EAF1E081917A
:1036C000811165C0AE16BF06D1F7C7CF0E94820E2A
:1036D0000E94CC0B811110C04E824F8218860E942E
:1036E000121C8160782F9A8789874E815F81688557
:1036F0008A850E9414103FC002EB11E086EAC82EB2
:1037000081E0D82EE12C712CF60131906F01F80187
:103710005080532439F1612CFF24F3948F2D85219F
:10372000E1F069827A8291E08F2D832109F490E0A3
:103730009B830E94121C8160782F9D838C8349811A
:103740005A816B818D810E941410F80180818F2530
:103750008083E394F3E0FE1570F06394FF0C27E0A0
:103760006212DCCF73940F5F1F4F8AE07812CCCFC8
:10377000EE2009F4B1CF0E94C00B9091B0018917DF
:1037800009F46BCF0E94C00B8093B00166CFE0E1DB
:10379000E9BDF2E1F9BD09B400FEFDCF8091D8008A
:1037A0008F7D8093D8008091E00082608093E0005C
:1037B0008091E00081FDFCCF50CF78941F920F9252
:1037C0000FB60F9211248F939F93AF93BF93809165
:1037D0008D0190918E01A0918F01B0919001019681
:1037E000A11DB11D80938D0190938E01A0938F0137
:1037F000B0939001BF91AF919F918F910F900FBEA9
:103800000F901F9018959C014FB7F89480918D01EF
:1038100090918E01A0918F01B09190014FBF821BBA
:10382000930B08952FB7F89480918D0190918E019C
:10383000A0918F01B09190012FBF08951F920F9218
:103840000FB60F9211248F939F93AF93BF938091E4
:10385000A501811113C080918D0190918E01A091DD
:103860008F01B09190014196A11DB11D80938D01F2
:1038700090938E01A0938F01B0939001BF91AF916F
:103880009F918F910F900FBE0F901F9018959C01E4
:103890002A5F3F4FFC014281461301C0128201960C
:1038A00082179307B9F708959C01FC0132969FEFA8
:1038B00080E04191461789F09F3F19F4411101C002
:1038C000982F8F5F8630A9F79F3F39F0F901E90FF4
:1038D000F11D97FDFA95628308950895CF9384E0D2
:1038E00090E00E948720C82F81E290E00E9487200C
:1038F0002C2F30E0A901582BCA01CF9108956CEE0E
:103900007EEF80E090E00E94B92060E082E090E0ED
:103910000E949B2060E083E090E00E949B20109238
:103920003702109238021092390210923A0260E087
:1039300084E090E00E949B2060E081E290E00E94A1
:103940009B2060E085E090E00E949B2060E086E0A4
:1039500090E00E949B206FEF87E090E00E949B2008
:1039600040E050E0BA0188E090E00E94AD2060E0C5
:103970008DE090E00E949B2040E050E0BA0188E199
:1039800090E00E94AD2060E087E190E00E949B20E3
:1039900040E050E0BA018CE190E00E94AD2060E090
:1039A00080E290E00E949B2040E050E0BA018FE06E
:1039B00090E00E94AD20109291011092920110921D
:1039C00093011092940180E0816080939101409175
:1039D000910150919201609193017091940183E162
:1039E00090E00E94AD2062E08CE090E00C949B207F
:1039F00080913602882331F01092360210923502FF
:103A00001092340208958095909133028923809317
:103A1000330208959091330280913202892B909164
:103A20003102892B8093BC0180913602882311F1E9
:103A30000E94121C2091340230913502821B930B9C
:103A4000803D974010F00E94F81C9091BC0180913D
:103A50003602892B8093BC01EEEBF1E097E080E029
:103A6000915029F021912223D9F38F5FF9CF811151
:103A70000E94F81CE091A301F091A401309731F06D
:103A80000280F381E02D8CEB91E00994089510926F
:103A9000300210922F0210922E02089580912D0272
:103AA000811110922D020895BF92CF92DF92EF9272
:103AB000FF920F931F93CF93DF938C01C090290245
:103AC000D0902A02E0902B02F0902C0280913702D5
:103AD00090913802A0913902B0913A02C82AD92AAD
:103AE000EA2AFB2ACFE1D0E0D701C6010C2E04C0A0
:103AF000B695A795979587950A94D2F780FD04C04F
:103B0000219790F7B12C07C0BC2EB8018C2F0E94D2
:103B1000E90B0197A9F38B2DDF91CF911F910F91A5
:103B2000FF90EF90DF90CF90BF900895CF93DF93F9
:103B3000EC010E94541DBE010E94E90BDF91CF9160
:103B4000089527E0929F800D1124682F6695669551
:103B50006695982F977085E0689FB001112440E02A
:103B600050E080E0FB01E40FF51FE450FE4F2081A0
:103B700030E0092E02C0369527950A94E2F72170AD
:103B80003327042E01C0220F0A94EAF7822B4F5FDD
:103B90005F4F4530510531F7089527E0929F800D22
:103BA0001124E82FE695E695E695877051E001C06F
:103BB000550F8A95EAF785E0E89FF0011124E4505B
:103BC000FE4F20E030E070E04081CB01022E02C0C9
:103BD000969587950A94E2F78170819584278523CD
:103BE000842781932F5F3F4F2530310569F7089572
:103BF0000F931F938B019C010027137022273327FB
:103C0000DC01CB01011513402105310511F494604D
:103C100001C09B7F8093290290932A02A0932B02DC
:103C2000B0932C021F910F910C9425110F931F93A9
:103C300041E050E060E070E004C0440F551F661F93
:103C4000771F8A95D2F74095509560957095809131
:103C5000290290912A02A0912B02B0912C028A0194
:103C60009B01082319232A233B23C901B8011F9173
:103C70000F910C94F81D209130028095822380933F
:103C80003002982F977079F430E0482F082E000CFE
:103C9000550B2417350739F08595859585950E9434
:103CA000161E0C94471D08950F931F9341E050E09A
:103CB00060E070E004C0440F551F661F771F8A95AF
:103CC000D2F78091290290912A02A0912B02B09103
:103CD0002C028A019B01082B192B2A2B3B2BC90193
:103CE000B8011F910F910C94F81D98E0899F9001E5
:103CF0001124262B209330020E94541E0E94121C75
:103D000090932F0280932E02089560933702709350
:103D100038028093390290933A020C942511209135
:103D2000FB019091CA0156E02917A9F030E0529F9B
:103D3000F001539FF00D1124E553FE4F718176136E
:103D400006C07081781303C07281741306C02F5FA0
:103D50003F4F2770E9CF80E0089581E00895452B1B
:103D600041F06F3F41F491E08F3F09F090E0892FDF
:103D700003C081E001C080E0817008958091FB0163
:103D80009091CA01891719F08F5F8770FBCF089552
:103D9000BF92CF92DF92EF92FF920F931F93CF9338
:103DA000DF938091C90182958F7009F05FC0809187
:103DB000C601882309F45AC0C091FB0186E0B82EE1
:103DC0008091CA01C81709F451C0F090C401E09075
:103DD000C501C090C701D090C801A6016E2D8F2DDE
:103DE0000E94AF1ED0E081113EC0BC9E8001BD9EEE
:103DF000100D1124F801E553FE4F51815E1133C0BF
:103E000040814F1130C0828181112DC0E380F48048
:103E1000EC18FD0820E06091C6017091C701809107
:103E2000C8010E942E0E80EFE816F104E0F48091A4
:103E3000C9018F7080618093C901F801E053FE4F82
:103E400080818F708061808384EC91E00E941305F3
:103E5000DF91CF911F910F91FF90EF90DF90CF9066
:103E6000BF900C94BE1E2196C770AACFDF91CF9150
:103E70001F910F91FF90EF90DF90CF90BF9008952A
:103E80008EE1489B02C08150E1F7489BFECF089528
:103E9000589880E28A95F1F7589A0895FC012AE033
:103EA0002A95F1F728E090E080E031E040E14A9582
:103EB000F1F7880F489B02C08160932700C0000083
:103EC00040E14A95F1F7215089F720E12A95F1F771
:103ED00029B100C0000030E13A95F1F72170922736
:103EE0002081920F90830895EF92FF920F931F937A
:103EF000CF93DF931F92CDB7DEB719828C017C017F
:103F0000E60EF11C0E151F0551F00E94401FCE0158
:103F100001960E944E1FF80181938F01F3CF81E03B
:103F20009981911180E00F90DF91CF911F910F91B6
:103F3000FF90EF90089590933C0280933B02509A3B
:103F4000589A089590933C0280933B025098589A57
:103F5000E89AE9E6F0E080818C7F808308956150E3
:103F600091E001C0990F6A95EAF720E031E09923CA
:103F700061F0492F482319F0589A232701C0589817
:103F800040E24A95F1F79695F2CF222311F0589A24
:103F900001C0589880E28A95F1F758980895FF92E9
:103FA0000F931F93CF93DF93EC018C01060F111D2C
:103FB000C017D10741F0F9900E94481F68E08F2D8B
:103FC0000E94AF1FF5CFDF91CF911F910F91FF900E
:103FD00008951F920F920FB60F9211242F933F93C3
:103FE0004F935F936F937F938F939F93AF93BF9301
:103FF000CF93DF93EF93FF935898509AC0913B0271
:10400000D0913C026D81662321F08E819F810E94B8
:10401000CF1F0E94481F80E18A95F1F75898509869
:10402000589A80E18A95F1F76A81662351F08B8175
:104030009C810E94741FE881F981811104C082E093
:1040400003C0E881F98188E080830E94401FFF91CE
:10405000EF91DF91CF91BF91AF919F918F917F9120
:104060006F915F914F913F912F910F900FBE0F90E5
:104070001F901895CF93DF93C0913B02D0913C02E3
:10408000F894509A589885E08A95F1F70000509876
:10409000589A80E28A95F1F7489B0AC0509A589A3C
:1040A000E881F98181E08083789481E090E02CC000
:1040B0006D81662381F08E819F810E94741F811122
:1040C0000AC0509A589AE881F98182E080837894F6
:1040D00082E090E019C00E94401F80E28A95F1F7CB
:1040E0005898509A80E18A95F1F76A81662321F009
:1040F0008B819C810E94CF1F0E94481FE881F9811B
:104100001082789480E090E0DF91CF910895F99942
:10411000FECF92BD81BDF89A992780B50895A6E19A
:10412000B0E044E050E00C94C120A8E1B0E042E0EF
:1041300050E00C94C120262FF999FECF92BD81BD8D
:10414000F89A019700B4021639F01FBA20BD0FB6D5
:10415000F894FA9AF99A0FBE08950396272F0E94B1
:104160009C200E949B20252F0E949C20242F0C9491
:104170009C200196272F0E949C200C949B20DC0100
:10418000CB01FC01F999FECF06C0F2BDE1BDF89A62
:10419000319600B40D9241505040B8F70895EE0F9B
:0E41A000FF1F0590F491E02D0994F894FFCFD5
:1041AE00018C01008C0105870101CF181219CE1860
:1041BE000E190519818283E200E900EA00B500B606
:1041CE0000B700CD008301CC008A01920194012139
:1041DE0002230224022502260227022A02B300B479
:1041EE00006F0070009497C634350000000000F494
:0641FE00F5F6F731333243
:00000001FF
